:020000040000FA
:2000000000500020651500005D1500004515000061150000611500006115000000000000C8
:200020000000000000000000000000006115000061150000000000006115000061150000E8
:20004000A983000061150000FD540100611500005D73000085810000611500006115000074
:20006000611500006955010061150000611500006115000061150000611500006115000087
:200080006115000061150000611500006115000061150000611500006115000061150000B0
:2000A000611500006115000061150000611500006115000061150000611500006115000090
:2000C000611500008D9500002DE9F04FDFF84892AFB0D9F80040002C40F08E80DFF83CA2F3
:2000E0000DF1380B5246D8465B46002707F10B000BF8370052F8041F0137102F596003F173
:200100000803F3D1002317932D932DAE0FAC2568A168284617F07AFF50B1234613F804ED03
:20012000221D92E8030083E8030084F804E0A5600834B442EBD1013FE8D16F4D0DF1170474
:200140005AF8040F17F03EFA69A3D3E9002317F0FFFC01344FF0010300B90346AA45237012
:20016000EED1FF210AA8102218F0F2FB634B198800293DD0624C0023E25C2EA8024402F81D
:200180009B3C01339942F7D1002318461BF833202EAD01332A44994202F8AB0CF6D10020DA
:2001A0000346E25C2EAD2A4412F8AB2C0133002A18BF01209942F4DCD0B10F2918DC9DF84B
:2001C000B0602EABA6F10B055F1917F8903CFF2B19D10F2309E01BF833602EAAA6F10B05E8
:2001E000571917F8902CFF2A0DD1013B9942F2DD00202FB0BDE8F08F06F0D2FF3C348442B7
:200200007FF66CAFF4E706F0CBFF3E4A01231288AB4011469BB203930B4604923A4A02904B
:2002200012880DF1B00B1340059301E0D845DFD0D8F8040017F0C6F92DA3D3E9002317F083
:2002400087FC98F800A02EAB534408F108080028CED113F89B3CFF2BE8D12C4BAAF10B02C7
:2002600053F82230012101FA02F203F5967113B1029B8B42DAD3039B05998B4202D1049B7B
:200280001A42D3D0BAF1FF0F17F8907CB0D0E25D31463B46CDF800A01D4809F0DDF906F045
:2002A0007FFF164B04F807A01E88184B43F82500E6B1002319460120625C01310B3A00FAEA
:2002C00002F21343B1429BB2F6D10F4A13800CF0EDFB104B186006F063FFC9F800000520EC
:2002E0000CF0A0FB01202FB0BDE8F08F3346ECE7666666666666E63F243E0020843E00200A
:20030000743E0020AC3A0020AE3A0020DC0D0020FC8D0100683E0020D80D0020E43D00205E
:20032000294B1B689B0702D44FF000407047F0B5002083B0452106F045FB0DF1060101205E
:20034000022214F0F5F938B901A8022114F01AFA4FF0004003B0F0BD0DF10601002002228A
:2003600014F0E6F90028EFD0BDF806305BBA9CB2200BADF8043017F003F916F0A5FC06466B
:20038000C4F30B000F4617F00BF90DA3D3E9002304460D463046394617F068F902460B4619
:2003A0002046294617F062F917F042FC074917F08FFC17F053FE03B0F0BD00BFAFF3008046
:2003C0007B14AE47E17A843F981400200000C84208B5214B1B68032B1ED1431E012B1BD85C
:2003E0001E4B1B78C3B11E4A1E4B012812881B8815D0184617F0C4F800221B4B17F036F992
:2004000000221A4B17F032F917F012FC184917F05FFC17F023FE08BD4FF0004008BD1046C4
:2004200017F0AEF80022104B17F020F908A3D3E9002317F01BF900220E4B16F063FF17F0E3
:20044000F7FB0B4917F044FC17F008FE08BD00BF0000000000A06440BC140020DC3A002014
:20046000B43A0020B63A00200000F03E000059400000C842000044402DE9F04FDFF85C91F0
:200480004FF0000AC8464E4655464D4B81B01F78AC0008EB040B9BF80330B7EB131F2DD031
:2004A00018F8250017F07CF83FA3D3E9002317F0DDF80022434B16F027FF0022424B16F05E
:2004C00023FF17F095FB08F82500707817F068F835A3D3E9002317F0C9F800223B4B16F0C2
:2004E00013FF394B002216F00FFF17F081FB70709BF8033067F307138BF803309BF8033017
:20050000013503F00F03BB421BD0B07817F048F827A3D3E9002317F0A9F827A3D3E900234F
:2005200016F0F2FE284B002216F0EEFE17F060FBB0709BF803304FF0010A67F303038BF8C9
:200540000330072D06F10406A2D1BAF1000F13D10137FFB21F2F0CD9194A002313701C4899
:200560001C4A4FF41631002301B0BDE8F04F0CF0D9BF134B1F70F2E70023174988F81C302A
:2005800099F8022009F10409934238BF13468945F6D1124888F81C300BF068FC084B1F7878
:2005A000D6E700BFAFF30080CDCCCCCCCCCCEC3F5C8FC2F5285CEF3F52B81E85EB5100402C
:2005C000EE3A0020000032400000E03F000034406424002079040000C83D0020AC3D00207B
:2005E0002DE9F0472C4B00291B680CBFCC250025834201D0BDE8F08728480023C15CDCB2BA
:200600008A4203F1010337D0072BF7D1244B00271C462449E2780978A67861F30302E2700C
:200620001B7F30469E1B16F0BBFF17A3D3E9002317F01CF880462846894616F0B1FF14A30D
:20064000D3E9002317F012F802460B464046494616F05AFE0022144B16F056FE17F0C8FAFA
:20066000B6FA86F6A0707609334639462A46BDE8F0470B480BF0F8BB094B274603EB840443
:20068000C7E700BFAFF300809A9999999999E93F9A9999999999C93F343B0020743E00200C
:2006A000AC3D0020EE3A00200000E03F000000002DE9F041384C2468844201D0BDE8F081C6
:2006C000364E0024355DE0B2AB4204F1010457D0072CF7D1DFF8D0801546314A98F8033085
:2006E000127898F8000062F3071388F803300C4616F056FF24A3D3E9002316F0B7FF0F465A
:20070000C4EBC4110646480000F0FE0016F048FF1FA3D3E9002316F0A9FF02460B46304628
:20072000394616F0F1FD00221E4B16F0EDFD17F05FFA88F8000098F8010016F031FF12A36F
:20074000D3E9002316F092FF0646680000F0FE000F4616F025FF0EA3D3E9002316F086FFE7
:2007600002460B463046394616F0CEFD00220D4B16F0CAFD17F03CFA88F80100BDE8F081FF
:20078000094B03EB8008A7E79A9999999999E93F9A9999999999C93F343B0020743E002042
:2007A000EE3A00200000E03FAC3D0020000000002DE9F04F744985B00B780646002B00F098
:2007C0008A80724B08209B6A03A9984700287AD1A6F10B04E4B26E4D04F1060B05EB8B0AA5
:2007E000DAF8040016F0EEFE2C448046207B894616F0D6FE5AA3D3E9002316F037FF039FFD
:20080000CDE90001C7EBC710400000F0FE0016F0C7FE55A3D3E9002316F028FF02460B4602
:20082000DDE9000116F070FD00225A4B16F06CFD17F0DEF95537207335DA4DA3D3E900236D
:200840004046494616F012FF4BA3D3E9002316F05BFD17F0EDF9CAF8040006F0A1FC1E28B5
:200860001ED947A3D3E900234046494617F084F94FF0010400B9044605EB8B05686816F082
:20088000A1FE3FA3D3E9002317F076F9E4B24FF0010300B90346DBB2A34256D1002C41D0D1
:2008A00005B0BDE8F08F32A3D3E900234046494616F0DCFE0022002316F026FD17F0B8F990
:2008C000CAF80400C9E702463146334808F0C4FE05B0BDE8F08F314A01250D704FF07E54A6
:2008E00002F10D0302F14D00B42102F8011F43F8044F8342F9D12A4A6621117713460C467B
:2009000002F11C00B421C82219705A709C7004338342F9D123484FF47051234A00230CF0E9
:2009200001FE4EE706F090FC204B19880029B7D01F480378B3420FD0234602E0C25CB24232
:200940000AD001338B42F9D1AAE706F07DFCFFF7BBFB05B0BDE8F08FFFF7B6FBA0E700BF80
:200960009A9999999999E93F9A9999999999C93F8FC2F5285C8FEE3F0AD7A3703D0AA73F72
:20098000666666666666E63FEF3A0020C0AF0100CC3D00200000E03FA8B10100D73D00203F
:2009A000AC3D00206424002079040000843E0020743E0020000000002DE9F04F144623F093
:2009C0000047024657EA04000E468FB01D469C46214634D06E4B26F0004A9A459346B14638
:2009E00026DC24D09F4223DC694B9F4200F08F80B9F1000FC0F28F804FF0000879BB644BE9
:200A00009F4200F0A580634B9F4267D0BCF1804F00F0E283604B9C4521D1B9F1000F1EDB19
:200A2000104631460FB0BDE8F04F16F0CDBA62B10AF1404000F5801050EA0B0007D1034640
:200A4000544918460FB0BDE8F08F5745CCDD53480FB0BDE8F04F16F0B5BB4FF00008104622
:200A60003146CDF808C0009216F074FB009ADDF808C0BBF1000F20D04FEAD97909F1FF39CC
:200A800058EA09037AD0464B9F4240F38F8003F104739F4240F31084424B9A4540F3928343
:200AA000BCF1000F40F3928337A1D1E900010B46024616F0DBFD0346C3E7BAF1000F04D0A7
:200AC000344B29F0404E9E45D6D1BCF1000FC0F2B683B9F1000F08DB0346B2E7BCF1000F85
:200AE000C0F2528413463146ABE70AF1404A0AF5801A58EA0A0340F05E8402460B4616F0EE
:200B000001FC0B46024616F0DBFE034699E700293FF46EAF8CE7244B9F422CDCA3F15473F8
:200B20009F427FF769AF40F213403B15834240F34B84C3F58663033321FA03F000FA03F3D5
:200B40008B427FF459AF00F00100C0F1020855E70AF1404303F5801353EA0B0300F0398365
:200B6000104B9A4540F36483BCF1000FC0F22E832346294665E74FF002083FE710463146A2
:200B80003346BCE7AFF300809C7500883CE4377E0000F07F0000F03F0000E03F28B601000D
:200BA0000000E041FFFFEF3FFFFF3F43BAF5801F4FF0000205DACA4B16F058FD8A466FF05B
:200BC00034024FEA2A53C74ECAF3130AA3F2FF334AF07F571344B2450C9347F4401740F3B1
:200BE000D083C14B9A4540F307840026B4460C9BA7F5801701330C933946BC4B4FEACC0C95
:200C00006344D3E900AB52465B46CDF834C0CDE9060116F077FB52465B46CDE90801DDE9E1
:200C2000060116F071FB02460B460020B04916F047FE02460B46DDE90801CDE90A2316F0ED
:200C400015FD02460B46CDE90223CDE904237B1043F0005303F500239919002000230646C4
:200C60000F460293DDE902231046194632463B46CDE9000116F0FAFC02460B46DDE90801D6
:200C800016F040FB5246CDE908015B463046394616F038FB02460B46DDE9060116F032FB54
:200CA00002460B46DDE9000116F0E0FC02460B46DDE9080116F026FBDDE90A2316F0D6FC98
:200CC000DDE90423CDE906011046194616F0CEFC02460B4606460F4616F0C8FC6EA3D3E914
:200CE000002382468B463046394616F0BFFC6CA3D3E9002316F008FB32463B4616F0B6FCDA
:200D000069A3D3E9002316F0FFFA32463B4616F0ADFC67A3D3E9002316F0F6FA32463B4669
:200D200016F0A4FC64A3D3E9002316F0EDFA32463B4616F09BFC62A3D3E9002316F0E4FADC
:200D400002460B465046594616F090FCDDE9042306460F46DDE9000116F0D6FADDE9062319
:200D600016F084FC32463B4616F0CEFADDE9006782468B4632463B463046394616F076FCFA
:200D800000225C4BCDE9080116F0BEFA52465B4616F0BAFA02980F460646DDE900013246A0
:200DA0003B4616F063FC32463B46CDE90001DDE9060116F05BFC0022CDE906014D4B304686
:200DC000394616F09FFADDE9082316F09BFA02460B465046594616F095FADDE9042316F013
:200DE00045FC02460B46DDE9060116F08DFA82468B46DDE9000152465B4616F085FA32A3CC
:200E0000D3E9002302980F46064616F02FFC30A3D3E90023CDE904013046394616F026FCFD
:200E2000DDE90023CDE906013046394616F06AFA02460B465046594616F064FA26A3D3E9F6
:200E4000002316F013FC02460B46DDE9060116F05BFADDF834C0284BCDF818C06344D3E95D
:200E6000002316F051FACDE900010C9816F098FB06460F46DDE90401204BDDF818C09C44A6
:200E8000DDE90023DCE900AB16F03EFA52465B4636E000BFAFF30080EF4E454A287ECA3F10
:200EA00065DBC9934A86CD3F01411DA96074D13F4D268F515555D53FFFAB6FDBB66DDB3F8C
:200EC000033333333333E33F000000E009C7EE3FF5015B14E02F3EBEFD033ADC09C7EE3F8E
:200EE000000040438E98030079B60B00688D01000000F03F00000840588D0100488D0100E3
:200F0000CDE906AB16F000FA32463B4616F0FCF9029832463B4682468B4616F0F3F9DDE992
:200F2000062316F0EFF9DDE9042316F0EBF902460B46DDE9000116F0E5F9CDE9020108F1CD
:200F4000FF3858EA09030CBFD54BD64B0022CDE904230023CDE900450093DDE900672046BD
:200F600032463B46294616F0CDF952465B4616F07DFBDDE90223804689462046294616F02B
:200F800075FB02460B464046494616F0BDF904460D465246304639465B46CDE9024516F0A9
:200FA00065FB06460F4620463B462946324616F0ABF9BD4B824699428946884640F31381A9
:200FC00001F13F4303F5E003034340F0E581A0A3D3E90023DDE9020116F096F932460446A4
:200FE0000D463B465046494616F08CF902460B462046294616F0CAFD002840F0CD814C46FA
:201000002015A0F2FE304FF4801101414144C1F30A50A64CA0F2FF35C1F3130BC0F5826011
:2010200003302C414BF4801B21EA040300224BFA00FB3946304616F065F906460F46DDE902
:2010400002018BEAE87B0BEBD87B32463B464FEA0B5A16F059F980A3D3E9002300242046F1
:201060000D4616F003FB3246804689463B462046294616F047F902460B46DDE9020116F008
:2010800041F977A3D3E9002316F0F0FA76A3D3E9002306460F462046294616F0E7FA024690
:2010A0000B463046394616F02FF906460F4632463B464046494616F027F942464B46044684
:2010C0000D4616F01FF902460B463046394616F019F92246804689462B462046294616F0B0
:2010E000C5FA63A3D3E9002306460F4616F0BEFA61A3D3E9002316F005F932463B4616F007
:20110000B5FA5FA3D3E9002316F0FEF832463B4616F0ACFA5CA3D3E9002316F0F3F8324657
:201120003B4616F0A3FA5AA3D3E9002316F0ECF832463B4616F09AFA02460B4620462946C4
:2011400016F0E0F806460F4632463B462046294616F08CFA0022CDE900014FF08043304665
:20116000394616F0CFF802460B46DDE9000116F0A7FB424606460F464B462046294616F086
:2011800075FA42464B4616F0BFF802460B463046394616F0B7F822462B4616F0B3F80246F5
:2011A0000B4600203F4916F0ADF88A44BAF5801F0246C0F227815346DDE9040116F056FA13
:2011C00003463EE4BCF1000FFFF66EAC0023194637E40B46334934E433461046314616F00B
:2011E00045FA03462DE4324B21F000449C4240F3FA80304B0B4403430CD132463B4616F00D
:2012000081F802460B46DDE9020116F0ABFC00283FF4F6AE20A3D3E90023DDE9040116F0D4
:2012200025FA1DA3D3E9002316F020FA034608E4BCF1000FCADA234605F1004101E402466E
:201240000B460020174916F03BFB42E4AFF30080FE822B654715973C00000000432EE63F64
:20126000EF39FAFE422EE63F396CA80C615C20BED0A4BE726937663EF16BD2C541BDBB3EF3
:201280002CDE25AF6A56113F93BDBE166CC1663F3E5555555555C53F59F3F8C21F6EA50146
:2012A0000000F0BF0000F03FFFFF8F40FFFF0F00FFCB904000346F3F634B9A4582DD634B60
:2012C0009A453FF7EDAB0022604B16F01BF854A3D3E9002306460F4616F0C8F952A3D3E98C
:2012E0000023CDE900013046394616F0BFF93246CDE902013B463046394616F0B7F90022E2
:2013000082468B4630463946514B16F0AFF902460B4647A1D1E9000115F0F4FF32463B46C8
:2013200016F0A4F902460B4600204A4915F0EAFF02460B465046594616F098F93EA3D3E9CE
:20134000002316F093F902460B46DDE9020115F0D9FF06460F46DDE9000132463B4615F033
:20136000D3FFDDE90023002082468B4615F0CAFF02460B463046394615F0C4FFCDE902011C
:20138000DDE50026B44637E4334600202F4916F097FA0346FFF755BB29A3D3E90023DDE9E8
:2013A000040116F063F926A3D3E9002316F05EF90346FFF746BBB8F1010F03467FF441AB20
:2013C00001F10041FFF73DBB00297FF446ABC3F58263033347FA03F000FA03F3BB4217D084
:2013E0008846FFF710BB1B4B9C423FF709AEDDE90023924693462EE64FF480264FF0010C4A
:20140000FFF7FABB5A4600F027F802460B46D3E600F00100C0F10208FFF7F5BAAFF30080AD
:20142000000000604715F73F44DF5DF80BAE543E555555555555D53FFE822B654715F73F43
:201440009C7500883CE4377EFEFFEF3F0000F03F0000D03F0000E03FF8B5C1F30A5604468B
:201460000D460B46174616BB21F00043034332D00022314B16F0FAF8304A044697420D4678
:201480000B4637DB40F2FE72C1F30A56363E3E44964215DD24A1D1E9000122462B4615F015
:2014A00025FF21A3D3E9002316F0E0F8F8BD40F2FF72964224D040F2FE723E449642E9DCA2
:2014C000002E09DD23F0FF4323F4E00343EA065520462946F8BDF8BD16F1350F15DA4CF26A
:2014E00050339F42D6DC12A1D1E9000122462B4615F0FCFE0EA3D3E9002316F0B7F8F8BD96
:2015000002460B4615F000FFF8BD23F0FF4323F4E003363643EA0655204629460022084BEC
:2015200016F0A4F8F8BD00BF9C7500883CE4377E59F3F8C21F6EA50100005043B03CFFFF71
:201540000000903C044B1A68B2F5806F03D01B689B0500D4FEE7704728ED00E0FEE700BF59
:20156000FEE700BF08B511F02BFA104A104B9A420DD2D0430F4918440B4620F00300043015
:20158000084453F8041B834242F8041BF9D10A480A494FF000028842B8BF40F8042BFADB4A
:2015A00003F0AAFFFFF7CEFF08BD00BF00000020940D00208DC30100980D002012470020D8
:2015C0000120704770B50B4A0B4B166855680B4C0A223F205021C3F80260C3F8065018701F
:2015E0005970228006F06AFA054A00232380137070BD00BFE0460020A04200209042002068
:20160000FA3A002070B540F2691604880546B4422ED0B4F5B57F2FD340F275139C4211D07D
:2016200040F28D139C423AD13F4B1B788B423AD03E480BF0BBFE002862D140F28D132B80E9
:20164000012070BD39480BF0B1FE98B1384B1B78002B5BD04FF4F05003F0DAFE00F032FBF1
:2016600032484FF4F0510BF083FE01F081FBE4E7852928D0012070BD8CB92E4B2C4A5B69CC
:201680002046147098472C4806F034FE2B4B2246186885210CF0B2F82E80012070BD00231C
:2016A0002B80032070BD264B9A42C1D1254805F017FF1E200FF062F8234805F011FF282089
:2016C0000BF0B0F9B4E7214805F00AFF1C4B81209B68012198471E4B188810B300231A4609
:2016E0001C4E0124B15C01320B3904FA01F10B4382429BB2F6D11849184A0B801380A5E754
:2017000000F032FB09480BF03DFE96E7074880210BF02EFEFFF756FF40F275132B800120C0
:2017200070BD0346E7E700BF0C470020C80D0020D03A0020D8B1010038040020BC2500202D
:20174000A8AD0100A48D0100C08D0100908D0100843E0020743E0020AC3A0020AE3A0020D3
:201760002DE9F041174D88B02C7814B108B0BDE8F08103466E4659689A680068DB6804AF31
:201780000FC70FC64FF0010868460F4985F800800CF04CFE2146684642460CF00FFD6946B9
:2017A0001E200FF079FA30B104A940220FF01AF8064805F095FE064B1B69984708B0BDE891
:2017C000F08100BFD03A002098420020E48D0100D8B1010008B5002005F06AFF0448002111
:2017E0000CF044F8BDE80840024806F061B900BF500B0020F917000030B5374C85B02378E8
:20180000212B19D03F2B06D0344C354B0FCB84E80F0005B030BD3348617807F01DFF63781A
:201820004D2B29D0522B40D0542B45D02E4D2F4A002313702B80E7E761782D4807F00CFFB3
:201840006278294829490023502A03800B70DBD16A4654F8020F02936168039303C2254851
:2018600007F0FAFE68460EF06DFC0A2005F030FE6846FFF775FFC7E7234621221E481F49D7
:2018800004F11005227010F8012F0233140902F00F020C5D8A5C1C705A70AB42F3D1124D6A
:2018A00012232B8006F00AF9C1E71548822101220BF0A4FF0C4DBAE701F09CFB114B0A4DB1
:2018C0001860A01C16F0E4FE0F4B8221188002220B480BF093FFAAE7A04200201C0E002076
:2018E000A8420020788E010090420020FA3A0020408E0100688E010097420020988E0100AB
:2019000050040020243B0020283B002008B50D480D49102216F010FF18B106F0CFF80020FC
:2019200008BD0A4807F098FE07480EF00BFC084807F092FE07480EF005FC0A2005F0C8FDA6
:20194000002008BD1C0E0020A8420020AC8E0100E08E0100B8420020704700BF10B505F05A
:201960001FFC054B05491860054A06480023BDE810400BF0D7BD00BF680F0020004C0E0042
:201980009D1C0000440E00202DE9F04107460E4615461C46DDF81880FFF7E0FFCDF81880D8
:2019A000384631462A462346BDE8F04103F0AEBB10B50B4C0B4A23780021042B11700A48F8
:2019C00005D9BDE810404FF4C8510BF0D1BC4FF420710BF0CDFC23780133237010BD00BFCA
:2019E000D13A0020D33A0020A40E0020F0B5038883B0B3F5A07F04460D4600F0C08016466A
:201A000079D940F24F12934265D040F25712934240F0C78001200CF087FB002800F0C680F3
:201A200005F17F03DBB2012B40F2D780882D05D040F257130120238003B0F0BD6D480BF0F2
:201A4000B5FC0028F4D0FFF789FF6B4B1B782BB168480BF0ABFC002840F0C880674F3B88DB
:201A6000002B66D1664B1B781BB1822DE0D1012EDED1644B1B68002B00F0B280624805F098
:201A80002FFD00210B460222604801F0B5FF604F60495E48604E02F039FC32215B4802F07C
:201AA000D9FB0FCF0FC697E8070003C63146574821F81829192202F0E5FC4F4B01224FF4D2
:201AC000C8514C481A700BF053FC40F24F13534A0021118023804D4A514B29468DE80C00DC
:201AE0004E48504A43F2163302F0BEFE01289FD8002003B0F0BD002B53D14A494A4A4FF0B5
:201B0000FD0C4FF47F4E4FF48070FE274B808B80CB800B81A1F800C0A1F80AE08F81C88172
:201B20001370FFF71BFF33484FF420710BF020FC70E700210B460222344801F05DFF3B4972
:201B4000324802F0E3FB3221304802F083FB3A88374B40211B6830480092364A07F0A2FDB8
:201B60002D4816F0A9FF2C490246284802F08AFC314900234FF4A0720B803B802280234A56
:201B80002E4B29468DE80C002B48264A43F2163302F06AFE0128ABD9164840210BF0E8FBD7
:201BA00046E700230320238003B0F0BD11480BF0FDFB00283FF43CAF124B214A1968214B68
:201BC0002148002914BF1146194607F045FD09484FF420710BF0CCFB2AE7FFF7BFFE3DE7E2
:201BE00004484FF420710BF0C3FB21E7FFF7E0FE34E700BFA40E0020D33A0020283B0020D4
:201C0000D23A002080250020608F0100C40E0020888F0100788F0100640E00202C0E0020E5
:201C20004D1C0000B40E0020D13A0020308F0100243B0020448F01006C0F0020591900000E
:201C4000F08E0100F48E0100FC8E010010B504460D482189627907F0FFFC63790B4A0021CA
:201C6000022B117003D0BDE81040FFF7A1BE084B22891B899A42F6D1064805F031FC064B93
:201C800001221A7010BD00BFA48F0100D33A0020C40E0020C88F0100D23A002008B5074B25
:201CA0001B88012B09D0064805F01AFC012004F061FFBDE8084004F0D3BF08BDB23A00206A
:201CC000DC8F010008B50A480CF086F803F098FA084B09489B68984701F036FD01F02CF8CB
:201CE00001F066F9BDE80840044800210BF0BEBD400E002038AA010089190000500400205D
:201D000010B50446044821460CF06CF820696169BDE8104003F094BA400E0020F0B5104BAA
:201D200083B002A9002241F8042DDB68984706460C480CF055F8044678B1019F65693946CE
:201D40002846324616F0E6FE20B9284616F0B4FEB04202D02468002CF0D1204603B0F0BDB1
:201D600038AA0100400E002008B501F001F8084B1B7813B9074805F0B3FB05F011FA064B76
:201D80001968BDE80840411A044807F065BC00BFD23A0020F08F0100680F0020149001006F
:201DA0002DE9F0410388044683B140F24950834207D1882914D040F2495323800120BDE89F
:201DC000F081002323800320BDE8F081124880210BF0CEFA40F2495323800120BDE8F0812D
:201DE0000D4B9A42E7D10D4F0D4DDFF8388003E057F8045F002DE9D0AE6930460BF082F934
:201E00000028F5D02869D8F85C3098473046B1680BF070F9ECE700BFC80F002064A5010083
:201E20007807002038AA01002DE9F04F89B00DF120080023DFF8AC9048F8143D0191D9F842
:201E40000C30414682469847224D0646039F224C03E055F8043F73B11C46D4F814B0584626
:201E600016F02AFEB042F4D159463846324616F063FC0028EDD10025504642460395D9F8F1
:201E800058301649A469984708B10F2808DD0198D9F81430D9F87810984709B0BDE8F08FD7
:201EA0000246039904A8049505950695079516F075FC04A816F0ECFB094BA0F11E029A4237
:201EC0000146E4D8A06020460BF014F909B0BDE8F08F00BF64A50100780700207890010043
:201EE0006251010038AA01002DE9F04F83B00C9E4FF0FF344FF0000B82468846174699468B
:201F00008DE81008BDF838503EB3336833B39D4254DC374C202005F0DBFA236A6946504617
:201F2000984700994B1C5CD0D4F8E430994253D0D4F890106369404698472E4B1D682846AF
:201F400016F0BAFDE36C02462946404698474FF0FF33336003B0BDE8F08F01AE244C20201F
:201F600005F0B6FA69465046236A984700994A1C2AD0D4F8E4309942DAD1E36940469847FB
:201F80004D4510D82A4638460D9916F007FC4FF0FF337A193360E36C4046D21B3946984773
:201FA00003B0BDE8F08F4A4638460D9916F0F6FB336807EB09024B443360ECE70D9AED1A64
:201FC0001A44ADB20D92C9E7D4F8E410E369404698474D45D6D9E6E7E36940465D46984722
:201FE000D0E7E3694046D4F8E4105D469847C9E738AA01004C0400202DE9F04F002489B061
:2020000098468B4691468246059406940794129F05F0C6F808AC44F80C0D07A90DF11B026C
:2020200006A804F08BFD8DF81A000BF0BBFC094B0C261D78ADF81E000097019459465046E6
:202040004A46434602968DF81950FFF74DFF09B0BDE8F08F0E47002070B584B0089E054DFC
:202060004FF48074009601950294FFF73DFF04B070BD00BFDC3E002070B584B0089E054D0A
:202080004FF48074009601950294FFF72DFF04B070BD00BFDC3F00202DE9F04FC1B08246BC
:2020A000894690461F460CF0B5FA8346002833D004AD2E460AE0034653F8080F10365968B6
:2020C00003C458460CF0ACFA8346B0B133460BF1080151F8080F06F10804496803C35846D9
:2020E0000CF08AFA0028E6D1B060606058460CF097FA103683460028E8D1721B92B24A9BE0
:2021000002928DE828005046494642463B46FFF7EBFE41B0BDE8F08F024604ADEFE700BFDE
:202120002DE9F04F1D46273385B023F0070300AFADEB030D0023FB60BB6B4FF0FF348A46FE
:202140003A60EB46BC60002B00F0A680584E07F10801336A9847B9684A1C1AD0D6F8E430E1
:20216000994218D0D6F89010736950469847514B1C68204616F0A0FCF36C02462146504611
:202180009847BA6B4FF0FF3314371360BD46BDE8F08FD6F8E410F36950469847BB6B1B68A9
:2021A0001A46002BB8BF03F10F02C2F30714A3EB041808F0FF082B4405EB0802C2F3071268
:2021C0001B077A6003D013460133DBB27B60002011F068FA814640B1A4B1484611F062FAC0
:2021E000621ED4B281460028F6D1BC6B4FF0FF3239682260F36C5046002298471437BD4625
:20220000BDE8F08F7B68D844002B4CD05C1EE4B201340BEB041400E088B3484611F03CFA21
:202220004B4642680168CBF80420CBF80010B9F800204846ABF8082053F8122F0BF1100B73
:202240004BF8062C9B882BF8023C11F02BFA5C458146E1D14544A54228BF2546A5421FD0AD
:20226000BB6BC8EB05021B68B96B13440B60F36C5046414698471437BD46BDE8F08F4544BF
:202280005D4528BF5D46AB45EAD1B96B4FF0FF33C8EB05020B60EAE707F10C03BB6355E77B
:2022A0000028F2D0DCE745445D4528BF5D46D7E738AA01004C0400202DE9F04F99B00DF10F
:2022C0002409059006928B46484600213C22079316F03EFB444B1D68002D6DD0284609F008
:2022E000B7FD4B46044655F8040F04F11C0869684FF0000A0BAD03C32EE000223B4B304612
:20230000394615F001F815F04BFCC0B22870607815F046F90022354B15F0A8F9334B0022E6
:2023200014F0F2FF15F064FC6870A378EE1C012BA3F1020029D915F033F900222B4B15F0B4
:2023400095F90022294B14F0DFFF15F051FC04344445A87035461FD0207815F021F9002209
:20236000234B15F083F90022002306460F4615F0EFFB0028C1D000221C4B3046394614F05E
:20238000C1FF15F00DFCC0B2C0E70434444585F802A005F10305DFD1229BC9EB0505ADB2EE
:2023A0008DE80802029505985946069A079BFFF79BFD19B0BDE8F08F0E4C5846D4F89010AA
:2023C000636998470C4B1D68284616F075FBE36C0246294658469847229A4FF0FF3313606F
:2023E00019B0BDE8F08F00BF343B00200000E03F0000E0BF38AA01004C0400202DE9F04F3C
:2024000099B00DF12409049283463C228A4648460021059316F09CFA00F0ECFD324B0790EB
:202420001D6899889A790798304B0724CDF82500CDF83550ADF839108DF83B208DF82440B3
:2024400007CB0DF13B05CDF82900CDF82D10CDF831205C1E03F10F080CE00022244B3046EE
:20246000394614F051FF15F09BFB4445C0B205F8010F1CD014F8010F15F092F800221D4BC5
:2024800015F0F4F80022002306460F4615F060FB0028E2D00022164B3046394614F032FF7E
:2024A00015F07EFB4445C0B205F8010FE2D1124B1B6843B1114914AA0968139153F8040F84
:2024C0000891596803C216AC229BC9EB0404A4B28DE8080258465146049A059B0294FFF7CE
:2024E00003FD19B0BDE8F08F743E0020CC3D00200000E03F0000E0BF343B0020283E002021
:202500002DE9F04F97B0229E002735684FF0FF3E81466868099104921D460B970D97CDF8EA
:2025200030E016F0C9FA209C0390002C00F002828A4F0DAA7B6D484689499847012800F003
:20254000FB813B6A0DF1300B59464846059398470C9B824A591C19D0D2F80421934215D003
:20256000099ED7F890107B69304698477D4B1D68284616F0A1FAFB6C02462946304698473D
:202580004FF0FF33236017B0BDE8F08F01230793FB680DA948469847039B804683421ED001
:2025A0000D9EDFF8C8A1334656469A466E4D30465146424616F0AEFA28B9304616F07CFA6A
:2025C000404500F0628155F8106F002EEFD109987B69D7F88810984717B0BDE8F08F4FF0F4
:2025E00000096B1CDFF880A160480893CB465FE05B4622684FF0020C934208D3A94512D2C6
:2026000004993C2201F80920226809F101090133934208D3A94506D2049A2F2302F8093042
:20262000226809F10109DAF800B0CDF818C05846059216F041FADDF818C0059A00EB0C082C
:20264000904553D807D3A94505D2049A3E2302F8093009F10109DAF8043008F1010BD3B116
:20266000226893450AD3A94508D2049A3B2302F80930DAF80430226809F10109184606929A
:20268000059316F019FA08F10208069A00EB080B9345059B41D8A94505D92368C9EB0B023F
:2026A0009A4200F219815AF8100F002800F014813368039A596816F02DFA0028F3D1079BE0
:2026C000012B57D0BBF1000F92D022685A4508D84D4506D9049A2C2302F80930226809F16C
:2026E00001090BF101030BF1030C85E7CCEB0203049A002BACBF5B440BF1000302EB0900D5
:20270000089AC9EB02011A4A06F0CCFF8144A94515D22368984598D29DE7C8EB0208049AF0
:20272000B8F1000FA8BF434402EB0900089AC9EB02010F4A06F0B6FF8144A945B3D9B9F1B7
:20274000000F40F07081DAF80030002B00F0BE8023681D44256017B0BDE8F08F38AA0100AF
:20276000609801004C04002084A2010084900100A09001000E900F901090119012901390C0
:20278000149015902368BBF1000F71D1194653B94D4540F22181049A7B2302F8093023689D
:2027A00009F101091946012B9B4640F21881219B06911B681846059316F07EF9069900F105
:2027C000020C8C458046059B00F2E78009D3A94521D2049A222302F80930D4F800B009F112
:2027E000010908F103035B4509D3A94513D2049A3A2302F80930D4F800B009F1010908F1DA
:2028000004035B4507D3A94505D2049A7B2302F8093009F1010908F10508DAF80C20DAF829
:2028200008301268202100920EA8834A06F03AFF0EA816F041F9236800EB080B9B457FF68D
:202840002AAFC8EB03030EAA002BA8BFD2181346049A02EB0900089AC9EB0201774A06F0B5
:2028600021FF8144A945FFF41EAF08F101023AE05B4507D84D4505D9049A2C2302F80930A0
:2028800009F101090BF10108C7E759464846059B98470C99481C67D0D7F80431684E994200
:2028A00064D0D6F8B430994200F0A480099FD6F89010736938469847624B1D68284616F04E
:2028C000FBF829460246F36C384698474FF0FF33236017B0BDE8F08F079BD846012B7FF454
:2028E0002EAF0BF101022368434513D84D4511D904997D2301F80930236809F101099342AF
:202900000ED84D4508D9049A7D2302F8093009F1010905E09342F4D9B9F1000F3FF413AFB4
:202920000499FB6C4A4609989847FB6932210998984708E70BACFBE50D9815F0A9FE0790DE
:2029400000287FF4FEAD3B6A0DF1300B59464846059398470C9A531C3FF41AAED7F8DC30C4
:202960009A427FF4FDAD13E6D7F80411099EFB6930469847EA68AB681268049D00924021AE
:20298000314A284606F08EFE284616F095F8FB6C024629463046984798E7049A023902EB13
:2029A0000900089A0029A8BF5B18C9EB0201234ACDF814C006F076FE8144A945DDF814C0E6
:2029C0002DD2D4F800B0DC45BFF403AF08F103035B45BFF40CAF12E719469B46E7E6A945F5
:2029E000FAD2049A222302F80930216809F101098B46DCE6099FF36938469847EB68049D80
:202A00001B684021114A284606F04CFE284616F053F8F36C024629463846984756E7032235
:202A20004FF002085FE70499FB6C4A4609989847FB6928217BE700BFA4900100A0900100BF
:202A400038AA01004C040020B09001007CA701002DE9F04786B006AC0026184D44F8046D51
:202A60006F6D89469046164922461D4682460E9EB84701280ED0134C009604F108065046A3
:202A8000494642462B4601940296FFF739FD06B0BDE8F087059815F0FBFD0028EBD00A4FAD
:202AA000402400965046494642462B4601970294FFF71AFA06B0BDE8F08700BF38AA010052
:202AC000BC90010038070020883E00202DE9F04786B006AC0026184D44F8046D6F6D89464C
:202AE0009046164922461D4682460E9EB84701280ED0134C009604F10806504649464246B7
:202B00002B4601940296FFF7FBFC06B0BDE8F087059815F0BDFD0028EBD00A4F28240096DE
:202B20005046494642462B4601970294FFF7DCF906B0BDE8F08700BF38AA0100BC900100BD
:202B4000DC050020804600202DE9F04786B006AC0026184D44F8046D6F6D89469046164941
:202B600022461D4682460E9EB84701280ED0134C009604F108065046494642462B46019465
:202B80000296FFF7BDFC06B0BDE8F087059815F07FFD0028EBD00A4F1C24009650464946C7
:202BA00042462B4601970294FFF79EF906B0BDE8F08700BF38AA0100BC9001009C070020DD
:202BC000083B00202DE9F04786B006AC0026184D44F8046D6F6D89469046164922461D467A
:202BE00082460E9EB84701280ED0134C009604F108065046494642462B4601940296FFF722
:202C00007FFC06B0BDE8F087059815F041FD0028EBD00A4F102400965046494642462B4663
:202C200001970294FFF760F906B0BDE8F08700BF38AA0100BC900100CC040020C043002043
:202C40002DE9F04786B006AC0026184D44F8046D6F6D89469046164922461D4682460E9EE8
:202C6000B84701280ED0134C009604F108065046494642462B4601940296FFF741FC06B022
:202C8000BDE8F087059815F003FD0028EBD00A4F142400965046494642462B460197029420
:202CA000FFF722F906B0BDE8F08700BF38AA0100BC9001005C060020AC4300202DE9F04764
:202CC00086B006AC0026184D44F8046D6F6D89469046164922461D4682460E9EB84701288D
:202CE0000ED0134C009604F108065046494642462B4601940296FFF703FC06B0BDE8F087EC
:202D0000059815F0C5FC0028EBD00A4F282400965046494642462B4601970294FFF7E4F814
:202D200006B0BDE8F08700BF38AA0100BC900100800700208443002070B50A4D0A4C1E262E
:202D4000A0691E2186600AF0D5F92046FEF7D8FF55F8044F002CF3D12146BDE870400348B4
:202D60000AF084BD64A50100780700206807002038B52E4804F0B4FB2D4804F0B1FB2D4C4C
:202D800004F1600514F8023C227C0BB1012A3ED92034AC42F6D1284804F0A2FB0BF00CFEE4
:202DA0000BF0C2FD044600283BD0244806F054FC201D0DF0C7F9A169214806F04DFC0BF083
:202DC00043FC01461F4806F047FC0BF023FC0446C0B11A4806F040FC04F108000DF0B2F9BF
:202DE000194806F039FC20460BF006FC0DF0AAF9A169134806F030FC20460BF011FC044605
:202E00000028E6D11148BDE8384004F069BB0B4806F022FC20460DF095F90A2004F058FB7C
:202E2000B6E70B4804F05CFBC9E700BFC0900100D89001003E410020F8900100F490010081
:202E40000C910100309101006C910100549101002891010008B5024804F042FBFEE700BF98
:202E6000DC8F01002DE9F04184B004AD4FF0FF36244C45F8046D276A0E462946984615469B
:202E8000B84703994B1C19D0D4F80431994217D0D4F8B43099422AD0D4F890106369304651
:202EA0009847194B1D68284615F006FE29460246E36C3046984704B0BDE8F081D4F80411CD
:202EC000E369304698470A9AD8F800302846009240210E4A06F0E6FB284615F0EDFDE36C71
:202EE000024629463046984704B0BDE8F081E3693046984728464021054A0A9B06F0D2FBD5
:202F0000EAE700BF38AA01004C0400209CA50100A090010070B504460E461546074804F0FA
:202F2000DFFA01F0A1FE064B20469C6931462A4604940833BDE87040FFF794BFA8A50100C6
:202F4000B007002010B4044B9C69083301945DF8044BFFF787BF00BFCC07002010B4044B0D
:202F60009C69083301945DF8044BFFF77BBF00BF2808002070B50E461546044604F010F97E
:202F800010210346074A084806F08CFB074B20469C6931462A4604940833BDE87040FFF7D7
:202FA00061BF00BF7CA701002C1000200C08002010B50A4B0A4C0B48A361FEF7A1FE0A48D1
:202FC000FEF79EFE2046FEF79BFE0848FEF798FEBDE810400648FEF793BE00BF2C100020ED
:202FE0000C08002028080020CC070020B00700206808002038B5124B1B6843B904F098F8A6
:203000006423A0FB0301C00940EA416038BD04F01BF90C4A0C4B12681B6822B90B490A68AE
:20302000821A002A01DB184638BD0C686422201AA0FB0245200C40EA0540181A38BD00BF04
:2030400080250020502400206C3E0020403B0020836A01219B688120184700BF034610B4D4
:2030600090F83440596A074814F0010F064A18BF024611B95DF8044B7047181D5DF8044BC1
:203080000AF050BA513000002D36000070B54FF0FF3382B00D460193144CD0B101A9236A81
:2030A000984701994B1C14D0D4F8E430994212D0D4F890106369284698470D4B1E683046D6
:2030C00015F0FAFC31460246E36C2846984702B070BDD4F8E410E36928469847054AE36CC4
:2030E000284612780449984702B070BD38AA01004C040020D43A0020441000202DE9F04F83
:203100008BB005460F469146FEF708FE0646A54C28462369984726B110F0010809D18307A8
:2031200033D438466369D4F88C1098470BB0BDE8F08FD6F818804FF0FF330693B8F1000FF0
:2031400000F0B280002D00F0848006A92846236A984706994A1C7CD0D4F8043199427AD02C
:20316000D4F8B430994200F0A580D4F890106369384698478C4B1D68284615F09DFC294643
:203180000246E36C38469847D0E70DF1280949F8148D4A46D4F858A028468449D0470028A5
:2031A00054D00F2840F3BA80C346CDF80C8028467F494A46D047002846D00F2840F39B804D
:2031C0004FF0000828467B494A46D047002839D00F2840F3CE800023029328464A46764971
:2031E000D04718B10F2840F3B08000200BF03001302951D0202973D0102976D05FFA8BF2AE
:2032000052B2002A4BDD1BF0040F03D0B269BDF80C3093841BF0400F1CBFB26990611BF0F8
:20322000200F1CBFB269C2F810801BF0100F02D0B369029A5A6138466369E16E98470BB07D
:20324000BDE8F08F0290C8E78046BBE783460390ADE7D4F80411E36938469847D8F808202F
:203260000023B2F1004FC8F80420A8F826304D4C1AD0B3680092D8F80C20484601924021B1
:203280004E4A06F00FFA484615F016FCE36C024649463846984749E7029B9845AEDB3846BE
:2032A0006369A16F984741E738466369D4F89C1098473BE7E36938469847D8F80830002295
:2032C000B3F1004FC8F80430A8F82620ECD0D8F80C20484600924021394A06F0E3F9D2E7DA
:2032E000B26952699045DADC88E7B269029B12699342D4DB82E700230246059906A806938E
:2033000007930893099315F049FA06A815F0C0F94BF0200380465FFA83FB53E7024605990D
:2033200006A8CDF81880CDF81C80CDF82080CDF8248015F033FA06A815F0AAF9B0F5004FD7
:20334000039029D24FF0040B31E700250246059906A8069507950895099515F01FFA06A882
:2033600015F096F900289ADD4BF040035FFA83FB3CE700230246059906A80693079308931D
:20338000099315F00BFA06A815F082F94BF0100302905FFA83FB20E7CDF80C804FF0800B80
:2033A00005E700BF38AA01004C04002080A7010088A701008CA7010090A7010064A701003F
:2033C00078A701002DE9F04186B006460F46FEF7A5FC0546234C3046236998470DB1830736
:2033E00007D438466369D4F88C10984706B0BDE8F08106AA4FF0000842F8148D3046A36D3D
:203400001949AD69984708B10F2806DD38466369A16F984706B0BDE8F0810246019902A8F1
:20342000CDF80880CDF80C80CDF81080CDF8148015F0B4F902A815F02BF90C4B9842E5D8CD
:20344000C001686248B9281D0AF0B0F838466369E16E984706B0BDE8F0812846FFF7FEFD56
:20346000F4E700BF38AA010078900100805101002DE9F0410C46444B84B0DD6DA8472678C1
:20348000002E4DD0E38C002B4DD1404F63683A78002A50D0DFF80081E068D8F80010411AF8
:2034A00064294CDD03F50043B3F5803F00F500412CBF05230323B1F5803F2CBF05210321AB
:2034C0000B441344402B4FDC314B1A4400F50043B3F5803F0290ADF80C004DD203210E465D
:2034E000BDF80C000123A2F8010013703D78E0686368354426780A443D70C8F8000003F537
:203500000041B1F5803F0393ADF8063024D2BDF806301670A2F8013003223B7813443B7088
:2035200004B0BDE8F081194F0022A368E2843A786360002AAED1E068DFF85C80B2E703F51C
:203540000041B1F5803F34BF03200520104440280ADC0F480244D4E7039846F040061670F3
:20356000C2F801000522D8E70A4B1869A8470023074AE0683B70A9E7029841230521C2F810
:20358000010013700E46B1E738AA0100D43A002044100020280900203C1000202DE9F04132
:2035A000046B06462568002D33D0B36A286A5B689847A8602568FFF71DFDE8602268D38C6C
:2035C0000133D3842368DA699169F1B1888CE0B14B68B3F1004F15D0CD8C854212D08868D4
:2035E0000D69A84202DB4F69B84204DDAB4202DB4D69AB4206DD8D695F19B84202D85B1BF3
:20360000984202D21069FFF733FF54F8045F002DCBD196F93430002B01DBBDE8F081B36AB6
:2036200081209B680021BDE8F041184710B50446074A616A2346043009F074FFA36A8120AE
:203640009B68012198472046BDE81040FFF7A6BF2D3600002DE9F043058883B00746A5B1A1
:2036600040F2FC639D420AD1334B1B788B424BD040F2FC6301203B8003B0BDE8F0830023AB
:203680000380032003B0BDE8F0832C48DFF8B4800AF0A2FB2A48FEF733FBD8F83040236843
:2036A00083B14FF005094FF00046DA69A3F82490DD845E609361D869FEF722FB54F8043F7D
:2036C000002BF2D11F4C1D4821460AF08BFBD8F82C30C3F81880D8F824305BB1D8F82C009A
:2036E000FEF70EFB98F834301648DB0706D4FFF79DFFBDE74FF420736362EFE7836A012108
:203700009B6881209847B3E70C4801920AF068FB019A044618B9ABE72468002CA8D0A36AC3
:203720009342F9D120460192FFF798FC2046FFF735FF019AF0E700BF0C47002040100020C3
:2037400028090020F0080020014800210AF08EB8600900200249034A00230B70136070476D
:20376000D43A00203C1000200C2830B438D80301DBB20C292ED8CCB22343B0F5867F1370AA
:2037800012D96FF4867543191B0A0D385370907002230320B1F5867F11D80C2902D90D3925
:2037A0001154013030BC70470C281FD90D38B1F5867F50704FF001034FF00200EDD96FF447
:2037C00086740C19240AD5180D391454A970D81C30BC7047B1F5867F94BF0D240E24CBE73E
:2037E000B0F5867F94BFD023E023C2E701200023D0E700BF13F07F4F2DE9F8434FEA1346BF
:2038000014BF012700271C4615463B464FEA064906B17B1C34F0FF0819D001330133401A9C
:203820002A461946FFF7A0FF17B1230E2B540130B9F1000F01D02E540130B8F1000F09D0AD
:20384000230A2B5401302C540130BDE8F883002CE5D0E3E7002CF6D1BDE8F883F8B50E68D9
:203860009DF8187016B902600B60F8BD0C461D46036811469F5523682A4601332360006855
:20388000184415F001F823682B442360F8BD00BF2DE9F047002481461C6010460E46174622
:2038A000984615F009F94E4409EB0005AE4282462AD94C4606E0013404EB0A039E4205F15E
:2038C00001051DD94C4503D014F8013C262BF2D12B783D2BEFD138462146524615F01AF9CB
:2038E0000028E8D10AF1010A5444361B32462046262114F0D7FE00B1061BC8F8004000E048
:2039000000263046BDE8F0872646FAE7F8B5069C401A21461F461646FFF726FF05463946EC
:203920003018224614F03AFF2819F8BD2DE9F04F83B09DF83480DDF830A0B8F1000F37D06F
:20394000934600221E46994684468E46144617460AF1010303E001349C42224624D8B15C6E
:20396000B518414501D05245F5D1C9EB0505CEEB0C000BEB070229460193CDF800C0FFF7C6
:20398000F3FE074449460BEB07002A4614F006FF0134019BDDF800C006EB040901349C426F
:2039A000E6462F442246DAD9384603B0BDE8F08FCDF830A003B0BDE8F04FFFF7A7BF00BFB1
:2039C00010B504460020014602460CF037FC044B0482186005F0ECFC024B188010BD00BF5F
:2039E00084100020B03A0020024B1888013080B218807047B03A0020F8B504460F461646B8
:203A00001D460021A42214F0A3FF6771A6712581F8BD00BFF0B501230022016003710A7073
:203A200004680579237883B043EA85132370056844792B78240104F030041C432C700568F4
:203A4000847A2B7804F00F041C432C70036884795C7004890368240A9C7003680489DC7019
:203A6000837913B9042003B0F0BD0368847A1D1D4CB100F10A0414F8017F013205F8017B23
:203A8000877A9742F7D8C37C0E4603F00202044602F0FF01002A40F0F9801A0700F1EB8067
:203AA000DF0600F1DB80980600F1CF805A0600F1C3801B0600F11581237DDF0700F1AF8015
:203AC000180700F19F80DA0600F193805F0600F18780180600F10E81637D9A0776D4DF0628
:203AE00067D4180600F1E080A37D1A071CD5D4F8803094F884201B010AB143F00803B4F87D
:203B000086000027000900E017467A1C400892B2FAD10AB107F00F0003432A461B20FFF71D
:203B200069FEA37D05441B21DF0639D4E37D180723D41A0600F1EC80A37EDB0628D423680B
:203B4000EB1A3E2B12DCB4F89E2022B1FF2305F8013BB4F89E202846D4F8A01014F094FE87
:203B6000B4F89E00AB1B184403B0F0BD6D4B6E4A002020601A6003B0F0BD226B636B2320F1
:203B800000922A46FFF7C2FEE37D05442321D0E72A463C20D4F89030FFF72CFE0544CEE753
:203BA0002A461C20D4F88C30FFF724FE1C210544BCE7606D2622A36D8DE805002A4614204D
:203BC000FFF7B4FE637D054414218AE72A46B4F868301120FFF70EFE637D054411217EE7C7
:203BE0002A46236A0E20FFF705FE237D05440E216FE72A46A38B0C20FFF7FCFD237D054491
:203C00000C2163E7E06D2F22236E8DE805002A460B20FFF78BFE237D05440B2153E7A06C0F
:203C20002F22E36C8DE805002A460820FFF77EFE237D0544082143E72A46636E0620FFF7C7
:203C4000D9FDE37C0544062133E72A4600230520FFF7D0FDE37C0544052127E794F824306E
:203C60002A460093042004F12503FFF74FFEE37C0544042117E7226C636C032000922A4670
:203C8000FFF744FEE37C0544032109E790F86A30002100932A4604F16B030120FFF736FE3C
:203CA000E37C05440121F8E6676F94F878303F01A3B9B4F87A200020130900E01046421CA0
:203CC0005B0892B2FAD10AB100F00F032A463B431720FFF78FFD1721054405E747F008075B
:203CE000E7E72A460720B4F85030FFF783FD07210544E1E6D4F894002622D4F898308DE8D4
:203D000005002A460F20FFF711FE0F210544E3E6A26BE36B272000922A46FFF7F7FD2721E2
:203D2000054409E7940A002084A901002DE9F0410E4F05463E6894469E4688463446EB6870
:203D400000686968AA680FC4614672463046A6F812800CF04FFA3C6800212046102214F09A
:203D6000F7FD00236382BDE8F08100BF841000202DE9F04F0C46054685B092460021A422D8
:203D800014F0E6FD2C602678B6092E712378012EC3F301136B7194F8008008F00F0885F8AC
:203DA0000A806378AB71A278E37843EA02232B8106D0BF4BBF4A80201A6005B0BDE8F08F33
:203DC000B8F1080F06D9BA4BBB4A80201A6005B0BDE8F08F271D4246394605F10B0014F0F7
:203DE000DDFC04EB0A0B07EB08024FF000095A4585F8139085F8149085F8159085F816907D
:203E000085F8179085F8189085F8199085F81A9080F0B88117F8088008F0F003F02B00F0D6
:203E2000DE8005F15803029305F1540303934FEA18110D2908F00F0800F08B810E2900F091
:203E40009981571CB8F10D0F00F08781B8F10E0F00F08881894405EBD901CB7C09F0070279
:203E600006FA02F2134309F1FF32CB743B2A00F26A81DFE812F00F01680146013801330156
:203E8000250159014C01680168010201F3006801E400D7006801C700680168019F0068015F
:203EA00068018100680168016801610051006801680168016801680168013C0068016801A7
:203EC00068013C00680168016801680168016801680168016801680168016801680168017F
:203EE0006801680168016801680168014100704B724AA5201A6060E7B8F1000F00F056818F
:203F0000002207EB080317F8011B9F4241EA0222F9D1C5F8902057E0B8F1000F00F0498147
:203F2000002207EB080317F8011B9F4241EA0222F9D1C5F88C2047E0B8F1000F00F027815D
:203F4000002207EB080317F8011B9F4241EA0222F9D102F0070722F00F011020B840B940DA
:203F6000C2F3C0071209A5F88600C5F8881085F88470C5F8802027E0B8F1000F00F01C8118
:203F8000002207EB080317F8011B9F4241EA0222F9D102F0070722F00F011020B840B9409A
:203FA000C2F3C0071209A5F87A00E96785F878706A6709E0262300930298434603993A46C9
:203FC000FFF74CFC07EB08035B451A4680F0DA8093F8008008F0F003F02B7FF428AF01324E
:203FE000A31A53449BB2402B84BF40210B464FF00000C5F8A02094BFA5F89E30A5F89E10FB
:20400000D054DAE6B8F1000F00F0BE80002207EB080317F8011B9F4241EA0222F9D1A5F8F5
:204020006820D1E72623009305F19800434605F194013A46FFF712FC07EB0803C4E7B8F1ED
:20404000000F00F0AD80002207EB080317F8011B9F4241EA0222F9D12A62B5E7B8F1000F10
:2040600000F09880002207EB080317F8011B9F4241EA0222F9D1AA83A6E72F23009305F15F
:204080006000434605F15C013A46FFF7E7FB07EB080399E74246082A28BF082205F16B00E3
:2040A00085F86A20394614F079FB07EB08038BE7940A0020B4A90100CCA90100F4A9010063
:2040C000B8F1000F6FD0002207EB080317F8011B9F4241EA0222F9D16A6675E785F89C6000
:2040E00007EB080370E74246082A28BF082205F1250085F82420394614F050FB07EB0803FA
:2041000062E76F64C5F8408007EB08035CE72F23009305F14C00434605F148013A46FFF761
:204120009DFB07EB08034FE7B8F1000F35D0002207EB080317F8011B9F4241EA0222F9D1B3
:20414000A5F8502040E719F0010F38D107EB08033AE75178971C0D3174E617F8013B03F198
:204160000D0877E67B7817F8028B03F20D1303EB08286FE69378517803F20D1303EB0121BD
:20418000D71C5FE6002018E642463B4647E742463B46DEE642463B466DE742463B46CFE7A9
:2041A00042463B4658E742463B4695E742463B46AFE642463B46BCE642463B46E9E6024BC4
:2041C000024A82201A60F8E5940A00201CAA010010B4044690F91400002803DB00205DF8EF
:2041E000044B70471346D4F898000A46D4F894105DF8044BFFF74CBB30B4B0F89E4014B964
:20420000204630BC70470D46134621462A4630BCD0F8A000FFF73CBBFF299ABF817101203D
:2042200000207047082A034628BF082210B514469A720B3014F0B2FA204610BD037D03F05F
:20424000100303F0FF021BB1838B01200B6070471046704701207047437D03F0020303F0AA
:20426000FF0223B1B0F8683001200B6070471046704700BF037D5B064CBF036A3C230B60F7
:2042800001207047037D016243F0400303750120704700BF38B50446082A28BF0822154609
:2042A00084F82420253014F079FAE37C284643F01003E37438BD00BFC37C03F0020303F02A
:2042C000FF022BB100F16B030B6090F86A00704710467047C07CC0F340107047C37C03F059
:2042E000080303F0FF021BB1436C0B60006C704710467047037D03F0080303F0FF021BB16B
:20430000036E0B60C06D7047104670470B7810B52F2B044603D111F8013F2F2BFBD021661B
:20432000084614F0C9FB237DE06543F00803237510BD00BF90F91430002BBDBFD0F898301C
:204340000B60D0F894000020704700BF0B7810B53F2B044603D111F8013F3F2BFBD0A165AC
:20436000084614F0A9FB637D606543F01003637510BD00BF70B50B780C462F2B064603D184
:2043800014F8013F2F2BFBD020463F2114F02EFB054660B13046691CFFF7D8FF281BB0643E
:2043A000F46418B1337D43F00103337570BD204614F082FBB064F3E7C37C416643F04003EF
:2043C000C3740120704700BF10B490F91540002C03DB00205DF8044B704709B1446F0C600F
:2043E00012B190F87810117013B1B0F87A201A80019B33B1C36F019A012013605DF8044B44
:2044000070470120E6E700BF10B4A3F11004B4F5FE6F12D8B1F5801F0FD2447D003218BFDC
:20442000012280F8782064F07F024167A0F87A3042755DF8044B0120704700205DF8044B93
:20444000704700BF837D03F0100303F0FF0223B1D0F88C3001200B6070471046704700BF85
:20446000837DC0F88C1043F01003837501207047D0F8A0301BB10B60B0F89E0070471846A8
:204480000B607047402A28BF4022C0F8A010A0F89E201046704700BF014B1860704700BF83
:2044A000D411002083790120013B9840C0B270472DE9F047038886B00446ABB1B3F5AD7F15
:2044C0000CD1A94B1B788B4219D0882960D04FF4AD730120238006B0BDE8F0870023038042
:2044E000032006B0BDE8F087A048A14900F0A8FE00F032FA43F21630FFF762FAE7E79D4BC0
:204500009D4D1B78002298072A70E0D59B4B9C4FDFF898923846D9F800101A88FFF728FC21
:2045200006462870002836D0DFF88482C22ED8F8000000F0D48000F03DFA2A788E4BC32AF9
:2045400000F0C980BF2A84BFA0221A7002213B898B48FFF751FA8B4B8B4E1D68284614F009
:20456000ABFA294602468648FFF78CFF874BD9F800501B782946283381489F5BFFF74AFA43
:20458000394683B22A4606F10800FFF7CFFB9EE700F08AFA9BE7BB79013B032B2ED97B6835
:2045A00023F07F4323F0FF03D3B9C3232B70388900F066FADFF8F881C8F8000040B1C66AC2
:2045C000D0F830A000F0F6F916B150466C49B0472E780023C8F80030002E3FF478AFA5E78E
:2045E0007B79032BE3D1694B694A1B7802F108002833D15A3A8900F009FBD8E7634B644A98
:204600001B7802F108012833D25A388900F0AEF9DFF89C81C8F80000002800F085807B7967
:204620004022039604960596ADF80A20002B59D15848022145223B89FFF7DEF9BA7A002A0D
:204640005FD104AB00934E4803A900220DF10A03FFF7BAFE40B1BDF80A30049A402B28BFFB
:2046600040230592ADF80A304B4BD3F800C0BCF1000F40D0DFF808A1464ED8F800200DF172
:20468000140EBDF80A30504631467432CDF800E0E04790B12A78384B8AB99AF81620110701
:2046A00048D596F90620002A44DBB27D120741D434493A48A12208601A702B7833B32E789F
:2046C000002E7FF433AFD8F8000000283FF4FFAE00F086F9FBE600221A70032137E700F051
:2046E00069F9F4E6FFF780F90121034645222948FFF782F9A2E7234A2949A12311602B7023
:20470000DDE728492348FFF78DFD9AE7D8F80060204806F13601FFF77DF980B2B086002836
:20472000CDD1C1232B70CAE7164A1F49A32311602B70C4E797F91530059A002B3ADB002A88
:20474000E4D0013218BF0122002140231148FFF75BFEB6F89E20D6F8A0103F2A88BF402250
:204760000C48FFF78FFEA8E710470020C00A002044AB010068430020D53A00209042002096
:2047800088100020940A0020A0420020FA3A0020A042002030110020D411002058AB0100E1
:2047A00078AB0100931000208CAB0100744300202C110020049B9A4217D00132039921D084
:2047C000BDF80A300122DFF884A05046FFF71CFEB6F89E30BDF80A2093427FF66EAF5046CE
:2047E000DAF8A010FFF74EFE67E7B6F89E10174E8A4210D38223304615490F22B371FFF773
:2048000041FE5AE7B6F89E20BDF80A309A4294BF00220122D7E7BDF80A308A1A9A4294BFC9
:204820000022012203993046FFF7EEFD0498B6F89E30BDF80A201B1AD6F8A0109A42014475
:2048400028BF1A463046FFF71DFE36E73011002068AB01000148002109F008B8980A002013
:20486000C160406809F022B8F0B50446008883B015461E4618B340F2991398421AD182291A
:2048800002D0012003B0F0BDE068002848D02D4F002300932C4A3946FFF796FD3B6822695F
:2048A0009A4247D0294A137801331370264B1B78002B3AD100230320238003B0F0BD244B5E
:2048C00021491F681F4A214B2061E0606760087010601870FFF788F8089B29461881324681
:2048E00000F044F8A060D8B11A4BC362A3681C63216979B9A568089805F13601FFF78AF8E1
:20490000A886A06800F06CF840F299130120238003B0F0BD089800224023FFF775FDE9E7AE
:2049200000230220238003B0F0BD084B1B78032BC0D8CFE7099BE0689847236901332361BE
:20494000B4E700BFD8110020D73A0020D63A0020BC25002061480000024A034B12681A605B
:20496000704700BFBC250020E0110020F8B507460E480D46164609F0AFFA044698B1002358
:20498000878003762868A9686F68EA68C4F81A00C4F822100648C4F81E70C4F82620214608
:2049A000668509F01FFA2046F8BD00BFA80A0020DC11002070B110B50446083008F008FDDC
:2049C0002146054809F052FA2146BDE81040034809F0A0BA704700BFDC110020A80A00208F
:2049E0002DE9F041044600F11A063046618D04F13602A38EFFF79AF994F83650C5F30115EA
:204A000095B9237E032B14D82BB3E3685B00E360184D194B2E681B6804F108002B6008F064
:204A2000BBFC2E60BDE8F0812046BDE8F041FFF7C1BF3046618DE66A276B00F061F8204674
:204A4000FFF7B8FF2EB1384629463346BDE8F0411847BDE8F08104F0ABFC084BA3FB00236A
:204A6000DB0903EB4303A0EB831303F28113E360CEE700BFBC250020E0110020ABAAAAAA02
:204A800010B50446074809F0ABF948B18388A34203D106E08388A34202D000680028F9D15C
:204AA00010BD10BDDC11002010B50C4809F098F9044610B910E0246874B104F1080008F003
:204AC00075FC0028F7D0237E204601332376FFF787FF2468002CF0D110BD00BFDC11002014
:204AE00010B504460448214609F014FA2146BDE81040024809F0BAB9B40A0020C01300200A
:204B0000F8B505460E480E4609F06AF90446A0B1002704F12C002946102213F00DFE10B93C
:204B2000A38FB34204D02468002CF2D13846F8BD2046FFF7D5FF0137F5E70746F6E700BF9F
:204B4000C01300202DE9F843054618480E4691461F4609F045F9044630B34FF0000801E04A
:204B60002468F4B104F12C002946102213F0E4FD0028F5D1A38FB342F2D194F83E30BB428F
:204B8000EED104F13F0049463A4613F0D5FD0028E6D12046FFF7A4FF246808F10108002CA6
:204BA000E0D14046BDE8F8838046FAE7C01300202DE9F04106461448174609F011F904466B
:204BC00000B34FF00008102204F12C00251D1EB1314613F0B1FD78B9BD4208D0284613F0D6
:204BE0006BFF39460246284613F0A6FD20B92046FFF776FF08F101082468002CE3D14046D2
:204C0000BDE8F0818046FAE7C01300202DE9F041054614480E46174609F0E2F80446F0B187
:204C20004FF0000801E02468B4B104F12C002946102213F081FD0028F5D1A38FB342F2D140
:204C4000B4F84830BB42EED12046FFF749FF246808F10108002CE8D14046BDE8F0818046FB
:204C6000FAE700BFC013002010B5084809F0B8F8044630B12146064809F04CF92468002C0D
:204C8000F8D10248BDE8104009F0A6B8C0130020B40A00202DE9F0414468DEB007462046B0
:204CA0000E4613F009FF0546214602A8272213F07BFF262D07DC36B102AB31465819C5F10B
:204CC000270213F071FF002423460CA8012145228DF82F40FEF790FE23460122214635A827
:204CE000FEF78AFE02A935A8FFF710FB02A813F0E3FE05462F4809F073F8044660B955E062
:204D0000854206DA3B7A6219DB0602D513792F2B08D02468002C49D0261D304613F0CCFEEF
:204D2000A842EDD1314602A82A4613F0F3FE06460028EED1FEF758FEA28F04F12C01FFF77F
:204D400015FE4023804600F174020028E1D0818835A8A4F84810B8F80410D7F810C0ADF8F5
:204D6000381000960CA9E0479DF93630002B09DBE16C0CA84B1CE364FFF71EFBE36C23F04E
:204D80007F43E36494F83E2004F13F010CA8FFF749FA08F136010CA8FEF73CFEA8F8340017
:204DA0004046FFF71DFE2468002CB5D15EB0BDE8F08100BFC01300200021FFF76BBF00BF48
:204DC0000B468979012900D0704792F906100029FADBD97C4906F7D5596E69B10129F3D1F1
:204DE000304A3149127801F108002832895A03F10B029B7AFFF7A6BE2DE9F04F1446294A6C
:204E00002A481278D3F860B02832175A81B039465A460830DE6D03F10B0993F80A80FFF70A
:204E2000C7FE234809F058F8B246054678B3262EC4BF2726B24659463246043013F0AEFC77
:204E40004FF0000BAA441B4B8AF804B005F12C060FCB86E80F0042464946AF8785F83E8077
:204E600005F13F0013F09AFC2946A5F848B0124808F0B8FFE96C20464B1CEB64FFF79CFA5A
:204E8000EB6C23F07F43EB6401B0BDE8F08F20460A49A3231022A37101B0BDE8F04FFFF772
:204EA000F1BA00BFFA3A0020A0420020A0420020B40A0020A8420020C0130020B0AB0100F9
:204EC0002DE9F04F83B0019100921F46DDF8308000F0D2F908F084FF002800F0BC803B4631
:204EE000D8F800B000252C465E4607469A46B44208D3554512D24FF03C02009B5A55D8F8E4
:204F000000600135631CB34208D3554506D24FF02F02009B5A55D8F800600135D7F804B097
:204F20000234584613F0C8FD00EB0409B14553D805D3554503D2009A3E2353550135FE6836
:204F400009F10104BEB13378ABB1D8F800B05C4508D3554506D2009A3B235355FE68D8F898
:204F600000B00135304613F0A7FD09F1020900EB09045C450FD8554504D9D8F80030621BB5
:204F80009A425AD83F68002F3CD0BCB9D8F80060B442B7D3ADE7009AC9EB0B030AF101010F
:204FA0005019002BACBFF318331C491B2D4A04F079FB0544554540D83F681FB3D8F80060B1
:204FC000A64207D8554505D2009A2C235355D8F80060013501348AE7009A331B0AF1010117
:204FE0005019002BACBF5B440BF10003491B1D4A04F058FB0544554504D2D8F8003099456B
:2050000099D29CE75346BA461F46CDB954B9BAF1000F20D0D8F800301F44C8F8007003B021
:20502000BDE8F08F019C82212046FFF7F5F820460D490F22FFF726FAE9E75346BA461F46F2
:20504000019C00992A462046FFF71CFA20462821FFF700F9DBE74FF0FF33C8F8003003B0C4
:20506000BDE8F08FA090010068AB010070B502880546C02A15D0D02A0DD01AB100230380B6
:20508000032070BD1F4B8521186808F0B7FBC0232B80012070BD88291BD0D0232B8001204F
:2050A00070BD852901D0012070BD174808F098FE044618B9F1E72468002CEED0E369002B29
:2050C000F9D0A1680029F6D004F10C0008F050F9F1E70D4808F084FE044618B9DDE72468BB
:2050E000002CDAD0A368002BF9D004F10C06304608F05CF90028F2D0E3699847304608F08E
:2051000041F9ECE7BC250020C41300202DE9F04F87B006AD0024384E45F8044D0291F46824
:205120002946924699468046A0470546334808F057FE0446002834D0DDF814B009E006DDAE
:20514000217ACB0603D51BF800102F2908D024683CB36768384613F0AFFC85420246EED174
:205160003846594613F0D6FC0028F0D1039032694046904710F0010F039B1CD1850728D5A5
:20518000656935B3109B5246009340464B460299A847237A5B0612D40123184607B0BDE820
:2051A000F08F73690298D6F8881098470023184607B0BDE8F08F2569002DE3D1DEE7336E84
:2051C00020464146029A98470123184607B0BDE8F08F410702D5A569002DD3D1020702D52C
:2051E000E569002DCED102987269D6F88C1003939047039BDBE700BF38AA0100C81300204C
:2052000038B50A4B1C7804B138BD094D012209481A7008F0E1FDAB68074898476B689847F1
:205220002146BDE83840054808F020BBD83A002038AA0100C81300200D510000E40A00204E
:2052400010B504460A486160214608F0CBFD94F90830002B00DB10BD216ACB69002BFAD0B9
:205260008B68002BF7D0BDE81040024808F0BABDC8130020C413002000487047C8130020AF
:205280002DE9F041A2B0074607F094FF3E4D0DF1440801AE0024204607F068FF55F8043FA2
:2052A0000134C31A102C48F8040F46F8043F2860F1D101F03DFF354E354934684D780B7870
:2052C0000246009501943946324804F0C5F912AC17AD54F8041B304804F0BEF9AC42F8D1EA
:2052E00002AC07AD54F8041B2B4804F0B5F9AC42F8D12A4802F0F4F8294804F0ADF9294D44
:20530000002455F824102848013404F0A5F9202CF7D1224802F0E4F8244804F09DF900244B
:2053200004F1200355F8231001341F4804F094F9202CF5D1194802F0D3F81D4804F08CF9AA
:205340001C4D002455F824101748013404F084F9202CF7D1114802F0C3F8174804F07CF958
:20536000002404F1200355F8231001340E4804F073F9202CF5D1094802F0B2F833680133B8
:20538000336022B0BDE8F081D81300201C140020E0460020D8AB0100ECAB010028B60100F6
:2053A000F4AB0100DC3F0020FCAB010004AC01000CAC0100DC3E002014AC010010B50388B5
:2053C000044653B1782B04D10F4807F0EFFF50B910BD00230380032010BD92B111680A4851
:2053E00007F0C6FF05E0084807F0CCFF0748FFF747FF78232380044807F0D8FF0028E7D038
:20540000F1E70280022010BDCC13002028B6010000B583B002A941F8040D034808F026FA25
:2054200003B05DF804FB00BFF40A0020F0B5002706463C463D4683B0304600F0D9FA019569
:20544000019B9C4206DD00BF019B01330193019B9C42F8DC304600F0D3FA0195019BC4F560
:20546000C874A34206DA00BF019B01330193019BA342F8DB0137B7F5487F06D0B7F5C87F40
:20548000CCBFC7F548743C46D6E703B0F0BD00BF78B110B50446094821460EF05FF808B1AD
:2054A000002010BD064821460EF058F818B1FF2010BD00207047E07910BD00BFACB8010026
:2054C000F4B10100FF2830B402460AD0074C0849234625460868496803C32846E27130BCED
:2054E0007047044D284630BC704700BF20140020E0460020F4B101002DE9F0417F4C84B04E
:2055000023687F4801215B689847236801210A461B687B4898470DF09FFB02F083FF02F056
:20552000F5FE00F0D1FE01F033FB02F02BFF00F055FA7449744A0124744B0C60204614609A
:205540001B68FFF773FF0DF08BFB01F07FFE01F0A3FD08F0B7F901F087FF08F0DBF841F2C1
:20556000342003F02BFF02F0A7FD08F091FA684801F0B6FF4BF201620021664804F06CF884
:20558000654801F0ADFF0DF0D7FB00FA04F1634804F062F8624B6348196804F05DF8624B3B
:2055A0006248196804F058F86148002108F05EF907F07EFF08F0D4F907F0C0FD5D4B1B684B
:2055C0002BB901F041FE5C4A5C4B10601C700220FFF72CFF5A4804F03FF85A4B5A4C186893
:2055E00001F07EFF594804F037F8594B186801F077FF584804F030F82168574804F02CF8F2
:20560000E469A04720B1A0470146544804F024F80A2001F05DFF002302A80821504C514E03
:20562000019301F08DFF504A9DF80E709DF80F5002AB03CB45EA07252060F76A616002201E
:20564000517CB84729460320B84719210120B8470822736B02A90B209847B36A01A90120EE
:2056600098470199414803F0F7FF41482F4603F0F3FF661E04F1060816F8011F3D4803F02F
:20568000EBFF4645F8D1E1793B4803F0E5FF3448FFF7FEFE394B80B2188068BB1D8039461D
:2056A000374803F0D9FF0DF037FF364B626821685A6019600DF04CFB0021334808F0D6F8C0
:2056C0000220FFF7B3FE0021304808F0CFF8304807F028FD01F0D6FE0120FFF7A7FE01F0A3
:2056E00083FA08F035F8044601F0E4FE14F0FF0FF7D102F0F7FDF4E70746D0E7D801001063
:20570000004003400C400940080009402C20094034AC01005CAC010074AC010084AC01004F
:20572000102108409CAC010004000940B4AC0100340C002050240020DC400020CC3E00209F
:20574000CCAC0100F8B80100FCB90100D4AC0100D8B10100DCAC0100A0900100E4AC010013
:20576000E0460020C0AF010088FF010008AD01001CAD010030AD010038AD0100B23A00209B
:2057800040AD010098420020B00C0020040B0020888D01002DE9F04104880646772C30D03E
:2057A0007E2C27D024B1002303800320BDE8F08107F0A8FF2F4F304B304D3A6818702C60CA
:2057C000002A45D02346A0462D4C04F8038093688020002198472B68013357F823202B60C4
:2057E000002AF2D1DBB2274A1370772333800120BDE8F081204B1B788B4219D00120BDE83D
:20580000F081DFF880801D4D98F800201E4F002393423B602B6007DA194CE156002919DB01
:20582000013393422B60F7DB3B68002BEFD1DCE7124D134CDFF84C80134F2B683A68E05C7D
:20584000511C00F07F0098F80020E0543960E7E71346C8E70849074A097852F82320002049
:2058600007F0CCFF0028E8D17E2333800120BDE8F08100BF140B00200C470020281400202D
:205880002C3B0020D93A00202C14002010B40F4B1C7864B10E4A1368984214D0002303E090
:2058A00052F8041F88420CD00133A342F8D1094A0948135D63F07F0313555DF8044B07F007
:2058C000F5BF1C46F3E70024F1E700BFD93A0020140B00202C3B0020040B0020F8B53A4DC1
:2058E0002C7828704440A10714D500F0020000F0FF07002835D0354B1A68002A5CD01B6867
:20590000002B50D0E2072B7807D41846BDE8F84000F09AB80346E207F7D513F001060CD074
:205920002A4A1268002AF0D101F08EFC284C294A01212B78A0639173E7E7264CA27B002AD9
:20594000E3D001F081FC2449214B8A6B9F6B2B78D21B10448863A6731846BDE8F84000F03B
:2059600073B81C4E337B7BB9737B1A4E002BC9D001F06AFC184A1649536B4F6B0021DB1BEF
:20598000184450637173BDE701F05EFC124A1049136B096B37735B1A184410632B789B074B
:2059A000E2D50A4BABE701F04FFC0A4B084901225A7348632B78AEE701F046FC054E044AC0
:2059C000012310633373E9E7DA3A002050240020DC400020CC3E0020883E002008B500F0F9
:2059E00017F8024B00221A7008BD00BFDA3A0020024B1B781843FFF771BF00BFDA3A002093
:205A0000024B1B7823EA0000FFF768BFDA3A00200A4B1A6802B1704710B50122084C1A6051
:205A200023680420DB6B984723680720DB6B9847044A136823F09003136010BD30140020A8
:205A4000B401001080200240084B094A1870136823F090031360C20702D5064B01221A703F
:205A6000830702D5044B01221A707047DB3A0020802002400420024007200240813801284A
:205A80009ABF024B18680020704700BF7414002038B50B4CA37953B101F0D6FB094A0A49D6
:205AA00093698D6900215B1B18449061A171074B03221A600648BDE83840FFF7E7BE00BF48
:205AC000CC3E0020883E0020DC4000207414002060AD010030B5044683B07721002000F0BA
:205AE00071FF6CB1154B1B688BB125238DF807300DF107010122F4200EF028FE03B030BDF5
:205B00000F4DAB795BB900238DF80730F0E701F09BFB0C490A4B012288619A71E5E701F036
:205B200093FB094A074993698969AC715B1A1844002390618DF80730DAE700BF5024002074
:205B4000CC3E0020DC400020883E002030B5802885B016D0812810D11D4C206878B151B3A9
:205B60000120FFF7B7FF1B4803211B4A002307F0D9FC0220206005B030BD154B186805B0A4
:205B800030BD134C012500207721256000F01AFF1249182288200EF0CBFD04A9B62301F8CB
:205BA000013D2A46E0200EF0D1FD0020FFF792FF206805B030BD0748019107F0F7FC019935
:205BC0000846FFF787FF01231846236005B030BD7414002054140020915A00003C140020C9
:205BE000F8B5534B1B68032B40F09A80431E012B00F296804F4C0023772105462360184648
:205C0000A38000F0DFFE2146F72006220EF090FD00287ED0E178484A23796079090341EA56
:205C20000311168841EA1013C6EB131101FB01F1B2F9047076000913B2F90200C6EBD303BC
:205C400007FB01F100FB03F0891301EBE0204710A7F57A4E4FEAAE0606FB06F6B2F9081072
:205C6000B2F90A70731301FB0EF103FB07F3B2F90E70491007FB0EF701EBE303B2F806C0BB
:205C80009B14B2F910E003F50043F61279000CFB03F30EFB061726786178B2F90CE094F841
:205CA00002C036034FEA0E4446EA0111DB13906104EBA70741EA1C1127D040F63544494217
:205CC000A1EB273104FB01F101F1434101F5A0010029B3BFB1FBF3F34900B1FBF3F35B007F
:205CE000D90801FB01F1B2F91440B2F916609F08490B04FB07F401FB06F1B2F9126062133B
:205D000002EB2131314403EB2113012D0BD01846F8BD204606210EF035FD4FF00040F8BDA0
:205D20004FF00040F8BD00EB800080300012F8BD74140020341400203C140020014B186801
:205D4000704700BF98140020F0B506461E4C83B000204521256800F035FE86B11B4B1B681D
:205D6000C3B141F2C2020123ADF8062023600DF10601022201200EF0E9FC03B0F0BD144F56
:205D8000FB797BB905F002054FF486532560ADF80630ECE701F058FA0E490D4B0122C861D2
:205DA000DA71DEE701F050FA0B4A0A49D369C96905F002055B1A18444FF48653FE71D061F9
:205DC0002560ADF80630D2E79814002050240020CC3E0020DC400020883E002030B50020F9
:205DE00083B0452100F0EEFD01200DF1060102220EF09EFCBDF90630002B07DB0E481021CD
:205E00000E4A002307F08EFB03B030BD0C4CE37953B101F019FA0B4A0B49D369CD690021EF
:205E20005B1B1844D061E1710848FFF72FFD084B02221A6003B030BD78140020DD5D000024
:205E4000CC3E0020883E0020DC40002078AD010098140020802810B50DD0812809D10C46E5
:205E600071B90D4807F0A2FB2046FFF76DFF204610BD002010BD0020FFF766FF002010BDBF
:205E80000120FFF761FF04481021044A002307F049FB012010BD00BF78140020DD5D0000CF
:205EA000813801289ABF024B18680020704700BFBC14002038B51A4C637953B101F0C4F973
:205EC000184A194953694D6900215B1B184450616171164C164A237803211160B3B1154D5E
:205EE0000020432100F06EFD2846042100F0DAFB20700020014600F065FD29886A880E4829
:205F00000E4D49BA52BA2378298002800C4901220B7022700B48BDE83840FFF7B7BC00BF34
:205F2000CC3E0020883E0020DC400020DD3A0020BC140020C0140020B63A0020B43A0020DC
:205F4000DC3A002088AD010070B5802884B016D0812810D1314C206878B100292DD1304D92
:205F60006B79002B44D12F4807F020FB01231846236004B070BD294B186804B070BD2A4B44
:205F800000242A4A2A4D20461C60432114802C8000F018FD04A91023022021F8023D0246C5
:205FA0000EF0D4FB234B21461870204600F00AFD1A4B0120186004B070BD1E4D2B7873B149
:205FC0001D4B1B680BB34321002000F0FBFC002000F028FB28700020014600F0F3FC114843
:205FE0000321164A002307F09DFA02202060C4E7019101F029F9124E124A76695369019989
:206000009B1B184469715061ADE701F01DF90C49034B012248615A71D5E700BFBC140020A3
:20602000CC3E00209C140020C0140020B63A0020B43A0020DD3A002050240020B55E000076
:20604000DC400020883E00208138012801D90020704708B5034B17201B685B689847C0F371
:20606000804008BDB401001028B1012806BF054BD86800207047044B1868C0F3C05080F0A6
:2060800001007047C4140020C0200240802810B509D0812805D1D1B9174B17201B685B6BFD
:2060A0009847012010BD144B144A1B684FF4000111601B6817200021114A9847114B00228B
:2060C0001A601720104902F047F9012010BD0A4C0A4A23684FF4000111601B6817200021D1
:2060E000074A9847074A2368002111601B6B17209847012010BD00BFB4010010E0200240B2
:20610000004007205C1A44420D610000172800D0704738B50E4C204607F014FC00B938BD86
:206120002046042107F0FAFB0A4B1D68C5F3C0554DB100F0FDFFA368C31AE3600648BDE839
:206140003840FFF7A3BB00F0F3FFE560A06038BDC4140020C0200240A8AD01008138012805
:2061600001D90020704708B5034B18201B685B689847C0F3804008BDB4010010802810B59C
:2061800009D0812805D1D1B9174B18201B685B6B9847012010BD144B144A1B684FF08071FD
:2061A00011601B6818200021114A9847114B00221A601820104902F0CFF8012010BD0A4CD2
:2061C0000A4A23684FF0807111601B6818200021074A9847074A2368002111601B6B182007
:2061E0009847012010BD00BFB4010010E020024000600620601A44422D62000068B10128B5
:2062000009D110B5074B1C6800F092FF8034201AC043C00F10BD00207047034B1868C0F3A3
:2062200000607047D4140020C0200240182800D0704708B500F07CFF084B1860084807F01C
:2062400081FB00B908BD06484FF4007107F066FBBDE808400348FFF719BB00BFD414002021
:20626000D8140020BCAD010010B5064C042023685B699847236804205B6B98470128F9D1F8
:2062800010BD00BFB8010010FFF7EEBF032801D000F0DEB808B5094B00219B6881209847CF
:2062A000074B00219B6881209847064B81209B6800219847BDE8084000F0CAB860AD010086
:2062C00078AD010088AD0100F8B50CF0C5FC0746FFF7CAFF254B4FF4A0601B68DB69984793
:2062E000234B0121234A196013689B07FCD5224C00F080F80EF0E8FC204801F0FBFF2368A4
:206300001420DB6B98471E4A002523681570DB6B132098471B4A23681570DB6B1220984763
:20632000194A23681570DB6B0E209847174A236801261670DB6B0D209847154A236815703D
:20634000DB6B0F209847134A236815703046DB6B9847114A236815709B6B1820984707B1A1
:20636000F8BDBDE8F8400CF07BBC00BFB80100102820086028200840B4010010340B00206C
:206380001420024013200240122002400E2002400D2002400F2002400120024010B5094BD2
:2063A00009481B685B68984710F00C0F044605D0064B04221A6002200CF056FCB4FA84F0AA
:2063C000400910BDAC010010002000400428004008B5064B02201B685B6B9847012803BFDB
:2063E000034B186800F00100002008BDB80100106020084070B5104D02202B685B6998478E
:206400002B6802205B6B9847012804460A4BF7D11B684FF44070DB699847084B084A1C60D8
:2064200013689B07FCD5074B07481B6807491B680122BDE870401847B80100102820086027
:2064400028200840AC01001000200040006CDC02174B10B5FF221A70FFF7BAFF20B1154995
:20646000154A00230B601360144B4FF440701B681B6A9847124B0121124A196013689B0712
:20648000FCD5114C052023689B6B984723684FF4804105209B699847236806209B6B98470C
:2064A000236806209B694FF48041BDE8104018478E0D00200428004010040542B801001084
:2064C0002820086028200840B40100102DE9F04706464F4B4F481B784F4A5B000360337858
:2064E0000F46136000F0B0FE4C4B1A6854060ED51C464B4D2D1A00F0A7FEC54202D400200D
:20650000BDE8F08700F0D6FF23685906F3D4434C0323236002200CF0A7FB00F095FE2368E3
:20652000DB070AD53E4D2D1A00F08EFEC542E6D500F0C0FF2368DA07F6D4FFF72FFF012F51
:20654000034635D90028DAD0334DDFF8D0900136022407F1FF3816F8012B631E43452A6002
:2065600003D3A74226D90134F5E70123C9F8003002200CF079FB00F067FED9F80030DB076D
:206580000ED5DFF89CA0C0EB0A0A00F05DFE1AEB000FB4D500F08EFFD9F80030D807F4D439
:2065A000FFF7FCFEA742034602D90028DBD1A6E7002BA4D0194C0523236002200CF054FB61
:2065C00000F042FE00F5CC5519352368D90707D500F03AFE401B002891DA00F06BFFF4E795
:2065E000FFF7DCFE044600F02FFE0C4E00F5CC55193533685A0602D42046BDE8F08700F063
:2066000023FE401B0028BFF67AAF00F053FFF0E7DE3A002000280040082800400428004063
:2066200067E6FFFF38B51A4B1A4A1B781A495B000B60106000F008FE184B1A6854060DD516
:206640001C46174D2D1A00F0FFFDC54201D4002038BD00F02FFF23685906F4D40F4C0723FB
:20666000236002200CF000FB00F0EEFD2368DB070AD50B4D2D1A00F0E7FDC542E7D500F031
:2066800019FF2368DA07F6D4BDE83840FFF786BEDE3A0020082800400028004004280040D9
:2066A00067E6FFFF2DE9F047444B454A1B7806465B0043F0010313600F4600F0C5FD414BAD
:2066C0001A6852060ED51C463F4D2D1A00F0BCFDC54202D40020BDE8F08700F0EBFE2368A2
:2066E0005B06F3D4374B0B221A6002201C460CF0BBFADFF8D8A007F1FF3901254FF0000828
:20670000C14524DD002DE5D000F09EFD2368DD070AD52D4D2D1A00F097FDC542DAD500F0CC
:20672000C9FE2368D807F6D4FFF738FE05460028E6D0DAF80020092306F808200220236020
:2067400008F101080CF090FA5FFA88F8D8E7002DC0D000F079FD1B4B1A68D1070BD51C46F4
:20676000194D2D1A00F070FDC542B3D500F0A2FE2368DA07F6D4FFF711FE0028AAD0134BB5
:20678000104C1A683E44052306F8012C022023600CF06AFA00F058FD00F5CC55193523680D
:2067A0005B0602D40120BDE8F08700F04DFD401B00288FDA00F07EFEF1E700BFDE3A002004
:2067C000002800400428004067E6FFFF082800402DE9F04F8146764D764E2878764C4000E5
:2067E000306099F8000083B02060174698460E4600F02AFD714B1A68540612D51C46DFF867
:20680000C0A1C0EB0A0A00F01FFD1AEB000F03D4002003B0BDE8F08F00F04CFE2368580647
:20682000F1D4664C0323236002200CF01DFA00F00BFD2368DB070DD5DFF884A1C0EB0A0A01
:2068400000F002FD1AEB000FE2D500F033FE2368D907F5D4FFF7A2FD012E034638D90028E3
:20686000D6D0DFF854B109F1010406F1FF3A4FF0020914F8012B09F1FF339A45CBF80020F7
:2068800004D8B14526D209F10109F2E74B4A0123136002200CF0E8F900F0D6FC474B1B684F
:2068A000DA070DD5464B1B1A019300F0CDFC019BC342ADD500F0FEFD404B1B68DB07F4D43C
:2068C000FFF76CFDB145034602D20028DBD19FE7002B9DD02B7837495B00384C43F001031B
:2068E0000B220B60022022600CF0BEF9DFF8C8900125002608F1FF3A564521D2002D87D0EA
:2069000000F0A2FC2368DD070BD52D4D2D1A00F09BFCC5427FF57CAF00F0CCFD2368D80789
