:020000040000FA
:20000000005000207D120000751200005D120000791200007912000079120000000000004A
:20002000000000000000000000000000791200007912000000000000791200007912000094
:20004000897A000079120000AD4C010079120000C56F00009D750000791200007912000031
:2000600079120000194D01007912000079120000791200007912000079120000791200004C
:20008000791200007912000079120000791200007912000079120000791200007912000008
:2000A0007912000079120000791200007912000079120000791200007912000079120000E8
:2000C00079120000B18C0000294B1B689B0702D44FF000407047F0B5002083B0452106F05F
:2000E0009FFA0DF106010120022213F0F9FE38B901A8022113F01EFF4FF0004003B0F0BD67
:200100000DF106010020022213F0EAFE0028EFD0BDF806305BBA9CB2200BADF8043016F06C
:200120004DFD16F0EFF80646C4F30B000F4616F055FD0DA3D3E9002304460D4630463946AC
:2001400016F0B2FD02460B462046294616F0ACFD17F08CF8074917F0D9F817F027FA03B03F
:20016000F0BD00BFAFF300807B14AE47E17A843F941800200000C84208B5214B1B68032B9F
:200180001ED1431E012B1BD81E4B1B78C3B11E4A1E4B012812881B8815D0184616F00EFDF5
:2001A00000221B4B16F080FD00221A4B16F07CFD17F05CF8184917F0A9F817F0F7F908BD0E
:2001C0004FF0004008BD104616F0F8FC0022104B16F06AFD08A3D3E9002316F065FD00228D
:2001E0000E4B16F0ADFB17F041F80B4917F08EF817F0DCF908BD00BF0000000000A0644033
:20020000B81800204F3A0020303A0020323A00200000F03E000059400000C84200004440DA
:200220002DE9F04FDFF85C914FF0000AC8464E4655464D4B81B01F78AC0008EB040B9BF87E
:200240000330B7EB131F2DD018F8250016F0C6FC3FA3D3E9002316F027FD0022434B16F0FC
:2002600071FB0022424B16F06DFB16F0DFFF08F82500707816F0B2FC35A3D3E9002316F093
:2002800013FD00223B4B16F05DFB394B002216F059FB16F0CBFF70709BF8033067F307135E
:2002A0008BF803309BF80330013503F00F03BB421BD0B07816F092FC27A3D3E9002316F034
:2002C000F3FC27A3D3E9002316F03CFB284B002216F038FB16F0AAFFB0709BF803304FF0A7
:2002E000010A67F303038BF80330072D06F10406A2D1BAF1000F13D10137FFB21F2F0CD97B
:20030000194A002313701C481C4A4FF41631002301B0BDE8F04F0CF095BC134B1F70F2E7B5
:200320000023174988F81C3099F8022009F10409934238BF13468945F6D1124888F81C30D4
:200340000BF028F9084B1F78D6E700BFAFF30080CDCCCCCCCCCCEC3F5C8FC2F5285CEF3FB1
:2003600052B81E85EB510040603A0020000032400000E03F00003440D82300202102000057
:20038000383D00201C3D00202DE9F0472C4B00291B680CBFCC250025834201D0BDE8F0874C
:2003A00028480023C15CDCB28A4203F1010337D0072BF7D1244B00271C462449E2780978FA
:2003C000A67861F30302E2701B7F30469E1B16F005FC17A3D3E9002316F066FC804628464F
:2003E000894616F0FBFB14A3D3E9002316F05CFC02460B464046494616F0A4FA0022144B6B
:2004000016F0A0FA16F012FFB6FA86F6A0707609334639462A46BDE8F0470B480BF0B8B868
:20042000094B274603EB8404C7E700BFAFF300809A9999999999E93F9A9999999999C93F98
:20044000A43A0020E43D00201C3D0020603A00200000E03F000000002DE9F041384C2468B4
:20046000844201D0BDE8F081364E0024355DE0B2AB4204F1010457D0072CF7D1DFF8D080D3
:200480001546314A98F80330127898F8000062F3071388F803300C4616F0A0FB24A3D3E911
:2004A000002316F001FC0F46C4EBC4110646480000F0FE0016F092FB1FA3D3E9002316F081
:2004C000F3FB02460B463046394616F03BFA00221E4B16F037FA16F0A9FE88F8000098F8E6
:2004E000010016F07BFB12A3D3E9002316F0DCFB0646680000F0FE000F4616F06FFB0EA3F6
:20050000D3E9002316F0D0FB02460B463046394616F018FA00220D4B16F014FA16F086FE6D
:2005200088F80100BDE8F081094B03EB8008A7E79A9999999999E93F9A9999999999C93F6E
:20054000A43A0020E43D0020603A00200000E03F1C3D0020000000002DE9F043524983B0F3
:200560000B780446002B68D0504B08209B6A01A99847002859D10B3C4D4DE4B205EB040934
:2005800099F80C0016F02AFB3FA3D3E9002316F08BFBDDF804800646C8EBC810400000F0E6
:2005A000FE000F4616F01AFB39A3D3E9002316F07BFB02460B463046394616F0C3F9002224
:2005C0003C4B16F0BFF916F031FE18F1550F89F80C0015DA063405EB8404606816F010FB2D
:2005E0002DA3D3E9002316F05FFB2DA3D3E9002316F0A8F916F03AFE606003B0BDE8F083CD
:20060000A31D05EB8304606816F0FAFA22A3D3E9002316F049FB0022002316F093F916F016
:2006200025FE606003B0BDE8F08302462146224808F0A4FB03B0BDE8F083204A01260E7082
:200640004FF07E5502F10D0302F14D00B42102F8011F43F8045F8342F9D1194A66211177B7
:2006600013460D4602F11C00B421C82219705A709D7004338342F9D112484FF47051124A20
:2006800000230CF0DFFA6FE79A9999999999E93F9A9999999999C93F8FC2F5285C8FEE3F28
:2006A0000AD7A3703D0AA73F613A002008A801003C3D00200000E03F04AA0100473D0020A2
:2006C0001C3D0020D823002021020000000000002DE9F04F144623F00047024657EA0400CD
:2006E0000E468FB01D469C46214634D06E4B26F0004A9A459346B14626DC24D09F4223DC19
:20070000694B9F4200F08F80B9F1000FC0F28F804FF0000879BB644B9F4200F0A580634BFD
:200720009F4267D0BCF1804F00F0E283604B9C4521D1B9F1000F1EDB104631460FB0BDE86F
:20074000F04F15F05FBF62B10AF1404000F5801050EA0B0007D10346544918460FB0BDE85F
:20076000F08F5745CCDD53480FB0BDE8F04F16F047B84FF0000810463146CDF808C000923F
:2007800016F006F8009ADDF808C0BBF1000F20D04FEAD97909F1FF3958EA09037AD0464B8D
:2007A0009F4240F38F8003F104739F4240F31084424B9A4540F39283BCF1000F40F392834B
:2007C00037A1D1E900010B46024616F06DFA0346C3E7BAF1000F04D0344B29F0404E9E45F6
:2007E000D6D1BCF1000FC0F2B683B9F1000F08DB0346B2E7BCF1000FC0F252841346314619
:20080000ABE70AF1404A0AF5801A58EA0A0340F05E8402460B4616F093F80B46024616F0FE
:200820006DFB034699E700293FF46EAF8CE7244B9F422CDCA3F154739F427FF769AF40F247
:2008400013403B15834240F34B84C3F58663033321FA03F000FA03F38B427FF459AF00F021
:200860000100C0F1020855E70AF1404303F5801353EA0B0300F03983104B9A4540F364832C
:20088000BCF1000FC0F22E832346294665E74FF002083FE7104631463346BCE7AFF300809B
:2008A0009C7500883CE4377E0000F07F0000F03F0000E03F68AE01000000E041FFFFEF3FA9
:2008C000FFFF3F43BAF5801F4FF0000205DACA4B16F0EAF98A466FF034024FEA2A53C74EFC
:2008E000CAF3130AA3F2FF334AF07F571344B2450C9347F4401740F3D083C14B9A4540F324
:2009000007840026B4460C9BA7F5801701330C933946BC4B4FEACC0C6344D3E900AB524642
:200920005B46CDF834C0CDE9060116F009F852465B46CDE90801DDE9060116F003F802468B
:200940000B460020B04916F0D9FA02460B46DDE90801CDE90A2316F0A7F902460B46CDE914
:200960000223CDE904237B1043F0005303F5002399190020002306460F460293DDE9022333
:200980001046194632463B46CDE9000116F08CF902460B46DDE9080115F0D2FF5246CDE9DB
:2009A00008015B463046394615F0CAFF02460B46DDE9060115F0C4FF02460B46DDE900013C
:2009C00016F072F902460B46DDE9080115F0B8FFDDE90A2316F068F9DDE90423CDE906017E
:2009E0001046194616F060F902460B4606460F4616F05AF96EA3D3E9002382468B46304651
:200A0000394616F051F96CA3D3E9002315F09AFF32463B4616F048F969A3D3E9002315F04B
:200A200091FF32463B4616F03FF967A3D3E9002315F088FF32463B4616F036F964A3D3E989
:200A4000002315F07FFF32463B4616F02DF962A3D3E9002315F076FF02460B46504659469F
:200A600016F022F9DDE9042306460F46DDE9000115F068FFDDE9062316F016F932463B4697
:200A800015F060FFDDE9006782468B4632463B463046394616F008F900225C4BCDE90801AF
:200AA00015F050FF52465B4615F04CFF02980F460646DDE9000132463B4616F0F5F83246F3
:200AC0003B46CDE90001DDE9060116F0EDF80022CDE906014D4B3046394615F031FFDDE9BF
:200AE000082315F02DFF02460B465046594615F027FFDDE9042316F0D7F802460B46DDE980
:200B0000060115F01FFF82468B46DDE9000152465B4615F017FF32A3D3E9002302980F4654
:200B2000064616F0C1F830A3D3E90023CDE904013046394616F0B8F8DDE90023CDE90601EC
:200B40003046394615F0FCFE02460B465046594615F0F6FE26A3D3E9002316F0A5F8024647
:200B60000B46DDE9060115F0EDFEDDF834C0284BCDF818C06344D3E9002315F0E3FECDE96C
:200B800000010C9816F02AF806460F46DDE90401204BDDF818C09C44DDE90023DCE900ABCB
:200BA00015F0D0FE52465B4636E000BFAFF30080EF4E454A287ECA3F65DBC9934A86CD3F3F
:200BC00001411DA96074D13F4D268F515555D53FFFAB6FDBB66DDB3F033333333333E33FC3
:200BE000000000E009C7EE3FF5015B14E02F3EBEFD033ADC09C7EE3F000040438E980300E9
:200C000079B60B00B88201000000F03F00000840A882010098820100CDE906AB15F092FEA6
:200C200032463B4615F08EFE029832463B4682468B4615F085FEDDE9062315F081FEDDE93D
:200C4000042315F07DFE02460B46DDE9000115F077FECDE9020108F1FF3858EA09030CBF11
:200C6000D54BD64B0022CDE904230023CDE900450093DDE90067204632463B46294615F083
:200C80005FFE52465B4616F00FF8DDE90223804689462046294616F007F802460B46404638
:200CA000494615F04FFE04460D465246304639465B46CDE9024515F0F7FF06460F46204689
:200CC0003B462946324615F03DFEBD4B824699428946884640F3138101F13F4303F5E0030E
:200CE000034340F0E581A0A3D3E90023DDE9020115F028FE324604460D463B465046494647
:200D000015F01EFE02460B462046294616F05CFA002840F0CD814C462015A0F2FE304FF478
:200D2000801101414144C1F30A50A64CA0F2FF35C1F3130BC0F5826003302C414BF4801BB2
:200D400021EA040300224BFA00FB3946304615F0F7FD06460F46DDE902018BEAE87B0BEBF9
:200D6000D87B32463B464FEA0B5A15F0EBFD80A3D3E90023002420460D4615F095FF3246AC
:200D8000804689463B462046294615F0D9FD02460B46DDE9020115F0D3FD77A3D3E900235D
:200DA00015F082FF76A3D3E9002306460F462046294615F079FF02460B463046394615F02F
:200DC000C1FD06460F4632463B464046494615F0B9FD42464B4604460D4615F0B1FD02463A
:200DE0000B463046394615F0ABFD2246804689462B462046294615F057FF63A3D3E900237D
:200E000006460F4615F050FF61A3D3E9002315F097FD32463B4615F047FF5FA3D3E900233C
:200E200015F090FD32463B4615F03EFF5CA3D3E9002315F085FD32463B4615F035FF5AA351
:200E4000D3E9002315F07EFD32463B4615F02CFF02460B462046294615F072FD06460F4687
:200E600032463B462046294615F01EFF0022CDE900014FF080433046394615F061FD024607
:200E80000B46DDE9000116F039F8424606460F464B462046294615F007FF42464B4615F04B
:200EA00051FD02460B463046394615F049FD22462B4615F045FD02460B4600203F4915F0A5
:200EC0003FFD8A44BAF5801F0246C0F227815346DDE9040115F0E8FE03463EE4BCF1000FA2
:200EE000FFF66EAC0023194637E40B46334934E433461046314615F0D7FE03462DE4324B6A
:200F000021F000449C4240F3FA80304B0B4403430CD132463B4615F013FD02460B46DDE997
:200F2000020116F03DF900283FF4F6AE20A3D3E90023DDE9040115F0B7FE1DA3D3E90023AD
:200F400015F0B2FE034608E4BCF1000FCADA234605F1004101E402460B460020174915F0A4
:200F6000CDFF42E4AFF30080FE822B654715973C00000000432EE63FEF39FAFE422EE63FD3
:200F8000396CA80C615C20BED0A4BE726937663EF16BD2C541BDBB3E2CDE25AF6A56113F9D
:200FA00093BDBE166CC1663F3E5555555555C53F59F3F8C21F6EA5010000F0BF0000F03F39
:200FC000FFFF8F40FFFF0F00FFCB904000346F3F634B9A4582DD634B9A453FF7EDAB002252
:200FE000604B15F0ADFC54A3D3E9002306460F4615F05AFE52A3D3E90023CDE900013046C3
:20100000394615F051FE3246CDE902013B463046394615F049FE002282468B46304639465A
:20102000514B15F041FE02460B4647A1D1E9000115F086FC32463B4615F036FE02460B4642
:2010400000204A4915F07CFC02460B465046594615F02AFE3EA3D3E9002315F025FE024635
:201060000B46DDE9020115F06BFC06460F46DDE9000132463B4615F065FCDDE9002300201A
:2010800082468B4615F05CFC02460B463046394615F056FCCDE90201DDE50026B44637E4BF
:2010A000334600202F4915F029FF0346FFF755BB29A3D3E90023DDE9040115F0F5FD26A36D
:2010C000D3E9002315F0F0FD0346FFF746BBB8F1010F03467FF441AB01F10041FFF73DBB7D
:2010E00000297FF446ABC3F58263033347FA03F000FA03F3BB4217D08846FFF710BB1B4B93
:201100009C423FF709AEDDE90023924693462EE64FF480264FF0010CFFF7FABB5A4600F0E6
:2011200027F802460B46D3E600F00100C0F10208FFF7F5BAAFF30080000000604715F73FD9
:2011400044DF5DF80BAE543E555555555555D53FFE822B654715F73F9C7500883CE4377EAA
:20116000FEFFEF3F0000F03F0000D03F0000E03FF8B5C1F30A5604460D460B46174616BB0A
:2011800021F00043034332D00022314B15F08CFD304A044697420D460B4637DB40F2FE7292
:2011A000C1F30A56363E3E44964215DD24A1D1E9000122462B4615F0B7FB21A3D3E90023A8
:2011C00015F072FDF8BD40F2FF72964224D040F2FE723E449642E9DC002E09DD23F0FF434D
:2011E00023F4E00343EA065520462946F8BDF8BD16F1350F15DA4CF250339F42D6DC12A1ED
:20120000D1E9000122462B4615F08EFB0EA3D3E9002315F049FDF8BD02460B4615F092FBF1
:20122000F8BD23F0FF4323F4E003363643EA0655204629460022084B15F036FDF8BD00BFC0
:201240009C7500883CE4377E59F3F8C21F6EA50100005043B03CFFFF0000903C044B1A68CD
:20126000B2F5806F03D01B689B0500D4FEE7704728ED00E0FEE700BFFEE700BF08B510F078
:20128000B7FD104A104B9A420DD2D0430F4918440B4620F003000430084453F8041B834250
:2012A00042F8041BF9D10A480A494FF000028842B8BF40F8042BFADB03F04CFFFFF7CEFFA7
:2012C00008BD00BF00000020E8110020E1C20100E81100208146002038B5048805465CB1DC
:2012E0005B2C05D113480BF0E7FBF8B9012038BD00230380032038BD4FF4F05003F0B6FEAA
:201300000D4805F021FF20460AF0E0FE0B4B1B69984700F0CBF907484FF4F0510BF0AEFB41
:2013200000F016FA5B232B80012038BD01480BF0AFFBF5E718120020E0820100F4B0010052
:20134000704700BF10B505F059FD054B05491860054A06480023BDE810400BF073BC00BF53
:2013600050130020004C0E00851600002C1200202DE9F04107460E4615461C46DDF8188085
:20138000FFF7E0FFCDF81880384631462A462346BDE8F04103F0E8BC10B50B4C0B4A2378D4
:2013A0000021042B11700A4805D9BDE810404FF4C8510BF063BB4FF420710BF05FFB2378FE
:2013C0000133237010BD00BF443A0020463A00208C120020F0B5038883B0B3F5A07F04464A
:2013E0000D4600F0C080164679D940F24F12934265D040F25712934240F0C78001200CF01B
:201400002DFA002800F0C68005F17F03DBB2012B40F2D780882D05D040F2571301202380A3
:2014200003B0F0BD6D480BF047FB0028F4D0FFF789FF6B4B1B782BB168480BF03DFB0028C0
:2014400040F0C880674F3B88002B66D1664B1B781BB1822DE0D1012EDED1644B1B68002B8E
:2014600000F0B280624805F06FFE00210B460222604802F0EFF8604F60495E48604E02F089
:2014800073FD32215B4802F013FD0FCF0FC697E80300172286E80300A6F11001554802F0CE
:2014A0001FFE4F4B01224FF4C8514C481A700BF0E5FA40F24F13534A0021118023804D4AE1
:2014C000514B29468DE80C004E48504A43F2163302F0F8FF01289FD8002003B0F0BD002B9E
:2014E00053D14A494A4A4FF0FD0C4FF47F4E4FF48070FE274B808B80CB800B81A1F800C0EB
:20150000A1F80AE08F81C8811370FFF71BFF33484FF420710BF0B2FA70E700210B46022279
:20152000344802F097F83B49324802F01DFD3221304802F0BDFC3A88374B40211B6830488E
:201540000092364A07F040FC2D4816F05DFD2C490246284802F0C4FD314900234FF4A0729F
:201560000B803B802280234A2E4B29468DE80C002B48264A43F2163302F0A4FF0128ABD90A
:20158000164840210BF07AFA46E700230320238003B0F0BD11480BF08FFA00283FF43CAF84
:2015A000124B214A1968214B2148002914BF1146194607F0E3FB09484FF420710BF05EFA0E
:2015C0002AE7FFF7BFFE3DE704484FF420710BF055FA21E7FFF7E0FE34E700BF8C12002045
:2015E000463A0020983A0020453A0020F42400206C830100AC120020948301008483010094
:201600004C12002068130020351600009C120020443A00203C830100943A00205083010078
:201620005413002041130000FC820100008301000883010010B504460D482189627907F060
:201640009DFB63790B4A0021022B117003D0BDE81040FFF7A1BE084B22891B899A42F6D190
:20166000064805F071FD064B01221A7010BD00BFAC830100463A0020AC120020D08301002D
:20168000453A002008B5074B1B88012B09D0064805F05AFD012005F09BF8BDE8084005F0CF
:2016A0000DB908BD2E3A0020E483010008B50A480BF02CFF03F0D2FB084B09489B68984734
:2016C00001F070FE01F02CF801F066F9BDE80840044800210BF064BC28120020A4A2010030
:2016E000711300003C04002010B50446044821460BF012FF20696169BDE8104003F0CEBB74
:2017000028120020F0B5104B83B002A9002241F8042DDB68984706460C480BF0FBFE044605
:2017200078B1019F656939462846324616F09AFC20B9284616F068FCB04202D02468002CE4
:20174000F0D1204603B0F0BDA4A201002812002008B501F001F8084B1B7813B9074805F0C4
:20176000F3FC05F04BFB064B1968BDE80840411A044807F003BB00BF453A0020F88301004A
:20178000501300201C8401002DE9F0410388044683B140F24950834207D1882914D040F2A6
:2017A000495323800120BDE8F081002323800320BDE8F081124880210BF060F940F2495397
:2017C00023800120BDE8F0810D4B9A42E7D10D4F0D4DDFF8388003E057F8045F002DE9D083
:2017E000AE6930460BF014F80028F5D02869D8F85C3098473046B1680BF002F8ECE700BF86
:20180000C41300206C99010064070020A4A201002DE9F04F89B00DF120080023DFF8AC900F
:2018200048F8143D0191D9F80C30414682469847224D0646039F224C03E055F8043F73B1E8
:201840001C46D4F814B0584616F0DEFBB042F4D159463846324616F017FA0028EDD10025AB
:20186000504642460395D9F858301649A469984708B10F2808DD0198D9F81430D9F8781032
:20188000984709B0BDE8F08F0246039904A8049505950695079516F029FA04A816F0A0F91E
:2018A000094BA0F11E029A420146E4D8A06020460AF0A6FF09B0BDE8F08F00BF6C9901009D
:2018C000640700208084010062510100A4A201002DE9F04F83B00C9E4FF0FF344FF0000B8F
:2018E00082468846174699468DE81008BDF838503EB3336833B39D4254DC374C202005F013
:201900001BFC236A69465046984700994B1C5CD0D4F8E430994253D0D4F890106369404637
:2019200098472E4B1D68284616F06EFBE36C02462946404698474FF0FF33336003B0BDE826
:20194000F08F01AE244C202005F0F6FB69465046236A984700994A1C2AD0D4F8E43099425E
:20196000DAD1E369404698474D4510D82A4638460D9916F0BBF94FF0FF337A193360E36C5D
:201980004046D21B3946984703B0BDE8F08F4A4638460D9916F0AAF9336807EB09024B441B
:2019A0003360ECE70D9AED1A1A44ADB20D92C9E7D4F8E410E369404698474D45D6D9E6E788
:2019C000E36940465D469847D0E7E3694046D4F8E4105D469847C9E7A4A201003804002095
:2019E0002DE9F04F002489B098468B4691468246059406940794129F05F000FA08AC44F889
:201A00000C0D07A90DF11B0206A804F0C5FE8DF81A000BF061FB094B0C261D78ADF81E00A9
:201A200000970194594650464A46434602968DF81950FFF74DFF09B0BDE8F08F7D460020A4
:201A400070B584B0089E054D4FF48074009601950294FFF73DFF04B070BD00BF4C3E0020C0
:201A600070B584B0089E054D4FF48074009601950294FFF72DFF04B070BD00BF4C3F0020AF
:201A80002DE9F04FC1B08246894690461F460CF05BF98346002833D004AD2E460AE0034612
:201AA00053F8080F1036596803C458460CF052F98346B0B133460BF1080151F8080F06F112
:201AC0000804496803C358460CF030F90028E6D1B060606058460CF03DF91036834600280A
:201AE000E8D1721B92B24A9B02928DE828005046494642463B46FFF7EBFE41B0BDE8F08F24
:201B0000024604ADEFE700BF2DE9F04F1D46273385B023F0070300AFADEB030D0023FB60FE
:201B2000BB6B4FF0FF348A463A60EB46BC60002B00F0A680584E07F10801336A9847B968D1
:201B40004A1C1AD0D6F8E430994218D0D6F89010736950469847514B1C68204616F054FAF7
:201B6000F36C0246214650469847BA6B4FF0FF3314371360BD46BDE8F08FD6F8E410F36949
:201B800050469847BB6B1B681A46002BB8BF03F10F02C2F30714A3EB041808F0FF082B4438
:201BA00005EB0802C2F307121B077A6003D013460133DBB27B60002011F04CF9814640B17B
:201BC000A4B1484611F046F9621ED4B281460028F6D1BC6B4FF0FF3239682260F36C504677
:201BE000002298471437BD46BDE8F08F7B68D844002B4CD05C1EE4B201340BEB041400E0F9
:201C000088B3484611F020F94B4642680168CBF80420CBF80010B9F800204846ABF8082059
:201C200053F8122F0BF1100B4BF8062C9B882BF8023C11F00FF95C458146E1D14544A54275
:201C400028BF2546A5421FD0BB6BC8EB05021B68B96B13440B60F36C50464146984714376D
:201C6000BD46BDE8F08F45445D4528BF5D46AB45EAD1B96B4FF0FF33C8EB05020B60EAE752
:201C800007F10C03BB6355E70028F2D0DCE745445D4528BF5D46D7E7A4A201003804002020
:201CA0002DE9F04F99B00DF12409059006928B46484600213C22079316F0F2F8444B1D68B2
:201CC000002D6DD0284609F057FC4B46044655F8040F04F11C0869684FF0000A0BAD03C3F4
:201CE0002EE000223B4B3046394614F02BFE15F075FAC0B22870607814F070FF0022354BA1
:201D000014F0D2FF334B002214F01CFE15F08EFA6870A378EE1C012BA3F1020029D914F0DE
:201D20005DFF00222B4B14F0BFFF0022294B14F009FE15F07BFA04344445A87035461FD08F
:201D4000207814F04BFF0022234B14F0ADFF0022002306460F4615F019FA0028C1D0002284
:201D60001C4B3046394614F0EBFD15F037FAC0B2C0E70434444585F802A005F10305DFD13E
:201D8000229BC9EB0505ADB28DE80802029505985946069A079BFFF79BFD19B0BDE8F08F5A
:201DA0000E4C5846D4F89010636998470C4B1D68284616F029F9E36C02462946584698471F
:201DC000229A4FF0FF33136019B0BDE8F08F00BFA43A00200000E03F0000E0BFA4A20100B4
:201DE000380400202DE9F04F99B00DF12409049283463C228A4648460021059316F050F89C
:201E000000F0ECFD324B07901D6899889A790798304B0724CDF82500CDF83550ADF83910B5
:201E20008DF83B208DF8244007CB0DF13B05CDF82900CDF82D10CDF831205C1E03F10F083E
:201E40000CE00022244B3046394614F07BFD15F0C5F94445C0B205F8010F1CD014F8010FC1
:201E600014F0BCFE00221D4B14F01EFF0022002306460F4615F08AF90028E2D00022164B2E
:201E80003046394614F05CFD15F0A8F94445C0B205F8010FE2D1124B1B6843B1114914AAA3
:201EA0000968139153F8040F0891596803C216AC229BC9EB0404A4B28DE80802584651464B
:201EC000049A059B0294FFF703FD19B0BDE8F08FE43D00203C3D00200000E03F0000E0BFB3
:201EE000A43A0020983D00202DE9F04F97B0229E002735684FF0FF3E81466868099104928C
:201F00001D460B970D97CDF830E016F07DF8209C0390002C00F002828A4F0DAA7B6D4846D3
:201F200089499847012800F0FB813B6A0DF1300B59464846059398470C9B824A591C19D008
:201F4000D2F80421934215D0099ED7F890107B69304698477D4B1D68284616F055F8FB6C14
:201F600002462946304698474FF0FF33236017B0BDE8F08F01230793FB680DA94846984732
:201F8000039B804683421ED00D9EDFF8C8A1334656469A466E4D30465146424616F062F89A
:201FA00028B9304616F030F8404500F0628155F8106F002EEFD109987B69D7F888109847BF
:201FC00017B0BDE8F08F4FF000096B1CDFF880A160480893CB465FE05B4622684FF0020C44
:201FE000934208D3A94512D204993C2201F80920226809F101090133934208D3A94506D20A
:20200000049A2F2302F80930226809F10109DAF800B0CDF818C05846059215F0F5FFDDF8ED
:2020200018C0059A00EB0C08904553D807D3A94505D2049A3E2302F8093009F10109DAF883
:20204000043008F1010BD3B1226893450AD3A94508D2049A3B2302F80930DAF804302268FD
:2020600009F1010918460692059315F0CDFF08F10208069A00EB080B9345059B41D8A945DD
:2020800005D92368C9EB0B029A4200F219815AF8100F002800F014813368039A596815F092
:2020A000E1FF0028F3D1079B012B57D0BBF1000F92D022685A4508D84D4506D9049A2C23DB
:2020C00002F80930226809F101090BF101030BF1030C85E7CCEB0203049A002BACBF5B4439
:2020E0000BF1000302EB0900089AC9EB02011A4A06F06AFE8144A94515D22368984598D264
:202100009DE7C8EB0208049AB8F1000FA8BF434402EB0900089AC9EB02010F4A06F054FE4A
:202120008144A945B3D9B9F1000F40F07081DAF80030002B00F0BE8023681D44256017B0F3
:20214000BDE8F08FA4A20100688C0100380400208C9601008C840100A88401000E900F9025
:202160001090119012901390149015902368BBF1000F71D1194653B94D4540F22181049A99
:202180007B2302F80930236809F101091946012B9B4640F21881219B06911B6818460593DC
:2021A00015F032FF069900F1020C8C458046059B00F2E78009D3A94521D2049A222302F821
:2021C0000930D4F800B009F1010908F103035B4509D3A94513D2049A3A2302F80930D4F8FE
:2021E00000B009F1010908F104035B4507D3A94505D2049A7B2302F8093009F1010908F180
:202200000508DAF80C20DAF808301268202100920EA8834A06F0D8FD0EA815F0F5FE2368D5
:2022200000EB080B9B457FF62AAFC8EB03030EAA002BA8BFD2181346049A02EB0900089AF6
:20224000C9EB0201774A06F0BFFD8144A945FFF41EAF08F101023AE05B4507D84D4505D9DC
:20226000049A2C2302F8093009F101090BF10108C7E759464846059B98470C99481C67D09B
:20228000D7F80431684E994264D0D6F8B430994200F0A480099FD6F8901073693846984785
:2022A000624B1D68284615F0AFFE29460246F36C384698474FF0FF33236017B0BDE8F08F7A
:2022C000079BD846012B7FF42EAF0BF101022368434513D84D4511D904997D2301F80930DA
:2022E000236809F1010993420ED84D4508D9049A7D2302F8093009F1010905E09342F4D925
:20230000B9F1000F3FF413AF0499FB6C4A4609989847FB6932210998984708E70BACFBE53E
:202320000D9815F05DFC079000287FF4FEAD3B6A0DF1300B59464846059398470C9A531C26
:202340003FF41AAED7F8DC309A427FF4FDAD13E6D7F80411099EFB6930469847EA68AB680C
:202360001268049D00924021314A284606F02CFD284615F049FEFB6C02462946304698471A
:2023800098E7049A023902EB0900089A0029A8BF5B18C9EB0201234ACDF814C006F014FD86
:2023A0008144A945DDF814C02DD2D4F800B0DC45BFF403AF08F103035B45BFF40CAF12E7BA
:2023C00019469B46E7E6A945FAD2049A222302F80930216809F101098B46DCE6099FF369FC
:2023E00038469847EB68049D1B684021114A284606F0EAFC284615F007FEF36C0246294675
:202400003846984756E703224FF002085FE70499FB6C4A4609989847FB6928217BE700BF8C
:20242000AC840100A8840100A4A2010038040020B8840100A89B01002DE9F04786B006ACE5
:202440000026184D44F8046D6F6D89469046164922461D4682460E9EB84701280ED0134CC0
:20246000009604F108065046494642462B4601940296FFF739FD06B0BDE8F087059815F0D8
:20248000AFFB0028EBD00A4F402400965046494642462B4601970294FFF71AFA06B0BDE8AB
:2024A000F08700BFA4A20100C484010024070020F83D00202DE9F04786B006AC0026184DF6
:2024C00044F8046D6F6D89469046164922461D4682460E9EB84701280ED0134C009604F140
:2024E00008065046494642462B4601940296FFF7FBFC06B0BDE8F087059815F071FB00288E
:20250000EBD00A4F282400965046494642462B4601970294FFF7DCF906B0BDE8F08700BF1D
:20252000A4A20100C4840100C8050020F04500202DE9F04786B006AC0026184D44F8046D5C
:202540006F6D89469046164922461D4682460E9EB84701280ED0134C009604F108065046C8
:20256000494642462B4601940296FFF7BDFC06B0BDE8F087059815F033FB0028EBD00A4F19
:202580001C2400965046494642462B4601970294FFF79EF906B0BDE8F08700BFA4A20100B4
:2025A000C484010088070020783A00202DE9F04786B006AC0026184D44F8046D6F6D894639
:2025C0009046164922461D4682460E9EB84701280ED0134C009604F10806504649464246DC
:2025E0002B4601940296FFF77FFC06B0BDE8F087059815F0F5FA0028EBD00A4F1024009663
:202600005046494642462B4601970294FFF760F906B0BDE8F08700BFA4A20100C4840100FE
:20262000B8040020304300202DE9F04786B006AC0026184D44F8046D6F6D894690461649DE
:2026400022461D4682460E9EB84701280ED0134C009604F108065046494642462B4601948A
:202660000296FFF741FC06B0BDE8F087059815F0B7FA0028EBD00A4F14240096504649463B
:2026800042462B4601970294FFF722F906B0BDE8F08700BFA4A20100C48401004806002073
:2026A0001C4300202DE9F04786B006AC0026184D44F8046D6F6D89469046164922461D4683
:2026C00082460E9EB84701280ED0134C009604F108065046494642462B4601940296FFF747
:2026E00003FC06B0BDE8F087059815F079FA0028EBD00A4F282400965046494642462B46B8
:2027000001970294FFF7E4F806B0BDE8F08700BFA4A20100C48401006C070020F4420020AF
:2027200070B50A4D0A4C1E26A0691E2186600AF067F82046FEF7D8FF55F8044F002CF3D13A
:202740002146BDE8704003480AF02ABC6C990100640700205407002038B52E4804F0F4FC3F
:202760002D4804F0F1FC2D4C04F1600514F8023C227C0BB1012A3ED92034AC42F6D12848D1
:2027800004F0E2FC0BF0B2FC0BF068FC044600283BD0244806F0F2FA201D0DF06DF8A169EB
:2027A000214806F0EBFA0BF0E9FA01461F4806F0E5FA0BF0C9FA0446C0B11A4806F0DEFACB
:2027C00004F108000DF058F8194806F0D7FA20460BF0ACFA0DF050F8A169134806F0CEFA18
:2027E00020460BF0B7FA04460028E6D11148BDE8384004F0A9BC0B4806F0C0FA20460DF069
:202800003BF80A2004F098FCB6E70B4804F09CFCC9E700BFC8840100E0840100AE40002028
:2028200000850100FC8401001485010038850100748501005C8501003085010008B50248A0
:2028400004F082FCFEE700BFE48301002DE9F04184B004AD4FF0FF36244C45F8046D276AAB
:202860000E46294698461546B84703994B1C19D0D4F80431994217D0D4F8B43099422AD029
:20288000D4F89010636930469847194B1D68284615F0BAFB29460246E36C3046984704B08B
:2028A000BDE8F081D4F80411E369304698470A9AD8F800302846009240210E4A06F084FAAF
:2028C000284615F0A1FBE36C024629463046984704B0BDE8F081E369304698472846402154
:2028E000054A0A9B06F070FAEAE700BFA4A2010038040020A4990100A884010070B5044677
:202900000E461546074804F01FFC01F0DBFF064B20469C6931462A4604940833BDE8704014
:20292000FFF794BFB09901009C07002010B4044B9C69083301945DF8044BFFF787BF00BFBA
:20294000B807002010B4044B9C69083301945DF8044BFFF77BBF00BF1408002070B50E4668
:202960001546044604F04AFA10210346074A084806F02AFA074B20469C6931462A46049409
:202980000833BDE87040FFF761BF00BFA89B010028140020F807002010B50A4B0A4C0B4850
:2029A000A361FEF7A1FE0A48FEF79EFE2046FEF79BFE0848FEF798FEBDE810400648FEF795
:2029C00093BE00BF28140020F807002014080020B80700209C0700205408002038B5124BC8
:2029E0001B6843B904F0D2F96423A0FB0301C00940EA416038BD04F055FA0C4A0C4B126880
:202A00001B6822B90B490A68821A002A01DB184638BD0C686422201AA0FB0245200C40EA31
:202A20000540181A38BD00BFF424002084230020DC3D0020B03A0020836A01219B68812076
:202A4000184700BF2DE9F0412E4D84B04FF0FF330E461746D5F81C8003932B4CF8B103A975
:202A6000236A984703994B1C19D0D4F80431994217D0D4F8B430994232D0D4F89010636976
:202A800030469847214B1D68284615F0BDFA29460246E36C3046984704B0BDE8F081D4F8D5
:202AA0000411E36930469847D5F808E0EA680023EB84D8F8083038460192CDF800E04021A8
:202AC000134AC5F804E006F07FF9384615F09CFAE36C024639463046984704B0BDE8F0813C
:202AE000E36930469847D5F808E04FF0000C734638464021074AC5F804E0A5F826C006F032
:202B000063F9E2E7980D0020A4A2010038040020649B0100809B010070B5154C86B006AAA0
:202B200000250E4642F8145DA36D1249984708B10F2805DD30466369A16F984706B070BD41
:202B40000246019902A8029503950495059515F0CDF802A815F044F820280346EAD8064A2F
:202B600030469384D5846369E16E9847E6E700BFA4A20100889B0100980D002070B51A4C2E
:202B800086B006AA00260D4642F8146DA36D1749984708B10F2805DD28466369A16F9847D1
:202BA00006B070BD0246019902A8029603960496059615F09BF802A815F012F80128EBD803
:202BC0000B4B0C4AC1015962D684181D39B90AF07DF828466369E16E984706B070BD064A41
:202BE0000AF030F8F5E700BFA4A2010080840100A8090020980D00204D330000034610B4A9
:202C000090F83440596A074814F0010F064A18BF024611B95DF8044B7047181D5DF8044B25
:202C20000AF010B8392A0000CD31000070B54FF0FF3382B00D460193144CD0B101A9236AAA
:202C4000984701994B1C14D0D4F8E430994212D0D4F890106369284698470D4B1E6830463A
:202C600015F0D2F931460246E36C2846984702B070BDD4F8E410E36928469847054AE36C53
:202C8000284612780449984702B070BDA4A2010038040020473A0020381400202DE9F04F2C
:202CA0008BB005460F469146FEF72CFD0646A54C28462369984726B110F0010809D18307EA
:202CC00033D438466369D4F88C1098470BB0BDE8F08FD6F818804FF0FF330693B8F1000F55
:202CE00000F0B280002D00F0848006A92846236A984706994A1C7CD0D4F8043199427AD091
:202D0000D4F8B430994200F0A580D4F890106369384698478C4B1D68284615F075F92946D2
:202D20000246E36C38469847D0E70DF1280949F8148D4A46D4F858A028468449D047002809
:202D400054D00F2840F3BA80C346CDF80C8028467F494A46D047002846D00F2840F39B80B1
:202D60004FF0000828467B494A46D047002839D00F2840F3CE800023029328464A467649D5
:202D8000D04718B10F2840F3B08000200BF03001302951D0202973D0102976D05FFA8BF212
:202DA00052B2002A4BDD1BF0040F03D0B269BDF80C3093841BF0400F1CBFB26990611BF05D
:202DC000200F1CBFB269C2F810801BF0100F02D0B369029A5A6138466369E16E98470BB0E2
:202DE000BDE8F08F0290C8E78046BBE783460390ADE7D4F80411E36938469847D8F8082094
:202E00000023B2F1004FC8F80420A8F826304D4C1AD0B3680092D8F80C2048460192402115
:202E20004E4A05F0D1FF484615F0EEF8E36C024649463846984749E7029B9845AEDB384688
:202E40006369A16F984741E738466369D4F89C1098473BE7E36938469847D8F808300022F9
:202E6000B3F1004FC8F80430A8F82620ECD0D8F80C20484600924021394A05F0A5FFD2E777
:202E8000B26952699045DADC88E7B269029B12699342D4DB82E700230246059906A80693F2
:202EA00007930893099314F021FF06A814F098FE4BF0200380465FFA83FB53E702460599BA
:202EC00006A8CDF81880CDF81C80CDF82080CDF8248014F00BFF06A814F082FEB0F5004F84
:202EE000039029D24FF0040B31E700250246059906A8069507950895099514F0F7FE06A80C
:202F000014F06EFE00289ADD4BF040035FFA83FB3CE700230246059906A8069307930893A5
:202F2000099314F0E3FE06A814F05AFE4BF0100302905FFA83FB20E7CDF80C804FF0800B2D
:202F400005E700BFA4A2010038040020889B0100AC9B0100B09B0100B49B0100909B0100EF
:202F6000A49B01002DE9F04186B006460F46FEF7C9FB0546234C3046236998470DB1830757
:202F800007D438466369D4F88C10984706B0BDE8F08106AA4FF0000842F8148D3046A36DA1
:202FA0001949AD69984708B10F2806DD38466369A16F984706B0BDE8F0810246019902A856
:202FC000CDF80880CDF80C80CDF81080CDF8148014F08CFE02A814F003FE0C4B9842E5D87A
:202FE000C001686248B9281D09F070FE38466369E16E984706B0BDE8F0812846FFF7FEFDF6
:20300000F4E700BFA4A2010080840100805101002DE9F0410C46444B84B0DD6DA8472678C5
:20302000002E4DD0E38C002B4DD1404F63683A78002A50D0DFF80081E068D8F80010411A5C
:2030400064294CDD03F50043B3F5803F00F500412CBF05230323B1F5803F2CBF052103210F
:203060000B441344402B4FDC314B1A4400F50043B3F5803F0290ADF80C004DD203210E46C1
:20308000BDF80C000123A2F8010013703D78E0686368354426780A443D70C8F8000003F59B
:2030A0000041B1F5803F0393ADF8063024D2BDF806301670A2F8013003223B7813443B70ED
:2030C00004B0BDE8F081194F0022A368E2843A786360002AAED1E068DFF85C80B2E703F581
:2030E0000041B1F5803F34BF03200520104440280ADC0F480244D4E7039846F04006167058
:20310000C2F801000522D8E70A4B1869A8470023074AE0683B70A9E7029841230521C2F874
:20312000010013700E46B1E7A4A20100473A002038140020800B00207C1400202DE9F04129
:20314000046B06462568002D33D0B36A286A5B689847A8602568FFF741FCE8602268D38CAD
:203160000133D3842368DA699169F1B1888CE0B14B68B3F1004F15D0CD8C854212D0886838
:203180000D69A84202DB4F69B84204DDAB4202DB4D69AB4206DD8D695F19B84202D85B1B57
:2031A000984202D21069FFF733FF54F8045F002DCBD196F93430002B01DBBDE8F081B36A1B
:2031C00081209B680021BDE8F041184710B50446074A616A2346043009F034FDA36A812055
:2031E0009B68012198472046BDE81040FFF7A6BFCD3100002DE9F041046B804623687BB1E4
:20320000052700264FF00045DA699F84DE845D609361D869FEF768FA54F8043F002BF3D149
:20322000114841460AF078F9D8F82C30C3F81880D8F824301BB94FF42073C8F82430D8F812
:203240002C00FEF751FA98F83430DB0704D44046BDE8F041FFF7BABFD8F8283081209B68BD
:203260000121BDE8F04118477814002030B5038883B0044693B140F2FC60834209D1284B7A
:203280001B788B4234D040F2FC630120238003B030BD00230320238003B030BD21480AF0E9
:2032A00035F92148FEF720FA2048FFF7A3FF2048FFF7A0FF1F48FFF79DFF1F48FFF79AFF7C
:2032C0001E4B1F4DDA699361D869FEF70DFAEB6A9D616B6A13B94FF420736B62E86AFEF7C7
:2032E00003FA1848696A031F174A09F0ABFCCAE70C4801920AF00EF9019A054618B9C2E782
:203300002D68002DBFD0AB6A9342F9D128460192FFF774FC2846FFF711FF019AF0E700BF9C
:203320007C46002078140020800B0020B40A002070090020200E0020D40C0020980D0020CA
:20334000A8090020AC0900204D330000114B10B55B6801209847104C00F00100A268E38C9D
:2033600040EA42000133E384A060FFF737FB0B4BE060596A181D0A4A09F064FCE28CA38C46
:203380009A4200D010BDE369BDE8104018699969FFF73EBE28A60100980D0020A809002099
:2033A0004D3300000148002109F0FABD100E00200249034A00230B7013607047473A002034
:2033C0007C1400200C2830B438D80301DBB20C292ED8CCB22343B0F5867F137012D96FF4EA
:2033E000867543191B0A0D385370907002230320B1F5867F11D80C2902D90D391154013081
:2034000030BC70470C281FD90D38B1F5867F50704FF001034FF00200EDD96FF486740C1961
:20342000240AD5180D391454A970D81C30BC7047B1F5867F94BF0D240E24CBE7B0F5867F56
:2034400094BFD023E023C2E701200023D0E700BF13F07F4F2DE9F8434FEA134614BF012711
:2034600000271C4615463B464FEA064906B17B1C34F0FF0819D001330133401A2A4619466C
:20348000FFF7A0FF17B1230E2B540130B9F1000F01D02E540130B8F1000F09D0230A2B5474
:2034A00001302C540130BDE8F883002CE5D0E3E7002CF6D1BDE8F883F8B50E689DF818700C
:2034C00016B902600B60F8BD0C461D46036811469F5523682A46013323600068184414F0B6
:2034E0007BFC23682B442360F8BD00BF2DE9F047002481461C6010460E461746984614F0C7
:2035000083FD4E4409EB0005AE4282462AD94C4606E0013404EB0A039E4205F101051DD96A
:203520004C4503D014F8013C262BF2D12B783D2BEFD138462146524614F094FD0028E8D10C
:203540000AF1010A5444361B32462046262114F051FB00B1061BC8F8004000E000263046B9
:20356000BDE8F0872646FAE7F8B5069C401A21461F461646FFF726FF05463946301822467C
:2035800014F0B4FB2819F8BD2DE9F04F83B09DF83480DDF830A0B8F1000F37D09346002252
:2035A0001E46994684468E46144617460AF1010303E001349C42224624D8B15CB5184145BA
:2035C00001D05245F5D1C9EB0505CEEB0C000BEB070229460193CDF800C0FFF7F3FE074481
:2035E00049460BEB07002A4614F080FB0134019BDDF800C006EB040901349C42E6462F443A
:203600002246DAD9384603B0BDE8F08FCDF830A003B0BDE8F04FFFF7A7BF00BF10B50446E4
:203620000020014602460CF0A3F9044B0482186005F04EFA024B188010BD00BF8014002094
:203640002C3A0020024B1888013080B2188070472C3A0020F8B504460F4616461D46002193
:20366000A42214F01DFC6771A6712581F8BD00BFF0B501230022016003710A70046805793A
:20368000237883B043EA85132370056844792B78240104F030041C432C700568847A2B78E1
:2036A00004F00F041C432C70036884795C7004890368240A9C7003680489DC70837913B996
:2036C000042003B0F0BD0368847A1D1D4CB100F10A0414F8017F013205F8017B877A9742B5
:2036E000F7D8C37C0E4603F00202044602F0FF01002A40F0F9801A0700F1EB80DF0600F10F
:20370000DB80980600F1CF805A0600F1C3801B0600F11581237DDF0700F1AF80180700F17E
:203720009F80DA0600F193805F0600F18780180600F10E81637D9A0776D4DF0667D4180682
:2037400000F1E080A37D1A071CD5D4F8803094F884201B010AB143F00803B4F886000027CC
:20376000000900E017467A1C400892B2FAD10AB107F00F0003432A461B20FFF769FEA37DE7
:2037800005441B21DF0639D4E37D180723D41A0600F1EC80A37EDB0628D42368EB1A3E2BC8
:2037A00012DCB4F89E2022B1FF2305F8013BB4F89E202846D4F8A01014F00EFBB4F89E00D8
:2037C000AB1B184403B0F0BD6D4B6E4A002020601A6003B0F0BD226B636B232000922A46DD
:2037E000FFF7C2FEE37D05442321D0E72A463C20D4F89030FFF72CFE0544CEE72A461C204D
:20380000D4F88C30FFF724FE1C210544BCE7606D2622A36D8DE805002A461420FFF7B4FEF4
:20382000637D054414218AE72A46B4F868301120FFF70EFE637D054411217EE72A46236A15
:203840000E20FFF705FE237D05440E216FE72A46A38B0C20FFF7FCFD237D05440C2163E7BA
:20386000E06D2F22236E8DE805002A460B20FFF78BFE237D05440B2153E7A06C2F22E36C8A
:203880008DE805002A460820FFF77EFE237D0544082143E72A46636E0620FFF7D9FDE37CD6
:2038A0000544062133E72A4600230520FFF7D0FDE37C0544052127E794F824302A46009344
:2038C000042004F12503FFF74FFEE37C0544042117E7226C636C032000922A46FFF744FEDF
:2038E000E37C0544032109E790F86A30002100932A4604F16B030120FFF736FEE37C054470
:203900000121F8E6676F94F878303F01A3B9B4F87A200020130900E01046421C5B0892B244
:20392000FAD10AB100F00F032A463B431720FFF78FFD1721054405E747F00807E7E72A4667
:203940000720B4F85030FFF783FD07210544E1E6D4F894002622D4F898308DE805002A4640
:203960000F20FFF711FE0F210544E3E6A26BE36B272000922A46FFF7F7FD2721054409E7C2
:20398000F80E0020F0A101002DE9F0410E4F05463E6894469E4688463446EB680068696848
:2039A000AA680FC4614672463046A6F812800BF0BBFF3C6800212046102214F071FA002379
:2039C0006382BDE8F08100BF801400202DE9F04F0C46054685B092460021A42214F060FA35
:2039E0002C602678B6092E712378012EC3F301136B7194F8008008F00F0885F80A806378D2
:203A0000AB71A278E37843EA02232B8106D0BF4BBF4A80201A6005B0BDE8F08FB8F1080F7B
:203A200006D9BA4BBB4A80201A6005B0BDE8F08F271D4246394605F10B0014F057F904EB1B
:203A40000A0B07EB08024FF000095A4585F8139085F8149085F8159085F8169085F81790C4
:203A600085F8189085F8199085F81A9080F0B88117F8088008F0F003F02B00F0DE8005F14A
:203A80005803029305F1540303934FEA18110D2908F00F0800F08B810E2900F09981571CFC
:203AA000B8F10D0F00F08781B8F10E0F00F08881894405EBD901CB7C09F0070206FA02F2B6
:203AC000134309F1FF32CB743B2A00F26A81DFE812F00F016801460138013301250159016E
:203AE0004C01680168010201F3006801E400D7006801C700680168019F0068016801810099
:203B0000680168016801610051006801680168016801680168013C006801680168013C008F
:203B20006801680168016801680168016801680168016801680168016801680168016801F5
:203B400068016801680168014100704B724AA5201A6060E7B8F1000F00F05681002207EBF0
:203B6000080317F8011B9F4241EA0222F9D1C5F8902057E0B8F1000F00F04981002207EBEB
:203B8000080317F8011B9F4241EA0222F9D1C5F88C2047E0B8F1000F00F02781002207EB01
:203BA000080317F8011B9F4241EA0222F9D102F0070722F00F011020B840B940C2F3C00716
:203BC0001209A5F88600C5F8881085F88470C5F8802027E0B8F1000F00F01C81002207EB24
:203BE000080317F8011B9F4241EA0222F9D102F0070722F00F011020B840B940C2F3C007D6
:203C00001209A5F87A00E96785F878706A6709E0262300930298434603993A46FFF74CFCAA
:203C200007EB08035B451A4680F0DA8093F8008008F0F003F02B7FF428AF0132A31A5344DB
:203C40009BB2402B84BF40210B464FF00000C5F8A02094BFA5F89E30A5F89E10D054DAE60E
:203C6000B8F1000F00F0BE80002207EB080317F8011B9F4241EA0222F9D1A5F86820D1E73D
:203C80002623009305F19800434605F194013A46FFF712FC07EB0803C4E7B8F1000F00F0D2
:203CA000AD80002207EB080317F8011B9F4241EA0222F9D12A62B5E7B8F1000F00F09880AB
:203CC000002207EB080317F8011B9F4241EA0222F9D1AA83A6E72F23009305F16000434622
:203CE00005F15C013A46FFF7E7FB07EB080399E74246082A28BF082205F16B0085F86A2069
:203D0000394613F0F3FF07EB08038BE7F80E002020A2010038A2010060A20100B8F1000F41
:203D20006FD0002207EB080317F8011B9F4241EA0222F9D16A6675E785F89C6007EB08035E
:203D400070E74246082A28BF082205F1250085F82420394613F0CAFF07EB080362E76F6401
:203D6000C5F8408007EB08035CE72F23009305F14C00434605F148013A46FFF79DFB07EB97
:203D800008034FE7B8F1000F35D0002207EB080317F8011B9F4241EA0222F9D1A5F85020D4
:203DA00040E719F0010F38D107EB08033AE75178971C0D3174E617F8013B03F10D0877E6D7
:203DC0007B7817F8028B03F20D1303EB08286FE69378517803F20D1303EB0121D71C5FE69B
:203DE000002018E642463B4647E742463B46DEE642463B466DE742463B46CFE742463B467C
:203E000058E742463B4695E742463B46AFE642463B46BCE642463B46E9E6024B024A822082
:203E20001A60F8E5F80E002088A2010010B4044690F91400002803DB00205DF8044B7047AE
:203E40001346D4F898000A46D4F894105DF8044BFFF74CBB30B4B0F89E4014B9204630BCBB
:203E600070470D46134621462A4630BCD0F8A000FFF73CBBFF299ABF81710120002070475C
:203E8000082A034628BF082210B514469A720B3013F02CFF204610BD037D03F0100303F056
:203EA000FF021BB1838B01200B6070471046704701207047437D03F0020303F0FF0223B17F
:203EC000B0F8683001200B6070471046704700BF037D5B064CBF036A3C230B600120704798
:203EE000037D016243F0400303750120704700BF38B50446082A28BF0822154684F82420C5
:203F0000253013F0F3FEE37C284643F01003E37438BD00BFC37C03F0020303F0FF022BB133
:203F200000F16B030B6090F86A00704710467047C07CC0F340107047C37C03F0080303F0DB
:203F4000FF021BB1436C0B60006C704710467047037D03F0080303F0FF021BB1036E0B6030
:203F6000C06D7047104670470B7810B52F2B044603D111F8013F2F2BFBD02166084614F049
:203F800043F8237DE06543F00803237510BD00BF90F91430002BBDBFD0F898300B60D0F868
:203FA00094000020704700BF0B7810B53F2B044603D111F8013F3F2BFBD0A165084614F031
:203FC00023F8637D606543F01003637510BD00BF70B50B780C462F2B064603D114F8013FB7
:203FE0002F2BFBD020463F2113F0A8FF054660B13046691CFFF7D8FF281BB064F46418B190
:20400000337D43F00103337570BD204613F0FCFFB064F3E7C37C416643F04003C3740120DE
:20402000704700BF10B490F91540002C03DB00205DF8044B704709B1446F0C6012B190F8BF
:204040007810117013B1B0F87A201A80019B33B1C36F019A012013605DF8044B704701205A
:20406000E6E700BF10B4A3F11004B4F5FE6F12D8B1F5801F0FD2447D003218BF012280F8BD
:20408000782064F07F024167A0F87A3042755DF8044B0120704700205DF8044B704700BF5C
:2040A000837D03F0100303F0FF0223B1D0F88C3001200B6070471046704700BF837DC0F8E7
:2040C0008C1043F01003837501207047D0F8A0301BB10B60B0F89E00704718460B607047E2
:2040E000402A28BF4022C0F8A010A0F89E201046704700BF014B1860704700BFD415002040
:2041000083790120013B9840C0B270472DE9F047038886B00446ABB1B3F5AD7F0CD1A94BEC
:204120001B788B4219D0882960D04FF4AD730120238006B0BDE8F08700230380032006B0DD
:20414000BDE8F087A048A14900F0A8FE00F032FA43F21630FFF762FAE7E79D4B9D4D1B78BF
:20416000002298072A70E0D59B4B9C4FDFF898923846D9F800101A88FFF728FC064628705E
:20418000002836D0DFF88482C22ED8F8000000F0D48000F03DFA2A788E4BC32A00F0C98048
:2041A000BF2A84BFA0221A7002213B898B48FFF751FA8B4B8B4E1D68284613F025FF294654
:2041C00002468648FFF78CFF874BD9F800501B782946283381489F5BFFF74AFA394683B247
:2041E0002A4606F10800FFF7CFFB9EE700F08AFA9BE7BB79013B032B2ED97B6823F07F43B8
:2042000023F0FF03D3B9C3232B70388900F066FADFF8F881C8F8000040B1C66AD0F830A0A2
:2042200000F0F6F916B150466C49B0472E780023C8F80030002E3FF478AFA5E77B79032BA7
:20424000E3D1694B694A1B7802F108002833D15A3A8900F009FBD8E7634B644A1B7802F1D7
:2042600008012833D25A388900F0AEF9DFF89C81C8F80000002800F085807B794022039696
:2042800004960596ADF80A20002B59D15848022145223B89FFF7DEF9BA7A002A5FD104ABCD
:2042A00000934E4803A900220DF10A03FFF7BAFE40B1BDF80A30049A402B28BF4023059284
:2042C000ADF80A304B4BD3F800C0BCF1000F40D0DFF808A1464ED8F800200DF1140EBDF839
:2042E0000A30504631467432CDF800E0E04790B12A78384B8AB99AF81620110748D596F9D0
:204300000620002A44DBB27D120741D434493A48A12208601A702B7833B32E78002E7FF44D
:2043200033AFD8F8000000283FF4FFAE00F086F9FBE600221A70032137E700F069F9F4E659
:20434000FFF780F90121034645222948FFF782F9A2E7234A2949A12311602B70DDE72849CD
:204360002348FFF78DFD9AE7D8F80060204806F13601FFF77DF980B2B0860028CDD1C1238D
:204380002B70CAE7164A1F49A32311602B70C4E797F91530059A002B3ADB002AE4D00132C7
:2043A00018BF0122002140231148FFF75BFEB6F89E20D6F8A0103F2A88BF40220C48FFF791
:2043C0008FFEA8E77F460020240F0020B0A30100D8420020483A002000420020841400203F
:2043E000F80E0020104200206D3A0020104200202C150020D4150020C4A30100E4A3010092
:204400008F140020F8A30100E442002028150020049B9A4217D00132039921D0BDF80A3089
:204420000122DFF884A05046FFF71CFEB6F89E30BDF80A2093427FF66EAF5046DAF8A010DE
:20444000FFF74EFE67E7B6F89E10174E8A4210D38223304615490F22B371FFF741FE5AE718
:20446000B6F89E20BDF80A309A4294BF00220122D7E7BDF80A308A1A9A4294BF00220122A8
:2044800003993046FFF7EEFD0498B6F89E30BDF80A201B1AD6F8A0109A42014428BF1A4617
:2044A0003046FFF71DFE36E72C150020D4A301000148002108F074BDFC0E0020C1604068F9
:2044C00008F08EBDF0B50446008883B015461E4618B340F2991398421AD1822902D0012024
:2044E00003B0F0BDE068002848D02D4F002300932C4A3946FFF796FD3B6822699A4247D003
:20450000294A137801331370264B1B78002B3AD100230320238003B0F0BD244B21491F6803
:204520001F4A214B2061E0606760087010601870FFF788F8089B29461881324600F044F8E9
:20454000A060D8B11A4BC362A3681C63216979B9A568089805F13601FFF78AF8A886A0687A
:2045600000F06CF840F299130120238003B0F0BD089800224023FFF775FDE9E70023022043
:20458000238003B0F0BD084B1B78032BC0D8CFE7099BE0689847236901332361B4E700BF4D
:2045A000D01500204A3A0020493A002034250020BD440000024A034B12681A60704700BF31
:2045C00034250020DC150020F8B507460E480D46164609F01BF8044698B100238780037610
:2045E0002868A9686F68EA68C4F81A00C4F822100648C4F81E70C4F826202146668508F049
:204600008BFF2046F8BD00BF0C0F0020D815002070B110B50446083008F06AFA2146054876
:2046200008F0BEFF2146BDE81040034809F00CB8704700BFD81500200C0F00202DE9F0415C
:20464000044600F11A063046618D04F13602A38EFFF79AF994F83650C5F3011595B9237EE5
:20466000032B14D82BB3E3685B00E360184D194B2E681B6804F108002B6008F013FA2E605C
:20468000BDE8F0812046BDE8F041FFF7C1BF3046618DE66A276B00F061F82046FFF7B8FFB0
:2046A0002EB1384629463346BDE8F0411847BDE8F08104F00DFA084BA3FB0023DB0903EB89
:2046C0004303A0EB831303F28113E360CEE700BF34250020DC150020ABAAAAAA10B50446F1
:2046E000074808F017FF48B18388A34203D106E08388A34202D000680028F9D110BD10BD04
:20470000D815002010B50C4808F004FF044610B910E0246874B104F1080008F0CDF90028E1
:20472000F7D0237E204601332376FFF787FF2468002CF0D110BD00BFD815002010B5044641
:204740000448214608F080FF2146BDE81040024808F026BF180F0020BC170020F8B505467A
:204760000E480E4608F0D6FE0446A0B1002704F12C002946102213F087FA10B9A38FB342CB
:2047800004D02468002CF2D13846F8BD2046FFF7D5FF0137F5E70746F6E700BFBC17002077
:2047A0002DE9F843054618480E4691461F4608F0B1FE044630B34FF0000801E02468F4B140
:2047C00004F12C002946102213F05EFA0028F5D1A38FB342F2D194F83E30BB42EED104F139
:2047E0003F0049463A4613F04FFA0028E6D12046FFF7A4FF246808F10108002CE0D1404650
:20480000BDE8F8838046FAE7BC1700202DE9F04106461448174608F07DFE044600B34FF0E3
:204820000008102204F12C00251D1EB1314613F02BFA78B9BD4208D0284613F0E5FB394695
:204840000246284613F020FA20B92046FFF776FF08F101082468002CE3D14046BDE8F081D1
:204860008046FAE7BC1700202DE9F041054614480E46174608F04EFE0446F0B14FF0000889
:2048800001E02468B4B104F12C002946102213F0FBF90028F5D1A38FB342F2D1B4F8483091
:2048A000BB42EED12046FFF749FF246808F10108002CE8D14046BDE8F0818046FAE700BF23
:2048C000BC17002010B5084808F024FE044630B12146064808F0B8FE2468002CF8D102485D
:2048E000BDE8104008F012BEBC170020180F00202DE9F0414468DEB0074620460E4613F036
:2049000083FB0546214602A8272213F0F5FB262D07DC36B102AB31465819C5F1270213F0ED
:20492000EBFB002423460CA8012145228DF82F40FEF790FE23460122214635A8FEF78AFE03
:2049400002A935A8FFF710FB02A813F05DFB05462F4808F0DFFD044660B955E0854206DAF4
:204960003B7A6219DB0602D513792F2B08D02468002C49D0261D304613F046FBA842EDD11B
:20498000314602A82A4613F06DFB06460028EED1FEF758FEA28F04F12C01FFF715FE4023DE
:2049A000804600F174020028E1D0818835A8A4F84810B8F80410D7F810C0ADF83810009631
:2049C0000CA9E0479DF93630002B09DBE16C0CA84B1CE364FFF71EFBE36C23F07F43E364C7
:2049E00094F83E2004F13F010CA8FFF749FA08F136010CA8FEF73CFEA8F834004046FFF748
:204A00001DFE2468002CB5D15EB0BDE8F08100BFBC1700200021FFF76BBF00BF0B46897914
:204A2000012900D0704792F906100029FADBD97C4906F7D5596E69B10129F3D1304A3149F3
:204A4000127801F108002832895A03F10B029B7AFFF7A6BE2DE9F04F1446294A2A48127807
:204A6000D3F860B02832175A81B039465A460830DE6D03F10B0993F80A80FFF7C7FE23487A
:204A800008F0C4FDB246054678B3262EC4BF2726B24659463246043013F028F94FF0000B1A
:204AA000AA441B4B8AF804B005F12C060FCB86E80F0042464946AF8785F83E8005F13F0030
:204AC00013F014F92946A5F848B0124808F024FDE96C20464B1CEB64FFF79CFAEB6C23F0E8
:204AE0007F43EB6401B0BDE8F08F20460A49A3231022A37101B0BDE8F04FFFF7F1BA00BF16
:204B00006D3A00201042002010420020180F002018420020BC1700201CA401002DE9F04F20
:204B200083B0019100921F46DDF8308000F0D2F908F0F0FC002800F0BC803B46D8F800B040
:204B400000252C465E4607469A46B44208D3554512D24FF03C02009B5A55D8F80060013571
:204B6000631CB34208D3554506D24FF02F02009B5A55D8F800600135D7F804B002345846FD
:204B800013F042FA00EB0409B14553D805D3554503D2009A3E2353550135FE6809F1010438
:204BA000BEB13378ABB1D8F800B05C4508D3554506D2009A3B235355FE68D8F800B0013555
:204BC000304613F021FA09F1020900EB09045C450FD8554504D9D8F80030621B9A425AD8BA
:204BE0003F68002F3CD0BCB9D8F80060B442B7D3ADE7009AC9EB0B030AF101015019002B2D
:204C0000ACBFF318331C491B2D4A04F0DDF80544554540D83F681FB3D8F80060A64207D8C0
:204C2000554505D2009A2C235355D8F80060013501348AE7009A331B0AF101015019002BED
:204C4000ACBF5B440BF10003491B1D4A04F0BCF80544554504D2D8F80030994599D29CE753
:204C60005346BA461F46CDB954B9BAF1000F20D0D8F800301F44C8F8007003B0BDE8F08F8F
:204C8000019C82212046FFF7F5F820460D490F22FFF726FAE9E75346BA461F46019C009984
:204CA0002A462046FFF71CFA20462821FFF700F9DBE74FF0FF33C8F8003003B0BDE8F08F7A
:204CC000A8840100D4A3010070B502880546C02A15D0D02A0DD01AB100230380032070BDCE
:204CE0001F4B8521186808F023F9C0232B80012070BD88291BD0D0232B80012070BD8529FE
:204D000001D0012070BD174808F004FC044618B9F1E72468002CEED0E369002BF9D0A1686B
:204D20000029F6D004F10C0007F0A8FEF1E70D4808F0F0FB044618B9DDE72468002CDAD095
:204D4000A368002BF9D004F10C06304607F0B4FE0028F2D0E3699847304607F099FEECE742
:204D600034250020C01700202DE9F04F87B006AD0024384E45F8044D0291F4682946924616
:204D800099468046A0470546334808F0C3FB0446002834D0DDF814B009E006DD217ACB06C4
:204DA00003D51BF800102F2908D024683CB36768384613F029F985420246EED138465946F0
:204DC00013F050F90028F0D1039032694046904710F0010F039B1CD1850728D5656935B339
:204DE000109B5246009340464B460299A847237A5B0612D40123184607B0BDE8F08F73691F
:204E00000298D6F8881098470023184607B0BDE8F08F2569002DE3D1DEE7336E2046414695
:204E2000029A98470123184607B0BDE8F08F410702D5A569002DD3D1020702D5E569002D41
:204E4000CED102987269D6F88C1003939047039BDBE700BFA4A20100C417002038B50A4BC4
:204E60001C7804B138BD094D012209481A7008F04DFBAB68074898476B6898472146BDE861
:204E80003840054808F08CB84B3A0020A4A20100C4170020694D0000480F002010B50446EE
:204EA0000A486160214608F037FB94F90830002B00DB10BD216ACB69002BFAD08B68002BE4
:204EC000F7D0BDE81040024808F026BBC4170020C017002000487047C41700202DE9F041C0
:204EE000A2B0074607F0ECFC3E4D0DF1440801AE0024204607F0C0FC55F8043F0134C31AD1
:204F0000102C48F8040F46F8043F2860F1D101F03DFF354E354934684D780B780246009548
:204F200001943946324803F029FF12AC17AD54F8041B304803F022FFAC42F8D102AC07AD36
:204F400054F8041B2B4803F019FFAC42F8D12A4802F0FAF8294803F011FF294D002455F800
:204F600024102848013403F009FF202CF7D1224802F0EAF8244803F001FF002404F1200370
:204F800055F8231001341F4803F0F8FE202CF5D1194802F0D9F81D4803F0F0FE1C4D002403
:204FA00055F824101748013403F0E8FE202CF7D1114802F0C9F8174803F0E0FE002404F19A
:204FC000200355F8231001340E4803F0D7FE202CF5D1094802F0B8F833680133336022B0A2
:204FE000BDE8F081D4170020181800205046002044A4010058A4010068AE010060A4010088
:205000004C3F002068A4010070A4010078A401004C3E002080A4010010B50388044653B139
:20502000782B04D10F4807F047FD50B910BD00230380032010BD92B111680A4807F01EFDDA
:2050400005E0084807F024FD0748FFF747FF78232380044807F030FD0028E7D0F1E7028091
:20506000022010BDC817002068AE010000B583B002A941F8040D034807F092FF03B05DF873
:2050800004FB00BF580F0020F0B5002706463C463D4683B0304600F0D9FA0195019B9C4232
:2050A00006DD00BF019B01330193019B9C42F8DC304600F0D3FA0195019BC4F5C874A3425D
:2050C00006DA00BF019B01330193019BA342F8DB0137B7F5487F06D0B7F5C87FCCBFC7F5BE
:2050E00048743C46D6E703B0F0BD00BF78B110B50446094821460DF009FE08B1002010BDFC
:20510000064821460DF002FE18B1FF2010BD00207047E07910BD00BFECB0010034AA0100F0
:20512000FF2830B402460AD0074C0849234625460868496803C32846E27130BC7047044D2E
:20514000284630BC704700BF1C1800205046002034AA01002DE9F0417F4C84B023687F48FE
:2051600001215B689847236801210A461B687B4898470CF089FF02F0C5FC02F037FC00F0FD
:20518000D1FE01F033FB02F06DFC00F055FA7449744A0124744B0C60204614601B68FFF769
:2051A00073FF0CF075FF01F07FFE01F0A3FD07F023FF01F08DFF07F03DFE41F2342003F0CC
:2051C0008DFC02F0B7F907F0FDFF684801F0BCFF4BF201620021664803F0D0FD654801F088
:2051E000B3FF0DF081F900FA04F1634803F0C6FD624B6348196803F0C1FD624B62481968D4
:2052000003F0BCFD6148002107F0CAFE07F0E0FC07F040FF07F018FB5D4B1B682BB901F046
:2052200041FE5C4A5C4B10601C700220FFF72CFF5A4803F0A3FD5A4B5A4C186801F084FF2F
:20524000594803F09BFD594B186801F07DFF584803F094FD2168574803F090FDE469A04791
:2052600020B1A0470146544803F088FD0A2001F063FF002302A80821504C514E019301F0E8
:2052800093FF504A9DF80E709DF80F5002AB03CB45EA07252060F76A61600220517CB84775
:2052A00029460320B84719210120B8470822736B02A90B209847B36A01A9012098470199E5
:2052C000414803F05BFD41482F4603F057FD661E04F1060816F8011F3D4803F04FFD4645B1
:2052E000F8D1E1793B4803F049FD3448FFF7FEFE394B80B2188068BB1D803946374803F062
:205300003DFD0DF0E1FC364B626821685A6019600DF0F6F80021334807F042FE0220FFF79C
:20532000B3FE0021304807F03BFE304807F080FA01F0DCFE0120FFF7A7FE01F083FA07F01E
:2053400097FD044601F0EAFE14F0FF0FF7D102F0D5F9F4E70746D0E7D801001000400340B1
:205360000C400940080009402C200940A0A40100C8A40100E0A40100F0A40100102108406D
:2053800008A501000400094020A5010088100020842300204C4000203C3E002038A50100A9
:2053A00054B1010058B2010040A50100F4B0010048A50100A884010050A50100504600208A
:2053C00008A8010088FF010074A5010088A501009CA50100A4A501002E3A0020ACA50100E6
:2053E0000842002004110020680F0020D88201002DE9F04104880646772C30D07E2C27D0B9
:2054000024B1002303800320BDE8F08107F00AFD2F4F304B304D3A6818702C60002A45D06F
:205420002346A0462D4C04F8038093688020002198472B68013357F823202B60002AF2D1B9
:20544000DBB2274A1370772333800120BDE8F081204B1B788B4219D00120BDE8F081DFF885
:2054600080801D4D98F800201E4F002393423B602B6007DA194CE156002919DB01339342E4
:205480002B60F7DB3B68002BEFD1DCE7124D134CDFF84C80134F2B683A68E05C511C00F0CD
:2054A0007F0098F80020E0543960E7E71346C8E70849074A097852F82320002007F038FD1E
:2054C0000028E8D17E2333800120BDE8F08100BF780F00207C460020241800209C3A0020C6
:2054E0004C3A00202818002010B40F4B1C7864B10E4A1368984214D0002303E052F8041FDB
:2055000088420CD00133A342F8D1094A0948135D63F07F0313555DF8044B07F061BD1C4697
:20552000F3E70024F1E700BF4C3A0020780F00209C3A0020680F0020F8B53A4D2C7828708C
:205540004440A10714D500F0020000F0FF07002835D0354B1A68002A5CD01B68002B50D0FB
:20556000E2072B7807D41846BDE8F84000F09AB80346E207F7D513F001060CD02A4A126875
:20558000002AF0D101F08EFC284C294A01212B78A0639173E7E7264CA27B002AE3D001F0C7
:2055A00081FC2449214B8A6B9F6B2B78D21B10448863A6731846BDE8F84000F073B81C4EEE
:2055C000337B7BB9737B1A4E002BC9D001F06AFC184A1649536B4F6B0021DB1B1844506319
:2055E0007173BDE701F05EFC124A1049136B096B37735B1A184410632B789B07E2D50A4BF2
:20560000ABE701F04FFC0A4B084901225A7348632B78AEE701F046FC054E044A01231063D8
:205620003373E9E74D3A0020842300204C4000203C3E0020F83D002008B500F017F8024BE2
:2056400000221A7008BD00BF4D3A0020024B1B781843FFF771BF00BF4D3A0020024B1B78CC
:2056600023EA0000FFF768BF4D3A00200A4B1A6802B1704710B50122084C1A6023680420B3
:20568000DB6B984723680720DB6B9847044A136823F09003136010BD2C180020B401001036
:2056A00080200240084B094A1870136823F090031360C20702D5064B01221A70830702D547
:2056C000044B01221A7070474E3A0020802002400420024007200240813801289ABF024B36
:2056E00018680020704700BF7018002038B50B4CA37953B101F0D6FB094A0A4993698D692E
:2057000000215B1B18449061A171074B03221A600648BDE83840FFF7E7BE00BF3C3E002043
:20572000F83D00204C40002070180020CCA5010030B5044683B07721002000F071FF6CB1B7
:20574000154B1B688BB125238DF807300DF107010122F4200EF0D2FB03B030BD0F4DAB79FE
:205760005BB900238DF80730F0E701F09BFB0C490A4B012288619A71E5E701F093FB094A79
:20578000074993698969AC715B1A1844002390618DF80730DAE700BF842300203C3E00202C
:2057A0004C400020F83D002030B5802885B016D0812810D11D4C206878B151B30120FFF781
:2057C000B7FF1B4803211B4A002307F03BFA0220206005B030BD154B186805B030BD134CB3
:2057E000012500207721256000F01AFF1249182288200EF075FB04A9B62301F8013D2A4665
:20580000E0200EF07BFB0020FFF792FF206805B030BD0748019107F059FA01990846FFF73A
:2058200087FF01231846236005B030BD7018002050180020ED56000038180020F8B5534B0D
:205840001B68032B40F09A80431E012B00F296804F4C00237721054623601846A38000F023
:20586000DFFE2146F72006220EF03AFB00287ED0E178484A23796079090341EA03111688B3
:2058800041EA1013C6EB131101FB01F1B2F9047076000913B2F90200C6EBD30307FB01F11E
:2058A00000FB03F0891301EBE0204710A7F57A4E4FEAAE0606FB06F6B2F90810B2F90A70E5
:2058C000731301FB0EF103FB07F3B2F90E70491007FB0EF701EBE303B2F806C09B14B2F92A
:2058E00010E003F50043F61279000CFB03F30EFB061726786178B2F90CE094F802C0360344
:205900004FEA0E4446EA0111DB13906104EBA70741EA1C1127D040F635444942A1EB2731D1
:2059200004FB01F101F1434101F5A0010029B3BFB1FBF3F34900B1FBF3F35B00D90801FB29
:2059400001F1B2F91440B2F916609F08490B04FB07F401FB06F1B2F91260621302EB21317C
:20596000314403EB2113012D0BD01846F8BD204606210EF0DFFA4FF00040F8BD4FF000405D
:20598000F8BD00EB800080300012F8BD701800203018002038180020014B1868704700BFAE
:2059A00094180020F0B506461E4C83B000204521256800F035FE86B11B4B1B68C3B141F290
:2059C000C2020123ADF8062023600DF10601022201200EF093FA03B0F0BD144FFB797BB951
:2059E00005F002054FF486532560ADF80630ECE701F058FA0E490D4B0122C861DA71DEE70E
:205A000001F050FA0B4A0A49D369C96905F002055B1A18444FF48653FE71D0612560ADF882
:205A20000630D2E794180020842300203C3E00204C400020F83D002030B5002083B04521AB
:205A400000F0EEFD01200DF1060102220EF048FABDF90630002B07DB0E4810210E4A0023E6
:205A600007F0F0F803B030BD0C4CE37953B101F019FA0B4A0B49D369CD6900215B1B1844DD
:205A8000D061E1710848FFF72FFD084B02221A6003B030BD74180020395A00003C3E0020A7
:205AA000F83D00204C400020E4A5010094180020802810B50DD0812809D10C4671B90D48F1
:205AC00007F004F92046FFF76DFF204610BD002010BD0020FFF766FF002010BD0120FFF76B
:205AE00061FF04481021044A002307F0ABF8012010BD00BF74180020395A000081380128F0
:205B00009ABF024B18680020704700BFB818002038B51A4C637953B101F0C4F9184A194934
:205B200053694D6900215B1B184450616171164C164A237803211160B3B1154D0020432141
:205B400000F06EFD2846042100F0DAFB20700020014600F065FD29886A880E480E4D49BAF2
:205B600052BA2378298002800C4901220B7022700B48BDE83840FFF7B7BC00BF3C3E00209C
:205B8000F83D00204C400020503A0020B8180020BC180020323A0020303A00204F3A0020B7
:205BA000F4A5010070B5802884B016D0812810D1314C206878B100292DD1304D6B79002BF9
:205BC00044D12F4807F082F801231846236004B070BD294B186804B070BD2A4B00242A4A00
:205BE0002A4D20461C60432114802C8000F018FD04A91023022021F8023D02460EF07EF98C
:205C0000234B21461870204600F00AFD1A4B0120186004B070BD1E4D2B7873B11D4B1B68CE
:205C20000BB34321002000F0FBFC002000F028FB28700020014600F0F3FC11480321164A4D
:205C4000002306F0FFFF02202060C4E7019101F029F9124E124A7669536901999B1B184438
:205C600069715061ADE701F01DF90C49034B012248615A71D5E700BFB81800203C3E0020BF
:205C800098180020BC180020323A0020303A0020503A002084230020115B00004C400020A1
:205CA000F83D00208138012801D90020704708B5034B17201B685B689847C0F3804008BD5D
:205CC000B401001028B1012806BF054BD86800207047044B1868C0F3C05080F00100704717
:205CE000C0180020C0200240802810B509D0812805D1D1B9174B17201B685B6B9847012059
:205D000010BD144B144A1B684FF4000111601B6817200021114A9847114B00221A6017207D
:205D2000104901F089FE012010BD0A4C0A4A23684FF4000111601B6817200021074A9847AF
:205D4000074A2368002111601B6B17209847012010BD00BFB4010010E0200240004007201E
:205D60005C1A4442695D0000172800D0704738B50E4C204607F080F900B938BD2046042145
:205D800007F066F90A4B1D68C5F3C0554DB100F0FDFFA368C31AE3600648BDE83840FFF790
:205DA000A3BB00F0F3FFE560A06038BDC0180020C020024014A601008138012801D90020B8
:205DC000704708B5034B18201B685B689847C0F3804008BDB4010010802810B509D08128B8
:205DE00005D1D1B9174B18201B685B6B9847012010BD144B144A1B684FF0807111601B682F
:205E000018200021114A9847114B00221A601820104901F011FE012010BD0A4C0A4A236843
:205E20004FF0807111601B6818200021074A9847074A2368002111601B6B18209847012089
:205E400010BD00BFB4010010E020024000600620601A4442895E000068B1012809D110B561
:205E6000074B1C6800F092FF8034201AC043C00F10BD00207047034B1868C0F300607047CF
:205E8000D0180020C0200240182800D0704708B500F07CFF084B1860084807F0EDF800B939
:205EA00008BD06484FF4007107F0D2F8BDE808400348FFF719BB00BFD0180020D418002085
:205EC00028A6010010B5064C042023685B699847236804205B6B98470128F9D110BD00BFB7
:205EE000B8010010FFF7EEBF032801D000F0DEB808B5094B00219B6881209847074B00218C
:205F00009B6881209847064B81209B6800219847BDE8084000F0CAB8CCA50100E4A50100AE
:205F2000F4A50100F8B50CF0AFF80746FFF7CAFF254B4FF4A0601B68DB699847234B012182
:205F4000234A196013689B07FCD5224C00F080F80EF092FA204801F03DFD23681420DB6B75
:205F600098471E4A002523681570DB6B132098471B4A23681570DB6B12209847194A236893
:205F80001570DB6B0E209847174A236801261670DB6B0D209847154A23681570DB6B0F205A
:205FA0009847134A236815703046DB6B9847114A236815709B6B1820984707B1F8BDBDE860
:205FC000F8400CF065B800BFB80100102820086028200840B4010010980F002014200240A6
:205FE00013200240122002400E2002400D2002400F2002400120024010B5094B09481B6818
:206000005B68984710F00C0F044605D0064B04221A6002200CF040F8B4FA84F0400910BD25
:20602000AC010010002000400428004008B5064B02201B685B6B9847012803BF034B1868C6
:2060400000F00100002008BDB80100106020084070B5104D02202B685B6998472B6802204A
:206060005B6B9847012804460A4BF7D11B684FF44070DB699847084B084A1C6013689B0714
:20608000FCD5074B07481B6807491B680122BDE870401847B8010010282008602820084058
:2060A000AC01001000200040006CDC02174B10B5FF221A70FFF7BAFF20B11549154A002347
:2060C0000B601360144B4FF440701B681B6A9847124B0121124A196013689B07FCD5114C0A
:2060E000052023689B6B984723684FF4804105209B699847236806209B6B9847236806202D
:206100009B694FF48041BDE810401847E21100200428004010040542B801001028200860D0
:2061200028200840B40100102DE9F04706464F4B4F481B784F4A5B00036033780F461360E3
:2061400000F0B0FE4C4B1A6854060ED51C464B4D2D1A00F0A7FEC54202D40020BDE8F0875C
:2061600000F0DCFF23685906F3D4434C0323236002200BF091FF00F095FE2368DB070AD5EF
:206180003E4D2D1A00F08EFEC542E6D500F0C6FF2368DA07F6D4FFF72FFF012F034635D959
:2061A0000028DAD0334DDFF8D0900136022407F1FF3816F8012B631E43452A6003D3A7423E
:2061C00026D90134F5E70123C9F8003002200BF063FF00F067FED9F80030DB070ED5DFF829
:2061E0009CA0C0EB0A0A00F05DFE1AEB000FB4D500F094FFD9F80030D807F4D4FFF7FCFEA1
:20620000A742034602D90028DBD1A6E7002BA4D0194C0523236002200BF03EFF00F042FED7
:2062200000F5CC5519352368D90707D500F03AFE401B002891DA00F071FFF4E7FFF7DCFE92
:20624000044600F02FFE0C4E00F5CC55193533685A0602D42046BDE8F08700F023FE401B5A
:206260000028BFF67AAF00F059FFF0E7513A002000280040082800400428004067E6FFFFBF
:2062800038B51A4B1A4A1B781A495B000B60106000F008FE184B1A6854060DD51C46174D3F
:2062A0002D1A00F0FFFDC54201D4002038BD00F035FF23685906F4D40F4C072323600220BA
:2062C0000BF0EAFE00F0EEFD2368DB070AD50B4D2D1A00F0E7FDC542E7D500F01FFF2368E5
:2062E000DA07F6D4BDE83840FFF786BE513A002008280040002800400428004067E6FFFF62
:206300002DE9F047444B454A1B7806465B0043F0010313600F4600F0C5FD414B1A685206C1
:206320000ED51C463F4D2D1A00F0BCFDC54202D40020BDE8F08700F0F1FE23685B06F3D4F1
:20634000374B0B221A6002201C460BF0A5FEDFF8D8A007F1FF3901254FF00008C14524DDFF
:20636000002DE5D000F09EFD2368DD070AD52D4D2D1A00F097FDC542DAD500F0CFFE23681F
:20638000D807F6D4FFF738FE05460028E6D0DAF80020092306F808200220236008F1010814
:2063A0000BF07AFE5FFA88F8D8E7002DC0D000F079FD1B4B1A68D1070BD51C46194D2D1A00
:2063C00000F070FDC542B3D500F0A8FE2368DA07F6D4FFF711FE0028AAD0134B104C1A6822
:2063E0003E44052306F8012C022023600BF054FE00F058FD00F5CC55193523685B0602D46B
:206400000120BDE8F08700F04DFD401B00288FDA00F084FEF1E700BF513A002000280040FD
:206420000428004067E6FFFF082800402DE9F04F8146764D764E2878764C4000306099F8CF
:20644000000083B02060174698460E4600F02AFD714B1A68540612D51C46DFF8C0A1C0EB1F
:206460000A0A00F01FFD1AEB000F03D4002003B0BDE8F08F00F052FE23685806F1D4664C7A
:206480000323236002200BF007FE00F00BFD2368DB070DD5DFF884A1C0EB0A0A00F002FD40
:2064A0001AEB000FE2D500F039FE2368D907F5D4FFF7A2FD012E034638D90028D6D0DFF8F3
:2064C00054B109F1010406F1FF3A4FF0020914F8012B09F1FF339A45CBF8002004D8B14546
:2064E00026D209F10109F2E74B4A0123136002200BF0D2FD00F0D6FC474B1B68DA070DD515
:20650000464B1B1A019300F0CDFC019BC342ADD500F004FE404B1B68DB07F4D4FFF76CFD3C
:20652000B145034602D20028DBD19FE7002B9DD02B7837495B00384C43F001030B220B6085
:20654000022022600BF0A8FDDFF8C8900125002608F1FF3A564521D2002D87D000F0A2FCAA
:206560002368DD070BD52D4D2D1A00F09BFCC5427FF57CAF00F0D2FD2368D807F5D4FFF7F6
:206580003BFD05460028E5D0D9F800200923BA55022023600BF080FD0136DBE7002D3FF4F9
:2065A00065AF00F07FFC1C4E00F5CC5519353368194CD90718D4FFF71FFD00283FF456AF50
:2065C000144B47441A68052307F8012C022023600BF062FD00F066FC00F5CC5519352368BB
:2065E0005A060AD4012042E700F05CFC401B0028BFF63CAF00F092FDD9E700F053FC401BCF
:206600000028BFF633AF00F089FDE8E7513A002000280040082800400428004067E6FFFF3C
:206620001B4B10B504461970FFF700FDA0B1194B1A78A24216D01848184900221C70026087
:206640000A601B787BB1BDE81040154B15481B6815491B6801221847FFF7FAFC0D4B1A78A3
:20666000A242E8D110BD114C052023684FF4C0419B699847236806209B694FF4C0419847A4
:2066800023680848DB6C052106229847DBE700BF513A0020E21100200428004010040542A5
:2066A000AC01001000200040006CDC02B401001010B504460DF0D0FC034658B122460020FC
:2066C00006210DF045FD034660B101240DF004FD204610BD1C46074800F036FD0DF0FCFCDB
:2066E000204610BD1C46044800F02EFD0DF0F4FC204610BD50A6010038A6010010B582B0B1
:2067000004460DF0A9FC0346D0B1002006210DF031FE0346E8B10020062122460DF09AFD2B
:206720000346F8B16A46002006210DF011FD28B368462146062211F0A7FAE0B9012403E00A
:2067400011481C4600F000FD0DF0C6FC204602B010BD1C460D4800F0F7FC0DF0BDFC204637
:2067600002B010BD1C460A4800F0EEFC0DF0B4FC204602B010BD074800F0E6FC00240DF038
:20678000ABFC204602B010BD50A60100A8A6010090A6010068A60100F0B583B005460F4669
:2067A00016460BF0A1FEC4B26846FFF781FF18B92870204603B0F0BD2046BDF80020BDF82A
:2067C0000430012129703A80337003B0F0BD00BF10B582B004466846FFF76AFF20B1684681
:2067E000ADF80240FFF78AFF02B010BD00B583B06846FFF75DFF70B1BDF80030BDF80210FF
:20680000013300226846ADF80030ADF80410ADF80220FFF773FF03B05DF804FB162800D0A2
:20682000704738B5054B1C7834B9054D01232B7064200BF031FC2C7038BD00BF523A00202A
:206840001520024038B5174C1620236800259B6B9847236816205B6B9847134A23684FF415
:20686000800111601B68114A162029469847104B104916201D6001F0DFF8236816201B6B4E
:20688000984723680C4CDB6B15209847642025700BF002FC0123237064200BF0FDFB257007
:2068A00038BD00BFB4010010E020024000600620581A44421D6800001520024008B50120C5
:2068C000FFF786FF014B01221A7008BD523A002000207047F8B50C4B32251E461C68002792
:2068E000C4F3C06433684FF4C870C3F3C063A342346818BF013700F08DFA013DC4F3C064AE
:20690000F0D13846F8BD00BFC0200240812818D110B50C4641B90C4B1B201B68DB6B9847C5
