:020000040000FA
:2000000000500020851200007D12000065120000811200008112000081120000000000001A
:20002000000000000000000000000000811200008112000000000000811200008112000074
:20004000597A0000811200008D530100811200007D6F00006D7500008112000081120000D2
:2000600081120000F95301008112000081120000811200008112000081120000811200002E
:200080008112000081120000811200008112000081120000811200008112000081120000C8
:2000A0008112000081120000811200008112000081120000811200008112000081120000A8
:2000C00081120000298D0000294B1B689B0702D44FF000407047F0B5002083B0452106F0DE
:2000E0007BFA0DF106010120022214F023FA38B901A8022114F048FA4FF0004003B0F0BD3E
:200100000DF106010020022214F014FA0028EFD0BDF806305BBA9CB2200BADF8043017F044
:2001200057FA16F0F9FD0646C4F30B000F4617F05FFA0DA3D3E9002304460D46304639468E
:2001400017F0BCFA02460B462046294617F0B6FA17F096FD074917F0E3FD17F031FF03B002
:20016000F0BD00BFAFF300807B14AE47E17A843F701800200000C84208B5214B1B68032BC3
:200180001ED1431E012B1BD81E4B1B78C3B11E4A1E4B012812881B8815D0184617F018FAED
:2001A00000221B4B17F08AFA00221A4B17F086FA17F066FD184917F0B3FD17F001FF08BDD0
:2001C0004FF0004008BD104617F002FA0022104B17F074FA08A3D3E9002317F06FFA002274
:2001E0000E4B17F0B7F817F04BFD0B4917F098FD17F0E6FE08BD00BF0000000000A06440FE
:2002000094180020133B0020F43A0020F63A00200000F03E000059400000C84200004440B1
:200220002DE9F04FDFF85C914FF0000AC8464E4655464D4B81B01F78AC0008EB040B9BF87E
:200240000330B7EB131F2DD018F8250017F0D0F93FA3D3E9002317F031FA0022434B17F0EB
:200260007BF80022424B17F077F817F0E9FC08F82500707817F0BCF935A3D3E9002317F073
:200280001DFA00223B4B17F067F8394B002217F063F817F0D5FC70709BF8033067F307133F
:2002A0008BF803309BF80330013503F00F03BB421BD0B07817F09CF927A3D3E9002317F02B
:2002C000FDF927A3D3E9002317F046F8284B002217F042F817F0B4FCB0709BF803304FF088
:2002E000010A67F303038BF80330072D06F10406A2D1BAF1000F13D10137FFB21F2F0CD97B
:20030000194A002313701C481C4A4FF41631002301B0BDE8F04F0CF06FBE134B1F70F2E7D9
:200320000023174988F81C3099F8022009F10409934238BF13468945F6D1124888F81C30D4
:200340000BF0D2FA084B1F78D6E700BFAFF30080CDCCCCCCCCCCEC3F5C8FC2F5285CEF3F06
:2003600052B81E85EB510040253B0020000032400000E03F00003440202300202102000049
:20038000183E0020FC3D00202DE9F0472C4B00291B680CBFCC250025834201D0BDE8F0878B
:2003A00028480023C15CDCB28A4203F1010337D0072BF7D1244B00271C462449E2780978FA
:2003C000A67861F30302E2701B7F30469E1B17F00FF917A3D3E9002317F070F9804628463F
:2003E000894617F005F914A3D3E9002317F066F902460B464046494616F0AEFF0022144B4B
:2004000016F0AAFF17F01CFCB6FA86F6A0707609334639462A46BDE8F0470B480BF062BAA5
:20042000094B274603EB8404C7E700BFAFF300809A9999999999E93F9A9999999999C93F98
:20044000643B0020D03E0020FC3D0020253B00200000E03F000000002DE9F041384C246860
:20046000844201D0BDE8F081364E0024355DE0B2AB4204F1010457D0072CF7D1DFF8D080D3
:200480001546314A98F80330127898F8000062F3071388F803300C4617F0AAF824A3D3E909
:2004A000002317F00BF90F46C4EBC4110646480000F0FE0017F09CF81FA3D3E9002317F070
:2004C000FDF802460B463046394616F045FF00221E4B16F041FF17F0B3FB88F8000098F8B9
:2004E000010017F085F812A3D3E9002317F0E6F80646680000F0FE000F4617F079F80EA3DE
:20050000D3E9002317F0DAF802460B463046394616F022FF00220D4B16F01EFF17F090FB3F
:2005200088F80100BDE8F081094B03EB8008A7E79A9999999999E93F9A9999999999C93F6E
:20054000643B0020D03E0020253B00200000E03FFC3D0020000000002DE9F043544983B09D
:200560000B780446002B69D0524B08209B6A01A9984700285AD10B3C4F4DE4B205EB04092E
:2005800099F8140017F034F841A3D3E9002317F095F8DDF804800646C8EBC810400000F0CC
:2005A000FE000F4617F024F83BA3D3E9002317F085F802460B463046394616F0CDFE002203
:2005C0003E4B16F0C9FE17F03BFB18F1550F89F8140015DA083405EB8404606817F01AF802
:2005E0002FA3D3E9002317F069F82FA3D3E9002316F0B2FE17F044FB606003B0BDE8F083AA
:2006000004F1080305EB8304606817F003F824A3D3E9002317F052F80022002316F09CFEBD
:2006200017F02EFB606003B0BDE8F08302462146234808F0DFFB03B0BDE8F083214A0126B6
:200640000E704FF07E5502F10D0302F14D00B42102F8011F43F8045F8342F9D11A4A6621C0
:20066000117713460D4602F11C00B421C82219705A709D7004338342F9D114484FF47051F2
:20068000134A00230CF0B8FC6EE700BFAFF300809A9999999999E93F9A9999999999C93F96
:2006A0008FC2F5285C8FEE3F0AD7A3703D0AA73F263B0020E8B101001C3E00200000E03FDF
:2006C000ECB301002F3E0020FC3D00202023002021020000000000002DE9F04F144623F04C
:2006E0000047024657EA04000E468FB01D469C46214634D06E4B26F0004A9A459346B1461B
:2007000026DC24D09F4223DC694B9F4200F08F80B9F1000FC0F28F804FF0000879BB644BCB
:200720009F4200F0A580634B9F4267D0BCF1804F00F0E283604B9C4521D1B9F1000F1EDBFC
:20074000104631460FB0BDE8F04F16F065BC62B10AF1404000F5801050EA0B0007D1034689
:20076000544918460FB0BDE8F08F5745CCDD53480FB0BDE8F04F16F04DBD4FF0000810466B
:200780003146CDF808C0009216F00CFD009ADDF808C0BBF1000F20D04FEAD97909F1FF3915
:2007A00058EA09037AD0464B9F4240F38F8003F104739F4240F31084424B9A4540F3928326
:2007C000BCF1000F40F3928337A1D1E900010B46024616F073FF0346C3E7BAF1000F04D0F0
:2007E000344B29F0404E9E45D6D1BCF1000FC0F2B683B9F1000F08DB0346B2E7BCF1000F68
:20080000C0F2528413463146ABE70AF1404A0AF5801A58EA0A0340F05E8402460B4616F0D0
:2008200099FD0B46024617F073F8034699E700293FF46EAF8CE7244B9F422CDCA3F15473AF
:200840009F427FF769AF40F213403B15834240F34B84C3F58663033321FA03F000FA03F3B8
:200860008B427FF459AF00F00100C0F1020855E70AF1404303F5801353EA0B0300F0398348
:20088000104B9A4540F36483BCF1000FC0F22E832346294665E74FF002083FE71046314685
:2008A0003346BCE7AFF300809C7500883CE4377E0000F07F0000F03F0000E03F38B80100DE
:2008C0000000E041FFFFEF3FFFFF3F43BAF5801F4FF0000205DACA4B16F0F0FE8A466FF0A5
:2008E00034024FEA2A53C74ECAF3130AA3F2FF334AF07F571344B2450C9347F4401740F394
:20090000D083C14B9A4540F307840026B4460C9BA7F5801701330C933946BC4B4FEACC0C77
:200920006344D3E900AB52465B46CDF834C0CDE9060116F00FFD52465B46CDE90801DDE92A
:20094000060116F009FD02460B460020B04916F0DFFF02460B46DDE90801CDE90A2316F09D
:20096000ADFE02460B46CDE90223CDE904237B1043F0005303F5002399190020002306460E
:200980000F460293DDE902231046194632463B46CDE9000116F092FE02460B46DDE908011F
:2009A00016F0D8FC5246CDE908015B463046394616F0D0FC02460B46DDE9060116F0CAFC6C
:2009C00002460B46DDE9000116F078FE02460B46DDE9080116F0BEFCDDE90A2316F06EFEAE
:2009E000DDE90423CDE906011046194616F066FE02460B4606460F4616F060FE6EA3D3E9C3
:200A0000002382468B463046394616F057FE6CA3D3E9002316F0A0FC32463B4616F04EFEEF
:200A200069A3D3E9002316F097FC32463B4616F045FE67A3D3E9002316F08EFC32463B467E
:200A400016F03CFE64A3D3E9002316F085FC32463B4616F033FE62A3D3E9002316F07CFC57
:200A600002460B465046594616F028FEDDE9042306460F46DDE9000116F06EFCDDE90623C8
:200A800016F01CFE32463B4616F066FCDDE9006782468B4632463B463046394616F00EFE0F
:200AA00000225C4BCDE9080116F056FC52465B4616F052FC02980F460646DDE9000132464F
:200AC0003B4616F0FBFD32463B46CDE90001DDE9060116F0F3FD0022CDE906014D4B304637
:200AE000394616F037FCDDE9082316F033FC02460B465046594616F02DFCDDE9042316F028
:200B0000DDFD02460B46DDE9060116F025FC82468B46DDE9000152465B4616F01DFC32A3E1
:200B2000D3E9002302980F46064616F0C7FD30A3D3E90023CDE904013046394616F0BEFDAE
:200B4000DDE90023CDE906013046394616F002FC02460B465046594616F0FCFB26A3D3E9A6
:200B6000002316F0ABFD02460B46DDE9060116F0F3FBDDF834C0284BCDF818C06344D3E90E
:200B8000002316F0E9FBCDE900010C9816F030FD06460F46DDE90401204BDDF818C09C4456
:200BA000DDE90023DCE900AB16F0D6FB52465B4636E000BFAFF30080EF4E454A287ECA3F5A
:200BC00065DBC9934A86CD3F01411DA96074D13F4D268F515555D53FFFAB6FDBB66DDB3F6F
:200BE000033333333333E33F000000E009C7EE3FF5015B14E02F3EBEFD033ADC09C7EE3F71
:200C0000000040438E98030079B60B00C88C01000000F03F00000840B88C0100A88C0100A8
:200C2000CDE906AB16F098FB32463B4616F094FB029832463B4682468B4616F08BFBDDE9A8
:200C4000062316F087FBDDE9042316F083FB02460B46DDE9000116F07DFBCDE9020108F1E2
:200C6000FF3858EA09030CBFD54BD64B0022CDE904230023CDE900450093DDE900672046A0
:200C800032463B46294616F065FB52465B4616F015FDDDE90223804689462046294616F0DA
:200CA0000DFD02460B464046494616F055FB04460D465246304639465B46CDE9024516F058
:200CC000FDFC06460F4620463B462946324616F043FBBD4B824699428946884640F3138159
:200CE00001F13F4303F5E003034340F0E581A0A3D3E90023DDE9020116F02EFB32460446ED
:200D00000D463B465046494616F024FB02460B462046294616F062FF002840F0CD814C46A8
:200D20002015A0F2FE304FF4801101414144C1F30A50A64CA0F2FF35C1F3130BC0F58260F4
:200D400003302C414BF4801B21EA040300224BFA00FB3946304616F0FDFA06460F46DDE94C
:200D600002018BEAE87B0BEBD87B32463B464FEA0B5A16F0F1FA80A3D3E90023002420463B
:200D80000D4616F09BFC3246804689463B462046294616F0DFFA02460B46DDE9020116F0B9
:200DA000D9FA77A3D3E9002316F088FC76A3D3E9002306460F462046294616F07FFC0246A6
:200DC0000B463046394616F0C7FA06460F4632463B464046494616F0BFFA42464B46044635
:200DE0000D4616F0B7FA02460B463046394616F0B1FA2246804689462B462046294616F061
:200E00005DFC63A3D3E9002306460F4616F056FC61A3D3E9002316F09DFA32463B4616F01C
:200E20004DFC5FA3D3E9002316F096FA32463B4616F044FC5CA3D3E9002316F08BFA3246D2
:200E40003B4616F03BFC5AA3D3E9002316F084FA32463B4616F032FC02460B4620462946D9
:200E600016F078FA06460F4632463B462046294616F024FC0022CDE900014FF08043304614
:200E8000394616F067FA02460B46DDE9000116F03FFD424606460F464B462046294616F035
:200EA0000DFC42464B4616F057FA02460B463046394616F04FFA22462B4616F04BFA024670
:200EC0000B4600203F4916F045FA8A44BAF5801F0246C0F227815346DDE9040116F0EEFBC3
:200EE00003463EE4BCF1000FFFF66EAC0023194637E40B46334934E433461046314616F0EE
:200F0000DDFB03462DE4324B21F000449C4240F3FA80304B0B4403430CD132463B4616F056
:200F200019FA02460B46DDE9020116F043FE00283FF4F6AE20A3D3E90023DDE9040116F083
:200F4000BDFB1DA3D3E9002316F0B8FB034608E4BCF1000FCADA234605F1004101E402461F
:200F60000B460020174916F0D3FC42E4AFF30080FE822B654715973C00000000432EE63FAE
:200F8000EF39FAFE422EE63F396CA80C615C20BED0A4BE726937663EF16BD2C541BDBB3ED6
:200FA0002CDE25AF6A56113F93BDBE166CC1663F3E5555555555C53F59F3F8C21F6EA50129
:200FC0000000F0BF0000F03FFFFF8F40FFFF0F00FFCB904000346F3F634B9A4582DD634B43
:200FE0009A453FF7EDAB0022604B16F0B3F954A3D3E9002306460F4616F060FB52A3D3E93C
:201000000023CDE900013046394616F057FB3246CDE902013B463046394616F04FFB002290
:2010200082468B4630463946514B16F047FB02460B4647A1D1E9000116F08CF932463B467E
:2010400016F03CFB02460B4600204A4916F082F902460B465046594616F030FB3EA3D3E9EA
:20106000002316F02BFB02460B46DDE9020116F071F906460F46DDE9000132463B4616F0E8
:201080006BF9DDE90023002082468B4616F062F902460B463046394616F05CF9CDE9020147
:2010A000DDE50026B44637E4334600202F4916F02FFC0346FFF755BB29A3D3E90023DDE931
:2010C000040116F0FBFA26A3D3E9002316F0F6FA0346FFF746BBB8F1010F03467FF441ABD1
:2010E00001F10041FFF73DBB00297FF446ABC3F58263033347FA03F000FA03F3BB4217D067
:201100008846FFF710BB1B4B9C423FF709AEDDE90023924693462EE64FF480264FF0010C2C
:20112000FFF7FABB5A4600F027F802460B46D3E600F00100C0F10208FFF7F5BAAFF3008090
:20114000000000604715F73F44DF5DF80BAE543E555555555555D53FFE822B654715F73F26
:201160009C7500883CE4377EFEFFEF3F0000F03F0000D03F0000E03FF8B5C1F30A5604466E
:201180000D460B46174616BB21F00043034332D00022314B16F092FA304A044697420D46C1
:2011A0000B4637DB40F2FE72C1F30A56363E3E44964215DD24A1D1E9000122462B4616F0F7
:2011C000BDF821A3D3E9002316F078FAF8BD40F2FF72964224D040F2FE723E449642E9DC5A
:2011E000002E09DD23F0FF4323F4E00343EA065520462946F8BDF8BD16F1350F15DA4CF24D
:2012000050339F42D6DC12A1D1E9000122462B4616F094F80EA3D3E9002316F04FFAF8BD4B
:2012200002460B4616F098F8F8BD23F0FF4323F4E003363643EA0655204629460022084B3D
:2012400016F03CFAF8BD00BF9C7500883CE4377E59F3F8C21F6EA50100005043B03CFFFFBA
:201260000000903C044B1A68B2F5806F03D01B689B0500D4FEE7704728ED00E0FEE700BF3C
:20128000FEE700BF08B511F0D3F8104A104B9A420DD2D0430F4918440B4620F00300043052
:2012A000084453F8041B834242F8041BF9D10A480A494FF000028842B8BF40F8042BFADB2D
:2012C00003F00EFFFFF7CEFF08BD00BF00000020E8110020C5CC0100E81100207847002004
:2012E00038B5048805465CB15C2C05D115480BF0BDFD10BB012038BD00230380032038BD0E
:201300004FF4F05003F078FE0F4805F0F9FE0F4B012220461A700BF095F80D4B1B699847EE
:2013200000F076F907484FF4F0510BF081FD00F0C9F95C232B80012038BD02480BF082FD4C
:20134000F5E700BF18120020F08C0100E0460020A4BA010000200BF075B800BF10B505F0C5
:2013600029FD054B05491860054A06480023BDE810400BF041BE00BF50130020004C0E00E6
:20138000E91500003C1200202DE9F04107460E4615461C46DDF81880FFF7E0FFCDF818809D
:2013A000384631462A462346BDE8F04103F0A2BC10B50B4C0B4A23780021042B11700A4809
:2013C00005D9BDE810404FF4C8510BF031BD4FF420710BF02DFD23780133237010BD00BF0E
:2013E000083B00200A3B00209C120020F0B5044640F23310238883B083420D4664D040F297
:201400003F118B42164612D023B100232380032003B0F0BD4F4A1370FFF7A0FF4E484FF4CA
:2014200020710BF005FD4D4B1B88062B63D001200CF0EEFB00286FD005F17F03DBB2012BE1
:201440005FD9882D05D040F23F130120238003B0F0BD41480BF00AFD0028F4D0FFF77EFF38
:201460003F4B1B78002B6DD13E4B1B78002BEAD13D4B1B68002B38D03C4805F041FE0021CD
:201480000B4602223A4802F0A1F83A4F3A4938483A4E02F02BFD3221354802F0CBFC0FCF35
:2014A0000FC697E80300172286E80300A6F110012F4802F0D7FD40F233133148284A0026BD
:2014C0000121068011702380294A2E4B29468DE80C002B482C4A43F2163302F0B9FF01282A
:2014E0000DD9204B1B78002BADD11B484FF420710BF09EFCA7E71B4B01221A7097E7002054
:2015000086E7FFF72BFF174B1B78002BB0D0822D99D1012E97D1ABE70F480BF0A7FC00283F
:2015200091D0114B194A1968194B1A48002914BF1146194607F05EFC07484FF420710BF023
:2015400077FC80E704480BF091FC00288CD0FFF72FFF89E7083B00209C120020F23A002048
:201560000A3B0020093B0020D42300205C8D0100AC120020848D0100748D01005C12002021
:2015800028120020991500000C8D01001C8D0100208D0100288D010010B504460D4821898D
:2015A000627907F027FC63790B4A0021022B117003D0BDE81040FFF7FBBE084B22891B891D
:2015C0009A42F6D1064805F09BFD064B01221A7010BD00BF9C8D01000A3B0020AC12002096
:2015E000C08D0100093B002008B5074B1B88062B08D0012B06D0054805F082FDBDE80840CE
:2016000005F03AB908BD00BFF23A0020D48D010008B50A480CF054F903F0E6FB084B0948E0
:201620009B68984701F07AFE01F034F801F070F9BDE80840044800210BF08CBE54130020C2
:2016400090AC0100891300003C04002010B50446044821460CF03AF920696169BDE8104018
:2016600003F0E2BB54130020F0B5134B83B01B880022062B019219D0104B01A9DB68984784
:2016800006460F480CF020F9044678B1019F656939462846324617F0EFF920B9284617F00F
:2016A000BDF9B04205D02468002CF0D1002003B0F0BD204603B0F0BDF23A002090AC010065
:2016C0005413002008B501F001F8084B1B7813B9074805F015FD05F06DFB064B1968BDE800
:2016E0000840411A044807F085BB00BF093B0020E88D0100501300200C8E01002DE9F041C6
:201700000388044683B140F24650834207D1882914D040F2465323800120BDE8F0810023FE
:2017200023800320BDE8F081124880210BF080FB40F2465323800120BDE8F0810D4B9A4283
:20174000E7D10D4F0D4DDFF8388003E057F8045F002DE9D0AE6930460BF034FA0028F5D06E
:201760002869D8F85C3098473046B1680BF022FAECE700BFA01300205CA301006407002007
:2017800090AC01002DE9F04782B00A9E4FF0FF344FF0000A8846174699468DE81004014650
:2017A000BDF830501EB3336813B39D424DDC344C6946236A984700994B1C59D0D4F8E43016
:2017C000994250D0D4F890106369404698472D4B1D68284617F022F9E36C02462946404658
:2017E00098474FF0FF33336002B0BDE8F08701AE234C0846236A6946984700994A1C2AD0B8
:20180000D4F8E4309942DDD1E369404698474D4510D82A4638460B9916F072FF4FF0FF33BA
:201820007A193360E36C4046D21B3946984702B0BDE8F0874A4638460B9916F061FF3368E1
:2018400007EB09024B443360ECE70B9AED1A1A44ADB20B92CCE7D4F8E410E369404698476C
:201860004D45D6D9E6E7E369404655469847D0E7E3694046D4F8E41055469847C9E700BFDC
:2018800090AC01003804002070B584B0089E054D4FF48074009601950294FFF773FF04B049
:2018A00070BD00BF3C3F002070B584B0089E054D4FF48074009601950294FFF763FF04B04B
:2018C00070BD00BF3C4000202DE9F04F89B00DF120080023DFF8AC9048F8143D0191D9F8A2
:2018E0000C30414682469847224D0646039F224C03E055F8043F73B11C46D4F814B058468C
:2019000017F08CF8B042F4D159463846324616F0C5FE0028EDD10025504642460395D9F895
:2019200058301649A469984708B10F2808DD0198D9F81430D9F87810984709B0BDE8F08F3C
:201940000246039904A8049505950695079516F0D7FE04A816F04EFE094BA0F11E029A42D3
:201960000146E4D8A06020460BF024F909B0BDE8F08F00BF5CA3010064070020708E0100C0
:201980006251010090AC01002DE9F04F002489B098468B4691468246059406940794129FD7
:2019A00005F008FA08AC44F80C0D07A90DF11B0206A804F0CDFE8DF81A000BF067FD094B9D
:2019C0000C261D78ADF81E0000970194594650464A46434602968DF81950FFF7D3FE09B0FD
:2019E000BDE8F08F744700202DE9F04FA1B08246894690461F460CF081FB8346002833D004
:201A000004AD2E460AE0034653F8080F1036596803C458460CF078FB8346B0B133460BF192
:201A2000080151F8080F06F10804496803C358460CF056FB0028E6D1B060606058460CF08F
:201A400063FB103683460028E8D1721B92B22A9B02928DE828005046494642463B46FFF74D
:201A600091FE21B0BDE8F08F024604ADEFE700BF2DE9F04F1D46273385B023F0070300AF41
:201A8000ADEB030D0023FB60BB6B4FF0FF348A463A60EB46BC60002B00F0A680584E07F1F2
:201AA0000801336A9847B9684A1C1AD0D6F8E430994218D0D6F89010736950469847514B30
:201AC0001C68204616F0AAFFF36C0246214650469847BA6B4FF0FF3314371360BD46BDE8EE
:201AE000F08FD6F8E410F36950469847BB6B1B681A46002BB8BF03F10F02C2F30714A3EBC6
:201B0000041808F0FF082B4405EB0802C2F307121B077A6003D013460133DBB27B6000208F
:201B200011F0BCFC814640B1A4B1484611F0B6FC621ED4B281460028F6D1BC6B4FF0FF324B
:201B400039682260F36C5046002298471437BD46BDE8F08F7B68D844002B4CD05C1EE4B2A4
:201B600001340BEB041400E088B3484611F090FC4B4642680168CBF80420CBF80010B9F8DD
:201B800000204846ABF8082053F8122F0BF1100B4BF8062C9B882BF8023C11F07FFC5C4513
:201BA0008146E1D14544A54228BF2546A5421FD0BB6BC8EB05021B68B96B13440B60F36C6C
:201BC0005046414698471437BD46BDE8F08F45445D4528BF5D46AB45EAD1B96B4FF0FF33A2
:201BE000C8EB05020B60EAE707F10C03BB6355E70028F2D0DCE745445D4528BF5D46D7E76E
:201C000090AC0100380400202DE9F04F99B00DF12409059006928B46484600213C220793BD
:201C200016F048FE444B1D68002D6DD0284609F04DFE4B46044655F8040F04F11C08696803
:201C40004FF0000A0BAD03C32EE000223B4B3046394615F081FB15F0CBFFC0B228706078E0
:201C600015F0C6FC0022354B15F028FD334B002215F072FB15F0E4FF6870A378EE1C012BAE
:201C8000A3F1020029D915F0B3FC00222B4B15F015FD0022294B15F05FFB15F0D1FF043447
:201CA0004445A87035461FD0207815F0A1FC0022234B15F003FD0022002306460F4615F05F
:201CC0006FFF0028C1D000221C4B3046394615F041FB15F08DFFC0B2C0E70434444585F836
:201CE00002A005F10305DFD1229BC9EB0505ADB28DE80802029505985946069A079BFFF730
:201D000041FD19B0BDE8F08F0E4C5846D4F89010636998470C4B1D68284616F07FFEE36C6D
:201D20000246294658469847229A4FF0FF33136019B0BDE8F08F00BF643B00200000E03F45
:201D40000000E0BF90AC0100380400202DE9F04F9BB00DF124090492834644228A4648465D
:201D60000021059316F0A6FD00F0F4FD07900798344DCDF825000FCD2C46334FCDF82900C1
:201D80003E68CDF82D1054F8030BCDF83120B988BA79CDF83530072305F11308CDF8390054
:201DA000CDF83D60ADF841108DF843208DF824300DF143050CE00022244B3046394615F04D
:201DC000CBFA15F015FF4445C0B205F8010F1CD014F8010F15F00CFC00221D4B15F06EFC0F
:201DE0000022002306460F4615F0DAFE0028E2D00022164B3046394615F0ACFA15F0F8FE28
:201E00004445C0B205F8010FE2D1124B1B6843B1114916AA0968159153F8040F089159684A
:201E200003C218AC249BC9EB0404A4B28DE8080258465146049A059B0294FFF7A3FC1BB060
:201E4000BDE8F08F1C3E0020D03E00200000E03F0000E0BF643B0020803E00202DE9F04F06
:201E600097B0229E002735684FF0FF3E81466868099104921D460B970D97CDF830E016F0D0
:201E8000CDFD209C0390002C00F002828A4F0DAA7B6D484689499847012800F0FB813B6A98
:201EA0000DF1300B59464846059398470C9B824A591C19D0D2F80421934215D0099ED7F855
:201EC00090107B69304698477D4B1D68284616F0A5FDFB6C02462946304698474FF0FF33E2
:201EE000236017B0BDE8F08F01230793FB680DA948469847039B804683421ED00D9EDFF897
:201F0000C8A1334656469A466E4D30465146424616F0B2FD28B9304616F080FD404500F00F
:201F2000628155F8106F002EEFD109987B69D7F88810984717B0BDE8F08F4FF000096B1C7F
:201F4000DFF880A160480893CB465FE05B4622684FF0020C934208D3A94512D204993C2201
:201F600001F80920226809F101090133934208D3A94506D2049A2F2302F80930226809F160
:201F80000109DAF800B0CDF818C05846059216F045FDDDF818C0059A00EB0C08904553D850
:201FA00007D3A94505D2049A3E2302F8093009F10109DAF8043008F1010BD3B1226893455B
:201FC0000AD3A94508D2049A3B2302F80930DAF80430226809F1010918460692059316F005
:201FE0001DFD08F10208069A00EB080B9345059B41D8A94505D92368C9EB0B029A4200F2AF
:2020000019815AF8100F002800F014813368039A596816F031FD0028F3D1079B012B57D0FA
:20202000BBF1000F92D022685A4508D84D4506D9049A2C2302F80930226809F101090BF15F
:2020400001030BF1030C85E7CCEB0203049A002BACBF5B440BF1000302EB0900089AC9EB2B
:2020600002011A4A06F0ECFE8144A94515D22368984598D29DE7C8EB0208049AB8F1000F16
:20208000A8BF434402EB0900089AC9EB02010F4A06F0D6FE8144A945B3D9B9F1000F40F0B8
:2020A0007081DAF80030002B00F0BE8023681D44256017B0BDE8F08F90AC0100589601004C
:2020C000380400207CA001007C8E0100988E01000E900F9010901190129013901490159049
:2020E0002368BBF1000F71D1194653B94D4540F22181049A7B2302F80930236809F1010989
:202100001946012B9B4640F21881219B06911B681846059316F082FC069900F1020C8C45C9
:202120008046059B00F2E78009D3A94521D2049A222302F80930D4F800B009F1010908F194
:2021400003035B4509D3A94513D2049A3A2302F80930D4F800B009F1010908F104035B45DC
:2021600007D3A94505D2049A7B2302F8093009F1010908F10508DAF80C20DAF808301268C5
:20218000202100920EA8834A06F05AFE0EA816F045FC236800EB080B9B457FF62AAFC8EB34
:2021A00003030EAA002BA8BFD2181346049A02EB0900089AC9EB0201774A06F041FE8144E4
:2021C000A945FFF41EAF08F101023AE05B4507D84D4505D9049A2C2302F8093009F1010928
:2021E0000BF10108C7E759464846059B98470C99481C67D0D7F80431684E994264D0D6F8A9
:20220000B430994200F0A480099FD6F89010736938469847624B1D68284616F0FFFB29468D
:202220000246F36C384698474FF0FF33236017B0BDE8F08F079BD846012B7FF42EAF0BF183
:2022400001022368434513D84D4511D904997D2301F80930236809F1010993420ED84D45B6
:2022600008D9049A7D2302F8093009F1010905E09342F4D9B9F1000F3FF413AF0499FB6CCF
:202280004A4609989847FB6932210998984708E70BACFBE50D9816F0ADF9079000287FF4EE
:2022A000FEAD3B6A0DF1300B59464846059398470C9A531C3FF41AAED7F8DC309A427FF4B7
:2022C000FDAD13E6D7F80411099EFB6930469847EA68AB681268049D00924021314A2846BB
:2022E00006F0AEFD284616F099FBFB6C024629463046984798E7049A023902EB0900089AD2
:202300000029A8BF5B18C9EB0201234ACDF814C006F096FD8144A945DDF814C02DD2D4F84D
:2023200000B0DC45BFF403AF08F103035B45BFF40CAF12E719469B46E7E6A945FAD2049AFC
:20234000222302F80930216809F101098B46DCE6099FF36938469847EB68049D1B684021AC
:20236000114A284606F06CFD284616F057FBF36C024629463846984756E703224FF0020851
:202380005FE70499FB6C4A4609989847FB6928217BE700BF9C8E0100988E010090AC010086
:2023A00038040020A88E010094A501002DE9F04786B006AC0026184D44F8046D6F6D894638
:2023C0009046164922461D4682460E9EB84701280ED0134C009604F10806504649464246DE
:2023E0002B4601940296FFF739FD06B0BDE8F087059816F0FFF80028EBD00A4F4024009671
:202400005046494642462B4601970294FFF7BAF906B0BDE8F08700BF90AC0100B48E0100B6
:2024200024070020E83E00202DE9F04786B006AC0026184D44F8046D6F6D894690461649BE
:2024400022461D4682460E9EB84701280ED0134C009604F108065046494642462B4601948C
:202460000296FFF7FBFC06B0BDE8F087059816F0C1F80028EBD00A4F282400965046494666
:2024800042462B4601970294FFF77CF906B0BDE8F08700BF90AC0100B48E0100C8050020AC
:2024A000E44600202DE9F04786B006AC0026184D44F8046D6F6D89469046164922461D46BA
:2024C00082460E9EB84701280ED0134C009604F108065046494642462B4601940296FFF749
:2024E000BDFC06B0BDE8F087059816F083F80028EBD00A4F1C2400965046494642462B4603
:2025000001970294FFF73EF906B0BDE8F08700BF90AC0100B48E010088070020403B002005
:202520002DE9F04786B006AC0026184D44F8046D6F6D89469046164922461D4682460E9E0F
:20254000B84701280ED0134C009604F108065046494642462B4601940296FFF77FFC06B00B
:20256000BDE8F087059816F045F80028EBD00A4F102400965046494642462B46019702940D
:20258000FFF700F906B0BDE8F08700BF90AC0100B48E0100B8040020204400202DE9F0478E
:2025A00086B006AC0026184D44F8046D6F6D89469046164922461D4682460E9EB8470128B4
:2025C0000ED0134C009604F108065046494642462B4601940296FFF741FC06B0BDE8F087D5
:2025E000059816F007F80028EBD00A4F142400965046494642462B4601970294FFF7C2F833
:2026000006B0BDE8F08700BF90AC0100B48E0100480600200C4400202DE9F04786B006AC96
:202620000026184D44F8046D6F6D89469046164922461D4682460E9EB84701280ED0134CDE
:20264000009604F108065046494642462B4601940296FFF703FC06B0BDE8F087059815F02D
:20266000C9FF0028EBD00A4F282400965046494642462B4601970294FFF784F806B0BDE85B
:20268000F08700BF90AC0100B48E01006C070020E443002070B50A4D0A4C1E26A0691E214C
:2026A00086600AF087FA2046FEF7D0FF55F8044F002CF3D12146BDE8704003480AF04ABEF6
:2026C0005CA30100640700205407002038B52E4804F016FD2D4804F013FD2D4C04F160053E
:2026E00014F8023C227C0BB1012A3ED92034AC42F6D1284804F004FD0BF0DAFE0BF088FE32
:20270000044600283BD0244806F074FB201D0DF0B9FAA169214806F06DFB0BF009FD014665
:202720001F4806F067FB0BF0E9FC0446C0B11A4806F060FB04F108000DF0A4FA194806F09D
:2027400059FB20460BF0CCFC0DF09CFAA169134806F050FB20460BF0D7FC04460028E6D166
:202760001148BDE8384004F0CBBC0B4806F042FB20460DF087FA0A2004F0BAFCB6E70B483A
:2027800004F0BEFCC9E700BFB88E0100D08E01009E410020F08E0100EC8E0100048F0100E9
:2027A000288F0100648F01004C8F0100208F010008B5034804F0A4FCBDE8084004F05CB850
:2027C000D48D01002DE9F04184B004AD4FF0FF36244C45F8046D276A0E462946984615464C
:2027E000B84703994B1C19D0D4F80431994217D0D4F8B43099422AD0D4F8901063693046F8
:202800009847194B1D68284616F008F929460246E36C3046984704B0BDE8F081D4F8041175
:20282000E369304698470A9AD8F800302846009240210E4A06F004FB284616F0EFF8E36CFB
:20284000024629463046984704B0BDE8F081E3693046984728464021054A0A9B06F0F0FA5E
:20286000EAE700BF90AC01003804002094A30100988E010070B504460E461546074804F06F
:202880003FFC01F0E5FF064B20469C6931462A4604940833BDE87040FFF794BFA0A30100D0
:2028A0009C07002010B4044B9C69083301945DF8044BFFF787BF00BFB807002010B4044BDC
:2028C0009C69083301945DF8044BFFF77BBF00BF1408002070B50E461546044604F06AFADE
:2028E00010210346074A084806F0AAFA074B20469C6931462A4604940833BDE87040FFF761
:2029000061BF00BF94A5010004140020F807002010B50A4B0A4C0B48A361FEF797FE0A48A4
:20292000FEF794FE2046FEF791FE0848FEF78EFEBDE810400648FEF789BE00BF04140020DF
:20294000F807002014080020B80700209C0700205408002038B5124B1B6843B904F0F2F956
:202960006423A0FB0301C00940EA416038BD04F075FA0C4A0C4B12681B6822B90B490A68FA
:20298000821A002A01DB184638BD0C686422201AA0FB0245200C40EA0540181A38BD00BFAB
:2029A000D423002008230020C83E0020703B0020836A01219B688120184700BF2DE9F041AC
:2029C0002E4D84B04FF0FF330E461746D5F81C8003932B4CF8B103A9236A984703994B1CEC
:2029E00019D0D4F80431994217D0D4F8B430994232D0D4F89010636930469847214B1D6820
:202A0000284616F00BF829460246E36C3046984704B0BDE8F081D4F80411E3693046984798
:202A2000D5F808E0EA680023EB84D8F8083038460192CDF800E04021134AC5F804E006F0EA
:202A4000FFF9384615F0EAFFE36C024639463046984704B0BDE8F081E36930469847D5F86F
:202A600008E04FF0000C734638464021074AC5F804E0A5F826C006F0E3F9E2E7980D0020B6
:202A800090AC01003804002050A501006CA5010070B5154C86B006AA00250E4642F8145D05
:202AA000A36D1249984708B10F2805DD30466369A16F984706B070BD0246019902A80295C3
:202AC00003950495059515F01BFE02A815F092FD20280346EAD8064A30469384D58463697A
:202AE000E16E9847E6E700BF90AC010074A50100980D002070B51A4C86B006AA00260D4616
:202B000042F8146DA36D1749984708B10F2805DD28466369A16F984706B070BD02460199EB
:202B200002A8029603960496059615F0E9FD02A815F060FD0128EBD80B4B0C4AC101596279
:202B4000D684181D39B90AF09BFA28466369E16E984706B070BD064A0AF04EFAF5E700BFED
:202B600090AC0100708E0100A8090020980D0020C5320000034610B490F83440596A074871
:202B800014F0010F064A18BF024611B95DF8044B7047181D5DF8044B0AF02EBAB1290000F8
:202BA0004531000070B54FF0FF3382B00D460193144CD0B101A9236A984701994B1C14D014
:202BC000D4F8E430994212D0D4F890106369284698470D4B1E68304615F020FF314602469C
:202BE000E36C2846984702B070BDD4F8E410E36928469847054AE36C28461278044998473F
:202C000002B070BD90AC0100380400200B3B0020141400202DE9F04F8BB005460F46914687
:202C2000FEF722FD0646A54C28462369984726B110F0010809D1830733D438466369D4F809
:202C40008C1098470BB0BDE8F08FD6F818804FF0FF330693B8F1000F00F0B280002D00F0B3
:202C6000848006A92846236A984706994A1C7CD0D4F8043199427AD0D4F8B430994200F0D5
:202C8000A580D4F890106369384698478C4B1D68284615F0C3FE29460246E36C3846984787
:202CA000D0E70DF1280949F8148D4A46D4F858A028468449D047002854D00F2840F3BA80B6
:202CC000C346CDF80C8028467F494A46D047002846D00F2840F39B804FF0000828467B4981
:202CE0004A46D047002839D00F2840F3CE800023029328464A467649D04718B10F2840F385
:202D0000B08000200BF03001302951D0202973D0102976D05FFA8BF252B2002A4BDD1BF07B
:202D2000040F03D0B269BDF80C3093841BF0400F1CBFB26990611BF0200F1CBFB269C2F85F
:202D400010801BF0100F02D0B369029A5A6138466369E16E98470BB0BDE8F08F0290C8E7DC
:202D60008046BBE783460390ADE7D4F80411E36938469847D8F808200023B2F1004FC8F8A4
:202D80000420A8F826304D4C1AD0B3680092D8F80C204846019240214E4A06F051F8484606
:202DA00015F03CFEE36C024649463846984749E7029B9845AEDB38466369A16F984741E7BD
:202DC00038466369D4F89C1098473BE7E36938469847D8F808300022B3F1004FC8F8043076
:202DE000A8F82620ECD0D8F80C20484600924021394A06F025F8D2E7B26952699045DADC04
:202E000088E7B269029B12699342D4DB82E700230246059906A8069307930893099315F0FD
:202E20006FFC06A815F0E6FB4BF0200380465FFA83FB53E70246059906A8CDF81880CDF8A8
:202E40001C80CDF82080CDF8248015F059FC06A815F0D0FBB0F5004F039029D24FF0040B60
:202E600031E700250246059906A8069507950895099515F045FC06A815F0BCFB00289ADDC0
:202E80004BF040035FFA83FB3CE700230246059906A8069307930893099315F031FC06A8B9
:202EA00015F0A8FB4BF0100302905FFA83FB20E7CDF80C804FF0800B05E700BF90AC0100A9
:202EC0003804002074A5010098A501009CA50100A0A501007CA5010090A501002DE9F04117
:202EE00086B006460F46FEF7BFFB0546234C3046236998470DB1830707D438466369D4F878
:202F00008C10984706B0BDE8F08106AA4FF0000842F8148D3046A36D1949AD69984708B102
:202F20000F2806DD38466369A16F984706B0BDE8F0810246019902A8CDF80880CDF80C8048
:202F4000CDF81080CDF8148015F0DAFB02A815F051FB0C4B9842E5D8C001686248B9281D2F
:202F60000AF08EF838466369E16E984706B0BDE8F0812846FFF7FEFDF4E700BF90AC010057
:202F8000708E0100805101002DE9F0410C46444B84B0DD6DA8472678002E4DD0E38C002B48
:202FA0004DD1404F63683A78002A50D0DFF80081E068D8F80010411A64294CDD03F50043D1
:202FC000B3F5803F00F500412CBF05230323B1F5803F2CBF052103210B441344402B4FDC45
:202FE000314B1A4400F50043B3F5803F0290ADF80C004DD203210E46BDF80C000123A2F8FF
:20300000010013703D78E0686368354426780A443D70C8F8000003F50041B1F5803F03935E
:20302000ADF8063024D2BDF806301670A2F8013003223B7813443B7004B0BDE8F081194F77
:203040000022A368E2843A786360002AAED1E068DFF85C80B2E703F50041B1F5803F34BF9A
:2030600003200520104440280ADC0F480244D4E7039846F040061670C2F801000522D8E7D0
:203080000A4B1869A8470023074AE0683B70A9E7029841230521C2F8010013700E46B1E726
:2030A00090AC01000B3B002014140020800B0020581400202DE9F041046B06462568002D32
:2030C00033D0B36A286A5B689847A8602568FFF741FCE8602268D38C0133D3842368DA694A
:2030E0009169F1B1888CE0B14B68B3F1004F15D0CD8C854212D088680D69A84202DB4F691D
:20310000B84204DDAB4202DB4D69AB4206DD8D695F19B84202D85B1B984202D21069FFF7AF
:2031200033FF54F8045F002DCBD196F93430002B01DBBDE8F081B36A81209B680021BDE84E
:20314000F041184710B50446074A616A2346043009F052FFA36A81209B68012198472046B5
:20316000BDE81040FFF7A6BF453100002DE9F041046B804623687BB1052700264FF0004580
:20318000DA699F84DE845D609361D869FEF75EFA54F8043F002BF3D1114841460AF096FB3F
:2031A000D8F82C30C3F81880D8F824301BB94FF42073C8F82430D8F82C00FEF747FA98F8EC
:2031C0003430DB0704D44046BDE8F041FFF7BABFD8F8283081209B680121BDE8F0411847E3
:2031E0005414002030B5038883B0044693B140F2FF60834209D1284B1B788B4234D040F2DD
:20320000FF630120238003B030BD00230320238003B030BD21480AF053FB2148FEF716FA40
:203220002048FFF7A3FF2048FFF7A0FF1F48FFF79DFF1F48FFF79AFF1E4B1F4DDA69936196
:20324000D869FEF703FAEB6A9D616B6A13B94FF420736B62E86AFEF7F9F91848696A031F16
:20326000174A09F0C9FECAE70C4801920AF02CFB019A054618B9C2E72D68002DBFD0AB6AAE
:203280009342F9D128460192FFF774FC2846FFF711FF019AF0E700BF724700205414002022
:2032A000800B0020B40A002070090020200E0020D40C0020980D0020A8090020AC09002033
:2032C000C5320000114B10B55B6801209847104C00F00100A268E38C40EA42000133E38446
:2032E000A060FFF737FB0B4BE060596A181D0A4A09F082FEE28CA38C9A4200D010BDE369E9
:20330000BDE8104018699969FFF73EBE08B00100980D0020A8090020C53200000148002193
:203320000AF018B8100E00200249034A00230B70136070470B3B0020581400200C2830B41B
:2033400038D80301DBB20C292ED8CCB22343B0F5867F137012D96FF4867543191B0A0D3871
:203360005370907002230320B1F5867F11D80C2902D90D391154013030BC70470C281FD9F3
:203380000D38B1F5867F50704FF001034FF00200EDD96FF486740C19240AD5180D391454E8
:2033A000A970D81C30BC7047B1F5867F94BF0D240E24CBE7B0F5867F94BFD023E023C2E7AE
:2033C00001200023D0E700BF13F07F4F2DE9F8434FEA134614BF012700271C4615463B461F
:2033E0004FEA064906B17B1C34F0FF0819D001330133401A2A461946FFF7A0FF17B1230EC4
:203400002B540130B9F1000F01D02E540130B8F1000F09D0230A2B5401302C540130BDE8FB
:20342000F883002CE5D0E3E7002CF6D1BDE8F883F8B50E689DF8187016B902600B60F8BDC2
:203440000C461D46036811469F5523682A46013323600068184415F0C9F923682B44236047
:20346000F8BD00BF2DE9F047002481461C6010460E461746984615F0D1FA4E4409EB0005E4
:20348000AE4282462AD94C4606E0013404EB0A039E4205F101051DD94C4503D014F8013C49
:2034A000262BF2D12B783D2BEFD138462146524615F0E2FA0028E8D10AF1010A5444361BFF
:2034C00032462046262115F09FF800B1061BC8F8004000E000263046BDE8F0872646FAE774
:2034E000F8B5069C401A21461F461646FFF726FF054639463018224615F002F92819F8BD70
:203500002DE9F04F83B09DF83480DDF830A0B8F1000F37D0934600221E46994684468E469A
:20352000144617460AF1010303E001349C42224624D8B15CB518414501D05245F5D1C9EB39
:203540000505CEEB0C000BEB070229460193CDF800C0FFF7F3FE074449460BEB07002A46E7
:2035600015F0CEF80134019BDDF800C006EB040901349C42E6462F442246DAD9384603B01E
:20358000BDE8F08FCDF830A003B0BDE8F04FFFF7A7BF00BF10B504460020014602460CF006
:2035A000EFFB044B0482186005F0B6FA024B188010BD00BF5C140020F03A0020024B1888F7
:2035C000013080B218807047F03A0020F8B504460F4616461D460021A42215F06BF96771BC
:2035E000A6712581F8BD00BFF0B501230022016003710A7004680579237883B043EA8513E3
:203600002370056844792B78240104F030041C432C700568847A2B7804F00F041C432C70F2
:20362000036884795C7004890368240A9C7003680489DC70837913B9042003B0F0BD036829
:20364000847A1D1D4CB100F10A0414F8017F013205F8017B877A9742F7D8C37C0E4603F0CF
:203660000202044602F0FF01002A40F0F9801A0700F1EB80DF0600F1DB80980600F1CF80AB
:203680005A0600F1C3801B0600F11581237DDF0700F1AF80180700F19F80DA0600F1938035
:2036A0005F0600F18780180600F10E81637D9A0776D4DF0667D4180600F1E080A37D1A0774
:2036C0001CD5D4F8803094F884201B010AB143F00803B4F886000027000900E017467A1C03
:2036E000400892B2FAD10AB107F00F0003432A461B20FFF769FEA37D05441B21DF0639D4CD
:20370000E37D180723D41A0600F1EC80A37EDB0628D42368EB1A3E2B12DCB4F89E2022B194
:20372000FF2305F8013BB4F89E202846D4F8A01015F05CF8B4F89E00AB1B184403B0F0BDB5
:203740006D4B6E4A002020601A6003B0F0BD226B636B232000922A46FFF7C2FEE37D054480
:203760002321D0E72A463C20D4F89030FFF72CFE0544CEE72A461C20D4F88C30FFF724FE8C
:203780001C210544BCE7606D2622A36D8DE805002A461420FFF7B4FE637D054414218AE746
:2037A0002A46B4F868301120FFF70EFE637D054411217EE72A46236A0E20FFF705FE237D9E
:2037C00005440E216FE72A46A38B0C20FFF7FCFD237D05440C2163E7E06D2F22236E8DE85E
:2037E00005002A460B20FFF78BFE237D05440B2153E7A06C2F22E36C8DE805002A4608209D
:20380000FFF77EFE237D0544082143E72A46636E0620FFF7D9FDE37C0544062133E72A466E
:2038200000230520FFF7D0FDE37C0544052127E794F824302A460093042004F12503FFF787
:203840004FFEE37C0544042117E7226C636C032000922A46FFF744FEE37C0544032109E7DA
:2038600090F86A30002100932A4604F16B030120FFF736FEE37C05440121F8E6676F94F84A
:2038800078303F01A3B9B4F87A200020130900E01046421C5B0892B2FAD10AB100F00F039F
:2038A0002A463B431720FFF78FFD1721054405E747F00807E7E72A460720B4F85030FFF727
:2038C00083FD07210544E1E6D4F894002622D4F898308DE805002A460F20FFF711FE0F21A6
:2038E0000544E3E6A26BE36B272000922A46FFF7F7FD2721054409E7F80E0020DCAB0100F9
:203900002DE9F843114F05463E6894469E46884634469DF82090EB6800686968AA68B9F172
:20392000010F0FC4614672460CBF102303233046A6F812800CF0FEF93C680021204610222B
:2039400014F0B8FF00236382BDE8F8835C1400202DE9F04F0C46054685B092460021A4220E
:2039600014F0A8FF2C602678B6092E712378012EC3F301136B7194F8008008F00F0885F80C
:203980000A806378AB71A278E37843EA02232B8106D0BF4BBF4A80201A6005B0BDE8F08F57
:2039A000B8F1080F06D9BA4BBB4A80201A6005B0BDE8F08F271D4246394605F10B0014F01B
:2039C0009FFE04EB0A0B07EB08024FF000095A4585F8139085F8149085F8159085F81690DD
:2039E00085F8179085F8189085F8199085F81A9080F0B88117F8088008F0F003F02B00F0FB
:203A0000DE8005F15803029305F1540303934FEA18110D2908F00F0800F08B810E2900F0B5
:203A20009981571CB8F10D0F00F08781B8F10E0F00F08881894405EBD901CB7C09F007029D
:203A400006FA02F2134309F1FF32CB743B2A00F26A81DFE812F00F0168014601380133017A
:203A6000250159014C01680168010201F3006801E400D7006801C700680168019F00680183
:203A800068018100680168016801610051006801680168016801680168013C0068016801CB
:203AA00068013C0068016801680168016801680168016801680168016801680168016801A3
:203AC0006801680168016801680168014100704B724AA5201A6060E7B8F1000F00F05681B3
:203AE000002207EB080317F8011B9F4241EA0222F9D1C5F8902057E0B8F1000F00F049816C
:203B0000002207EB080317F8011B9F4241EA0222F9D1C5F88C2047E0B8F1000F00F0278181
:203B2000002207EB080317F8011B9F4241EA0222F9D102F0070722F00F011020B840B940FE
:203B4000C2F3C0071209A5F88600C5F8881085F88470C5F8802027E0B8F1000F00F01C813C
:203B6000002207EB080317F8011B9F4241EA0222F9D102F0070722F00F011020B840B940BE
:203B8000C2F3C0071209A5F87A00E96785F878706A6709E0262300930298434603993A46ED
:203BA000FFF746FC07EB08035B451A4680F0DA8093F8008008F0F003F02B7FF428AF013278
:203BC000A31A53449BB2402B84BF40210B464FF00000C5F8A02094BFA5F89E30A5F89E101F
:203BE000D054DAE6B8F1000F00F0BE80002207EB080317F8011B9F4241EA0222F9D1A5F81A
:203C00006820D1E72623009305F19800434605F194013A46FFF70CFC07EB0803C4E7B8F117
:203C2000000F00F0AD80002207EB080317F8011B9F4241EA0222F9D12A62B5E7B8F1000F34
:203C400000F09880002207EB080317F8011B9F4241EA0222F9D1AA83A6E72F23009305F183
:203C60006000434605F15C013A46FFF7E1FB07EB080399E74246082A28BF082205F16B000D
:203C800085F86A20394614F03BFD07EB08038BE7F80E00200CAC010024AC01004CAC01004A
:203CA000B8F1000F6FD0002207EB080317F8011B9F4241EA0222F9D16A6675E785F89C6024
:203CC00007EB080370E74246082A28BF082205F1250085F82420394614F012FD07EB08035A
:203CE00062E76F64C5F8408007EB08035CE72F23009305F14C00434605F148013A46FFF786
:203D000097FB07EB08034FE7B8F1000F35D0002207EB080317F8011B9F4241EA0222F9D1DD
:203D2000A5F8502040E719F0010F38D107EB08033AE75178971C0D3174E617F8013B03F1BC
:203D40000D0877E67B7817F8028B03F20D1303EB08286FE69378517803F20D1303EB0121E1
:203D6000D71C5FE6002018E642463B4647E742463B46DEE642463B466DE742463B46CFE7CD
:203D800042463B4658E742463B4695E742463B46AFE642463B46BCE642463B46E9E6024BE8
:203DA000024A82201A60F8E5F80E002074AC010010B4044690F91400002803DB00205DF851
:203DC000044B70471346D4F898000A46D4F894105DF8044BFFF746BB30B4B0F89E4014B98E
:203DE000204630BC70470D46134621462A4630BCD0F8A000FFF736BBFF299ABF8171012068
:203E000000207047082A034628BF082210B514469A720B3014F074FC204610BD037D03F0BF
:203E2000100303F0FF021BB1838B01200B6070471046704701207047437D03F0020303F0CE
:203E4000FF0223B1B0F8683001200B6070471046704700BF037D5B064CBF036A3C230B601B
:203E600001207047037D016243F0400303750120704700BF38B50446082A28BF082215462D
:203E800084F82420253014F03BFCE37C284643F01003E37438BD00BFC37C03F0020303F08A
:203EA000FF022BB100F16B030B6090F86A00704710467047C07CC0F340107047C37C03F07D
:203EC000080303F0FF021BB1436C0B60006C704710467047037D03F0080303F0FF021BB18F
:203EE000036E0B60C06D7047104670470B7810B52F2B044603D111F8013F2F2BFBD0216640
:203F0000084614F08BFD237DE06543F00803237510BD00BF90F91430002BBDBFD0F898307C
:203F20000B60D0F894000020704700BF0B7810B53F2B044603D111F8013F3F2BFBD0A165D0
:203F4000084614F06BFD637D606543F01003637510BD00BF70B50B780C462F2B064603D1E4
:203F600014F8013F2F2BFBD020463F2114F0F0FC054660B13046691CFFF7D8FF281BB0649F
:203F8000F46418B1337D43F00103337570BD204614F044FDB064F3E7C37C416643F040034F
:203FA000C3740120704700BF10B490F91540002C03DB00205DF8044B704709B1446F0C6033
:203FC00012B190F87810117013B1B0F87A201A80019B33B1C36F019A012013605DF8044B68
:203FE00070470120E6E700BF10B4A3F11004B4F5FE6F12D8B1F5801F0FD2447D003218BF01
:20400000012280F8782064F07F024167A0F87A3042755DF8044B0120704700205DF8044BB7
:20402000704700BF837D03F0100303F0FF0223B1D0F88C3001200B6070471046704700BFA9
:20404000837DC0F88C1043F01003837501207047D0F8A0301BB10B60B0F89E0070471846CC
:204060000B607047402A28BF4022C0F8A010A0F89E201046704700BF014B1860704700BFA7
:204080000C15002083790120013B9840C0B270472DE9F047038886B00446B3B140F25B122A
:2040A00093420CD1AA4B1B788B4219D0882963D040F25B130120238006B0BDE8F0870023D3
:2040C0000380032006B0BDE8F087A248A24900F0ABFE00F033FA43F21630FFF75BFAE7E749
:2040E0009E4B9F4D1B78002298072A70E0D59D4B9D4FDFF8A0923846D9F800101A88FFF774
:2041000027FC06462870002839D0DFF88C82C22ED8F8000000F0D78000F03EFA2A78904BD6
:20412000C32A00F0CC80BF2A84BFA0221A70022529463B898C48FFF749FA8C4B8C4F1E683F
:20414000304614F06BFC314602468748FFF78AFF884BD9F800601B7831462833824833F813
:204160000780FFF741FA414683B2324607F108000095FFF7C5FB9BE700F08AFA98E7BB795F
:20418000013B032B2ED97B6823F07F4323F0FF03D3B9C3232B70388900F066FADFF8F88173
:2041A000C8F8000040B1C66AD0F830A000F0F4F916B150466C49B0472E780023C8F80030E7
:2041C000002E3FF475AFA2E77B79032BE3D1694B694A1B7802F108002833D15A3A8900F0CD
:2041E00009FBD8E7634B644A1B7802F108012833D25A388900F0ACF9DFF89C81C8F8000080
:20420000002800F085807B794022039604960596ADF80A20002B59D15848022145223B894B
:20422000FFF7D4F9BA7A002A5FD104AB00934E4803A900220DF10A03FFF7B6FE40B1BDF82C
:204240000A30049A402B28BF40230592ADF80A304B4BD3F800C0BCF1000F40D0D8F800207E
:20426000DFF804A1454E0DF1140EBDF80A30504631467432CDF800E0E04790B12A78384B3B
:204280008AB99AF81620110748D596F90620002A44DBB27D120741D434493A48A122086059
:2042A0001A702B7833B32E78002E7FF430AFD8F8000000283FF4FCAE00F084F9F8E6002283
:2042C0001A70032534E700F067F9F1E6FFF776F90121034645222948FFF778F9A2E7234AE5
:2042E0002949A12311602B70DDE728492348FFF789FD9AE7D8F80060204806F13601FFF723
:2043000073F980B2B0860028CDD1C1232B70CAE7164A1F49A32311602B70C4E797F91530B9
:20432000059A002B3ADB002AE4D0013218BF0122002140231148FFF757FEB6F89E20D6F831
:20434000A0103F2A88BF40220C48FFF78BFEA8E776470020240F00209CAD0100C843002094
:204360000C3B0020F042002064140020F80E002000430020323B002000430020101500202E
:204380000C150020B0AD0100D0AD01006F140020E4AD0100D443002008150020049B9A42DC
:2043A00017D00132039921D0BDF80A300122DFF884A05046FFF718FEB6F89E30BDF80A204C
:2043C00093427FF66EAF5046DAF8A010FFF74AFE67E7B6F89E10174E8A4210D38223304647
:2043E00015490F22B371FFF73DFE5AE7B6F89E20BDF80A309A4294BF00220122D7E7BDF856
:204400000A308A1A9A4294BF0022012203993046FFF7EAFD0498B6F89E30BDF80A201B1A2F
:20442000D6F8A0109A42014428BF1A463046FFF719FE36E710150020C0AD010001480021D9
:2044400008F088BFFC0E0020C160406808F0A2BFF0B50446008883B015461E4610B3B0F500
:20446000CD7F1AD1822902D0012003B0F0BDE068002848D02C4F002300932C4A3946FFF763
:2044800093FD3B6822699A4247D0294A137801331370264B1B78002B3AD100230320238093
:2044A00003B0F0BD234B21491F681F4A204B2061E0606760087010601870FFF77FF8089B61
:2044C00029461881324600F043F8A060D8B11A4BC362A3681C63216979B9A568089805F135
:2044E0003601FFF781F8A886A06800F06BF84FF4CD730120238003B0F0BD089800224023C1
:20450000FFF772FDE9E700230220238003B0F0BD074B1B78032BC0D8CFE7099BE0689847F2
:20452000236901332361B4E7601400200E3B00200D3B00207824002049440000024A034B54
:2045400012681A60704700BF78240020B8150020F8B507460E480D46164609F031FA0446DB
:2045600098B10023878003762868A9686F68EA68C4F81A00C4F822100648C4F81E70C4F86D
:2045800026202146668509F0A1F92046F8BD00BF0C0F0020B415002070B110B5044608308A
:2045A00008F080FC2146054809F0D4F92146BDE81040034809F022BA704700BFB415002032
:2045C0000C0F0020F0B5044690F8365083B0C5F3011500F11A06418D838E04F136020095F0
:2045E0003046FFF78DF995B9237E032B15D833B3E3685B00E360194D194B2E681B6804F118
:2046000008002B6008F028FC2E6003B0F0BD204603B0BDE8F040FFF7BFBF3046618DE66AE7
:20462000276B00F061F82046FFF7B6FF002EECD038462946334603B0BDE8F040184704F063
:204640006BFA084BA3FB0023DB0903EB4303A0EB831303F28113E360CDE700BF78240020AD
:20466000B8150020ABAAAAAA10B50446074809F02BF948B18388A34203D106E08388A34296
:2046800002D000680028F9D110BD10BDB415002010B50C4809F018F9044610B910E02468B9
:2046A00074B104F1080008F0E1FB0028F7D0237E204601332376FFF785FF2468002CF0D14E
:2046C00010BD00BFB415002010B504460448214609F094F92146BDE81040024809F03AB98B
:2046E000180F002098170020F8B505460E480E4609F0EAF80446A0B1002704F12C002946D5
:20470000102213F0CBFF10B9A38FB34204D02468002CF2D13846F8BD2046FFF7D5FF0137C0
:20472000F5E70746F6E700BF981700202DE9F843054618480E4691461F4609F0C5F8044659
:2047400030B34FF0000801E02468F4B104F12C002946102213F0A2FF0028F5D1A38FB342A2
:20476000F2D194F83E30BB42EED104F13F0049463A4613F093FF0028E6D12046FFF7A4FF0A
:20478000246808F10108002CE0D14046BDE8F8838046FAE7981700202DE9F04106461448A3
:2047A000174609F091F8044600B34FF00008102204F12C00251D1EB1314613F06FFF78B959
:2047C000BD4208D0284614F029F939460246284613F064FF20B92046FFF776FF08F1010827
:2047E0002468002CE3D14046BDE8F0818046FAE7981700202DE9F041054614480E4617469C
:2048000009F062F80446F0B14FF0000801E02468B4B104F12C002946102213F03FFF002816
:20482000F5D1A38FB342F2D1B4F84830BB42EED12046FFF749FF246808F10108002CE8D1D1
:204840004046BDE8F0818046FAE700BF9817002010B5084809F038F8044630B12146064869
:2048600009F0CCF82468002CF8D10248BDE8104009F026B898170020180F00202DE9F04187
:204880004468DEB0074620460E4614F0C7F80546214602A8272214F039F9262D07DC36B11C
:2048A00002AB31465819C5F1270214F02FF9002423460CA8012145228DF82F40FEF786FE21
:2048C00023460122214635A8FEF780FE02A935A8FFF70CFB02A814F0A1F805462F4808F00F
:2048E000F3FF044660B955E0854206DA3B7A6219DB0602D513792F2B08D02468002C49D010
:20490000261D304614F08AF8A842EDD1314602A82A4614F0B1F806460028EED1FEF74EFEFE
:20492000A28F04F12C01FFF713FE4023804600F174020028E1D0818835A8A4F84810B8F82A
:204940000410D7F810C0ADF8381000960CA9E0479DF93630002B09DBE16C0CA84B1CE3648B
:20496000FFF71AFBE36C23F07F43E36494F83E2004F13F010CA8FFF745FA08F136010CA8D5
:20498000FEF732FEA8F834004046FFF71BFE2468002CB5D15EB0BDE8F08100BF9817002099
:2049A0000021FFF76BBF00BF0B468979012900D0704792F906100029FADBD97C4906F7D5E4
:2049C000596E69B10129F3D1304A3149127801F108002832895A03F10B029B7AFFF7A6BEE3
:2049E0002DE9F04F1446294A2A481278D3F860B02832175A81B039465A460830DE6D03F12C
:204A00000B0993F80A80FFF7C7FE234808F0D8FFB246054678B3262EC4BF2726B24659464F
:204A20003246043013F06CFE4FF0000BAA441B4B8AF804B005F12C060FCB86E80F00424682
:204A40004946AF8785F83E8005F13F0013F058FE2946A5F848B0124808F038FFE96C204680
:204A60004B1CEB64FFF798FAEB6C23F07F43EB6401B0BDE8F08F20460A49A3231022A371E3
:204A800001B0BDE8F04FFFF7EDBA00BF323B00200043002000430020180F00200843002020
:204AA0009817002008AE01002DE9F04F83B0019100921F46DDF8308000F0D2F908F004FF24
:204AC000002800F0BC803B46D8F800B000252C465E4607469A46B44208D3554512D24FF08B
:204AE0003C02009B5A55D8F800600135631CB34208D3554506D24FF02F02009B5A55D8F87D
:204B000000600135D7F804B00234584613F086FF00EB0409B14553D805D3554503D2009A26
:204B20003E2353550135FE6809F10104BEB13378ABB1D8F800B05C4508D3554506D2009A53
:204B40003B235355FE68D8F800B00135304613F065FF09F1020900EB09045C450FD8554537
:204B600004D9D8F80030621B9A425AD83F68002F3CD0BCB9D8F80060B442B7D3ADE7009A98
:204B8000C9EB0B030AF101015019002BACBFF318331C491B2D4A04F053F90544554540D8E7
:204BA0003F681FB3D8F80060A64207D8554505D2009A2C235355D8F80060013501348AE777
:204BC000009A331B0AF101015019002BACBF5B440BF10003491B1D4A04F032F90544554586
:204BE00004D2D8F80030994599D29CE75346BA461F46CDB954B9BAF1000F20D0D8F80030D8
:204C00001F44C8F8007003B0BDE8F08F019C82212046FFF7F1F820460D490F22FFF722FAA6
:204C2000E9E75346BA461F46019C00992A462046FFF718FA20462821FFF7FCF8DBE74FF0F8
:204C4000FF33C8F8003003B0BDE8F08F988E0100C0AD010070B502880546C02A15D0D02A03
:204C60000DD01AB100230380032070BD1F4B8521186808F037FBC0232B80012070BD88294F
:204C80001BD0D0232B80012070BD852901D0012070BD174808F018FE044618B9F1E7246884
:204CA000002CEED0E369002BF9D0A1680029F6D004F10C0008F0BCF8F1E70D4808F004FEFE
:204CC000044618B9DDE72468002CDAD0A368002BF9D004F10C06304608F0C8F80028F2D075
:204CE000E3699847304608F0ADF8ECE7782400209C1700202DE9F04F87B006AD0024384E2B
:204D000045F8044D0291F4682946924699468046A0470546334808F0D7FD0446002834D03B
:204D2000DDF814B009E006DD217ACB0603D51BF800102F2908D024683CB36768384613F0AC
:204D40006DFE85420246EED13846594613F094FE0028F0D1039032694046904710F0010FE4
:204D6000039B1CD1850728D5656935B3109B5246009340464B460299A847237A5B0612D40E
:204D80000123184607B0BDE8F08F73690298D6F8881098470023184607B0BDE8F08F256911
:204DA000002DE3D1DEE7336E20464146029A98470123184607B0BDE8F08F410702D5A569BA
:204DC000002DD3D1020702D5E569002DCED102987269D6F88C1003939047039BDBE700BF9D
:204DE00090AC0100A017002038B50A4B1C7804B138BD094D012209481A7008F061FDAB6862
:204E0000074898476B6898472146BDE83840054808F0A0BA0F3B002090AC0100A017002011
:204E2000F54C0000480F002010B504460A486160214608F04BFD94F90830002B00DB10BD59
:204E4000216ACB69002BFAD08B68002BF7D0BDE81040024808F03ABDA01700209C170020E1
:204E600000487047A01700202DE9F041A2B0074607F000FF3E4D0DF1440801AE0024204672
:204E800007F0D4FE55F8043F0134C31A102C48F8040F46F8043F2860F1D101F053FF354E87
:204EA000354934684D780B780246009501943946324803F09FFF12AC17AD54F8041B30482F
:204EC00003F098FFAC42F8D102AC07AD54F8041B2B4803F08FFFAC42F8D12A4802F010F9AC
:204EE000294803F087FF294D002455F824102848013403F07FFF202CF7D1224802F000F92E
:204F0000244803F077FF002404F1200355F8231001341F4803F06EFF202CF5D1194802F09F
:204F2000EFF81D4803F066FF1C4D002455F824101748013403F05EFF202CF7D1114802F07C
:204F4000DFF8174803F056FF002404F1200355F8231001340E4803F04DFF202CF5D10948EA
:204F600002F0CEF833680133336022B0BDE8F081B0170020F41700204447002030AE010093
:204F800044AE010038B801004CAE01003C40002054AE01005CAE010064AE01003C3F0020DA
:204FA0006CAE010010B50388044653B1782B04D10F4807F05BFF50B910BD00230380032079
:204FC00010BD92B111680A4807F032FF05E0084807F038FF0748FFF747FF78232380044856
:204FE00007F044FF0028E7D0F1E70280022010BDA417002038B8010000B583B002A941F8B7
:20500000040D034808F0A6F903B05DF804FB00BF580F0020F0B5002706463C463D4683B000
:20502000304600F0E5FA0195019B9C4206DD00BF019B01330193019B9C42F8DC304600F061
:20504000DFFA0195019BC4F5C874A34206DA00BF019B01330193019BA342F8DB0137B7F530
:20506000487F06D0B7F5C87FCCBFC7F548743C46D6E703B0F0BD00BF78B110B504460948B6
:2050800021460EF067F908B1002010BD064821460EF060F918B1FF2010BD00207047E079B4
:2050A00010BD00BF1CB4010024B40100FF2830B402460AD0074C08492346254608684968F4
:2050C00003C32846E27130BC7047044D284630BC704700BFF81700204447002024B40100D2
:2050E0002DE9F041834C84B02368834801215B689847236801210A461B687F4898477F4C5B
:205100000DF0E6FA02F0E6FC02F058FC02A8082102F026F802AB03CB206061602046FFF79D
:20512000ABFF774E80B2308020B9A279E37903EB0223338000F0C8FE01F034FB02F07AFCCA
:2051400000F04CFA6F49704A0125704B0D60284615601B68FFF75EFF0DF0BEFA01F080FE7C
:2051600001F0A4FD08F022F901F08EFF08F03CF841F2342003F0D6FC02F0C4F908F0FCF9F8
:20518000634801F0BDFF4BF201620021614803F031FE614801F0B4FF0DF0CAFC00FA05F12B
:2051A0005E4803F027FE5E4B5E48196803F022FE5D4B5E48196803F01DFE5D48002108F0B3
:2051C000C9F807F0DFFE08F03FF907F017FD594B1B682BB901F042FE574A584B10601D7082
:2051E0000220FFF717FF564803F004FE554B564D186801F085FF554803F0FCFD544B18680E
:2052000001F07EFF534803F0F5FD2968524803F0F1FDED69A84720B1A84701464F4803F0BE
:20522000E9FD0A2001F064FF002302A808214C4D019301F095FF9DF80F304A4A9DF80E80D7
:20524000EF6A43EA0828517C0220B84741460320B84719210120B84708226B6B02A90B20D1
:205260009847AB6A01A90120984701993E4803F0C1FD3E4803F0BEFD3D4DEF1D15F8011FC8
:205280003C4803F0B7FDBD42F8D1E1793A4803F0B1FD3188394803F0ADFD0EF039F8384B15
:2052A000626821685A6019600DF04EFC354C0021354808F04FF80220FFF7ACFE217811B99E
:2052C000324808F047F8324807F08CFC01F0EAFE0120FFF79FFE23780BB901F091FA07F0C5
:2052E000A1FF044601F0F6FE14F0FF0FF7D102F0EDF9F4E7D801001000400340444700203B
:20530000F23A00200C400940080009402C2009408CAE0100A8AE0100C0AE0100D0AE010046
:2053200010210840E8AE01000400094000AF010088100020082300203C4100202C3F002035
:2053400018AF010004BB01000CBC010020AF0100A4BA010028AF0100988E010030AF0100EE
:20536000E8B1010088FF010054AF010068AF0100434700207CAF010084AF01008CAF0100A9
:20538000F84200207347002004110020680F0020E88C01002DE9F04104880646772C30D0D6
:2053A0007E2C27D024B1002303800320BDE8F08107F012FF2F4F304B304D3A6818702C6064
:2053C000002A45D02346A0462D4C04F8038093688020002198472B68013357F823202B60C8
:2053E000002AF2D1DBB2274A1370772333800120BDE8F081204B1B788B4219D00120BDE841
:20540000F081DFF880801D4D98F800201E4F002393423B602B6007DA194CE156002919DB05
:20542000013393422B60F7DB3B68002BEFD1DCE7124D134CDFF84C80134F2B683A68E05C81
:20544000511C00F07F0098F80020E0543960E7E71346C8E70849074A097852F8232000204D
:2054600007F040FF0028E8D17E2333800120BDE8F08100BF780F0020724700200018002013
:205480005C3B0020103B00200418002010B40F4B1C7864B10E4A1368984214D0002303E050
:2054A00052F8041F88420CD00133A342F8D1094A0948135D63F07F0313555DF8044B07F00B
:2054C00069BF1C46F3E70024F1E700BF103B0020780F00205C3B0020680F0020F8B53A4D19
:2054E0002C7828704440A10714D500F0020000F0FF07002835D0354B1A68002A5CD01B686B
:20550000002B50D0E2072B7807D41846BDE8F84000F09AB80346E207F7D513F001060CD078
:205520002A4A1268002AF0D101F098FC284C294A01212B78A0639173E7E7264CA27B002AD3
:20554000E3D001F08BFC2449214B8A6B9F6B2B78D21B10448863A6731846BDE8F84000F035
:2055600073B81C4E337B7BB9737B1A4E002BC9D001F074FC184A1649536B4F6B0021DB1BE9
:20558000184450637173BDE701F068FC124A1049136B096B37735B1A184410632B789B0745
:2055A000E2D50A4BABE701F059FC0A4B084901225A7348632B78AEE701F050FC054E044AB0
:2055C000012310633373E9E7113B0020082300203C4100202C3F0020E83E002008B500F0EC
:2055E00017F8024B00221A7008BD00BF113B0020024B1B781843FFF771BF00BF113B002027
:20560000024B1B7823EA0000FFF768BF113B00200A4B1A6802B1704710B50122084C1A601D
:2056200023680420DB6B984723680720DB6B9847044A136823F09003136010BD08180020D0
:20564000B401001080200240084B094A1870136823F090031360C20702D5064B01221A7043
:20566000830702D5044B01221A707047123B00208020024004200240072002408138012816
:205680009ABF024B18680020704700BF4C18002038B50B4CA37953B101F0E0FB094A0A49F4
:2056A00093698D6900215B1B18449061A171074B03221A600648BDE83840FFF7E7BE00BF4C
:2056C0002C3F0020E83E00203C4100204C180020ACAF010030B5044683B07721002000F072
:2056E0007BFF6CB1154B1B688BB125238DF807300DF107010122F4200EF02AFF03B030BDEC
:205700000F4DAB795BB900238DF80730F0E701F0A5FB0C490A4B012288619A71E5E701F030
:205720009DFB094A074993698969AC715B1A1844002390618DF80730DAE700BF08230020B7
:205740002C3F00203C410020E83E002030B5802885B016D0812810D11D4C206878B151B38B
:205760000120FFF7B7FF1B4803211B4A002307F043FC0220206005B030BD154B186805B03E
:2057800030BD134C012500207721256000F024FF1249182288200EF0CDFE04A9B62301F8C2
:2057A000013D2A46E0200EF0D3FE0020FFF792FF206805B030BD0748019107F061FC0199CC
:2057C0000846FFF787FF01231846236005B030BD4C1800202C18002091560000141800203D
:2057E000F8B5534B1B68032B40F09A80431E012B00F296804F4C002377210546236018464C
:20580000A38000F0E9FE2146F72006220EF092FE00287ED0E178484A23796079090341EA4D
:205820000311168841EA1013C6EB131101FB01F1B2F9047076000913B2F90200C6EBD303C0
:2058400007FB01F100FB03F0891301EBE0204710A7F57A4E4FEAAE0606FB06F6B2F9081076
:20586000B2F90A70731301FB0EF103FB07F3B2F90E70491007FB0EF701EBE303B2F806C0BF
:205880009B14B2F910E003F50043F61279000CFB03F30EFB061726786178B2F90CE094F845
:2058A00002C036034FEA0E4446EA0111DB13906104EBA70741EA1C1127D040F6354449421B
:2058C000A1EB273104FB01F101F1434101F5A0010029B3BFB1FBF3F34900B1FBF3F35B0083
:2058E000D90801FB01F1B2F91440B2F916609F08490B04FB07F401FB06F1B2F9126062133F
:2059000002EB2131314403EB2113012D0BD01846F8BD204606210EF037FE4FF00040F8BDA1
:205920004FF00040F8BD00EB800080300012F8BD4C1800200C18002014180020014B186871
:20594000704700BF70180020F0B506461E4C83B000204521256800F03FFE86B11B4B1B683B
:20596000C3B141F2C2020123ADF8062023600DF10601022201200EF0EBFD03B0F0BD144F57
:20598000FB797BB905F002054FF486532560ADF80630ECE701F062FA0E490D4B0122C861CC
:2059A000DA71DEE701F05AFA0B4A0A49D369C96905F002055B1A18444FF48653FE71D061F3
:2059C0002560ADF80630D2E770180020082300202C3F00203C410020E83E002030B5002048
:2059E00083B0452100F0F8FD01200DF1060102220EF0A0FDBDF90630002B07DB0E481021C4
:205A00000E4A002307F0F8FA03B030BD0C4CE37953B101F023FA0B4A0B49D369CD69002180
:205A20005B1B1844D061E1710848FFF72FFD084B02221A6003B030BD50180020DD59000050
:205A40002C3F0020E83E00203C410020C4AF010070180020802810B50DD0812809D10C469D
:205A600071B90D4807F00CFB2046FFF76DFF204610BD002010BD0020FFF766FF002010BD59
:205A80000120FFF761FF04481021044A002307F0B3FA012010BD00BF50180020DD59000092
:205AA000813801289ABF024B18680020704700BF9418002038B51A4C637953B101F0CEF991
:205AC000184A194953694D6900215B1B184450616171164C164A237803211160B3B1154D62
:205AE0000020432100F078FD2846042100F0E4FB20700020014600F06FFD29886A880E480F
:205B00000E4D49BA52BA2378298002800C4901220B7022700B48BDE83840FFF7B7BC00BF38
:205B20002C3F0020E83E00203C410020143B00209418002098180020F63A0020F43A00204E
:205B4000133B0020D4AF010070B5802884B016D0812810D1314C206878B100292DD1304D10
:205B60006B79002B44D12F4807F08AFA01231846236004B070BD294B186804B070BD2A4BDF
:205B800000242A4A2A4D20461C60432114802C8000F022FD04A91023022021F8023D0246BF
:205BA0000EF0D6FC234B21461870204600F014FD1A4B0120186004B070BD1E4D2B7873B140
:205BC0001D4B1B680BB34321002000F005FD002000F032FB28700020014600F0FDFC114828
:205BE0000321164A002307F007FA02202060C4E7019101F033F9124E124A76695369019919
:205C00009B1B184469715061ADE701F027F90C49034B012248615A71D5E700BF94180020C1
:205C20002C3F00207418002098180020F63A0020F43A0020143B002008230020B55A0000F6
:205C40003C410020E83E00208138012801D90020704708B5034B17201B685B689847C0F3B4
:205C6000804008BDB401001028B1012806BF054BD86800207047044B1868C0F3C05080F0AA
:205C8000010070479C180020C0200240802810B509D0812805D1D1B9174B17201B685B6B25
:205CA0009847012010BD144B144A1B684FF4000111601B6817200021114A9847114B00228F
:205CC0001A601720104901F09FFE012010BD0A4C0A4A23684FF4000111601B681720002179
:205CE000074A9847074A2368002111601B6B17209847012010BD00BFB4010010E0200240B6
:205D0000004007205C1A44420D5D0000172800D0704738B50E4C204607F088FB00B938BD1B
:205D20002046042107F06EFB0A4B1D68C5F3C0554DB101F007F8A368C31AE3600648BDE8C5
:205D40003840FFF7A3BB00F0FDFFE560A06038BD9C180020C0200240F4AF010081380128D5
:205D600001D90020704708B5034B18201B685B689847C0F3804008BDB4010010802810B5A0
:205D800009D0812805D1D1B9174B18201B685B6B9847012010BD144B144A1B684FF0807101
:205DA00011601B6818200021114A9847114B00221A601820104901F027FE012010BD0A4C79
:205DC0000A4A23684FF0807111601B6818200021074A9847074A2368002111601B6B18200B
:205DE0009847012010BD00BFB4010010E020024000600620601A44422D5E000068B10128BD
:205E000009D110B5074B1C6800F09CFF8034201AC043C00F10BD00207047034B1868C0F39D
:205E200000607047AC180020C0200240182800D0704708B500F086FF084B1860084807F03A
:205E4000F5FA00B908BD06484FF4007107F0DAFABDE808400348FFF719BB00BFAC18002063
:205E6000B018002008B0010010B5064C042023685B699847236804205B6B98470128F9D1D1
:205E800010BD00BFB8010010FFF7EEBF032801D000F0E8B808B5094B00219B6881209847C9
:205EA000074B00219B6881209847064B81209B6800219847BDE8084000F0D4B8ACAF010032
:205EC000C4AF0100D4AF0100F8B50CF001FC0646FFF7CAFF294B4FF4A0601B68DB699847BC
:205EE000274B0121274A196013689B07FCD5264C00F08AF82378002B3DD0244801F052FDD3
:205F0000247814B1002E32D0F8BD214D14202B680127DB6B98471F4A2B681470DB6B1320C0
:205F200098471D4A2B681470DB6B122098471B4A2B681470DB6B0E209847194A2B68177061
:205F4000DB6B0D209847174A2B681470DB6B0F209847154A2B6814703846DB6B9847134AAD
:205F60002B6814709B6B18209847002ECCD1BDE8F8400CF0B1BB0EF0E7FDBEE7B80100108D
:205F8000282008602820084073470020980F0020B4010010142002401320024012200240FC
:205FA0000E2002400D2002400F2002400120024010B5094B09481B685B68984710F00C0F84
:205FC000044605D0064B04221A6002200CF088FBB4FA84F0400910BDAC01001000200040BB
:205FE0000428004008B5064B02201B685B6B9847012803BF034B186800F00100002008BD4E
:20600000B80100106020084070B5104D02202B685B6998472B6802205B6B98470128044648
:206020000A4BF7D11B684FF44070DB699847084B084A1C6013689B07FCD5074B07481B6877
:2060400007491B680122BDE870401847B80100102820086028200840AC0100100020004070
:20606000006CDC02174B10B5FF221A70FFF7BAFF20B11549154A00230B601360144B4FF424
:2060800040701B681B6A9847124B0121124A196013689B07FCD5114C052023689B6B984735
:2060A00023684FF4804105209B699847236806209B6B9847236806209B694FF48041BDE855
:2060C00010401847E21100200428004010040542B80100102820086028200840B401001069
:2060E0002DE9F04706464F4B4F481B784F4A5B00036033780F46136000F0B0FE4C4B1A68C2
:2061000054060ED51C464B4D2D1A00F0A7FEC54202D40020BDE8F08700F0DCFF236859069E
:20612000F3D4434C0323236002200CF0D9FA00F095FE2368DB070AD53E4D2D1A00F08EFE52
:20614000C542E6D500F0C6FF2368DA07F6D4FFF72FFF012F034635D90028DAD0334DDFF8BE
:20616000D0900136022407F1FF3816F8012B631E43452A6003D3A74226D90134F5E7012373
:20618000C9F8003002200CF0ABFA00F067FED9F80030DB070ED5DFF89CA0C0EB0A0A00F06E
:2061A0005DFE1AEB000FB4D500F094FFD9F80030D807F4D4FFF7FCFEA742034602D9002897
:2061C000DBD1A6E7002BA4D0194C0523236002200CF086FA00F042FE00F5CC55193523681A
:2061E000D90707D500F03AFE401B002891DA00F071FFF4E7FFF7DCFE044600F02FFE0C4E01
:2062000000F5CC55193533685A0602D42046BDE8F08700F023FE401B0028BFF67AAF00F065
:2062200059FFF0E7153B002000280040082800400428004067E6FFFF38B51A4B1A4A1B78E7
:206240001A495B000B60106000F008FE184B1A6854060DD51C46174D2D1A00F0FFFDC5428E
:2062600001D4002038BD00F035FF23685906F4D40F4C0723236002200CF032FA00F0EEFD31
:206280002368DB070AD50B4D2D1A00F0E7FDC542E7D500F01FFF2368DA07F6D4BDE838401B
:2062A000FFF786BE153B002008280040002800400428004067E6FFFF2DE9F047444B454A3A
:2062C0001B7806465B0043F0010313600F4600F0C5FD414B1A6852060ED51C463F4D2D1A55
:2062E00000F0BCFDC54202D40020BDE8F08700F0F1FE23685B06F3D4374B0B221A600220FF
:206300001C460CF0EDF9DFF8D8A007F1FF3901254FF00008C14524DD002DE5D000F09EFDD9
:206320002368DD070AD52D4D2D1A00F097FDC542DAD500F0CFFE2368D807F6D4FFF738FEF7
:2063400005460028E6D0DAF80020092306F808200220236008F101080CF0C2F95FFA88F899
:20636000D8E7002DC0D000F079FD1B4B1A68D1070BD51C46194D2D1A00F070FDC542B3D5A0
:2063800000F0A8FE2368DA07F6D4FFF711FE0028AAD0134B104C1A683E44052306F8012C79
:2063A000022023600CF09CF900F058FD00F5CC55193523685B0602D40120BDE8F08700F00F
:2063C0004DFD401B00288FDA00F084FEF1E700BF153B0020002800400428004067E6FFFFEF
:2063E000082800402DE9F04F8146764D764E2878764C4000306099F8000083B020601746B7
:2064000098460E4600F02AFD714B1A68540612D51C46DFF8C0A1C0EB0A0A00F01FFD1AEB4A
:20642000000F03D4002003B0BDE8F08F00F052FE23685806F1D4664C0323236002200CF018
:206440004FF900F00BFD2368DB070DD5DFF884A1C0EB0A0A00F002FD1AEB000FE2D500F048
:2064600039FE2368D907F5D4FFF7A2FD012E034638D90028D6D0DFF854B109F1010406F1F3
:20648000FF3A4FF0020914F8012B09F1FF339A45CBF8002004D8B14526D209F10109F2E7AC
:2064A0004B4A0123136002200CF01AF900F0D6FC474B1B68DA070DD5464B1B1A019300F09B
:2064C000CDFC019BC342ADD500F004FE404B1B68DB07F4D4FFF76CFDB145034602D200288C
:2064E000DBD19FE7002B9DD02B7837495B00384C43F001030B220B60022022600CF0F0F879
:20650000DFF8C8900125002608F1FF3A564521D2002D87D000F0A2FC2368DD070BD52D4D65
:206520002D1A00F09BFCC5427FF57CAF00F0D2FD2368D807F5D4FFF73BFD05460028E5D09F
:20654000D9F800200923BA55022023600CF0C8F80136DBE7002D3FF465AF00F07FFC1C4E6C
:2065600000F5CC5519353368194CD90718D4FFF71FFD00283FF456AF144B47441A680523E5
:2065800007F8012C022023600CF0AAF800F066FC00F5CC55193523685A060AD4012042E7C3
:2065A00000F05CFC401B0028BFF63CAF00F092FDD9E700F053FC401B0028BFF633AF00F0E8
:2065C00089FDE8E7153B002000280040082800400428004067E6FFFF1B4B10B50446197069
:2065E000FFF700FDA0B1194B1A78A24216D01848184900221C7002600A601B787BB1BDE8F8
:206600001040154B15481B6815491B6801221847FFF7FAFC0D4B1A78A242E8D110BD114CEA
:20662000052023684FF4C0419B699847236806209B694FF4C041984723680848DB6C052163
:2066400006229847DBE700BF153B0020E21100200428004010040542AC010010002000404B
:20666000006CDC02B401001010B504460EF0A4F8034658B12246002006210EF0AFF8034673
:2066800060B101240EF0A2F8204610BD1C46074800F036FD0EF09AF8204610BD1C460448B4
:2066A00000F02EFD0EF092F8204610BD30B0010018B0010010B582B004460EF07DF803465D
:2066C000D0B1002006210EF0B5F90346E8B10020062122460EF012F90346F8B16A460020EA
:2066E00006210EF07BF828B368462146062211F0D5FFE0B9012403E011481C4600F000FDCC
:206700000EF064F8204602B010BD1C460D4800F0F7FC0EF05BF8204602B010BD1C460A48B6
:2067200000F0EEFC0EF052F8204602B010BD074800F0E6FC00240EF049F8204602B010BDE9
:2067400030B0010088B0010070B0010048B00100F0B583B005460F4616460CF0E9F9C4B2DD
:206760006846FFF781FF18B92870204603B0F0BD2046BDF80020BDF80430012129703A802D
:20678000337003B0F0BD00BF10B582B004466846FFF76AFF20B16846ADF80240FFF78AFF04
:2067A00002B010BD00B583B06846FFF75DFF70B1BDF80030BDF80210013300226846ADF8FC
:2067C0000030ADF80410ADF80220FFF773FF03B05DF804FB162800D0704738B5064B1B7804
:2067E00003F0FF0433B9054D01232B7064200BF077FF2C7038BD00BF163B00201520024079
:2068000038B5174C1620236800259B6B9847236816205B6B9847134A23684FF480011160DA
:206820001B68114A162029469847104B104916201D6001F0E9F8236816201B6B984723680C
:206840000C4CDB6B15209847642025700BF048FF0123237064200BF043FF257038BD00BF6A
:20686000B4010010E020024000600620581A4442D56700001520024008B50120FFF784FF89
:20688000014B01221A7008BD163B002000207047F8B50C4B32251E461C680027C4F3C064AD
:2068A00033684FF4C870C3F3C063A342346818BF013700F08BFA013DC4F3C064F0D138468C
:2068C000F8BD00BFC0200240812818D110B50C4641B90C4B1B201B68DB6B98470A4B0120CF
:2068E0001C7010BD074C1B2023689B6B984723681B201B6A4FF000519847012010BD012078
:20690000704700BFB40100101B20024070B5094D0646AC680120A04701218120A0476B685F
