:020000040000FA
:2000000000500020851200007D12000065120000811200008112000081120000000000001A
:20002000000000000000000000000000811200008112000000000000811200008112000074
:20004000B580000081120000E15601008112000011700000917E0000811200008112000057
:20006000811200004D570100811200008112000081120000811200008112000081120000D6
:200080008112000081120000811200008112000081120000811200008112000081120000C8
:2000A0008112000081120000811200008112000081120000811200008112000081120000A8
:2000C0008112000041930000294B1B689B0702D44FF000407047F0B5002083B0452106F0C0
:2000E000CBFA0DF106010120022214F0CDFB38B901A8022114F0F2FB4FF0004003B0F0BD98
:200100000DF106010020022214F0BEFB0028EFD0BDF806305BBA9CB2200BADF8043017F099
:2001200051FB16F0F3FE0646C4F30B000F4617F059FB0DA3D3E9002304460D46304639469D
:2001400017F0B6FB02460B462046294617F0B0FB17F090FE074917F0DDFE18F02BF803B022
:20016000F0BD00BFAFF300807B14AE47E17A843F301400200000C84208B5214B1B68032B07
:200180001ED1431E012B1BD81E4B1B78C3B11E4A1E4B012812881B8815D0184617F012FBF2
:2001A00000221B4B17F084FB00221A4B17F080FB17F060FE184917F0ADFE17F0FBFF08BDEA
:2001C0004FF0004008BD104617F0FCFA0022104B17F06EFB08A3D3E9002317F069FB002284
:2001E0000E4B17F0B1F917F045FE0B4917F092FE17F0E0FF08BD00BF0000000000A0644012
:2002000054140020A739002080390020823900200000F03E000059400000C842000044404D
:200220002DE9F04FDFF85C914FF0000AC8464E4655464D4B81B01F78AC0008EB040B9BF87E
:200240000330B7EB131F2DD018F8250017F0CAFA3FA3D3E9002317F02BFB0022434B17F0F5
:2002600075F90022424B17F071F917F0E3FD08F82500707817F0B6FA35A3D3E9002317F087
:2002800017FB00223B4B17F061F9394B002217F05DF917F0CFFD70709BF8033067F3071353
:2002A0008BF803309BF80330013503F00F03BB421BD0B07817F096FA27A3D3E9002317F030
:2002C000F7FA27A3D3E9002317F040F9284B002217F03CF917F0AEFDB0709BF803304FF09C
:2002E000010A67F303038BF80330072D06F10406A2D1BAF1000F13D10137FFB21F2F0CD97B
:20030000194A002313701C481C4A4FF41631002301B0BDE8F04F0DF031B9134B1F70F2E71B
:200320000023174988F81C3099F8022009F10409934238BF13468945F6D1124888F81C30D4
:200340000BF0B6FD084B1F78D6E700BFAFF30080CDCCCCCCCCCCEC3F5C8FC2F5285CEF3F1F
:2003600052B81E85EB510040BA390020000032400000E03F0000344058230020210200007E
:20038000CC3E0020B03E00202DE9F0472C4B00291B680CBFCC250025834201D0BDE8F08722
:2003A00028480023C15CDCB28A4203F1010337D0072BF7D1244B00271C462449E2780978FA
:2003C000A67861F30302E2701B7F30469E1B17F009FA17A3D3E9002317F06AFA8046284649
:2003E000894617F0FFF914A3D3E9002317F060FA02460B464046494617F0A8F80022144B62
:2004000017F0A4F817F016FDB6FA86F6A0707609334639462A46BDE8F0470B480BF046BDCF
:20042000094B274603EB8404C7E700BFAFF300809A9999999999E93F9A9999999999C93F98
:20044000F8390020843F0020B03E0020BA3900200000E03F000000002DE9F041384C2468D1
:20046000844201D0BDE8F081364E0024355DE0B2AB4204F1010457D0072CF7D1DFF8D080D3
:200480001546314A98F80330127898F8000062F3071388F803300C4617F0A4F924A3D3E90E
:2004A000002317F005FA0F46C4EBC4110646480000F0FE0017F096F91FA3D3E9002317F07A
:2004C000F7F902460B463046394617F03FF800221E4B17F03BF817F0ADFC88F8000098F8DB
:2004E000010017F07FF912A3D3E9002317F0E0F90646680000F0FE000F4617F073F90EA3ED
:20050000D3E9002317F0D4F902460B463046394617F01CF800220D4B17F018F817F08AFC61
:2005200088F80100BDE8F081094B03EB8008A7E79A9999999999E93F9A9999999999C93F6E
:20054000F8390020843F0020BA3900200000E03FB03E0020000000002DE9F043544983B00E
:200560000B780446002B69D0524B08209B6A01A9984700285AD10B3C4F4DE4B205EB04092E
:2005800099F8140017F02EF941A3D3E9002317F08FF9DDF804800646C8EBC810400000F0D6
:2005A000FE000F4617F01EF93BA3D3E9002317F07FF902460B463046394616F0C7FF002212
:2005C0003E4B16F0C3FF17F035FC18F1550F89F8140015DA083405EB8404606817F014F911
:2005E0002FA3D3E9002317F063F92FA3D3E9002316F0ACFF17F03EFC606003B0BDE8F083B9
:2006000004F1080305EB8304606817F0FDF824A3D3E9002317F04CF90022002316F096FFCD
:2006200017F028FC606003B0BDE8F08302462146234808F0EBFE03B0BDE8F083214A0126AC
:200640000E704FF07E5502F10D0302F14D00B42102F8011F43F8045F8342F9D11A4A6621C0
:20066000117713460D4602F11C00B421C82219705A709D7004338342F9D114484FF47051F2
:20068000134A00230CF07AFF6EE700BFAFF300809A9999999999E93F9A9999999999C93FD1
:2006A0008FC2F5285C8FEE3F0AD7A3703D0AA73FBB39002048B00100D03E00200000E03F39
:2006C00038B20100E33E0020B03E00205823002021020000000000002DE9F04F144623F060
:2006E0000047024657EA04000E468FB01D469C46214634D06E4B26F0004A9A459346B1461B
:2007000026DC24D09F4223DC694B9F4200F08F80B9F1000FC0F28F804FF0000879BB644BCB
:200720009F4200F0A580634B9F4267D0BCF1804F00F0E283604B9C4521D1B9F1000F1EDBFC
:20074000104631460FB0BDE8F04F16F05FBD62B10AF1404000F5801050EA0B0007D103468E
:20076000544918460FB0BDE8F08F5745CCDD53480FB0BDE8F04F16F047BE4FF00008104670
:200780003146CDF808C0009216F006FE009ADDF808C0BBF1000F20D04FEAD97909F1FF391A
:2007A00058EA09037AD0464B9F4240F38F8003F104739F4240F31084424B9A4540F3928326
:2007C000BCF1000F40F3928337A1D1E900010B46024617F06DF80346C3E7BAF1000F04D0FC
:2007E000344B29F0404E9E45D6D1BCF1000FC0F2B683B9F1000F08DB0346B2E7BCF1000F68
:20080000C0F2528413463146ABE70AF1404A0AF5801A58EA0A0340F05E8402460B4616F0D0
:2008200093FE0B46024617F06DF9034699E700293FF46EAF8CE7244B9F422CDCA3F15473B9
:200840009F427FF769AF40F213403B15834240F34B84C3F58663033321FA03F000FA03F3B8
:200860008B427FF459AF00F00100C0F1020855E70AF1404303F5801353EA0B0300F0398348
:20088000104B9A4540F36483BCF1000FC0F22E832346294665E74FF002083FE71046314685
:2008A0003346BCE7AFF300809C7500883CE4377E0000F07F0000F03F0000E03F84B6010094
:2008C0000000E041FFFFEF3FFFFF3F43BAF5801F4FF0000205DACA4B16F0EAFF8A466FF0AA
:2008E00034024FEA2A53C74ECAF3130AA3F2FF334AF07F571344B2450C9347F4401740F394
:20090000D083C14B9A4540F307840026B4460C9BA7F5801701330C933946BC4B4FEACC0C77
:200920006344D3E900AB52465B46CDF834C0CDE9060116F009FE52465B46CDE90801DDE92F
:20094000060116F003FE02460B460020B04917F0D9F802460B46DDE90801CDE90A2316F0AE
:20096000A7FF02460B46CDE90223CDE904237B1043F0005303F50023991900200023064613
:200980000F460293DDE902231046194632463B46CDE9000116F08CFF02460B46DDE9080124
:2009A00016F0D2FD5246CDE908015B463046394616F0CAFD02460B46DDE9060116F0C4FD7B
:2009C00002460B46DDE9000116F072FF02460B46DDE9080116F0B8FDDDE90A2316F068FFBD
:2009E000DDE90423CDE906011046194616F060FF02460B4606460F4616F05AFF6EA3D3E9CD
:200A0000002382468B463046394616F051FF6CA3D3E9002316F09AFD32463B4616F048FFFE
:200A200069A3D3E9002316F091FD32463B4616F03FFF67A3D3E9002316F088FD32463B468D
:200A400016F036FF64A3D3E9002316F07FFD32463B4616F02DFF62A3D3E9002316F076FD6B
:200A600002460B465046594616F022FFDDE9042306460F46DDE9000116F068FDDDE90623D2
:200A800016F016FF32463B4616F060FDDDE9006782468B4632463B463046394616F008FF1E
:200AA00000225C4BCDE9080116F050FD52465B4616F04CFD02980F460646DDE90001324659
:200AC0003B4616F0F5FE32463B46CDE90001DDE9060116F0EDFE0022CDE906014D4B304641
:200AE000394616F031FDDDE9082316F02DFD02460B465046594616F027FDDDE9042316F037
:200B0000D7FE02460B46DDE9060116F01FFD82468B46DDE9000152465B4616F017FD32A3F0
:200B2000D3E9002302980F46064616F0C1FE30A3D3E90023CDE904013046394616F0B8FEB8
:200B4000DDE90023CDE906013046394616F0FCFC02460B465046594616F0F6FC26A3D3E9B1
:200B6000002316F0A5FE02460B46DDE9060116F0EDFCDDF834C0284BCDF818C06344D3E918
:200B8000002316F0E3FCCDE900010C9816F02AFE06460F46DDE90401204BDDF818C09C4460
:200BA000DDE90023DCE900AB16F0D0FC52465B4636E000BFAFF30080EF4E454A287ECA3F5F
:200BC00065DBC9934A86CD3F01411DA96074D13F4D268F515555D53FFFAB6FDBB66DDB3F6F
:200BE000033333333333E33F000000E009C7EE3FF5015B14E02F3EBEFD033ADC09C7EE3F71
:200C0000000040438E98030079B60B00C08E01000000F03F00000840B08E0100A08E0100BA
:200C2000CDE906AB16F092FC32463B4616F08EFC029832463B4682468B4616F085FCDDE9B7
:200C4000062316F081FCDDE9042316F07DFC02460B46DDE9000116F077FCCDE9020108F1F1
:200C6000FF3858EA09030CBFD54BD64B0022CDE904230023CDE900450093DDE900672046A0
:200C800032463B46294616F05FFC52465B4616F00FFEDDE90223804689462046294616F0E4
:200CA00007FE02460B464046494616F04FFC04460D465246304639465B46CDE9024516F062
:200CC000F7FD06460F4620463B462946324616F03DFCBD4B824699428946884640F3138163
:200CE00001F13F4303F5E003034340F0E581A0A3D3E90023DDE9020116F028FC32460446F2
:200D00000D463B465046494616F01EFC02460B462046294617F05CF8002840F0CD814C46B9
:200D20002015A0F2FE304FF4801101414144C1F30A50A64CA0F2FF35C1F3130BC0F58260F4
:200D400003302C414BF4801B21EA040300224BFA00FB3946304616F0F7FB06460F46DDE951
:200D600002018BEAE87B0BEBD87B32463B464FEA0B5A16F0EBFB80A3D3E900230024204640
:200D80000D4616F095FD3246804689463B462046294616F0D9FB02460B46DDE9020116F0C3
:200DA000D3FB77A3D3E9002316F082FD76A3D3E9002306460F462046294616F079FD0246B5
:200DC0000B463046394616F0C1FB06460F4632463B464046494616F0B9FB42464B4604463F
:200DE0000D4616F0B1FB02460B463046394616F0ABFB2246804689462B462046294616F06B
:200E000057FD63A3D3E9002306460F4616F050FD61A3D3E9002316F097FB32463B4616F02B
:200E200047FD5FA3D3E9002316F090FB32463B4616F03EFD5CA3D3E9002316F085FB3246E6
:200E40003B4616F035FD5AA3D3E9002316F07EFB32463B4616F02CFD02460B4620462946E8
:200E600016F072FB06460F4632463B462046294616F01EFD0022CDE900014FF0804330461E
:200E8000394616F061FB02460B46DDE9000116F039FE424606460F464B462046294616F03F
:200EA00007FD42464B4616F051FB02460B463046394616F049FB22462B4616F045FB024684
:200EC0000B4600203F4916F03FFB8A44BAF5801F0246C0F227815346DDE9040116F0E8FCCD
:200EE00003463EE4BCF1000FFFF66EAC0023194637E40B46334934E433461046314616F0EE
:200F0000D7FC03462DE4324B21F000449C4240F3FA80304B0B4403430CD132463B4616F05B
:200F200013FB02460B46DDE9020116F03DFF00283FF4F6AE20A3D3E90023DDE9040116F08D
:200F4000B7FC1DA3D3E9002316F0B2FC034608E4BCF1000FCADA234605F1004101E4024629
:200F60000B460020174916F0CDFD42E4AFF30080FE822B654715973C00000000432EE63FB3
:200F8000EF39FAFE422EE63F396CA80C615C20BED0A4BE726937663EF16BD2C541BDBB3ED6
:200FA0002CDE25AF6A56113F93BDBE166CC1663F3E5555555555C53F59F3F8C21F6EA50129
:200FC0000000F0BF0000F03FFFFF8F40FFFF0F00FFCB904000346F3F634B9A4582DD634B43
:200FE0009A453FF7EDAB0022604B16F0ADFA54A3D3E9002306460F4616F05AFC52A3D3E946
:201000000023CDE900013046394616F051FC3246CDE902013B463046394616F049FC00229A
:2010200082468B4630463946514B16F041FC02460B4647A1D1E9000116F086FA32463B4688
:2010400016F036FC02460B4600204A4916F07CFA02460B465046594616F02AFC3EA3D3E9F9
:20106000002316F025FC02460B46DDE9020116F06BFA06460F46DDE9000132463B4616F0F2
:2010800065FADDE90023002082468B4616F05CFA02460B463046394616F056FACDE9020156
:2010A000DDE50026B44637E4334600202F4916F029FD0346FFF755BB29A3D3E90023DDE936
:2010C000040116F0F5FB26A3D3E9002316F0F0FB0346FFF746BBB8F1010F03467FF441ABDB
:2010E00001F10041FFF73DBB00297FF446ABC3F58263033347FA03F000FA03F3BB4217D067
:201100008846FFF710BB1B4B9C423FF709AEDDE90023924693462EE64FF480264FF0010C2C
:20112000FFF7FABB5A4600F027F802460B46D3E600F00100C0F10208FFF7F5BAAFF3008090
:20114000000000604715F73F44DF5DF80BAE543E555555555555D53FFE822B654715F73F26
:201160009C7500883CE4377EFEFFEF3F0000F03F0000D03F0000E03FF8B5C1F30A5604466E
:201180000D460B46174616BB21F00043034332D00022314B16F08CFB304A044697420D46C6
:2011A0000B4637DB40F2FE72C1F30A56363E3E44964215DD24A1D1E9000122462B4616F0F7
:2011C000B7F921A3D3E9002316F072FBF8BD40F2FF72964224D040F2FE723E449642E9DC64
:2011E000002E09DD23F0FF4323F4E00343EA065520462946F8BDF8BD16F1350F15DA4CF24D
:2012000050339F42D6DC12A1D1E9000122462B4616F08EF90EA3D3E9002316F049FBF8BD55
:2012200002460B4616F092F9F8BD23F0FF4323F4E003363643EA0655204629460022084B42
:2012400016F036FBF8BD00BF9C7500883CE4377E59F3F8C21F6EA50100005043B03CFFFFBF
:201260000000903C044B1A68B2F5806F03D01B689B0500D4FEE7704728ED00E0FEE700BF3C
:20128000FEE700BF08B511F03DFC104A104B9A420DD2D0430F4918440B4620F003000430E4
:2012A000084453F8041B834242F8041BF9D10A480A494FF000028842B8BF40F8042BFADB2D
:2012C00003F05AFFFFF7CEFF08BD00BF00000020940D00206DC70100980D00202E4800200A
:2012E0000120704770B50B4A0B4B166855680B4C0A2221204D21C3F80260C3F80650187023
:201300005970228006F01AFA054A00232380137070BD00BFF8470020B4430020A443002057
:20132000C639002030B5034689B06C4659689A680068DB6804AD0FC50FC468460C490DF0AF
:20134000A1F80021684601220CF064FF69461E200FF02EFD30B104A940220FF0CFFA054887
:2013600005F018FF044B1B69984709B030BD00BFAC430020E88E0100C8B8010070B5048892
:2013800084B0B4F5C77F05462BD040F2B7139C4218D024B100230380032004B070BD4FF460
:2013A000F05003F075FE4E4806F02AFE4D4B2246186885210CF04EFA4FF4C77301202B8020
:2013C00004B070BD484B1B788B422FD047480CF019F800283AD140F2B71301202B8004B0EF
:2013E00070BD852902D0012004B070BD404B1C88012C4BD03F4805F0CDFE3F4B01220020B3
:201400001A700BF043FB3D4B1B699847FFF76AFF00F08CFA35484FF4F0510BF0D5FF01F088
:20142000DBFA40F2B71301202B80D8E7344B9A42CCD1344805F0AEFE1E200FF02BFA32485F
:2014400005F0A8FE28200BF02DFBBFE700F0C0FA2E4B1B6873B92E4C23783BB92D4900226D
:2014600022480B7022700BF0B9FFB4E7FFF73AFF2378F3E705F0EEFC274B1B68C01A3B28F2
:20148000E9D94FF4A0600BF001FBE4E7234805F081FE1B4B81209B6821469847204B1E8845
:2014A000E6B10022134621461E4CE05C01330B3801FA00F00243B34292B2F6D1002304A897
:2014C000FD210093184C00F8101D184901930293039322800A80FFF725FF97E73246EDE7A2
:2014E00038040020AC24002028480020C80D00207E390020148F010094470020C8B8010024
:2015000048AE01002C8F0100488F0100943F00202648002027480020383F0020008F010009
:20152000983F0020843F0020783900207A39002001B17047FFF7F6BE044B1B88012B02D02A
:2015400000200BF0A3BA0AF0C1BC00BF7E39002008B505480549102217F09AF908B106F033
:20156000EDF8002008BD00BFD80D0020BC43002008B5002005F0F6FE044800210CF0A2F9F4
:20158000BDE80840024806F0D3B800BF500B00209515000070B5364C84B02378212B09D014
:2015A0003F2B17D0334D083494E80F0085E80F0004B070BD6278304830490023502A03804B
:2015C0000B7033D02B4A0023136053609360D36004B070BD65784D2D0FD0522D41D0542D81
:2015E00030D0254E234A25480023136053609360D3603380037004B070BD23462122204814
:20160000204904F11005227010F8012F0233140902F00F020C5D8A5C1C705A70AB42F3D1E2
:20162000154E1223338006F089F8DBE76A4654F8020F02936168039303C268460121FFF79A
:2016400077FFBFE701F00CFB0B4E08222123606032802370657006F071F80B4B01221A7073
:20166000C0E70A48822101220CF0F4F8024EB9E7B4430020D80D0020A4430020C639002091
:20168000AB430020B08F0100264800205004002010B505F0DFFB054B05491860054A0648B3
:2016A0000023BDE810400BF069BF00BF100F0020004C0E0009190000FC0D00202DE9F04105
:2016C00007460E4615461C46DDF81880FFF7E0FFCDF81880384631462A462346BDE8F04169
:2016E00003F054BB10B50B4C0B4A23780021042B11700A4805D9BDE810404FF4C8510BF08F
:2017000063BE4FF420710BF05FFE23780133237010BD00BF9C3900209E3900205C0E002018
:20172000F0B5044640F23310238883B083420D4660D040F23F118B4216460ED023B100239F
:201740002380032003B0F0BD4B4A1370FFF7A0FF4A484FF420710BF037FE01200CF010FDF6
:2017600000286BD005F17F03DBB2012B5BD9882D05D040F23F130120238003B0F0BD3F48E8
:201780000BF040FE0028F4D0FFF782FF3C4B1B78002B69D13B4B1B78002BEAD13A4B1B6827
:2017A000002B38D0394805F0F5FC00210B460222374801F057FF374F37493548374E02F039
:2017C000E1FB3221324802F081FB0FCF0FC697E8070003C631462E4821F81829192202F07C
:2017E0008DFC40F233132E48254A00260121068011702380264A2B4B29468DE80C002848CB
:20180000294A43F2163302F06FFE012809D91D4B1B78002BADD119484FF420710BF0D4FDC8
:20182000A7E700208EE7FFF733FF164B1B78002BB4D0822D9DD1012E9BD1AFE70F480BF01A
:20184000E1FD002895D0104B184A1968184B1948002914BF1146194607F0D8FD07484FF40B
:2018600020710BF0B1FD84E704480BF0CBFD002890D0FFF737FF8DE79C3900205C0E00200D
:201880009E3900209D390020EC2300201C9001006C0E002044900100349001001C0E002001
:2018A000E80D0020B9180000CC8F0100DC8F0100E08F0100E88F010010B504460D48218984
:2018C000627907F0A3FD63790B4A0021022B117003D0BDE81040FFF705BF084B22891B8972
:2018E0009A42F6D1064805F055FC064B01221A7010BD00BF609001009E3900206C0E0020A5
:20190000849001009D39002008B5064B1B88012B06D0054805F03EFCBDE8084004F0FCBFF1
:2019200008BD00BF7E3900209890010008B50A480CF07EFA03F0A4FA084B09489B68984789
:2019400001F038FD01F02CF801F068F9BDE80840044800210BF0B6BF140F0020E4AA01005E
:20196000BD1600005004002010B50446044821460CF064FA20696169BDE8104003F0A0BA6F
:20198000140F0020F0B5104B83B002A9002241F8042DDB68984706460C480CF04DFA04464B
:2019A00078B1019F656939462846324617F05EF920B9284617F02CF9B04202D02468002CDE
:2019C000F0D1204603B0F0BDE4AA0100140F002008B501F001F8084B1B7813B9074805F011
:2019E000D9FB05F037FA064B1968BDE80840411A044807F00BBD00BF9D390020AC900100D6
:201A0000100F0020D09001002DE9F0410388044683B140F24650834207D1882914D040F2AA
:201A2000465323800120BDE8F081002323800320BDE8F081124880210BF0C6FC40F24653B1
:201A400023800120BDE8F0810D4B9A42E7D10D4F0D4DDFF8388003E057F8045F002DE9D000
:201A6000AE6930460BF07AFB0028F5D02869D8F85C3098473046B1680BF068FBECE700BF31
:201A8000600F002020A6010078070020E4AA01002DE9F04782B00A9E4FF0FF344FF0000AE0
:201AA0008846174699468DE810040146BDF830501EB3336813B39D424DDC344C6946236A21
:201AC000984700994B1C59D0D4F8E430994250D0D4F890106369404698472D4B1D6828461B
:201AE00017F096F8E36C02462946404698474FF0FF33336002B0BDE8F08701AE234C0846A8
:201B0000236A6946984700994A1C2AD0D4F8E4309942DDD1E369404698474D4510D82A46AD
:201B200038460B9916F0E6FE4FF0FF337A193360E36C4046D21B3946984702B0BDE8F08714
:201B40004A4638460B9916F0D5FE336807EB09024B443360ECE70B9AED1A1A44ADB20B9267
:201B6000CCE7D4F8E410E369404698474D45D6D9E6E7E369404655469847D0E7E36940465E
:201B8000D4F8E41055469847C9E700BFE4AA01004C04002070B584B0089E054D4FF4807415
:201BA000009601950294FFF773FF04B070BD00BFF03F002070B584B0089E054D4FF4807484
:201BC000009601950294FFF763FF04B070BD00BFF04000202DE9F04F89B00DF12008002324
:201BE000DFF8AC9048F8143D0191D9F80C30414682469847224D0646039F224C03E055F879
:201C0000043F73B11C46D4F814B0584617F000F8B042F4D159463846324616F039FE00281D
:201C2000EDD10025504642460395D9F858301649A469984708B10F2808DD0198D9F81430E4
:201C4000D9F87810984709B0BDE8F08F0246039904A8049505950695079516F04BFE04A87A
:201C600016F0C2FD094BA0F11E029A420146E4D8A06020460BF06AFA09B0BDE8F08F00BF5A
:201C800020A60100780700203491010062510100E4AA01002DE9F04F002489B098468B4674
:201CA00091468246059406940794129F05F0D2F808AC44F80C0D07A90DF11B0206A804F0D1
:201CC00097FD8DF81A000BF099FE094B0C261D78ADF81E0000970194594650464A464346E7
:201CE00002968DF81950FFF7D3FE09B0BDE8F08F2A4800202DE9F04FC5B0824689469046F1
:201D00001F460CF0B3FC8346002833D004AD2E460AE0034653F8080F1036596803C4584699
:201D20000CF0AAFC8346B0B133460BF1080151F8080F06F10804496803C358460CF088FC61
:201D40000028E6D1B060606058460CF095FC103683460028E8D1721B92B24E9B02928DE8F6
:201D600028005046494642463B46FFF791FE45B0BDE8F08F024604ADEFE700BF2DE9F04F8C
:201D80001D46273385B023F0070300AFADEB030D0023FB60BB6B4FF0FF348A463A60EB462C
:201DA000BC60002B00F0A680584E07F10801336A9847B9684A1C1AD0D6F8E430994218D08D
:201DC000D6F89010736950469847514B1C68204616F01EFFF36C0246214650469847BA6BF3
:201DE0004FF0FF3314371360BD46BDE8F08FD6F8E410F36950469847BB6B1B681A46002BC6
:201E0000B8BF03F10F02C2F30714A3EB041808F0FF082B4405EB0802C2F307121B077A609A
:201E200003D013460133DBB27B60002011F0E0FC814640B1A4B1484611F0DAFC621ED4B265
:201E400081460028F6D1BC6B4FF0FF3239682260F36C5046002298471437BD46BDE8F08FAA
:201E60007B68D844002B4CD05C1EE4B201340BEB041400E088B3484611F0B4FC4B46426834
:201E80000168CBF80420CBF80010B9F800204846ABF8082053F8122F0BF1100B4BF8062CDD
:201EA0009B882BF8023C11F0A3FC5C458146E1D14544A54228BF2546A5421FD0BB6BC8EB73
:201EC00005021B68B96B13440B60F36C5046414698471437BD46BDE8F08F45445D4528BFB3
:201EE0005D46AB45EAD1B96B4FF0FF33C8EB05020B60EAE707F10C03BB6355E70028F2D0BE
:201F0000DCE745445D4528BF5D46D7E7E4AA01004C0400202DE9F04F99B00DF1240905902E
:201F200006928B46484600213C22079316F0BCFD444B1D68002D6DD0284609F0ABFF4B46B2
:201F4000044655F8040F04F11C0869684FF0000A0BAD03C32EE000223B4B3046394615F076
:201F6000F5FA15F03FFFC0B22870607815F03AFC0022354B15F09CFC334B002215F0E6FA4E
:201F800015F058FF6870A378EE1C012BA3F1020029D915F027FC00222B4B15F089FC0022B8
:201FA000294B15F0D3FA15F045FF04344445A87035461FD0207815F015FC0022234B15F00C
:201FC00077FC0022002306460F4615F0E3FE0028C1D000221C4B3046394615F0B5FA15F0D2
:201FE00001FFC0B2C0E70434444585F802A005F10305DFD1229BC9EB0505ADB28DE80802E1
:20200000029505985946069A079BFFF741FD19B0BDE8F08F0E4C5846D4F89010636998477B
:202020000C4B1D68284616F0F3FDE36C0246294658469847229A4FF0FF33136019B0BDE8CF
:20204000F08F00BFF83900200000E03F0000E0BFE4AA01004C0400202DE9F04F9BB00DF196
:2020600024090492834644228A4648460021059316F01AFD00F0F4FD07900798344DCDF8DD
:2020800025000FCD2C46334FCDF829003E68CDF82D1054F8030BCDF83120B988BA79CDF80C
:2020A0003530072305F11308CDF83900CDF83D60ADF841108DF843208DF824300DF1430523
:2020C0000CE00022244B3046394615F03FFA15F089FE4445C0B205F8010F1CD014F8010FB4
:2020E00015F080FB00221D4B15F0E2FB0022002306460F4615F04EFE0028E2D00022164B60
:202100003046394615F020FA15F06CFE4445C0B205F8010FE2D1124B1B6843B1114916AA93
:202120000968159153F8040F0891596803C218AC249BC9EB0404A4B28DE8080258465146C2
:20214000049A059B0294FFF7A3FC1BB0BDE8F08FD03E0020843F00200000E03F0000E0BF58
:20216000F8390020343F00202DE9F04F97B0229E002735684FF0FF3E814668680991049218
:202180001D460B970D97CDF830E016F041FD209C0390002C00F002828A4F0DAA7B6D484688
:2021A00089499847012800F0FB813B6A0DF1300B59464846059398470C9B824A591C19D086
:2021C000D2F80421934215D0099ED7F890107B69304698477D4B1D68284616F019FDFB6CC9
:2021E00002462946304698474FF0FF33236017B0BDE8F08F01230793FB680DA948469847B0
:20220000039B804683421ED00D9EDFF8C8A1334656469A466E4D30465146424616F026FD4E
:2022200028B9304616F0F4FC404500F0628155F8106F002EEFD109987B69D7F88810984774
:2022400017B0BDE8F08F4FF000096B1CDFF880A160480893CB465FE05B4622684FF0020CC1
:20226000934208D3A94512D204993C2201F80920226809F101090133934208D3A94506D287
:20228000049A2F2302F80930226809F10109DAF800B0CDF818C05846059216F0B9FCDDF8A9
:2022A00018C0059A00EB0C08904553D807D3A94505D2049A3E2302F8093009F10109DAF801
:2022C000043008F1010BD3B1226893450AD3A94508D2049A3B2302F80930DAF8043022687B
:2022E00009F1010918460692059316F091FC08F10208069A00EB080B9345059B41D8A94599
:2023000005D92368C9EB0B029A4200F219815AF8100F002800F014813368039A596816F00E
:20232000A5FC0028F3D1079B012B57D0BBF1000F92D022685A4508D84D4506D9049A2C2397
:2023400002F80930226809F101090BF101030BF1030C85E7CCEB0203049A002BACBF5B44B6
:202360000BF1000302EB0900089AC9EB02011A4A07F072F88144A94515D22368984598D2DE
:202380009DE7C8EB0208049AB8F1000FA8BF434402EB0900089AC9EB02010F4A07F05CF8C5
:2023A0008144A945B3D9B9F1000F40F07081DAF80030002B00F0BE8023681D44256017B071
:2023C000BDE8F08FE4AA01001C9901004C04002040A30100409101005C9101000E900F9043
:2023E0001090119012901390149015902368BBF1000F71D1194653B94D4540F22181049A17
:202400007B2302F80930236809F101091946012B9B4640F21881219B06911B681846059359
:2024200016F0F6FB069900F1020C8C458046059B00F2E78009D3A94521D2049A222302F8DD
:202440000930D4F800B009F1010908F103035B4509D3A94513D2049A3A2302F80930D4F87B
:2024600000B009F1010908F104035B4507D3A94505D2049A7B2302F8093009F1010908F1FD
:202480000508DAF80C20DAF808301268202100920EA8834A06F0E0FF0EA816F0B9FB236887
:2024A00000EB080B9B457FF62AAFC8EB03030EAA002BA8BFD2181346049A02EB0900089A74
:2024C000C9EB0201774A06F0C7FF8144A945FFF41EAF08F101023AE05B4507D84D4505D950
:2024E000049A2C2302F8093009F101090BF10108C7E759464846059B98470C99481C67D019
:20250000D7F80431684E994264D0D6F8B430994200F0A480099FD6F8901073693846984702
:20252000624B1D68284616F073FB29460246F36C384698474FF0FF33236017B0BDE8F08F35
:20254000079BD846012B7FF42EAF0BF101022368434513D84D4511D904997D2301F8093057
:20256000236809F1010993420ED84D4508D9049A7D2302F8093009F1010905E09342F4D9A2
:20258000B9F1000F3FF413AF0499FB6C4A4609989847FB6932210998984708E70BACFBE5BC
:2025A0000D9816F021F9079000287FF4FEAD3B6A0DF1300B59464846059398470C9A531CE2
:2025C0003FF41AAED7F8DC309A427FF4FDAD13E6D7F80411099EFB6930469847EA68AB688A
:2025E0001268049D00924021314A284606F034FF284616F00DFBFB6C0246294630469847CC
:2026000098E7049A023902EB0900089A0029A8BF5B18C9EB0201234ACDF814C006F01CFFF9
:202620008144A945DDF814C02DD2D4F800B0DC45BFF403AF08F103035B45BFF40CAF12E737
:2026400019469B46E7E6A945FAD2049A222302F80930216809F101098B46DCE6099FF36979
:2026600038469847EB68049D1B684021114A284606F0F2FE284616F0CBFAF36C0246294627
:202680003846984756E703224FF002085FE70499FB6C4A4609989847FB6928217BE700BF0A
:2026A000609101005C910100E4AA01004C0400206C91010028A801002DE9F04786B006AC37
:2026C0000026184D44F8046D6F6D89469046164922461D4682460E9EB84701280ED0134C3E
:2026E000009604F108065046494642462B4601940296FFF739FD06B0BDE8F087059816F055
:2027000073F80028EBD00A4F402400965046494642462B4601970294FFF7BAF906B0BDE8C8
:20272000F08700BFE4AA010078910100380700209C3F00202DE9F04786B006AC0026184DB0
:2027400044F8046D6F6D89469046164922461D4682460E9EB84701280ED0134C009604F1BD
:2027600008065046494642462B4601940296FFF7FBFC06B0BDE8F087059816F035F8002849
:20278000EBD00A4F282400965046494642462B4601970294FFF77CF906B0BDE8F08700BFFB
:2027A000E4AA010078910100DC050020984700202DE9F04786B006AC0026184D44F8046D13
:2027C0006F6D89469046164922461D4682460E9EB84701280ED0134C009604F10806504646
:2027E000494642462B4601940296FFF7BDFC06B0BDE8F087059815F0F7FF0028EBD00A4FCF
:202800001C2400965046494642462B4601970294FFF73EF906B0BDE8F08700BFE4AA010049
:20282000789101009C070020D43900202DE9F04786B006AC0026184D44F8046D6F6D894686
:202840009046164922461D4682460E9EB84701280ED0134C009604F1080650464946424659
:202860002B4601940296FFF77FFC06B0BDE8F087059815F0B9FF0028EBD00A4F1024009617
:202880005046494642462B4601970294FFF700F906B0BDE8F08700BFE4AA010078910100D3
:2028A000CC040020D44400202DE9F04786B006AC0026184D44F8046D6F6D894690461649A3
:2028C00022461D4682460E9EB84701280ED0134C009604F108065046494642462B46019408
:2028E0000296FFF741FC06B0BDE8F087059815F07BFF0028EBD00A4F1424009650464946F0
:2029000042462B4601970294FFF7C2F806B0BDE8F08700BFE4AA0100789101005C06002034
:20292000C04400202DE9F04786B006AC0026184D44F8046D6F6D89469046164922461D465B
:2029400082460E9EB84701280ED0134C009604F108065046494642462B4601940296FFF7C4
:2029600003FC06B0BDE8F087059815F03DFF0028EBD00A4F282400965046494642462B466C
:2029800001970294FFF784F806B0BDE8F08700BFE4AA0100789101008007002098440020CA
:2029A00070B50A4D0A4C1E26A0691E2186600AF0CDFB2046FEF7D8FF55F8044F002CF3D14F
:2029C0002146BDE8704003480AF07CBF20A60100780700206807002038B52E4804F0DAFB9A
:2029E0002D4804F0D7FB2D4C04F1600514F8023C227C0BB1012A3ED92034AC42F6D128486A
:202A000004F0C8FB0CF004F80BF0BAFF044600283BD0244806F0FAFC201D0DF0E3FBA1695C
:202A2000214806F0F3FC0BF03BFE01461F4806F0EDFC0BF01BFE0446C0B11A4806F0E6FC7E
:202A400004F108000DF0CEFB194806F0DFFC20460BF0FEFD0DF0C6FBA169134806F0D6FC3A
:202A600020460BF009FE04460028E6D11148BDE8384004F08FBB0B4806F0C8FC20460DF0A1
:202A8000B1FB0A2004F07EFBB6E70B4804F082FBC9E700BF7C91010094910100524200203B
:202AA000B4910100B0910100C8910100EC9101002892010010920100E491010008B50348DA
:202AC00004F068FBBDE8084003F026BF989001002DE9F04184B004AD4FF0FF36244C45F864
:202AE000046D276A0E46294698461546B84703994B1C19D0D4F80431994217D0D4F8B4307A
:202B000099422AD0D4F89010636930469847194B1D68284616F07CF829460246E36C304606
:202B2000984704B0BDE8F081D4F80411E369304698470A9AD8F800302846009240210E4A0D
:202B400006F08AFC284616F063F8E36C024629463046984704B0BDE8F081E3693046984764
:202B600028464021054A0A9B06F076FCEAE700BFE4AA01004C04002058A601005C910100AE
:202B800070B504460E461546074804F003FB01F0ABFE064B20469C6931462A4604940833C6
:202BA000BDE87040FFF794BF64A60100B007002010B4044B9C69083301945DF8044BFFF713
:202BC00087BF00BFCC07002010B4044B9C69083301945DF8044BFFF77BBF00BF2808002032
:202BE00070B50E461546044604F034F910210346074A084806F030FC074B20469C69314625
:202C00002A4604940833BDE87040FFF761BF00BF28A80100C40F00200C08002010B50A4B35
:202C20000A4C0B48A361FEF79FFE0A48FEF79CFE2046FEF799FE0848FEF796FEBDE81040B4
:202C40000648FEF791BE00BFC40F00200C08002028080020CC070020B00700206808002052
:202C600038B5124B1B6843B904F0BCF86423A0FB0301C00940EA416038BD04F03FF90C4AB2
:202C80000C4B12681B6822B90B490A68821A002A01DB184638BD0C686422201AA0FB024534
:202CA000200C40EA0540181A38BD00BFEC2300209C2200207C3F0020043A0020836A01213E
:202CC0009B688120184700BF034610B490F83440596A074814F0010F064A18BF024611B9CA
:202CE0005DF8044B7047181D5DF8044B0AF046BCBD2C00009932000070B54FF0FF3382B028
:202D00000D460193144CD0B101A9236A984701994B1C14D0D4F8E430994212D0D4F89010E7
:202D20006369284698470D4B1E68304615F070FF31460246E36C2846984702B070BDD4F8AC
:202D4000E410E36928469847054AE36C284612780449984702B070BDE4AA01004C04002046
:202D60009F390020DC0F00202DE9F04F8BB005460F469146FEF706FE0646A54C2846236919
:202D8000984726B110F0010809D1830733D438466369D4F88C1098470BB0BDE8F08FD6F8CB
:202DA00018804FF0FF330693B8F1000F00F0B280002D00F0848006A92846236A984706994E
:202DC0004A1C7CD0D4F8043199427AD0D4F8B430994200F0A580D4F89010636938469847E6
:202DE0008C4B1D68284615F013FF29460246E36C38469847D0E70DF1280949F8148D4A4637
:202E0000D4F858A028468449D047002854D00F2840F3BA80C346CDF80C8028467F494A468C
:202E2000D047002846D00F2840F39B804FF0000828467B494A46D047002839D00F2840F3FD
:202E4000CE800023029328464A467649D04718B10F2840F3B08000200BF03001302951D06F
:202E6000202973D0102976D05FFA8BF252B2002A4BDD1BF0040F03D0B269BDF80C30938407
:202E80001BF0400F1CBFB26990611BF0200F1CBFB269C2F810801BF0100F02D0B369029AC3
:202EA0005A6138466369E16E98470BB0BDE8F08F0290C8E78046BBE783460390ADE7D4F89B
:202EC0000411E36938469847D8F808200023B2F1004FC8F80420A8F826304D4C1AD0B368AF
:202EE0000092D8F80C204846019240214E4A06F0B3FA484615F08CFEE36C024649463846C6
:202F0000984749E7029B9845AEDB38466369A16F984741E738466369D4F89C1098473BE77B
:202F2000E36938469847D8F808300022B3F1004FC8F80430A8F82620ECD0D8F80C204846AB
:202F400000924021394A06F087FAD2E7B26952699045DADC88E7B269029B12699342D4DB44
:202F600082E700230246059906A8069307930893099315F0BFFC06A815F036FC4BF02003C4
:202F800080465FFA83FB53E70246059906A8CDF81880CDF81C80CDF82080CDF8248015F035
:202FA000A9FC06A815F020FCB0F5004F039029D24FF0040B31E700250246059906A8069561
:202FC00007950895099515F095FC06A815F00CFC00289ADD4BF040035FFA83FB3CE700238F
:202FE0000246059906A8069307930893099315F081FC06A815F0F8FB4BF0100302905FFA72
:2030000083FB20E7CDF80C804FF0800B05E700BFE4AA01004C0400202CA8010034A80100B4
:2030200038A801003CA8010010A8010024A801002DE9F04186B006460F46FEF7A3FC054647
:20304000234C3046236998470DB1830707D438466369D4F88C10984706B0BDE8F08106AAF0
:203060004FF0000842F8148D3046A36D1949AD69984708B10F2806DD38466369A16F984745
:2030800006B0BDE8F0810246019902A8CDF80880CDF80C80CDF81080CDF8148015F02AFC61
:2030A00002A815F0A1FB0C4B9842E5D8C001686248B9281D0AF0A6FA38466369E16E9847F4
:2030C00006B0BDE8F0812846FFF7FEFDF4E700BFE4AA010034910100805101002DE9F041BD
:2030E0000C46444B84B0DD6DA8472678002E4DD0E38C002B4DD1404F63683A78002A50D08B
:20310000DFF80081E068D8F80010411A64294CDD03F50043B3F5803F00F500412CBF052333
:203120000323B1F5803F2CBF052103210B441344402B4FDC314B1A4400F50043B3F5803F1A
:203140000290ADF80C004DD203210E46BDF80C000123A2F8010013703D78E0686368354451
:2031600026780A443D70C8F8000003F50041B1F5803F0393ADF8063024D2BDF80630167080
:20318000A2F8013003223B7813443B7004B0BDE8F081194F0022A368E2843A786360002A26
:2031A000AED1E068DFF85C80B2E703F50041B1F5803F34BF03200520104440280ADC0F482A
:2031C0000244D4E7039846F040061670C2F801000522D8E70A4B1869A8470023074AE0682F
:2031E0003B70A9E7029841230521C2F8010013700E46B1E7E4AA01009F390020DC0F0020B4
:2032000028090020D40F00202DE9F041046B06462568002D33D0B36A286A5B689847A86042
:203220002568FFF71DFDE8602268D38C0133D3842368DA699169F1B1888CE0B14B68B3F1CF
:20324000004F15D0CD8C854212D088680D69A84202DB4F69B84204DDAB4202DB4D69AB420B
:2032600006DD8D695F19B84202D85B1B984202D21069FFF733FF54F8045F002DCBD196F95D
:203280003430002B01DBBDE8F081B36A81209B680021BDE8F041184710B50446074A616A6B
:2032A000234604300AF06AF9A36A81209B68012198472046BDE81040FFF7A6BF99320000E1
:2032C0002DE9F043058883B00746A5B140F2FF639D420AD1334B1B788B424BD040F2FF6367
:2032E00001203B8003B0BDE8F08300230380032003B0BDE8F0832C48DFF8B4800AF098FD85
:203300002A48FEF731FBD8F83040236883B14FF005094FF00046DA69A3F82490DD845E6098
:203320009361D869FEF720FB54F8043F002BF2D11F4C1D4821460AF081FDD8F82C30C3F835
:203340001880D8F824305BB1D8F82C00FEF70CFB98F834301648DB0706D4FFF79DFFBDE769
:203360004FF420736362EFE7836A01219B6881209847B3E70C4801920AF05EFD019A04468F
:2033800018B9ABE72468002CA8D0A36A9342F9D120460192FFF798FC2046FFF735FF019A40
:2033A000F0E700BF28480020D80F002028090020F0080020014800210AF084BA600900204C
:2033C0000249034A00230B70136070479F390020D40F00200C2830B438D80301DBB20C29A4
:2033E0002ED8CCB22343B0F5867F137012D96FF4867543191B0A0D3853709070022303209C
:20340000B1F5867F11D80C2902D90D391154013030BC70470C281FD90D38B1F5867F5070AD
:203420004FF001034FF00200EDD96FF486740C19240AD5180D391454A970D81C30BC704747
:20344000B1F5867F94BF0D240E24CBE7B0F5867F94BFD023E023C2E701200023D0E700BF03
:2034600013F07F4F2DE9F8434FEA134614BF012700271C4615463B464FEA064906B17B1C62
:2034800034F0FF0819D001330133401A2A461946FFF7A0FF17B1230E2B540130B9F1000F90
:2034A00001D02E540130B8F1000F09D0230A2B5401302C540130BDE8F883002CE5D0E3E79E
:2034C000002CF6D1BDE8F883F8B50E689DF8187016B902600B60F8BD0C461D4603681146D1
:2034E0009F5523682A46013323600068184415F077FA23682B442360F8BD00BF2DE9F047AE
:20350000002481461C6010460E461746984615F07FFB4E4409EB0005AE4282462AD94C4608
:2035200006E0013404EB0A039E4205F101051DD94C4503D014F8013C262BF2D12B783D2BD6
:20354000EFD138462146524615F090FB0028E8D10AF1010A5444361B32462046262115F0A4
:203560004DF900B1061BC8F8004000E000263046BDE8F0872646FAE7F8B5069C401A21463E
:203580001F461646FFF726FF054639463018224615F0B0F92819F8BD2DE9F04F83B09DF814
:2035A0003480DDF830A0B8F1000F37D0934600221E46994684468E46144617460AF1010361
:2035C00003E001349C42224624D8B15CB518414501D05245F5D1C9EB0505CEEB0C000BEB8A
:2035E000070229460193CDF800C0FFF7F3FE074449460BEB07002A4615F07CF90134019BC1
:20360000DDF800C006EB040901349C42E6462F442246DAD9384603B0BDE8F08FCDF830A060
:2036200003B0BDE8F04FFFF7A7BF00BF10B504460020014602460CF053FE044B0482186080
:2036400005F078FD024B188010BD00BF1C1000207C390020024B1888013080B218807047CF
:203660007C390020F8B504460F4616461D460021A42215F019FA6771A6712581F8BD00BF62
:20368000F0B501230022016003710A7004680579237883B043EA85132370056844792B7813
:2036A000240104F030041C432C700568847A2B7804F00F041C432C70036884795C700489F1
:2036C0000368240A9C7003680489DC70837913B9042003B0F0BD0368847A1D1D4CB100F124
:2036E0000A0414F8017F013205F8017B877A9742F7D8C37C0E4603F00202044602F0FF0115
:20370000002A40F0F9801A0700F1EB80DF0600F1DB80980600F1CF805A0600F1C3801B0695
:2037200000F11581237DDF0700F1AF80180700F19F80DA0600F193805F0600F187801806CE
:2037400000F10E81637D9A0776D4DF0667D4180600F1E080A37D1A071CD5D4F8803094F855
:2037600084201B010AB143F00803B4F886000027000900E017467A1C400892B2FAD10AB149
:2037800007F00F0003432A461B20FFF769FEA37D05441B21DF0639D4E37D180723D41A06A8
:2037A00000F1EC80A37EDB0628D42368EB1A3E2B12DCB4F89E2022B1FF2305F8013BB4F883
:2037C0009E202846D4F8A01015F00AF9B4F89E00AB1B184403B0F0BD6D4B6E4A002020605D
:2037E0001A6003B0F0BD226B636B232000922A46FFF7C2FEE37D05442321D0E72A463C2029
:20380000D4F89030FFF72CFE0544CEE72A461C20D4F88C30FFF724FE1C210544BCE7606DBC
:203820002622A36D8DE805002A461420FFF7B4FE637D054414218AE72A46B4F868301120B6
:20384000FFF70EFE637D054411217EE72A46236A0E20FFF705FE237D05440E216FE72A46A4
:20386000A38B0C20FFF7FCFD237D05440C2163E7E06D2F22236E8DE805002A460B20FFF765
:203880008BFE237D05440B2153E7A06C2F22E36C8DE805002A460820FFF77EFE237D054437
:2038A000082143E72A46636E0620FFF7D9FDE37C0544062133E72A4600230520FFF7D0FD1E
:2038C000E37C0544052127E794F824302A460093042004F12503FFF74FFEE37C05440421D8
:2038E00017E7226C636C032000922A46FFF744FEE37C0544032109E790F86A30002100937E
:203900002A4604F16B030120FFF736FEE37C05440121F8E6676F94F878303F01A3B9B4F88F
:203920007A200020130900E01046421C5B0892B2FAD10AB100F00F032A463B431720FFF7D3
:203940008FFD1721054405E747F00807E7E72A460720B4F85030FFF783FD07210544E1E6E9
:20396000D4F894002622D4F898308DE805002A460F20FFF711FE0F210544E3E6A26BE36B50
:20398000272000922A46FFF7F7FD2721054409E7940A002030AA01002DE9F843114F0546DE
:2039A0003E6894469E46884634469DF82090EB6800686968AA68B9F1010F0FC4614672468C
:2039C0000CBF102303233046A6F812800CF062FC3C6800212046102215F066F800236382FB
:2039E000BDE8F8831C1000202DE9F04F0C46054685B092460021A42215F056F82C602678F8
:203A0000B6092E712378012EC3F301136B7194F8008008F00F0885F80A806378AB71A278A5
:203A2000E37843EA02232B8106D0BF4BBF4A80201A6005B0BDE8F08FB8F1080F06D9BA4BAD
:203A4000BB4A80201A6005B0BDE8F08F271D4246394605F10B0014F04DFF04EB0A0B07EBDC
:203A600008024FF000095A4585F8139085F8149085F8159085F8169085F8179085F8189086
:203A800085F8199085F81A9080F0B88117F8088008F0F003F02B00F0DE8005F1580302935F
:203AA00005F1540303934FEA18110D2908F00F0800F08B810E2900F09981571CB8F10D0F07
:203AC00000F08781B8F10E0F00F08881894405EBD901CB7C09F0070206FA02F2134309F10B
:203AE000FF32CB743B2A00F26A81DFE812F00F016801460138013301250159014C016801E8
:203B000068010201F3006801E400D7006801C700680168019F00680168018100680168015C
:203B20006801610051006801680168016801680168013C006801680168013C00680168016F
:203B40006801680168016801680168016801680168016801680168016801680168016801D5
:203B6000680168014100704B724AA5201A6060E7B8F1000F00F05681002207EB080317F888
:203B8000011B9F4241EA0222F9D1C5F8902057E0B8F1000F00F04981002207EB080317F8CB
:203BA000011B9F4241EA0222F9D1C5F88C2047E0B8F1000F00F02781002207EB080317F8E1
:203BC000011B9F4241EA0222F9D102F0070722F00F011020B840B940C2F3C0071209A5F858
:203BE0008600C5F8881085F88470C5F8802027E0B8F1000F00F01C81002207EB080317F8A2
:203C0000011B9F4241EA0222F9D102F0070722F00F011020B840B940C2F3C0071209A5F817
:203C20007A00E96785F878706A6709E0262300930298434603993A46FFF746FC07EB08034B
:203C40005B451A4680F0DA8093F8008008F0F003F02B7FF428AF0132A31A53449BB2402B00
:203C600084BF40210B464FF00000C5F8A02094BFA5F89E30A5F89E10D054DAE6B8F1000FEE
:203C800000F0BE80002207EB080317F8011B9F4241EA0222F9D1A5F86820D1E726230093F9
:203CA00005F19800434605F194013A46FFF70CFC07EB0803C4E7B8F1000F00F0AD80002245
:203CC00007EB080317F8011B9F4241EA0222F9D12A62B5E7B8F1000F00F09880002207EBC6
:203CE000080317F8011B9F4241EA0222F9D1AA83A6E72F23009305F16000434605F15C01C3
:203D00003A46FFF7E1FB07EB080399E74246082A28BF082205F16B0085F86A20394614F01E
:203D2000E9FD07EB08038BE7940A002060AA010078AA0100A0AA0100B8F1000F6FD00022DE
:203D400007EB080317F8011B9F4241EA0222F9D16A6675E785F89C6007EB080370E74246C0
:203D6000082A28BF082205F1250085F82420394614F0C0FD07EB080362E76F64C5F840804E
:203D800007EB08035CE72F23009305F14C00434605F148013A46FFF797FB07EB08034FE7B9
:203DA000B8F1000F35D0002207EB080317F8011B9F4241EA0222F9D1A5F8502040E719F0C5
:203DC000010F38D107EB08033AE75178971C0D3174E617F8013B03F10D0877E67B7817F8E5
:203DE000028B03F20D1303EB08286FE69378517803F20D1303EB0121D71C5FE6002018E65F
:203E000042463B4647E742463B46DEE642463B466DE742463B46CFE742463B4658E74246B2
:203E20003B4695E742463B46AFE642463B46BCE642463B46E9E6024B024A82201A60F8E5D2
:203E4000940A0020C8AA010010B4044690F91400002803DB00205DF8044B70471346D4F8E0
:203E600098000A46D4F894105DF8044BFFF746BB30B4B0F89E4014B9204630BC70470D46BC
:203E8000134621462A4630BCD0F8A000FFF736BBFF299ABF8171012000207047082A0346D1
:203EA00028BF082210B514469A720B3014F022FD204610BD037D03F0100303F0FF021BB1EF
:203EC000838B01200B6070471046704701207047437D03F0020303F0FF0223B1B0F86830EC
:203EE00001200B6070471046704700BF037D5B064CBF036A3C230B6001207047037D0162D5
:203F000043F0400303750120704700BF38B50446082A28BF0822154684F82420253014F02E
:203F2000E9FCE37C284643F01003E37438BD00BFC37C03F0020303F0FF022BB100F16B0318
:203F40000B6090F86A00704710467047C07CC0F340107047C37C03F0080303F0FF021BB14D
:203F6000436C0B60006C704710467047037D03F0080303F0FF021BB1036E0B60C06D7047F9
:203F8000104670470B7810B52F2B044603D111F8013F2F2BFBD02166084614F039FE237D36
:203FA000E06543F00803237510BD00BF90F91430002BBDBFD0F898300B60D0F8940000206F
:203FC000704700BF0B7810B53F2B044603D111F8013F3F2BFBD0A165084614F019FE637DCE
:203FE000606543F01003637510BD00BF70B50B780C462F2B064603D114F8013F2F2BFBD06D
:2040000020463F2114F09EFD054660B13046691CFFF7D8FF281BB064F46418B1337D43F0BC
:204020000103337570BD204614F0F2FDB064F3E7C37C416643F04003C3740120704700BF36
:2040400010B490F91540002C03DB00205DF8044B704709B1446F0C6012B190F8781011700C
:2040600013B1B0F87A201A80019B33B1C36F019A012013605DF8044B70470120E6E700BFB7
:2040800010B4A3F11004B4F5FE6F12D8B1F5801F0FD2447D003218BF012280F8782064F03D
:2040A0007F024167A0F87A3042755DF8044B0120704700205DF8044B704700BF837D03F035
:2040C000100303F0FF0223B1D0F88C3001200B6070471046704700BF837DC0F88C1043F0EB
:2040E0001003837501207047D0F8A0301BB10B60B0F89E00704718460B607047402A28BF40
:204100004022C0F8A010A0F89E201046704700BF014B1860704700BFC81000208379012064
:20412000013B9840C0B270472DE9F047038886B00446B3B140F25B1293420CD1AA4B1B78AD
:204140008B4219D0882963D040F25B130120238006B0BDE8F08700230380032006B0BDE86B
:20416000F087A248A24900F0ABFE00F033FA43F21630FFF75BFAE7E79E4B9F4D1B7800221F
:2041800098072A70E0D59D4B9D4FDFF8A0923846D9F800101A88FFF727FC0646287000282E
:2041A00039D0DFF88C82C22ED8F8000000F0D78000F03EFA2A78904BC32A00F0CC80BF2A53
:2041C00084BFA0221A70022529463B898C48FFF749FA8C4B8C4F1E68304614F019FD3146AA
:2041E00002468748FFF78AFF884BD9F800601B7831462833824833F80780FFF741FA41468C
:2042000083B2324607F108000095FFF7C5FB9BE700F08AFA98E7BB79013B032B2ED97B68A9
:2042200023F07F4323F0FF03D3B9C3232B70388900F066FADFF8F881C8F8000040B1C66A45
:20424000D0F830A000F0F4F916B150466C49B0472E780023C8F80030002E3FF475AFA2E719
:204260007B79032BE3D1694B694A1B7802F108002833D15A3A8900F009FBD8E7634B644A1B
:204280001B7802F108012833D25A388900F0ACF9DFF89C81C8F80000002800F085807B79ED
:2042A0004022039604960596ADF80A20002B59D15848022145223B89FFF7D4F9BA7A002A9B
:2042C0005FD104AB00934E4803A900220DF10A03FFF7B6FE40B1BDF80A30049A402B28BF83
:2042E00040230592ADF80A304B4BD3F800C0BCF1000F40D0D8F80020DFF804A1454E0DF1FB
:20430000140EBDF80A30504631467432CDF800E0E04790B12A78384B8AB99AF81620110784
:2043200048D596F90620002A44DBB27D120741D434493A48A12208601A702B7833B32E7822
:20434000002E7FF430AFD8F8000000283FF4FCAE00F084F9F8E600221A70032534E700F0DE
:2043600067F9F1E6FFF776F90121034645222948FFF778F9A2E7234A2949A12311602B70BF
:20438000DDE728492348FFF789FD9AE7D8F80060204806F13601FFF773F980B2B0860028C8
:2043A000CDD1C1232B70CAE7164A1F49A32311602B70C4E797F91530059A002B3ADB002A0C
:2043C000E4D0013218BF0122002140231148FFF757FEB6F89E20D6F8A0103F2A88BF4022D8
:2043E0000C48FFF78BFEA8E72C480020C00A0020F0AB01007C440020A0390020A443002061
:2044000024100020940A0020B4430020C6390020B4430020D0100020C810002004AC010094
:2044200024AC01002F10002038AC010088440020CC100020049B9A4217D00132039921D05D
:20444000BDF80A300122DFF884A05046FFF718FEB6F89E30BDF80A2093427FF66EAF504655
:20446000DAF8A010FFF74AFE67E7B6F89E10174E8A4210D38223304615490F22B371FFF7FA
:204480003DFE5AE7B6F89E20BDF80A309A4294BF00220122D7E7BDF80A308A1A9A4294BF51
:2044A0000022012203993046FFF7EAFD0498B6F89E30BDF80A201B1AD6F8A0109A420144FD
:2044C00028BF1A463046FFF719FE36E7D010002014AC01000148002109F0F4B9980A002062
:2044E000C160406809F00EBAF0B50446008883B015461E4610B3B0F5CD7F1AD1822902D0AD
:20450000012003B0F0BDE068002848D02C4F002300932C4A3946FFF793FD3B6822699A42DC
:2045200047D0294A137801331370264B1B78002B3AD100230320238003B0F0BD234B214954
:204540001F681F4A204B2061E0606760087010601870FFF77FF8089B29461881324600F088
:2045600043F8A060D8B11A4BC362A3681C63216979B9A568089805F13601FFF781F8A88630
:20458000A06800F06BF84FF4CD730120238003B0F0BD089800224023FFF772FDE9E700239C
:2045A0000220238003B0F0BD074B1B78032BC0D8CFE7099BE0689847236901332361B4E7CB
:2045C00020100020A2390020A1390020AC240020E1440000024A034B12681A60704700BF7D
:2045E000AC24002078110020F8B507460E480D46164609F09DFC044698B10023878003765B
:204600002868A9686F68EA68C4F81A00C4F822100648C4F81E70C4F826202146668509F027
:204620000DFC2046F8BD00BFA80A00207411002070B110B50446083008F0F6FE2146054818
:2046400009F040FC2146BDE81040034809F08EBC704700BF74110020A80A0020F0B504465F
:2046600090F8365083B0C5F3011500F11A06418D838E04F1360200953046FFF78DF995B939
:20468000237E032B15D833B3E3685B00E360194D194B2E681B6804F108002B6008F0A8FE86
:2046A0002E6003B0F0BD204603B0BDE8F040FFF7BFBF3046618DE66A276B00F061F82046B5
:2046C000FFF7B6FF002EECD038462946334603B0BDE8F040184704F02DFD084BA3FB0023C6
:2046E000DB0903EB4303A0EB831303F28113E360CDE700BFAC24002078110020ABAAAAAA00
:2047000010B50446074809F097FB48B18388A34203D106E08388A34202D000680028F9D1F1
:2047200010BD10BD7411002010B50C4809F084FB044610B910E0246874B104F1080008F000
:2047400061FE0028F7D0237E204601332376FFF785FF2468002CF0D110BD00BF7411002013
:2047600010B504460448214609F000FC2146BDE81040024809F0A6BBB40A00205813002019
:20478000F8B505460E480E4609F056FB0446A0B1002704F12C002946102214F079F810B96B
:2047A000A38FB34204D02468002CF2D13846F8BD2046FFF7D5FF0137F5E70746F6E700BF23
:2047C000581300202DE9F843054618480E4691461F4609F031FB044630B34FF0000801E048
:2047E0002468F4B104F12C002946102214F050F80028F5D1A38FB342F2D194F83E30BB42AB
:20480000EED104F13F0049463A4614F041F80028E6D12046FFF7A4FF246808F10108002CC1
:20482000E0D14046BDE8F8838046FAE7581300202DE9F04106461448174609F0FDFA044669
:2048400000B34FF00008102204F12C00251D1EB1314614F01DF878B9BD4208D0284614F0F0
:20486000D7F939460246284614F012F820B92046FFF776FF08F101082468002CE3D1404687
:20488000BDE8F0818046FAE7581300202DE9F041054614480E46174609F0CEFA0446F0B185
:2048A0004FF0000801E02468B4B104F12C002946102213F0EDFF0028F5D1A38FB342F2D156
:2048C000B4F84830BB42EED12046FFF749FF246808F10108002CE8D14046BDE8F08180467F
:2048E000FAE700BF5813002010B5084809F0A4FA044630B12146064809F038FB2468002C1D
:20490000F8D10248BDE8104009F092BA58130020B40A00202DE9F0414468DEB007462046AD
:204920000E4614F075F90546214602A8272214F0E7F9262D07DC36B102AB31465819C5F1C0
:20494000270214F0DDF9002423460CA8012145228DF82F40FEF786FE23460122214635A84D
:20496000FEF780FE02A935A8FFF70CFB02A814F04FF905462F4809F05FFA044660B955E09D
:20498000854206DA3B7A6219DB0602D513792F2B08D02468002C49D0261D304614F038F90B
:2049A000A842EDD1314602A82A4614F05FF906460028EED1FEF74EFEA28F04F12C01FFF7A5
:2049C00013FE4023804600F174020028E1D0818835A8A4F84810B8F80410D7F810C0ADF87B
:2049E000381000960CA9E0479DF93630002B09DBE16C0CA84B1CE364FFF71AFBE36C23F0D6
:204A00007F43E36494F83E2004F13F010CA8FFF745FA08F136010CA8FEF732FEA8F83400A8
:204A20004046FFF71BFE2468002CB5D15EB0BDE8F08100BF581300200021FFF76BBF00BF35
:204A40000B468979012900D0704792F906100029FADBD97C4906F7D5596E69B10129F3D174
:204A6000304A3149127801F108002832895A03F10B029B7AFFF7A6BE2DE9F04F1446294AEF
:204A80002A481278D3F860B02832175A81B039465A460830DE6D03F10B0993F80A80FFF78E
:204AA000C7FE234809F044FAB246054678B3262EC4BF2726B24659463246043013F01AFF9E
:204AC0004FF0000BAA441B4B8AF804B005F12C060FCB86E80F0042464946AF8785F83E80FB
:204AE00005F13F0013F006FF2946A5F848B0124809F0A4F9E96C20464B1CEB64FFF798FA8C
:204B0000EB6C23F07F43EB6401B0BDE8F08F20460A49A3231022A37101B0BDE8F04FFFF7F5
:204B2000EDBA00BFC6390020B4430020B4430020B40A0020BC430020581300205CAC010031
:204B40002DE9F04F83B0019100921F46DDF8308000F0D2F909F070F9002800F0BC803B46CD
:204B6000D8F800B000252C465E4607469A46B44208D3554512D24FF03C02009B5A55D8F867
:204B800000600135631CB34208D3554506D24FF02F02009B5A55D8F800600135D7F804B01B
:204BA0000234584614F034F800EB0409B14553D805D3554503D2009A3E2353550135FE6852
:204BC00009F10104BEB13378ABB1D8F800B05C4508D3554506D2009A3B235355FE68D8F81C
:204BE00000B00135304614F013F809F1020900EB09045C450FD8554504D9D8F80030621BD1
:204C00009A425AD83F68002F3CD0BCB9D8F80060B442B7D3ADE7009AC9EB0B030AF1010192
:204C20005019002BACBFF318331C491B2D4A04F013FC0544554540D83F681FB3D8F8006099
:204C4000A64207D8554505D2009A2C235355D8F80060013501348AE7009A331B0AF101019A
:204C60005019002BACBF5B440BF10003491B1D4A04F0F2FB0544554504D2D8F80030994554
:204C800099D29CE75346BA461F46CDB954B9BAF1000F20D0D8F800301F44C8F8007003B0A5
:204CA000BDE8F08F019C82212046FFF7F1F820460D490F22FFF722FAE9E75346BA461F467E
:204CC000019C00992A462046FFF718FA20462821FFF7FCF8DBE74FF0FF33C8F8003003B051
:204CE000BDE8F08F5C91010014AC010070B502880546C02A15D0D02A0DD01AB100230380D0
:204D0000032070BD1F4B8521186808F0A3FDC0232B80012070BD88291BD0D0232B800120E4
:204D200070BD852901D0012070BD174809F084F8044618B9F1E72468002CEED0E369002BC5
:204D4000F9D0A1680029F6D004F10C0008F03CFBF1E70D4809F070F8044618B9DDE7246869
:204D6000002CDAD0A368002BF9D004F10C06304608F048FB0028F2D0E3699847304608F023
:204D80002DFBECE7AC2400205C1300202DE9F04F87B006AD0024384E45F8044D0291F46833
:204DA0002946924699468046A0470546334809F043F80446002834D0DDF814B009E006DD4B
:204DC000217ACB0603D51BF800102F2908D024683CB36768384613F01BFF85420246EED189
:204DE0003846594613F042FF0028F0D1039032694046904710F0010F039B1CD1850728D5BA
:204E0000656935B3109B5246009340464B460299A847237A5B0612D40123184607B0BDE8A3
:204E2000F08F73690298D6F8881098470023184607B0BDE8F08F2569002DE3D1DEE7336E07
:204E400020464146029A98470123184607B0BDE8F08F410702D5A569002DD3D1020702D5AF
:204E6000E569002DCED102987269D6F88C1003939047039BDBE700BFE4AA0100601300208B
:204E800038B50A4B1C7804B138BD094D012209481A7008F0CDFFAB68074898476B68984787
:204EA0002146BDE83840054808F00CBDA3390020E4AA0100601300208D4D0000E40A00205A
:204EC00010B504460A486160214608F0B7FF94F90830002B00DB10BD216ACB69002BFAD04F
:204EE0008B68002BF7D0BDE81040024808F0A6BF601300205C13002000487047601300207D
:204F00002DE9F041A2B0074608F080F93E4D0DF1440801AE0024204608F054F955F8043F57
:204F20000134C31A102C48F8040F46F8043F2860F1D101F057FF354E354934684D780B78D9
:204F40000246009501943946324804F05FFA12AC17AD54F8041B304804F058FAAC42F8D137
:204F600002AC07AD54F8041B2B4804F04FFAAC42F8D12A4802F00EF9294804F047FA294D76
:204F8000002455F824102848013404F03FFA202CF7D1224802F0FEF8244804F037FA00247F
:204FA00004F1200355F8231001341F4804F02EFA202CF5D1194802F0EDF81D4804F026FADE
:204FC0001C4D002455F824101748013404F01EFA202CF7D1114802F0DDF8174804F016FA8C
:204FE000002404F1200355F8231001340E4804F00DFA202CF5D1094802F0CCF83368013387
:20500000336022B0BDE8F08160130020A4130020F847002084AC010098AC010084B601009B
:20502000A0AC0100F0400020A8AC0100B0AC0100B8AC0100F03F0020C0AC010010B50388B0
:20504000044653B1782B04D10F4808F0DBF950B910BD00230380032010BD92B111680A48ED
:2050600008F0B2F905E0084808F0B8F90748FFF747FF78232380044808F0C4F90028E7D006
:20508000F1E70280022010BDA813002084B6010000B583B002A941F8040D034808F012FC83
:2050A00003B05DF804FB00BFF40A0020F0B5002706463C463D4683B0304600F0DFFA0195E7
:2050C000019B9C4206DD00BF019B01330193019B9C42F8DC304600F0D9FA0195019BC4F5DE
:2050E000C874A34206DA00BF019B01330193019BA342F8DB0137B7F5487F06D0B7F5C87FC4
:20510000CCBFC7F548743C46D6E703B0F0BD00BF78B110B50446094821460EF0C5FA08B1C8
:20512000002010BD064821460EF0BEFA18B1FF2010BD00207047E07910BD00BF70B2010083
:2051400068B20100FF2830B402460AD0074C0849234625460868496803C32846E27130BCFB
:205160007047044D284630BC704700BFB8130020F847002068B201002DE9F041814C84B0AA
:205180002368814801215B689847236801210A461B687D4898477D4C0DF004FE02F0C8FF52
:2051A00002F03AFF02A8082102F024F802AB03CB206061602046FFF7ABFF754E80B230807C
:2051C00020B9A279E37903EB0223338000F0C2FE01F038FB02F05CFF00F046FA6D496E4AFA
:2051E00001256E4B0D60284615601B68FFF75EFF0DF0DCFD01F084FE01F0A8FD08F08EFB4A
:2052000001F08CFF08F0B2FA41F2342003F098FF02F0D8FD08F068FC614801F0BBFF4BF2A9
:20522000016200215F4804F0F1F85F4801F0B2FF0DF028FE00FA05F15C4804F0E7F85C4BEC
:205240005C48196804F0E2F85B4B5C48196804F0DDF85B48002108F035FB08F055F908F09D
:20526000ABFB07F097FF574B1B682BB901F046FE554A564B10601D700220FFF717FF5448B6
:2052800004F0C4F8534B544D186801F083FF534804F0BCF8524B186801F07CFF514804F0D3
:2052A000B5F82968504804F0B1F8ED69A84720B1A84701464D4804F0A9F80A2001F062FF89
:2052C000002302A808214A4D019301F093FF9DF80F30484A9DF80E80EF6A43EA0828517C1E
:2052E0000220B84741460320B84719210120B84708226B6B02A90B209847AB6A01A90120F5
:20530000984701993C4804F081F83C4804F07EF83B4DEF1D15F8011F3A4804F077F8BD4290
:20532000F8D1E179384804F071F83188374804F06DF80EF097F9364B626821685A60196047
:205340000DF0ACFD0021334808F0BCFA0220FFF7ADFE0021304808F0B5FA304807F00EFFDE
:2053600001F0EAFE0120FFF7A1FE01F099FA08F01BFA044601F0F8FE14F0FF0FF7D102F010
:2053800037FEF4E7D801001000400340F84700207E3900200C400940080009402C200940E0
:2053A000E0AC0100FCAC010014AD010024AD0100102108403CAD01000400094054AD010071
:2053C000340C00209C220020F0410020E03F00206CAD010028B9010030BA010074AD0100F6
:2053E000C8B801007CAD01005C91010084AD010048B0010088FF0100A8AD0100BCAD0100A1
:20540000F7470020D0AD0100D8AD0100E0AD0100AC430020B00C0020040B0020E08E010013
:205420002DE9F04104880646772C30D07E2C27D024B1002303800320BDE8F08108F08EF9D6
:205440002F4F304B304D3A6818702C60002A45D02346A0462D4C04F80380936880200021DE
:2054600098472B68013357F823202B60002AF2D1DBB2274A1370772333800120BDE8F08177
:20548000204B1B788B4219D00120BDE8F081DFF880801D4D98F800201E4F002393423B6030
:2054A0002B6007DA194CE156002919DB013393422B60F7DB3B68002BEFD1DCE7124D134C52
:2054C000DFF84C80134F2B683A68E05C511C00F07F0098F80020E0543960E7E71346C8E727
:2054E0000849074A097852F82320002008F0B2F90028E8D17E2333800120BDE8F08100BF0E
:20550000140B002028480020C0130020F0390020A4390020C413002010B40F4B1C7864B1C5
:205520000E4A1368984214D0002303E052F8041F88420CD00133A342F8D1094A0948135DCB
:2055400063F07F0313555DF8044B08F0DBB91C46F3E70024F1E700BFA4390020140B0020AB
:20556000F0390020040B0020F8B53A4D2C7828704440A10714D500F0020000F0FF0700281E
:2055800035D0354B1A68002A5CD01B68002B50D0E2072B7807D41846BDE8F84000F09AB8FC
:2055A0000346E207F7D513F001060CD02A4A1268002AF0D101F0A2FC284C294A01212B78F3
:2055C000A0639173E7E7264CA27B002AE3D001F095FC2449214B8A6B9F6B2B78D21B10444C
:2055E0008863A6731846BDE8F84000F073B81C4E337B7BB9737B1A4E002BC9D001F07EFC80
:20560000184A1649536B4F6B0021DB1B184450637173BDE701F072FC124A1049136B096B9D
:2056200037735B1A184410632B789B07E2D50A4BABE701F063FC0A4B084901225A73486308
:205640002B78AEE701F05AFC054E044A012310633373E9E7A53900209C220020F0410020F0
:20566000E03F00209C3F002008B500F017F8024B00221A7008BD00BFA5390020024B1B78D9
:205680001843FFF771BF00BFA5390020024B1B7823EA0000FFF768BFA53900200A4B1A68ED
:2056A00002B1704710B50122084C1A6023680420DB6B984723680720DB6B9847044A136856
:2056C00023F09003136010BDC8130020B401001080200240084B094A1870136823F09003F3
:2056E0001360C20702D5064B01221A70830702D5044B01221A707047A639002080200240A4
:205700000420024007200240813801289ABF024B18680020704700BF0C14002038B50B4C98
:20572000A37953B101F0EAFB094A0A4993698D6900215B1B18449061A171074B03221A60F4
:205740000648BDE83840FFF7E7BE00BFE03F00209C3F0020F04100200C14002000AE01000A
:2057600030B5044683B07721002000F085FF6CB1154B1B688BB125238DF807300DF1070155
:205780000122F4200FF08EF803B030BD0F4DAB795BB900238DF80730F0E701F0AFFB0C4973
:2057A0000A4B012288619A71E5E701F0A7FB094A074993698969AC715B1A1844002390618B
:2057C0008DF80730DAE700BF9C220020E03F0020F04100209C3F002030B5802885B016D07C
:2057E000812810D11D4C206878B151B30120FFF7B7FF1B4803211B4A002307F0BFFE02204F
:20580000206005B030BD154B186805B030BD134C012500207721256000F02EFF1249182270
:2058200088200FF031F804A9B62301F8013D2A46E0200FF037F80020FFF792FF206805B059
:2058400030BD0748019107F0DDFE01990846FFF787FF01231846236005B030BD0C1400205D
:20586000EC1300201D570000D4130020F8B5534B1B68032B40F09A80431E012B00F29680B3
:205880004F4C00237721054623601846A38000F0F3FE2146F72006220EF0F6FF00287ED073
:2058A000E178484A23796079090341EA0311168841EA1013C6EB131101FB01F1B2F904706F
:2058C00076000913B2F90200C6EBD30307FB01F100FB03F0891301EBE0204710A7F57A4EDD
:2058E0004FEAAE0606FB06F6B2F90810B2F90A70731301FB0EF103FB07F3B2F90E704910DB
:2059000007FB0EF701EBE303B2F806C09B14B2F910E003F50043F61279000CFB03F30EFB32
:20592000061726786178B2F90CE094F802C036034FEA0E4446EA0111DB13906104EBA7076C
:2059400041EA1C1127D040F635444942A1EB273104FB01F101F1434101F5A0010029B3BF41
:20596000B1FBF3F34900B1FBF3F35B00D90801FB01F1B2F91440B2F916609F08490B04FB76
:2059800007F401FB06F1B2F91260621302EB2131314403EB2113012D0BD01846F8BD20462F
:2059A00006210EF09BFF4FF00040F8BD4FF00040F8BD00EB800080300012F8BD0C1400209E
:2059C000CC130020D4130020014B1868704700BF30140020F0B506461E4C83B00020452107
:2059E000256800F049FE86B11B4B1B68C3B141F2C2020123ADF8062023600DF106010222BD
:205A000001200EF04FFF03B0F0BD144FFB797BB905F002054FF486532560ADF80630ECE763
:205A200001F06CFA0E490D4B0122C861DA71DEE701F064FA0B4A0A49D369C96905F00205A3
:205A40005B1A18444FF48653FE71D0612560ADF80630D2E7301400209C220020E03F00201F
:205A6000F04100209C3F002030B5002083B0452100F002FE01200DF1060102220EF004FF01
:205A8000BDF90630002B07DB0E4810210E4A002307F074FD03B030BD0C4CE37953B101F05A
:205AA0002DFA0B4A0B49D369CD6900215B1B1844D061E1710848FFF72FFD084B02221A60CB
:205AC00003B030BD10140020695A0000E03F00209C3F0020F041002018AE01003014002069
:205AE000802810B50DD0812809D10C4671B90D4807F088FD2046FFF76DFF204610BD002071
:205B000010BD0020FFF766FF002010BD0120FFF761FF04481021044A002307F02FFD0120A7
:205B200010BD00BF10140020695A0000813801289ABF024B18680020704700BF54140020AC
:205B400038B51A4C637953B101F0D8F9184A194953694D6900215B1B184450616171164C42
:205B6000164A237803211160B3B1154D0020432100F082FD2846042100F0EEFB20700020C0
:205B8000014600F079FD29886A880E480E4D49BA52BA2378298002800C4901220B702270AA
:205BA0000B48BDE83840FFF7B7BC00BFE03F00209C3F0020F0410020A83900205414002039
:205BC000581400208239002080390020A739002028AE010070B5802884B016D0812810D13D
:205BE000314C206878B100292DD1304D6B79002B44D12F4807F006FD01231846236004B085
:205C000070BD294B186804B070BD2A4B00242A4A2A4D20461C60432114802C8000F02CFD5F
:205C200004A91023022021F8023D02460EF03AFE234B21461870204600F01EFD1A4B012038
:205C4000186004B070BD1E4D2B7873B11D4B1B680BB34321002000F00FFD002000F03CFB49
:205C600028700020014600F007FD11480321164A002307F083FC02202060C4E7019101F0EB
:205C80003DF9124E124A7669536901999B1B184469715061ADE701F031F90C49034B0122CB
:205CA00048615A71D5E700BF54140020E03F00203414002058140020823900208039002086
:205CC000A83900209C220020415B0000F04100209C3F00208138012801D90020704708B5AD
:205CE000034B17201B685B689847C0F3804008BDB401001028B1012806BF054BD868002086
:205D00007047044B1868C0F3C05080F0010070475C140020C0200240802810B509D0812871
:205D200005D1D1B9174B17201B685B6B9847012010BD144B144A1B684FF4000111601B68DC
:205D400017200021114A9847114B00221A601720104902F087F9012010BD0A4C0A4A236894
:205D60004FF4000111601B6817200021074A9847074A2368002111601B6B17209847012038
:205D800010BD00BFB4010010E0200240004007205C1A4442995D0000172800D0704738B564
:205DA0000E4C204607F0FAFD00B938BD2046042107F0E0FD0A4B1D68C5F3C0554DB101F092
:205DC00011F8A368C31AE3600648BDE83840FFF7A3BB01F007F8E560A06038BD5C14002016
:205DE000C020024048AE01008138012801D90020704708B5034B18201B685B689847C0F3DC
:205E0000804008BDB4010010802810B509D0812805D1D1B9174B18201B685B6B9847012006
:205E200010BD144B144A1B684FF0807111601B6818200021114A9847114B00221A6018206E
:205E4000104902F00FF9012010BD0A4C0A4A23684FF0807111601B6818200021074A98471F
:205E6000074A2368002111601B6B18209847012010BD00BFB4010010E020024000600620DD
:205E8000601A4442B95E000068B1012809D110B5074B1C6800F0A6FF8034201AC043C00FDF
:205EA00010BD00207047034B1868C0F3006070476C140020C0200240182800D0704708B560
:205EC00000F090FF084B1860084807F067FD00B908BD06484FF4007107F04CFDBDE8084020
:205EE0000348FFF719BB00BF6C140020701400205CAE010010B5064C042023685B69984716
:205F0000236804205B6B98470128F9D110BD00BFB8010010FFF7EEBF032801D000F0F2B8AC
:205F200008B5094B00219B6881209847074B00219B6881209847064B81209B6800219847C1
:205F4000BDE8084000F0DEB800AE010018AE010028AE0100F8B50CF025FF2F4B2F4C1B881C
:205F6000064613F1FF3318BF01232370FFF7C2FF2B4B4FF4A0601B68DB699847294B012165
:205F8000294A196013689B07FCD500F08DF82378002B3DD0254802F033F8247814B1002EC6
:205FA00032D0F8BD224D14202B680127DB6B9847204A2B681470DB6B132098471E4A2B68D3
:205FC0001470DB6B122098471C4A2B681470DB6B0E2098471A4A2B681770DB6B0D20984746
:205FE000184A2B681470DB6B0F209847164A2B6814703846DB6B9847144A2B6814709B6B3F
:2060000018209847002ECCD1BDE8F8400CF0CEBE0EF044FFBEE700BF7E390020294800202C
:20602000B80100102820086028200840340B0020B4010010142002401320024012200240D4
:206040000E2002400D2002400F2002400120024010B5094B09481B685B68984710F00C0FE3
:20606000044605D0064B04221A6002200CF0A2FEB4FA84F0400910BDAC01001000200040FD
:206080000428004008B5064B02201B685B6B9847012803BF034B186800F00100002008BDAD
:2060A000B80100106020084070B5104D02202B685B6998472B6802205B6B984701280446A8
:2060C0000A4BF7D11B684FF44070DB699847084B084A1C6013689B07FCD5074B07481B68D7
:2060E00007491B680122BDE870401847B80100102820086028200840AC01001000200040D0
:20610000006CDC02174B10B5FF221A70FFF7BAFF20B11549154A00230B601360144B4FF483
:2061200040701B681B6A9847124B0121124A196013689B07FCD5114C052023689B6B984794
:2061400023684FF4804105209B699847236806209B6B9847236806209B694FF48041BDE8B4
:20616000104018478E0D00200428004010040542B80100102820086028200840B401001020
:206180002DE9F04706464F4B4F481B784F4A5B00036033780F46136000F0B0FE4C4B1A6821
:2061A00054060ED51C464B4D2D1A00F0A7FEC54202D40020BDE8F08700F0D6FF2368590604
:2061C000F3D4434C0323236002200CF0F3FD00F095FE2368DB070AD53E4D2D1A00F08EFE95
:2061E000C542E6D500F0C0FF2368DA07F6D4FFF72FFF012F034635D90028DAD0334DDFF824
:20620000D0900136022407F1FF3816F8012B631E43452A6003D3A74226D90134F5E70123D2
:20622000C9F8003002200CF0C5FD00F067FED9F80030DB070ED5DFF89CA0C0EB0A0A00F0B0
:206240005DFE1AEB000FB4D500F08EFFD9F80030D807F4D4FFF7FCFEA742034602D90028FC
:20626000DBD1A6E7002BA4D0194C0523236002200CF0A0FD00F042FE00F5CC55193523685C
:20628000D90707D500F03AFE401B002891DA00F06BFFF4E7FFF7DCFE044600F02FFE0C4E66
:2062A00000F5CC55193533685A0602D42046BDE8F08700F023FE401B0028BFF67AAF00F0C5
:2062C00053FFF0E7A939002000280040082800400428004067E6FFFF38B51A4B1A4A1B78BB
:2062E0001A495B000B60106000F008FE184B1A6854060DD51C46174D2D1A00F0FFFDC542EE
:2063000001D4002038BD00F02FFF23685906F4D40F4C0723236002200CF04CFD00F0EEFD79
:206320002368DB070AD50B4D2D1A00F0E7FDC542E7D500F019FF2368DA07F6D4BDE8384080
:20634000FFF786BEA939002008280040002800400428004067E6FFFF2DE9F047444B454A07
:206360001B7806465B0043F0010313600F4600F0C5FD414B1A6852060ED51C463F4D2D1AB4
:2063800000F0BCFDC54202D40020BDE8F08700F0EBFE23685B06F3D4374B0B221A60022064
:2063A0001C460CF007FDDFF8D8A007F1FF3901254FF00008C14524DD002DE5D000F09EFD1B
:2063C0002368DD070AD52D4D2D1A00F097FDC542DAD500F0C9FE2368D807F6D4FFF738FE5D
:2063E00005460028E6D0DAF80020092306F808200220236008F101080CF0DCFC5FFA88F8DC
:20640000D8E7002DC0D000F079FD1B4B1A68D1070BD51C46194D2D1A00F070FDC542B3D5FF
:2064200000F0A2FE2368DA07F6D4FFF711FE0028AAD0134B104C1A683E44052306F8012CDE
:20644000022023600CF0B6FC00F058FD00F5CC55193523685B0602D40120BDE8F08700F051
:206460004DFD401B00288FDA00F07EFEF1E700BFA9390020002800400428004067E6FFFFC2
:20648000082800402DE9F04F8146764D764E2878764C4000306099F8000083B02060174616
:2064A00098460E4600F02AFD714B1A68540612D51C46DFF8C0A1C0EB0A0A00F01FFD1AEBAA
:2064C000000F03D4002003B0BDE8F08F00F04CFE23685806F1D4664C0323236002200CF07E
:2064E00069FC00F00BFD2368DB070DD5DFF884A1C0EB0A0A00F002FD1AEB000FE2D500F08B
:2065000033FE2368D907F5D4FFF7A2FD012E034638D90028D6D0DFF854B109F1010406F158
:20652000FF3A4FF0020914F8012B09F1FF339A45CBF8002004D8B14526D209F10109F2E70B
:206540004B4A0123136002200CF034FC00F0D6FC474B1B68DA070DD5464B1B1A019300F0DD
:20656000CDFC019BC342ADD500F0FEFD404B1B68DB07F4D4FFF76CFDB145034602D20028F2
:20658000DBD19FE7002B9DD02B7837495B00384C43F001030B220B60022022600CF00AFCBA
:2065A000DFF8C8900125002608F1FF3A564521D2002D87D000F0A2FC2368DD070BD52D4DC5
:2065C0002D1A00F09BFCC5427FF57CAF00F0CCFD2368D807F5D4FFF73BFD05460028E5D005
:2065E000D9F800200923BA55022023600CF0E2FB0136DBE7002D3FF465AF00F07FFC1C4EAF
:2066000000F5CC5519353368194CD90718D4FFF71FFD00283FF456AF144B47441A68052344
:2066200007F8012C022023600CF0C4FB00F066FC00F5CC55193523685A060AD4012042E705
:2066400000F05CFC401B0028BFF63CAF00F08CFDD9E700F053FC401B0028BFF633AF00F04D
:2066600083FDE8E7A939002000280040082800400428004067E6FFFF1B4B10B5044619703C
:20668000FFF700FDA0B1194B1A78A24216D01848184900221C7002600A601B787BB1BDE857
:2066A0001040154B15481B6815491B6801221847FFF7FAFC0D4B1A78A242E8D110BD114C4A
:2066C000052023684FF4C0419B699847236806209B694FF4C041984723680848DB6C0521C3
:2066E00006229847DBE700BFA93900208E0D00200428004010040542AC0100100020004071
:20670000006CDC02B401001010B504460EF0FEF9034658B12246002006210EF009FA03461B
:2067200060B101240EF0FCF9204610BD1C46074800F030FD0EF0F4F9204610BD1C46044863
:2067400000F028FD0EF0ECF9204610BD84AE01006CAE010010B582B004460EF0D7F9034668
:20676000D0B1002006210EF00FFB0346E8B10020062122460EF06CFA0346F8B16A46002092
:2067800006210EF0D5F928B368462146062212F07FF8E0B9012403E011481C4600F0FAFC33
:2067A0000EF0BEF9204602B010BD1C460D4800F0F1FC0EF0B5F9204602B010BD1C460A4866
:2067C00000F0E8FC0EF0ACF9204602B010BD074800F0E0FC00240EF0A3F9204602B010BD9F
:2067E00084AE0100DCAE0100C4AE01009CAE0100F0B583B005460F4616460CF043FBC4B299
:206800006846FFF781FF18B92870204603B0F0BD2046BDF80020BDF80430012129703A808C
:20682000337003B0F0BD00BF10B582B004466846FFF76AFF20B16846ADF80240FFF78AFF63
:2068400002B010BD00B583B06846FFF75DFF70B1BDF80030BDF80210013300226846ADF85B
:206860000030ADF80410ADF80220FFF773FF03B05DF804FB162800D0704738B5064B1B7863
:2068800003F0FF0433B9054D01232B7064200CF091FA2C7038BD00BFAA3900201520024030
:2068A00038B5174C1620236800259B6B9847236816205B6B9847134A23684FF4800111603A
:2068C0001B68114A162029469847104B104916201D6001F0C7FB236816201B6B984723688B
:2068E0000C4CDB6B15209847642025700CF062FA0123237064200CF05DFA257038BD00BF9E
:20690000B4010010E020024000600620581A4442756800001520024008B50120FFF784FF47
