:020000040000FA
:2000000000500020C5150000BD150000A5150000C1150000C1150000C11500000000000088
:20002000000000000000000000000000C1150000C115000000000000C1150000C115000068
:2000400025840000C11500005D5B0100C11500008173000001820000C1150000C11500006F
:20006000C1150000C95B0100C1150000C1150000C1150000C1150000C1150000C115000081
:20008000C1150000C1150000C1150000C1150000C1150000C1150000C1150000C1150000B0
:2000A000C1150000C1150000C1150000C1150000C1150000C1150000C1150000C115000090
:2000C000C1150000B1960000A14B1B88012B01D0002070472DE9F04F9E4BB1B01C68002C51
:2000E00040F02481DFF890B20DF140085A46474643464FF0000A0AF10B0008F83A0052F843
:20010000041F0AF1010ABAF1100F596003F10803F1D1002319932F932FAE11AC2568A168B1
:20012000284618F083FB50B1234613F804ED221D92E8030083E8030084F804E0A56008349A
:20014000B442EBD1BAF1010AE7D1834D0DF11F045BF8040F17F046FE79A3D3E9002318F0DA
:2001600007F901344FF0010300B90346AB452370EED1FF210CA8102218F0FAFF774B198859
:20018000002900F0CF80764C0023E25C30A8024402F89B3C01339942F7D10023184618F87D
:2001A000332030AD01332A44994202F8AB0CF6D100200346E25C30AD2A4412F8AB2C013313
:2001C000002A18BF01209942F4DC002800F0AA800F2900F3A7809DF8B86030ABA6F10B058F
:2001E00003EB050919F8903CFF2B4FF00F0300F0968030AA02EBC30353F87CAC06F0E2FFCE
:200200004FF0010808FA05F39BB203905046049317F0E8FD4CA3D3E9002317F085FCCDF888
:200220001C8018F015F94F4B82461B881A4605934D4B1B881340069302E02EAB9F4271D00B
:20024000D7F804B097F80080584617F0CBFD3CA3D3E9002318F08CF80837002862D159461C
:20026000504618F001FB30AB434400285AD113F89B3CFF2BE1D13D4BA8F10B0253F82230A6
:200280000799DFF8E8B001FA02F203F5967113B1039B8B42D1D3049B06998B4202D1059B10
:2002A0001A42CAD0B8F1FF0F19F8907C3AD0E25D31463B46CDF800802D4809F05FFA06F031
:2002C00081FF264B4BF825001E8804F80780A6B3002319460120625C01310B3A00FA02F27D
:2002E0001343B1429BB2F6D11F4A13800CF014FE204B186006F066FF164B186005200CF05F
:20030000C7FD01200FE018F8336030AAA6F10B0502EB050919F8902CFF2A7FF46AAF013B2C
:200320009942F0DD002031B0BDE8F08F06F04AFF3C3484427FF6D6AEF4E73346D4E700BFB4
:20034000666666666666E63F9A9999999999B93FC2390020D80D0020743F0020DC3F002057
:20036000C83F0020BC390020BE390020DC0D002034960100BC3F0020343F002000000000A8
:20038000294B1B689B0702D44FF000407047F0B5002083B0452106F025FB0DF1060101201E
:2003A000022214F0AFFC38B901A8022114F0D4FC4FF0004003B0F0BD0DF1060100200222B1
:2003C00014F0A0FC0028EFD0BDF806305BBA9CB2200BADF8043017F0E3FC17F085F806468E
:2003E000C4F30B000F4617F0EBFC0DA3D3E9002304460D463046394617F048FD02460B46F2
:200400002046294617F042FD18F022F8074918F06FF818F033FA03B0F0BD00BFAFF300806A
:200420007B14AE47E17A843F741400200000C84208B5214B1B68032B1ED1431E012B1BD81F
:200440001E4B1B78C3B11E4A1E4B012812881B8815D0184617F0A4FC00221B4B17F016FD69
:2004600000221A4B17F012FD17F0F2FF184918F03FF818F003FA08BD4FF0004008BD1046E3
:2004800017F08EFC0022104B17F000FD08A3D3E9002317F0FBFC00220E4B17F043FB17F0FB
:2004A000D7FF0B4918F024F818F0E8F908BD00BF0000000000A0644098140020EB3900202D
:2004C000C4390020C63900200000F03E000059400000C842000044402DE9F04FDFF85C9172
:2004E0004FF0000AC8464E4655464D4B81B01F78AC0008EB040B9BF80330B7EB131F2DD0D1
:2005000018F8250017F05CFC3FA3D3E9002317F0BDFC0022434B17F007FB0022424B17F057
:2005200003FB17F075FF08F82500707817F048FC35A3D3E9002317F0A9FC00223B4B17F0D8
:20054000F3FA394B002217F0EFFA17F061FF70709BF8033067F307138BF803309BF803301B
:20056000013503F00F03BB421BD0B07817F028FC27A3D3E9002317F089FC27A3D3E9002327
:2005800017F0D2FA284B002217F0CEFA17F040FFB0709BF803304FF0010A67F303038BF8CB
:2005A0000330072D06F10406A2D1BAF1000F13D10137FFB21F2F0CD9194A002313701C4839
:2005C0001C4A4FF41631002301B0BDE8F04F0DF0FBB9134B1F70F2E70023174988F81C30AD
:2005E00099F8022009F10409934238BF13468945F6D1124888F81C300BF050FE084B1F782E
:20060000D6E700BFAFF30080CDCCCCCCCCCCEC3F5C8FC2F5285CEF3F52B81E85EB510040CB
:20062000FE390020000032400000E03F000034409C230020D9040000103F0020F43E0020E1
:200640002DE9F0472C4B00291B680CBFCC250025834201D0BDE8F08728480023C15CDCB259
:200660008A4203F1010337D0072BF7D1244B00271C462449E2780978A67861F30302E270AC
:200680001B7F30469E1B17F09BFB17A3D3E9002317F0FCFB80462846894617F091FB14A310
:2006A000D3E9002317F0F2FB02460B464046494617F03AFA0022144B17F036FA17F0A8FE19
:2006C000B6FA86F6A0707609334639462A46BDE8F0470B480BF0E0BD094B274603EB8404F9
:2006E000C7E700BFAFF300809A9999999999E93F9A9999999999C93F3C3A0020C83F002050
:20070000F43E0020FE3900200000E03F000000002DE9F041384C2468844201D0BDE8F0810D
:20072000364E0024355DE0B2AB4204F1010457D0072CF7D1DFF8D0801546314A98F8033024
:20074000127898F8000062F3071388F803300C4617F036FB24A3D3E9002317F097FB0F463F
:20076000C4EBC4110646480000F0FE0017F028FB1FA3D3E9002317F089FB02460B4630460E
:20078000394617F0D1F900221E4B17F0CDF917F03FFE88F8000098F8010017F011FB12A394
:2007A000D3E9002317F072FB0646680000F0FE000F4617F005FB0EA3D3E9002317F066FBF0
:2007C00002460B463046394617F0AEF900220D4B17F0AAF917F01CFE88F80100BDE8F08101
:2007E000094B03EB8008A7E79A9999999999E93F9A9999999999C93F3C3A0020C83F002086
:20080000FE3900200000E03FF43E0020000000002DE9F04F744985B00B780646002B00F0DF
:200820008A80724B08209B6A03A9984700287AD1A6F10B04E4B26E4D04F1080B05EB8B0A42
:20084000DAF8040017F0CEFA2C448046207D894617F0B6FA5AA3D3E9002317F017FB039F03
:20086000CDE90001C7EBC710400000F0FE0017F0A7FA55A3D3E9002317F008FB02460B46E8
:20088000DDE9000117F050F900225A4B17F04CF917F0BEFD5537207535DA4DA3D3E900236D
:2008A0004046494617F0F2FA4BA3D3E9002317F03BF917F0CDFDCAF8040006F083FC1E28D6
:2008C0001ED947A3D3E900234046494617F064FD4FF0010400B9044605EB8B05686817F03D
:2008E00081FA3FA3D3E9002317F056FDE4B24FF0010300B90346DBB2A34256D1002C41D0B1
:2009000005B0BDE8F08F32A3D3E900234046494617F0BCFA0022002317F006F917F098FD91
:20092000CAF80400C9E702463146334808F026FF05B0BDE8F08F314A01250D704FF07E54E2
:2009400002F10D0302F14D00B42102F8011F43F8044F8342F9D12A4A6621117713460C461A
:2009600002F11C00B421C82219705A709C7004338342F9D123484FF47051234A00230DF088
:2009800023F84EE706F072FC204B19880029B7D01F480378B3420FD0234602E0C25CB242D4
:2009A0000AD001338B42F9D1AAE706F05FFCFFF78BFB05B0BDE8F08FFFF786FBA0E700BF9E
:2009C0009A9999999999E93F9A9999999999C93F8FC2F5285C8FEE3F0AD7A3703D0AA73F12
:2009E000666666666666E63FFF39002024B70100143F00200000E03F14B90100273F002054
:200A0000F43E00209C230020D9040000DC3F0020C83F0020000000002DE9F04F144623F0A4
:200A20000047024657EA04000E468FB01D469C46214634D06E4B26F0004A9A459346B146D7
:200A400026DC24D09F4223DC694B9F4200F08F80B9F1000FC0F28F804FF0000879BB644B88
:200A60009F4200F0A580634B9F4267D0BCF1804F00F0E283604B9C4521D1B9F1000F1EDBB9
:200A8000104631460FB0BDE8F04F16F0ADBE62B10AF1404000F5801050EA0B0007D10346FC
:200AA000544918460FB0BDE8F08F5745CCDD53480FB0BDE8F04F16F095BF4FF000081046DE
:200AC0003146CDF808C0009216F054FF009ADDF808C0BBF1000F20D04FEAD97909F1FF3988
:200AE00058EA09037AD0464B9F4240F38F8003F104739F4240F31084424B9A4540F39283E3
:200B0000BCF1000F40F3928337A1D1E900010B46024617F0BBF90346C3E7BAF1000F04D069
:200B2000344B29F0404E9E45D6D1BCF1000FC0F2B683B9F1000F08DB0346B2E7BCF1000F24
:200B4000C0F2528413463146ABE70AF1404A0AF5801A58EA0A0340F05E8402460B4616F08D
:200B6000E1FF0B46024617F0BBFA034699E700293FF46EAF8CE7244B9F422CDCA3F15473D8
:200B80009F427FF769AF40F213403B15834240F34B84C3F58663033321FA03F000FA03F375
:200BA0008B427FF459AF00F00100C0F1020855E70AF1404303F5801353EA0B0300F0398305
:200BC000104B9A4540F36483BCF1000FC0F22E832346294665E74FF002083FE71046314642
:200BE0003346BCE7AFF300809C7500883CE4377E0000F07F0000F03F0000E03F60BD01006E
:200C00000000E041FFFFEF3FFFFF3F43BAF5801F4FF0000205DACA4B17F038F98A466FF01D
:200C200034024FEA2A53C74ECAF3130AA3F2FF334AF07F571344B2450C9347F4401740F350
:200C4000D083C14B9A4540F307840026B4460C9BA7F5801701330C933946BC4B4FEACC0C34
:200C60006344D3E900AB52465B46CDF834C0CDE9060116F057FF52465B46CDE90801DDE99D
:200C8000060116F051FF02460B460020B04917F027FA02460B46DDE90801CDE90A2317F0CB
:200CA000F5F802460B46CDE90223CDE904237B1043F0005303F50023991900200023064689
:200CC0000F460293DDE902231046194632463B46CDE9000117F0DAF802460B46DDE9080199
:200CE00016F020FF5246CDE908015B463046394616F018FF02460B46DDE9060116F012FF48
:200D000002460B46DDE9000117F0C0F802460B46DDE9080116F006FFDDE90A2317F0B6F899
:200D2000DDE90423CDE906011046194617F0AEF802460B4606460F4617F0A8F86EA3D3E9F9
:200D4000002382468B463046394617F09FF86CA3D3E9002316F0E8FE32463B4617F096F8DC
:200D600069A3D3E9002316F0DFFE32463B4617F08DF867A3D3E9002316F0D6FE32463B4664
:200D800017F084F864A3D3E9002316F0CDFE32463B4617F07BF862A3D3E9002316F0C4FEFA
:200DA00002460B465046594617F070F8DDE9042306460F46DDE9000116F0B6FEDDE90623F8
:200DC00017F064F832463B4616F0AEFEDDE9006782468B4632463B463046394617F056F8FC
:200DE00000225C4BCDE9080116F09EFE52465B4616F09AFE02980F460646DDE90001324678
:200E00003B4617F043F832463B46CDE90001DDE9060117F03BF80022CDE906014D4B30466B
:200E2000394616F07FFEDDE9082316F07BFE02460B465046594616F075FEDDE9042317F005
:200E400025F802460B46DDE9060116F06DFE82468B46DDE9000152465B4616F065FE32A3C7
:200E6000D3E9002302980F46064617F00FF830A3D3E90023CDE904013046394617F006F8E3
:200E8000DDE90023CDE906013046394616F04AFE02460B465046594616F044FE26A3D3E9CE
:200EA000002316F0F3FF02460B46DDE9060116F03BFEDDF834C0284BCDF818C06344D3E936
:200EC000002316F031FECDE900010C9816F078FF06460F46DDE90401204BDDF818C09C447E
:200EE000DDE90023DCE900AB16F01EFE52465B4636E000BFAFF30080EF4E454A287ECA3FCC
:200F000065DBC9934A86CD3F01411DA96074D13F4D268F515555D53FFFAB6FDBB66DDB3F2B
:200F2000033333333333E33F000000E009C7EE3FF5015B14E02F3EBEFD033ADC09C7EE3F2D
:200F4000000040438E98030079B60B00889501000000F03F0000084078950100689501000A
:200F6000CDE906AB16F0E0FD32463B4616F0DCFD029832463B4682468B4616F0D3FDDDE987
:200F8000062316F0CFFDDDE9042316F0CBFD02460B46DDE9000116F0C5FDCDE9020108F1C1
:200FA000FF3858EA09030CBFD54BD64B0022CDE904230023CDE900450093DDE9006720465D
:200FC00032463B46294616F0ADFD52465B4616F05DFFDDE90223804689462046294616F003
:200FE00055FF02460B464046494616F09DFD04460D465246304639465B46CDE9024516F081
:2010000045FF06460F4620463B462946324616F08BFDBD4B824699428946884640F3138180
:2010200001F13F4303F5E003034340F0E581A0A3D3E90023DDE9020116F076FD324604465F
:201040000D463B465046494616F06CFD02460B462046294617F0AAF9002840F0CD814C46D8
:201060002015A0F2FE304FF4801101414144C1F30A50A64CA0F2FF35C1F3130BC0F58260B1
:2010800003302C414BF4801B21EA040300224BFA00FB3946304616F045FD06460F46DDE9BE
:2010A00002018BEAE87B0BEBD87B32463B464FEA0B5A16F039FD80A3D3E9002300242046AD
:2010C0000D4616F0E3FE3246804689463B462046294616F027FD02460B46DDE9020116F0E1
:2010E00021FD77A3D3E9002316F0D0FE76A3D3E9002306460F462046294616F0C7FE024684
:201100000B463046394616F00FFD06460F4632463B464046494616F007FD42464B4604465B
:201120000D4616F0FFFC02460B463046394616F0F9FC2246804689462B462046294616F089
:20114000A5FE63A3D3E9002306460F4616F09EFE61A3D3E9002316F0E5FC32463B4616F0FB
:2011600095FE5FA3D3E9002316F0DEFC32463B4616F08CFE5CA3D3E9002316F0D3FC324667
:201180003B4616F083FE5AA3D3E9002316F0CCFC32463B4616F07AFE02460B4620462946B8
:2011A00016F0C0FC06460F4632463B462046294616F06CFE0022CDE900014FF0804330463D
:2011C000394616F0AFFC02460B46DDE9000116F087FF424606460F464B462046294616F05E
:2011E00055FE42464B4616F09FFC02460B463046394616F097FC22462B4616F093FC024605
:201200000B4600203F4916F08DFC8A44BAF5801F0246C0F227815346DDE9040116F036FEEA
:2012200003463EE4BCF1000FFFF66EAC0023194637E40B46334934E433461046314616F0AA
:2012400025FE03462DE4324B21F000449C4240F3FA80304B0B4403430CD132463B4616F0C8
:2012600061FC02460B46DDE9020117F08BF800283FF4F6AE20A3D3E90023DDE9040116F0B3
:2012800005FE1DA3D3E9002316F000FE034608E4BCF1000FCADA234605F1004101E4024646
:2012A0000B460020174916F01BFF42E4AFF30080FE822B654715973C00000000432EE63F20
:2012C000EF39FAFE422EE63F396CA80C615C20BED0A4BE726937663EF16BD2C541BDBB3E93
:2012E0002CDE25AF6A56113F93BDBE166CC1663F3E5555555555C53F59F3F8C21F6EA501E6
:201300000000F0BF0000F03FFFFF8F40FFFF0F00FFCB904000346F3F634B9A4582DD634BFF
:201320009A453FF7EDAB0022604B16F0FBFB54A3D3E9002306460F4616F0A8FD52A3D3E964
:201340000023CDE900013046394616F09FFD3246CDE902013B463046394616F097FD0022B9
:2013600082468B4630463946514B16F08FFD02460B4647A1D1E9000116F0D4FB32463B46A7
:2013800016F084FD02460B4600204A4916F0CAFB02460B465046594616F078FD3EA3D3E9C9
:2013A000002316F073FD02460B46DDE9020116F0B9FB06460F46DDE9000132463B4616F011
:2013C000B3FBDDE90023002082468B4616F0AAFB02460B463046394616F0A4FBCDE9020126
:2013E000DDE50026B44637E4334600202F4916F077FE0346FFF755BB29A3D3E90023DDE9A4
:20140000040116F043FD26A3D3E9002316F03EFD0346FFF746BBB8F1010F03467FF441ABF7
:2014200001F10041FFF73DBB00297FF446ABC3F58263033347FA03F000FA03F3BB4217D023
:201440008846FFF710BB1B4B9C423FF709AEDDE90023924693462EE64FF480264FF0010CE9
:20146000FFF7FABB5A4600F027F802460B46D3E600F00100C0F10208FFF7F5BAAFF300804D
:20148000000000604715F73F44DF5DF80BAE543E555555555555D53FFE822B654715F73FE3
:2014A0009C7500883CE4377EFEFFEF3F0000F03F0000D03F0000E03FF8B5C1F30A5604462B
:2014C0000D460B46174616BB21F00043034332D00022314B16F0DAFC304A044697420D4634
:2014E0000B4637DB40F2FE72C1F30A56363E3E44964215DD24A1D1E9000122462B4616F0B4
:2015000005FB21A3D3E9002316F0C0FCF8BD40F2FF72964224D040F2FE723E449642E9DC81
:20152000002E09DD23F0FF4323F4E00343EA065520462946F8BDF8BD16F1350F15DA4CF209
:2015400050339F42D6DC12A1D1E9000122462B4616F0DCFA0EA3D3E9002316F097FCF8BD74
:2015600002460B4616F0E0FAF8BD23F0FF4323F4E003363643EA0655204629460022084BB0
:2015800016F084FCF8BD00BF9C7500883CE4377E59F3F8C21F6EA50100005043B03CFFFF2D
:2015A0000000903C044B1A68B2F5806F03D01B689B0500D4FEE7704728ED00E0FEE700BFF9
:2015C000FEE700BF08B511F0DBFC104A104B9A420DD2D0430F4918440B4620F00300043003
:2015E000084453F8041B834242F8041BF9D10A480A494FF000028842B8BF40F8042BFADBEA
:2016000003F070FFFFF7CEFF08BD00BF00000020940D002049CD0100980D0020724800208A
:201620000120704770B50B4A0B4B166855680B4C0A2221204D21C3F80260C3F806501870DF
:201640005970228006F032FA054A00232380137070BD00BF3C480020F8430020E84300202F
:201660000A3A002030B5034689B06C4659689A680068DB6804AD0FC50FC468460C490DF027
:2016800027F90021684601220CF0EAFF69461E200FF0BCFD30B104A940220FF05DFB05481A
:2016A00005F030FF044B1B69984709B030BD00BFF0430020B0950100CCBF010070B5048819
:2016C00084B0B4F5C77F05462BD040F2B7139C4218D024B100230380032004B070BD4FF41D
:2016E000F05003F08BFE4F4806F042FE4E4B2246186885210CF0D4FA4FF4C77301202B8027
:2017000004B070BD494B1B788B422DD048480CF09FF8002838D140F2B71301202B8004B027
:2017200070BD852902D0012004B070BD414B1C88012C48D0404805F0E5FE404B0122002057
:201740001A700BF099FB3E4B1B69984700F09CFA37484FF4F0510CF05DF801F0F3FA40F29A
:20176000B71301202B80DAE7364B9A42CED1364805F0C8FE1E200FF0BBFA344805F0C2FEBA
:2017800028200BF085FBC1E700F0D8FA294B1B88012B42D02E4B1B684BB92E4B2E4A197845
:2017A000002423481C7011700CF03EF8B3E705F009FD2A4B1B68C01A3B28EED94FF4A06087
:2017C0000BF05AFBE9E7264805F09CFE1D4B81209B6821469847234B1E880EB3002213464A
:2017E0002146214CE05C01330B3801FA00F00243B34292B2F6D1002304A8FD2100931B4C4B
:2018000000F8101D1A4901930293039322800A80FFF728FFFFF706FF98E7FFF703FFB9E726
:201820003246E8E738040020F02400206C480020C80D0020C2390020DC950100D84700203C
:20184000CCBF010024B50100F495010010960100D83F00206A4800206B4800207C3F00203A
:20186000C8950100DC3F0020C83F0020BC390020BE39002001B17047FFF7F4BE044B1B8879
:20188000012B02D000200BF0F7BA0AF015BD00BFC239002008B505480549102217F05CFBF0
:2018A00008B106F003F9002008BD00BF1C0E00200044002008B5002005F00CFF04480021E1
:2018C0000CF026FABDE80840024806F0E9B800BF500B0020D918000070B5364C84B023787D
:2018E000212B09D03F2B17D0334D083494E80F0085E80F0004B070BD6278304830490023E0
:20190000502A03800B7033D02B4A0023136053609360D36004B070BD65784D2D0FD0522DD2
:2019200041D0542D30D0254E234A25480023136053609360D3603380037004B070BD2346E9
:2019400021222048204904F11005227010F8012F0233140902F00F020C5D8A5C1C705A70A5
:20196000AB42F3D1154E1223338006F09FF8DBE76A4654F8020F02936168039303C26846A8
:201980000121FFF777FFBFE701F020FB0B4E08222123606032802370657006F087F80B4B9B
:2019A00001221A70C0E70A48822101220CF078F9024EB9E7F84300201C0E0020E84300206E
:2019C0000A3A0020EF430020789601006A4800205004002010B505F0F5FB054B054918603C
:2019E000054A06480023BDE810400BF0EDBF00BF540F0020004C0E00611C0000400E002004
:201A00002DE9F04107460E4615461C46DDF81880FFF7E0FFCDF81880384631462A462346B4
:201A2000BDE8F04103F068BB10B50B4C0B4A23780021042B11700A4805D9BDE810404FF475
:201A4000C8510BF0E7BE4FF420710BF0E3FE23780133237010BD00BFE0390020E2390020BB
:201A6000A00E0020F0B5044640F23310238883B083420D4664D040F23F118B42164612D07D
:201A800023B100232380032003B0F0BD4F4A1370FFF7A0FF4E484FF420710BF0BBFE4D4BC2
:201AA0001B88062B63D001200CF090FD00286FD005F17F03DBB2012B5FD9882D05D040F2E9
:201AC0003F130120238003B0F0BD41480BF0C0FE0028F4D0FFF77EFF3F4B1B78002B6DD169
:201AE0003E4B1B78002BEAD13D4B1B68002B38D03C4805F007FD00210B4602223A4801F020
:201B000067FF3A4F3A4938483A4E02F0F1FB3221354802F091FB0FCF0FC697E8070003C61D
:201B20003146314821F81829192202F09DFC40F233133148284A0026012106801170238040
:201B4000294A2E4B29468DE80C002B482C4A43F2163302F07FFE01280DD9204B1B78002B9B
:201B6000ADD11B484FF420710BF054FEA7E71B4B01221A7097E7002086E7FFF72BFF174B35
:201B80001B78002BB0D0822D99D1012E97D1ABE70F480BF05DFE002891D0114B194A19684F
:201BA000194B1A48002914BF1146194607F0E6FD07484FF420710BF02DFE80E704480BF0DC
:201BC00047FE00288CD0FFF72FFF89E7E0390020A00E0020C2390020E2390020E139002011
:201BE00030240020E4960100B00E00200C970100FC960100600E00202C0E0020111C0000CC
:201C000094960100A4960100A8960100B096010010B504460D482189627907F0AFFD637970
:201C20000B4A0021022B117003D0BDE81040FFF7FBBE084B22891B899A42F6D1064805F081
:201C400061FC064B01221A7010BD00BF28970100E2390020B00E00204C970100E1390020A6
:201C600008B5074B1B88062B08D0012B06D0054805F048FCBDE8084005F004B808BD00BFFF
:201C8000C23900206097010008B50A480CF0F6FA03F0ACFA084B09489B68984701F040FDE9
:201CA00001F034F801F070F9BDE80840044800210CF02EB8580F0020B8B10100011A000065
:201CC0005004002010B50446044821460CF0DCFA20696169BDE8104003F0A8BA580F0020D8
:201CE000F0B5134B83B01B880022062B019219D0104B01A9DB68984706460F480CF0C2FABA
:201D0000044678B1019F656939462846324617F011FB20B9284617F0DFFAB04205D02468F0
:201D2000002CF0D1002003B0F0BD204603B0F0BDC2390020B8B10100580F002008B501F0B6
:201D400001F8084B1B7813B9074805F0DBFB05F039FA064B1968BDE80840411A044807F039
:201D60000DBD00BFE139002074970100540F0020989701002DE9F0410388044683B140F25F
:201D80004650834207D1882914D040F2465323800120BDE8F081002323800320BDE8F081D7
:201DA000124880210BF036FD40F2465323800120BDE8F0810D4B9A42E7D10D4F0D4DDFF8DC
:201DC000388003E057F8045F002DE9D0AE6930460BF0EAFB0028F5D02869D8F85C309847AA
:201DE0003046B1680BF0D8FBECE700BFA40F0020E8AC010078070020B8B101002DE9F04736
:201E000082B00A9E4FF0FF344FF0000A8846174699468DE810040146BDF830501EB33368B2
:201E200013B39D424DDC344C6946236A984700994B1C59D0D4F8E430994250D0D4F89010C9
:201E40006369404698472D4B1D68284617F044FAE36C02462946404698474FF0FF33336032
:201E600002B0BDE8F08701AE234C0846236A6946984700994A1C2AD0D4F8E4309942DDD1AB
:201E8000E369404698474D4510D82A4638460B9917F094F84FF0FF337A193360E36C404686
:201EA000D21B3946984702B0BDE8F0874A4638460B9917F083F8336807EB09024B4433601B
:201EC000ECE70B9AED1A1A44ADB20B92CCE7D4F8E410E369404698474D45D6D9E6E7E369AB
:201EE000404655469847D0E7E3694046D4F8E41055469847C9E700BFB8B101004C040020D6
:201F000070B584B0089E054D4FF48074009601950294FFF773FF04B070BD00BF34400020DB
:201F200070B584B0089E054D4FF48074009601950294FFF763FF04B070BD00BF34410020CA
:201F40002DE9F04F89B00DF120080023DFF8AC9048F8143D0191D9F80C3041468246984739
:201F6000224D0646039F224C03E055F8043F73B11C46D4F814B0584617F0AEF9B042F4D10A
:201F800059463846324616F0E7FF0028EDD10025504642460395D9F858301649A46998475B
:201FA00008B10F2808DD0198D9F81430D9F87810984709B0BDE8F08F0246039904A8049560
:201FC00005950695079516F0F9FF04A816F070FF094BA0F11E029A420146E4D8A0602046C7
:201FE0000BF0DAFA09B0BDE8F08F00BFE8AC010078070020FC97010062510100B8B1010090
:202000002DE9F04F002489B098468B4691468246059406940794129F05F0D4F808AC44F890
:202020000C0D07A90DF11B0206A804F097FD8DF81A000BF009FF094B0C261D78ADF81E0006
:2020400000970194594650464A46434602968DF81950FFF7D3FE09B0BDE8F08F6E48002006
:202060002DE9F04FC5B08246894690461F460CF023FD8346002833D004AD2E460AE003465C
:2020800053F8080F1036596803C458460CF01AFD8346B0B133460BF1080151F8080F06F160
:2020A0000804496803C358460CF0F8FC0028E6D1B060606058460CF005FD1036834600288D
:2020C000E8D1721B92B24E9B02928DE828005046494642463B46FFF791FE45B0BDE8F08F90
:2020E000024604ADEFE700BF2DE9F04F1D46273385B023F0070300AFADEB030D0023FB6019
:20210000BB6B4FF0FF348A463A60EB46BC60002B00F0A680584E07F10801336A9847B968EB
:202120004A1C1AD0D6F8E430994218D0D6F89010736950469847514B1C68204617F0CCF89A
:20214000F36C0246214650469847BA6B4FF0FF3314371360BD46BDE8F08FD6F8E410F36963
:2021600050469847BB6B1B681A46002BB8BF03F10F02C2F30714A3EB041808F0FF082B4452
:2021800005EB0802C2F307121B077A6003D013460133DBB27B60002011F068FD814640B175
:2021A000A4B1484611F062FD621ED4B281460028F6D1BC6B4FF0FF3239682260F36C504671
:2021C000002298471437BD46BDE8F08F7B68D844002B4CD05C1EE4B201340BEB041400E013
:2021E00088B3484611F03CFD4B4642680168CBF80420CBF80010B9F800204846ABF8082054
:2022000053F8122F0BF1100B4BF8062C9B882BF8023C11F02BFD5C458146E1D14544A5426F
:2022200028BF2546A5421FD0BB6BC8EB05021B68B96B13440B60F36C504641469847143787
:20224000BD46BDE8F08F45445D4528BF5D46AB45EAD1B96B4FF0FF33C8EB05020B60EAE76C
:2022600007F10C03BB6355E70028F2D0DCE745445D4528BF5D46D7E7B8B101004C04002003
:202280002DE9F04F99B00DF12409059006928B46484600213C22079316F06AFF444B1D684D
:2022A000002D6DD0284609F0EBFF4B46044655F8040F04F11C0869684FF0000A0BAD03C377
:2022C0002EE000223B4B3046394615F02DFC16F077F8C0B22870607815F072FD0022354BB8
:2022E00015F0D4FD334B002215F01EFC16F090F86870A378EE1C012BA3F1020029D915F0F5
:202300005FFD00222B4B15F0C1FD0022294B15F00BFC16F07DF804344445A87035461FD0A6
:20232000207815F04DFD0022234B15F0AFFD0022002306460F4616F01BF80028C1D000229B
:202340001C4B3046394615F0EDFB16F039F8C0B2C0E70434444585F802A005F10305DFD156
:20236000229BC9EB0505ADB28DE80802029505985946069A079BFFF741FD19B0BDE8F08FCE
:202380000E4C5846D4F89010636998470C4B1D68284616F0A1FFE36C0246294658469847BB
:2023A000229A4FF0FF33136019B0BDE8F08F00BF3C3A00200000E03F0000E0BFB8B1010013
:2023C0004C0400202DE9F04F9BB00DF124090492834644228A4648460021059316F0C8FE1A
:2023E00000F0F4FD07900798344DCDF825000FCD2C46334FCDF829003E68CDF82D1054F8A9
:20240000030BCDF83120B988BA79CDF83530072305F11308CDF83900CDF83D60ADF8411069
:202420008DF843208DF824300DF143050CE00022244B3046394615F077FB15F0C1FF44455E
:20244000C0B205F8010F1CD014F8010F15F0B8FC00221D4B15F01AFD0022002306460F46B0
:2024600015F086FF0028E2D00022164B3046394615F058FB15F0A4FF4445C0B205F8010F78
:20248000E2D1124B1B6843B1114916AA0968159153F8040F0891596803C218AC249BC9EBD0
:2024A0000404A4B28DE8080258465146049A059B0294FFF7A3FC1BB0BDE8F08F143F00203F
:2024C000C83F00200000E03F0000E0BF3C3A0020783F00202DE9F04F97B0229E002735688A
:2024E0004FF0FF3E81466868099104921D460B970D97CDF830E016F0EFFE209C0390002CAD
:2025000000F002828A4F0DAA7B6D484689499847012800F0FB813B6A0DF1300B59464846F0
:20252000059398470C9B824A591C19D0D2F80421934215D0099ED7F890107B69304698475B
:202540007D4B1D68284616F0C7FEFB6C02462946304698474FF0FF33236017B0BDE8F08FA3
:2025600001230793FB680DA948469847039B804683421ED00D9EDFF8C8A1334656469A4620
:202580006E4D30465146424616F0D4FE28B9304616F0A2FE404500F0628155F8106F002EC4
:2025A000EFD109987B69D7F88810984717B0BDE8F08F4FF000096B1CDFF880A1604808939B
:2025C000CB465FE05B4622684FF0020C934208D3A94512D204993C2201F80920226809F110
:2025E00001090133934208D3A94506D2049A2F2302F80930226809F10109DAF800B0CDF82F
:2026000018C05846059216F067FEDDF818C0059A00EB0C08904553D807D3A94505D2049ABA
:202620003E2302F8093009F10109DAF8043008F1010BD3B1226893450AD3A94508D2049ACE
:202640003B2302F80930DAF80430226809F1010918460692059316F03FFE08F10208069AE1
:2026600000EB080B9345059B41D8A94505D92368C9EB0B029A4200F219815AF8100F0028B2
:2026800000F014813368039A596816F053FE0028F3D1079B012B57D0BBF1000F92D02268DD
:2026A0005A4508D84D4506D9049A2C2302F80930226809F101090BF101030BF1030C85E705
:2026C000CCEB0203049A002BACBF5B440BF1000302EB0900089AC9EB02011A4A07F074F856
:2026E0008144A94515D22368984598D29DE7C8EB0208049AB8F1000FA8BF434402EB0900F3
:20270000089AC9EB02010F4A07F05EF88144A945B3D9B9F1000F40F07081DAF80030002B74
:2027200000F0BE8023681D44256017B0BDE8F08FB8B10100E49F01004C04002008AA0100FE
:2027400008980100249801000E900F901090119012901390149015902368BBF1000F71D187
:20276000194653B94D4540F22181049A7B2302F80930236809F101091946012B9B4640F2EC
:202780001881219B06911B681846059316F0A4FD069900F1020C8C458046059B00F2E780FF
:2027A00009D3A94521D2049A222302F80930D4F800B009F1010908F103035B4509D3A9455D
:2027C00013D2049A3A2302F80930D4F800B009F1010908F104035B4507D3A94505D2049A89
:2027E0007B2302F8093009F1010908F10508DAF80C20DAF808301268202100920EA8834A26
:2028000006F0E2FF0EA816F067FD236800EB080B9B457FF62AAFC8EB03030EAA002BA8BF07
:20282000D2181346049A02EB0900089AC9EB0201774A06F0C9FF8144A945FFF41EAF08F17D
:2028400001023AE05B4507D84D4505D9049A2C2302F8093009F101090BF10108C7E75946F6
:202860004846059B98470C99481C67D0D7F80431684E994264D0D6F8B430994200F0A480A1
:20288000099FD6F89010736938469847624B1D68284616F021FD29460246F36C38469847B2
:2028A0004FF0FF33236017B0BDE8F08F079BD846012B7FF42EAF0BF101022368434513D800
:2028C0004D4511D904997D2301F80930236809F1010993420ED84D4508D9049A7D2302F818
:2028E000093009F1010905E09342F4D9B9F1000F3FF413AF0499FB6C4A4609989847FB69EE
:2029000032210998984708E70BACFBE50D9816F0CFFA079000287FF4FEAD3B6A0DF1300B2F
:2029200059464846059398470C9A531C3FF41AAED7F8DC309A427FF4FDAD13E6D7F8041132
:20294000099EFB6930469847EA68AB681268049D00924021314A284606F036FF284616F01C
:20296000BBFCFB6C024629463046984798E7049A023902EB0900089A0029A8BF5B18C9EB86
:202980000201234ACDF814C006F01EFF8144A945DDF814C02DD2D4F800B0DC45BFF403AFBE
:2029A00008F103035B45BFF40CAF12E719469B46E7E6A945FAD2049A222302F809302168AB
:2029C00009F101098B46DCE6099FF36938469847EB68049D1B684021114A284606F0F4FE76
:2029E000284616F079FCF36C024629463846984756E703224FF002085FE70499FB6C4A46F6
:202A000009989847FB6928217BE700BF2898010024980100B8B101004C0400203498010043
:202A2000FCAE01002DE9F04786B006AC0026184D44F8046D6F6D89469046164922461D46D3
:202A400082460E9EB84701280ED0134C009604F108065046494642462B4601940296FFF7C3
:202A600039FD06B0BDE8F087059816F021FA0028EBD00A4F402400965046494642462B463C
:202A800001970294FFF7BAF906B0BDE8F08700BFB8B101004098010038070020E03F0020ED
:202AA0002DE9F04786B006AC0026184D44F8046D6F6D89469046164922461D4682460E9E8A
:202AC000B84701280ED0134C009604F108065046494642462B4601940296FFF7FBFC06B00A
:202AE000BDE8F087059816F0E3F90028EBD00A4F282400965046494642462B4601970294D1
:202B0000FFF77CF906B0BDE8F08700BFB8B1010040980100DC050020DC4700202DE9F047E5
:202B200086B006AC0026184D44F8046D6F6D89469046164922461D4682460E9EB84701282E
:202B40000ED0134C009604F108065046494642462B4601940296FFF7BDFC06B0BDE8F087D3
:202B6000059816F0A5F90028EBD00A4F1C2400965046494642462B4601970294FFF73EF989
:202B800006B0BDE8F08700BFB8B10100409801009C070020183A00202DE9F04786B006ACF7
:202BA0000026184D44F8046D6F6D89469046164922461D4682460E9EB84701280ED0134C59
:202BC000009604F108065046494642462B4601940296FFF77FFC06B0BDE8F087059816F02B
:202BE00067F90028EBD00A4F102400965046494642462B4601970294FFF700F906B0BDE8D9
:202C0000F08700BFB8B1010040980100CC040020184500202DE9F04786B006AC0026184D0E
:202C200044F8046D6F6D89469046164922461D4682460E9EB84701280ED0134C009604F1D8
:202C400008065046494642462B4601940296FFF741FC06B0BDE8F087059816F029F9002829
:202C6000EBD00A4F142400965046494642462B4601970294FFF7C2F806B0BDE8F08700BFE5
:202C8000B8B10100409801005C060020044500202DE9F04786B006AC0026184D44F8046D99
:202CA0006F6D89469046164922461D4682460E9EB84701280ED0134C009604F10806504661
:202CC000494642462B4601940296FFF703FC06B0BDE8F087059816F0EBF80028EBD00A4FB6
:202CE000282400965046494642462B4601970294FFF784F806B0BDE8F08700BFB8B1010039
:202D00004098010080070020DC44002070B50A4D0A4C1E26A0691E2186600AF03DFC204616
:202D2000FEF7D0FF55F8044F002CF3D12146BDE8704003480AF0ECBFE8AC0100780700205F
:202D40006807002038B52E4804F0DCFB2D4804F0D9FB2D4C04F1600514F8023C227C0BB102
:202D6000012A3ED92034AC42F6D1284804F0CAFB0CF07CF80CF02AF8044600283BD0244868
:202D800006F0FCFC201D0DF05BFCA169214806F0F5FC0BF0ABFE01461F4806F0EFFC0BF02C
:202DA0008BFE0446C0B11A4806F0E8FC04F108000DF046FC194806F0E1FC20460BF06EFE56
:202DC0000DF03EFCA169134806F0D8FC20460BF079FE04460028E6D11148BDE8384004F022
:202DE00091BB0B4806F0CAFC20460DF029FC0A2004F080FBB6E70B4804F084FBC9E700BF85
:202E0000449801005C980100964200207C9801007898010090980100B4980100F0980100C3
:202E2000D8980100AC98010008B5034804F06AFBBDE8084003F026BF609701002DE9F04177
:202E400084B004AD4FF0FF36244C45F8046D276A0E46294698461546B84703994B1C19D083
:202E6000D4F80431994217D0D4F8B43099422AD0D4F89010636930469847194B1D68284626
:202E800016F02AFA29460246E36C3046984704B0BDE8F081D4F80411E369304698470A9ABD
:202EA000D8F800302846009240210E4A06F08CFC284616F011FAE36C024629463046984701
:202EC00004B0BDE8F081E3693046984728464021054A0A9B06F078FCEAE700BFB8B1010060
:202EE0004C04002020AD01002498010070B504460E461546074804F005FB01F0ABFE064B8B
:202F000020469C6931462A4604940833BDE87040FFF794BF2CAD0100B007002010B4044B2A
:202F20009C69083301945DF8044BFFF787BF00BFCC07002010B4044B9C69083301945DF8ED
:202F4000044BFFF77BBF00BF2808002070B50E461546044604F036F910210346074A084887
:202F600006F032FC074B20469C6931462A4604940833BDE87040FFF761BF00BFFCAE0100E1
:202F8000081000200C08002010B50A4B0A4C0B48A361FEF797FE0A48FEF794FE2046FEF740
:202FA00091FE0848FEF78EFEBDE810400648FEF789BE00BF081000200C08002028080020B7
:202FC000CC070020B00700206808002038B5124B1B6843B904F0BEF86423A0FB0301C00935
:202FE00040EA416038BD04F041F90C4A0C4B12681B6822B90B490A68821A002A01DB184698
:2030000038BD0C686422201AA0FB0245200C40EA0540181A38BD00BF30240020E02200208E
:20302000C03F0020483A0020836A01219B688120184700BF034610B490F83440596A0748E3
:2030400014F0010F064A18BF024611B95DF8044B7047181D5DF8044B0AF0B6BC293000002A
:203060000536000070B54FF0FF3382B00D460193144CD0B101A9236A984701994B1C14D08A
:20308000D4F8E430994212D0D4F890106369284698470D4B1E68304616F01EF931460246DE
:2030A000E36C2846984702B070BDD4F8E410E36928469847054AE36C28461278044998477A
:2030C00002B070BDB8B101004C040020E3390020201000202DE9F04F8BB005460F469146A4
:2030E000FEF7FEFD0646A54C28462369984726B110F0010809D1830733D438466369D4F869
:203100008C1098470BB0BDE8F08FD6F818804FF0FF330693B8F1000F00F0B280002D00F0EE
:20312000848006A92846236A984706994A1C7CD0D4F8043199427AD0D4F8B430994200F010
:20314000A580D4F890106369384698478C4B1D68284616F0C1F829460246E36C38469847C9
:20316000D0E70DF1280949F8148D4A46D4F858A028468449D047002854D00F2840F3BA80F1
:20318000C346CDF80C8028467F494A46D047002846D00F2840F39B804FF0000828467B49BC
:2031A0004A46D047002839D00F2840F3CE800023029328464A467649D04718B10F2840F3C0
:2031C000B08000200BF03001302951D0202973D0102976D05FFA8BF252B2002A4BDD1BF0B7
:2031E000040F03D0B269BDF80C3093841BF0400F1CBFB26990611BF0200F1CBFB269C2F89B
:2032000010801BF0100F02D0B369029A5A6138466369E16E98470BB0BDE8F08F0290C8E717
:203220008046BBE783460390ADE7D4F80411E36938469847D8F808200023B2F1004FC8F8DF
:203240000420A8F826304D4C1AD0B3680092D8F80C204846019240214E4A06F0B5FA4846DB
:2032600016F03AF8E36C024649463846984749E7029B9845AEDB38466369A16F984741E7FF
:2032800038466369D4F89C1098473BE7E36938469847D8F808300022B3F1004FC8F80430B1
:2032A000A8F82620ECD0D8F80C20484600924021394A06F089FAD2E7B26952699045DADCD9
:2032C00088E7B269029B12699342D4DB82E700230246059906A8069307930893099315F039
:2032E0006DFE06A815F0E4FD4BF0200380465FFA83FB53E70246059906A8CDF81880CDF8E4
:203300001C80CDF82080CDF8248015F057FE06A815F0CEFDB0F5004F039029D24FF0040B9B
:2033200031E700250246059906A8069507950895099515F043FE06A815F0BAFD00289ADDFB
:203340004BF040035FFA83FB3CE700230246059906A8069307930893099315F02FFE06A8F4
:2033600015F0A6FD4BF0100302905FFA83FB20E7CDF80C804FF0800B05E700BFB8B10100B7
:203380004C04002000AF010008AF01000CAF010010AF0100E4AE0100F8AE01002DE9F04158
:2033A00086B006460F46FEF79BFC0546234C3046236998470DB1830707D438466369D4F8D6
:2033C0008C10984706B0BDE8F08106AA4FF0000842F8148D3046A36D1949AD69984708B13E
:2033E0000F2806DD38466369A16F984706B0BDE8F0810246019902A8CDF80880CDF80C8084
:20340000CDF81080CDF8148015F0D8FD02A815F04FFD0C4B9842E5D8C001686248B9281D6A
:203420000AF016FB38466369E16E984706B0BDE8F0812846FFF7FEFDF4E700BFB8B10100DA
:20344000FC970100805101002DE9F0410C46444B84B0DD6DA8472678002E4DD0E38C002BEE
:203460004DD1404F63683A78002A50D0DFF80081E068D8F80010411A64294CDD03F500430C
:20348000B3F5803F00F500412CBF05230323B1F5803F2CBF052103210B441344402B4FDC80
:2034A000314B1A4400F50043B3F5803F0290ADF80C004DD203210E46BDF80C000123A2F83A
:2034C000010013703D78E0686368354426780A443D70C8F8000003F50041B1F5803F03939A
:2034E000ADF8063024D2BDF806301670A2F8013003223B7813443B7004B0BDE8F081194FB3
:203500000022A368E2843A786360002AAED1E068DFF85C80B2E703F50041B1F5803F34BFD5
:2035200003200520104440280ADC0F480244D4E7039846F040061670C2F801000522D8E70B
:203540000A4B1869A8470023074AE0683B70A9E7029841230521C2F8010013700E46B1E761
:20356000B8B10100E33900202010002028090020181000202DE9F041046B06462568002D00
:2035800033D0B36A286A5B689847A8602568FFF71DFDE8602268D38C0133D3842368DA69A8
:2035A0009169F1B1888CE0B14B68B3F1004F15D0CD8C854212D088680D69A84202DB4F6958
:2035C000B84204DDAB4202DB4D69AB4206DD8D695F19B84202D85B1B984202D21069FFF7EB
:2035E00033FF54F8045F002DCBD196F93430002B01DBBDE8F081B36A81209B680021BDE88A
:20360000F041184710B50446074A616A234604300AF0DAF9A36A81209B680121984720466D
:20362000BDE81040FFF7A6BF053600002DE9F043058883B00746A5B140F2FF639D420AD105
:20364000334B1B788B424BD040F2FF6301203B8003B0BDE8F08300230380032003B0BDE815
:20366000F0832C48DFF8B4800AF008FE2A48FEF729FBD8F83040236883B14FF005094FF042
:203680000046DA69A3F82490DD845E609361D869FEF718FB54F8043F002BF2D11F4C1D48A9
:2036A00021460AF0F1FDD8F82C30C3F81880D8F824305BB1D8F82C00FEF704FB98F8343028
:2036C0001648DB0706D4FFF79DFFBDE74FF420736362EFE7836A01219B6881209847B3E7FD
:2036E0000C4801920AF0CEFD019A044618B9ABE72468002CA8D0A36A9342F9D12046019201
:20370000FFF798FC2046FFF735FF019AF0E700BF6C4800201C10002028090020F0080020D5
:20372000014800210AF0F4BA600900200249034A00230B7013607047E3390020181000200A
:203740000C2830B438D80301DBB20C292ED8CCB22343B0F5867F137012D96FF486754319BF
:203760001B0A0D385370907002230320B1F5867F11D80C2902D90D391154013030BC7047B1
:203780000C281FD90D38B1F5867F50704FF001034FF00200EDD96FF486740C19240AD51866
:2037A0000D391454A970D81C30BC7047B1F5867F94BF0D240E24CBE7B0F5867F94BFD023A8
:2037C000E023C2E701200023D0E700BF13F07F4F2DE9F8434FEA134614BF012700271C464B
:2037E00015463B464FEA064906B17B1C34F0FF0819D001330133401A2A461946FFF7A0FFDD
:2038000017B1230E2B540130B9F1000F01D02E540130B8F1000F09D0230A2B5401302C54D4
:203820000130BDE8F883002CE5D0E3E7002CF6D1BDE8F883F8B50E689DF8187016B9026008
:203840000B60F8BD0C461D46036811469F5523682A46013323600068184415F025FC2368B6
:203860002B442360F8BD00BF2DE9F047002481461C6010460E461746984615F02DFD4E4488
:2038800009EB0005AE4282462AD94C4606E0013404EB0A039E4205F101051DD94C4503D095
:2038A00014F8013C262BF2D12B783D2BEFD138462146524615F03EFD0028E8D10AF1010A3C
:2038C0005444361B32462046262115F0FBFA00B1061BC8F8004000E000263046BDE8F08776
:2038E0002646FAE7F8B5069C401A21461F461646FFF726FF054639463018224615F05EFBB7
:203900002819F8BD2DE9F04F83B09DF83480DDF830A0B8F1000F37D0934600221E4699463E
:2039200084468E46144617460AF1010303E001349C42224624D8B15CB518414501D0524511
:20394000F5D1C9EB0505CEEB0C000BEB070229460193CDF800C0FFF7F3FE074449460BEBE0
:2039600007002A4615F02AFB0134019BDDF800C006EB040901349C42E6462F442246DAD975
:20398000384603B0BDE8F08FCDF830A003B0BDE8F04FFFF7A7BF00BF10B504460020014615
:2039A00002460CF0CBFE044B0482186005F07AFD024B188010BD00BF60100020C039002027
:2039C000024B1888013080B218807047C0390020F8B504460F4616461D460021A42215F038
:2039E000C7FB6771A6712581F8BD00BFF0B501230022016003710A7004680579237883B00A
:203A000043EA85132370056844792B78240104F030041C432C700568847A2B7804F00F0424
:203A20001C432C70036884795C7004890368240A9C7003680489DC70837913B9042003B042
:203A4000F0BD0368847A1D1D4CB100F10A0414F8017F013205F8017B877A9742F7D8C37CFA
:203A60000E4603F00202044602F0FF01002A40F0F9801A0700F1EB80DF0600F1DB809806A0
:203A800000F1CF805A0600F1C3801B0600F11581237DDF0700F1AF80180700F19F80DA06F5
:203AA00000F193805F0600F18780180600F10E81637D9A0776D4DF0667D4180600F1E080AD
:203AC000A37D1A071CD5D4F8803094F884201B010AB143F00803B4F886000027000900E0B1
:203AE00017467A1C400892B2FAD10AB107F00F0003432A461B20FFF769FEA37D05441B21C8
:203B0000DF0639D4E37D180723D41A0600F1EC80A37EDB0628D42368EB1A3E2B12DCB4F82F
:203B20009E2022B1FF2305F8013BB4F89E202846D4F8A01015F0B8FAB4F89E00AB1B184422
:203B400003B0F0BD6D4B6E4A002020601A6003B0F0BD226B636B232000922A46FFF7C2FEC5
:203B6000E37D05442321D0E72A463C20D4F89030FFF72CFE0544CEE72A461C20D4F88C30F7
:203B8000FFF724FE1C210544BCE7606D2622A36D8DE805002A461420FFF7B4FE637D0544D0
:203BA00014218AE72A46B4F868301120FFF70EFE637D054411217EE72A46236A0E20FFF797
:203BC00005FE237D05440E216FE72A46A38B0C20FFF7FCFD237D05440C2163E7E06D2F22BD
:203BE000236E8DE805002A460B20FFF78BFE237D05440B2153E7A06C2F22E36C8DE805002B
:203C00002A460820FFF77EFE237D0544082143E72A46636E0620FFF7D9FDE37C054406215C
:203C200033E72A4600230520FFF7D0FDE37C0544052127E794F824302A460093042004F117
:203C40002503FFF74FFEE37C0544042117E7226C636C032000922A46FFF744FEE37C0544CC
:203C6000032109E790F86A30002100932A4604F16B030120FFF736FEE37C05440121F8E694
:203C8000676F94F878303F01A3B9B4F87A200020130900E01046421C5B0892B2FAD10AB13B
:203CA00000F00F032A463B431720FFF78FFD1721054405E747F00807E7E72A460720B4F897
:203CC0005030FFF783FD07210544E1E6D4F894002622D4F898308DE805002A460F20FFF76B
:203CE00011FE0F210544E3E6A26BE36B272000922A46FFF7F7FD2721054409E7940A0020A6
:203D000004B101002DE9F843114F05463E6894469E46884634469DF82090EB680068696874
:203D2000AA68B9F1010F0FC4614672460CBF102303233046A6F812800CF0DAFC3C68002124
:203D40002046102215F014FA00236382BDE8F883601000202DE9F04F0C46054685B0924601
:203D60000021A42215F004FA2C602678B6092E712378012EC3F301136B7194F8008008F05D
:203D80000F0885F80A806378AB71A278E37843EA02232B8106D0BF4BBF4A80201A6005B0E3
:203DA000BDE8F08FB8F1080F06D9BA4BBB4A80201A6005B0BDE8F08F271D4246394605F102
:203DC0000B0015F0FBF804EB0A0B07EB08024FF000095A4585F8139085F8149085F8159096
:203DE00085F8169085F8179085F8189085F8199085F81A9080F0B88117F8088008F0F003DF
:203E0000F02B00F0DE8005F15803029305F1540303934FEA18110D2908F00F0800F08B81CD
:203E20000E2900F09981571CB8F10D0F00F08781B8F10E0F00F08881894405EBD901CB7C74
:203E400009F0070206FA02F2134309F1FF32CB743B2A00F26A81DFE812F00F0168014601E1
:203E600038013301250159014C01680168010201F3006801E400D7006801C700680168011A
:203E80009F00680168018100680168016801610051006801680168016801680168013C0091
:203EA0006801680168013C006801680168016801680168016801680168016801680168019F
:203EC000680168016801680168016801680168014100704B724AA5201A6060E7B8F1000FA4
:203EE00000F05681002207EB080317F8011B9F4241EA0222F9D1C5F8902057E0B8F1000F5B
:203F000000F04981002207EB080317F8011B9F4241EA0222F9D1C5F88C2047E0B8F1000F5B
:203F200000F02781002207EB080317F8011B9F4241EA0222F9D102F0070722F00F01102053
:203F4000B840B940C2F3C0071209A5F88600C5F8881085F88470C5F8802027E0B8F1000FD4
:203F600000F01C81002207EB080317F8011B9F4241EA0222F9D102F0070722F00F0110201E
:203F8000B840B940C2F3C0071209A5F87A00E96785F878706A6709E0262300930298434614
:203FA00003993A46FFF746FC07EB08035B451A4680F0DA8093F8008008F0F003F02B7FF462
:203FC00028AF0132A31A53449BB2402B84BF40210B464FF00000C5F8A02094BFA5F89E305C
:203FE000A5F89E10D054DAE6B8F1000F00F0BE80002207EB080317F8011B9F4241EA022232
:20400000F9D1A5F86820D1E72623009305F19800434605F194013A46FFF70CFC07EB080300
:20402000C4E7B8F1000F00F0AD80002207EB080317F8011B9F4241EA0222F9D12A62B5E794
:20404000B8F1000F00F09880002207EB080317F8011B9F4241EA0222F9D1AA83A6E72F2350
:20406000009305F16000434605F15C013A46FFF7E1FB07EB080399E74246082A28BF0822E1
:2040800005F16B0085F86A20394614F097FF07EB08038BE7940A002034B101004CB101008E
:2040A00074B10100B8F1000F6FD0002207EB080317F8011B9F4241EA0222F9D16A6675E773
:2040C00085F89C6007EB080370E74246082A28BF082205F1250085F82420394614F06EFF7C
:2040E00007EB080362E76F64C5F8408007EB08035CE72F23009305F14C00434605F14801FB
:204100003A46FFF797FB07EB08034FE7B8F1000F35D0002207EB080317F8011B9F4241EA51
:204120000222F9D1A5F8502040E719F0010F38D107EB08033AE75178971C0D3174E617F8FA
:20414000013B03F10D0877E67B7817F8028B03F20D1303EB08286FE69378517803F20D13BD
:2041600003EB0121D71C5FE6002018E642463B4647E742463B46DEE642463B466DE74246F0
:204180003B46CFE742463B4658E742463B4695E742463B46AFE642463B46BCE642463B46C9
:2041A000E9E6024B024A82201A60F8E5940A00209CB1010010B4044690F91400002803DBE1
:2041C00000205DF8044B70471346D4F898000A46D4F894105DF8044BFFF746BB30B4B0F8C0
:2041E0009E4014B9204630BC70470D46134621462A4630BCD0F8A000FFF736BBFF299ABFCC
:204200008171012000207047082A034628BF082210B514469A720B3014F0D0FE204610BDBD
:20422000037D03F0100303F0FF021BB1838B01200B6070471046704701207047437D03F04F
:20424000020303F0FF0223B1B0F8683001200B6070471046704700BF037D5B064CBF036AE9
:204260003C230B6001207047037D016243F0400303750120704700BF38B50446082A28BFE4
:204280000822154684F82420253014F097FEE37C284643F01003E37438BD00BFC37C03F09B
:2042A000020303F0FF022BB100F16B030B6090F86A00704710467047C07CC0F340107047B3
:2042C000C37C03F0080303F0FF021BB1436C0B60006C704710467047037D03F0080303F026
:2042E000FF021BB1036E0B60C06D7047104670470B7810B52F2B044603D111F8013F2F2BC1
:20430000FBD02166084614F0E7FF237DE06543F00803237510BD00BF90F91430002BBDBF58
:20432000D0F898300B60D0F894000020704700BF0B7810B53F2B044603D111F8013F3F2B0D
:20434000FBD0A165084614F0C7FF637D606543F01003637510BD00BF70B50B780C462F2BD1
:20436000064603D114F8013F2F2BFBD020463F2114F04CFF054660B13046691CFFF7D8FF73
:20438000281BB064F46418B1337D43F00103337570BD204614F0A0FFB064F3E7C37C41660C
:2043A00043F04003C3740120704700BF10B490F91540002C03DB00205DF8044B704709B1D8
:2043C000446F0C6012B190F87810117013B1B0F87A201A80019B33B1C36F019A01201360E9
:2043E0005DF8044B70470120E6E700BF10B4A3F11004B4F5FE6F12D8B1F5801F0FD2447D62
:20440000003218BF012280F8782064F07F024167A0F87A3042755DF8044B0120704700204E
:204420005DF8044B704700BF837D03F0100303F0FF0223B1D0F88C3001200B607047104677
:20444000704700BF837DC0F88C1043F01003837501207047D0F8A0301BB10B60B0F89E0067
:20446000704718460B607047402A28BF4022C0F8A010A0F89E201046704700BF014B186004
:20448000704700BF0C11002083790120013B9840C0B270472DE9F047038886B00446B3B153
:2044A00040F25B1293420CD1AA4B1B788B4219D0882963D040F25B130120238006B0BDE8CA
:2044C000F08700230380032006B0BDE8F087A248A24900F0ABFE00F033FA43F21630FFF7CE
:2044E0005BFAE7E79E4B9F4D1B78002298072A70E0D59D4B9D4FDFF8A0923846D9F80010E5
:204500001A88FFF727FC06462870002839D0DFF88C82C22ED8F8000000F0D78000F03EFAB7
:204520002A78904BC32A00F0CC80BF2A84BFA0221A70022529463B898C48FFF749FA8C4B1F
:204540008C4F1E68304614F0C7FE314602468748FFF78AFF884BD9F800601B783146283345
:20456000824833F80780FFF741FA414683B2324607F108000095FFF7C5FB9BE700F08AFA19
:2045800098E7BB79013B032B2ED97B6823F07F4323F0FF03D3B9C3232B70388900F066FA0C
:2045A000DFF8F881C8F8000040B1C66AD0F830A000F0F4F916B150466C49B0472E78002383
:2045C000C8F80030002E3FF475AFA2E77B79032BE3D1694B694A1B7802F108002833D15A8C
:2045E0003A8900F009FBD8E7634B644A1B7802F108012833D25A388900F0ACF9DFF89C8189
:20460000C8F80000002800F085807B794022039604960596ADF80A20002B59D158480221B2
:2046200045223B89FFF7D4F9BA7A002A5FD104AB00934E4803A900220DF10A03FFF7B6FEA3
:2046400040B1BDF80A30049A402B28BF40230592ADF80A304B4BD3F800C0BCF1000F40D0C4
:20466000D8F80020DFF804A1454E0DF1140EBDF80A30504631467432CDF800E0E04790B16C
:204680002A78384B8AB99AF81620110748D596F90620002A44DBB27D120741D434493A485B
:2046A000A12208601A702B7833B32E78002E7FF430AFD8F8000000283FF4FCAE00F084F954
:2046C000F8E600221A70032534E700F067F9F1E6FFF776F90121034645222948FFF778F9D7
:2046E000A2E7234A2949A12311602B70DDE728492348FFF789FD9AE7D8F80060204806F156
:204700003601FFF773F980B2B0860028CDD1C1232B70CAE7164A1F49A32311602B70C4E75D
:2047200097F91530059A002B3ADB002AE4D0013218BF0122002140231148FFF757FEB6F8E4
:204740009E20D6F8A0103F2A88BF40220C48FFF78BFEA8E770480020C00A0020C4B2010070
:20476000C0440020E4390020E843002068100020940A0020F84300200A3A0020F84300201D
:20478000141100200C110020D8B20100F8B20100731000200CB30100CC440020101100208D
:2047A000049B9A4217D00132039921D0BDF80A300122DFF884A05046FFF718FEB6F89E30AC
:2047C000BDF80A2093427FF66EAF5046DAF8A010FFF74AFE67E7B6F89E10174E8A4210D37F
:2047E0008223304615490F22B371FFF73DFE5AE7B6F89E20BDF80A309A4294BF00220122AA
:20480000D7E7BDF80A308A1A9A4294BF0022012203993046FFF7EAFD0498B6F89E30BDF817
:204820000A201B1AD6F8A0109A42014428BF1A463046FFF719FE36E714110020E8B20100B3
:204840000148002109F064BA980A0020C160406809F07EBAF0B50446008883B015461E46B2
:2048600010B3B0F5CD7F1AD1822902D0012003B0F0BDE068002848D02C4F002300932C4A6C
:204880003946FFF793FD3B6822699A4247D0294A137801331370264B1B78002B3AD10023E0
:2048A0000320238003B0F0BD234B21491F681F4A204B2061E0606760087010601870FFF7B1
:2048C0007FF8089B29461881324600F043F8A060D8B11A4BC362A3681C63216979B9A568AD
:2048E000089805F13601FFF781F8A886A06800F06BF84FF4CD730120238003B0F0BD0898AC
:2049000000224023FFF772FDE9E700230220238003B0F0BD074B1B78032BC0D8CFE7099B90
:20492000E0689847236901332361B4E764100020E6390020E5390020F02400204D48000097
:20494000024A034B12681A60704700BFF0240020BC110020F8B507460E480D46164609F03A
:204960000DFD044698B10023878003762868A9686F68EA68C4F81A00C4F822100648C4F85F
:204980001E70C4F826202146668509F07DFC2046F8BD00BFA80A0020B811002070B110B548
:2049A0000446083008F066FF2146054809F0B0FC2146BDE81040034809F0FEBC704700BFEF
:2049C000B8110020A80A0020F0B5044690F8365083B0C5F3011500F11A06418D838E04F139
:2049E000360200953046FFF78DF995B9237E032B15D833B3E3685B00E360194D194B2E68BF
:204A00001B6804F108002B6008F018FF2E6003B0F0BD204603B0BDE8F040FFF7BFBF3046B6
:204A2000618DE66A276B00F061F82046FFF7B6FF002EECD038462946334603B0BDE8F04074
:204A4000184704F02FFD084BA3FB0023DB0903EB4303A0EB831303F28113E360CDE700BF4B
:204A6000F0240020BC110020ABAAAAAA10B50446074809F007FC48B18388A34203D106E06F
:204A80008388A34202D000680028F9D110BD10BDB811002010B50C4809F0F4FB044610B963
:204AA00010E0246874B104F1080008F0D1FE0028F7D0237E204601332376FFF785FF2468C8
:204AC000002CF0D110BD00BFB811002010B504460448214609F070FC2146BDE810400248A7
:204AE00009F016BCB40A00209C130020F8B505460E480E4609F0C6FB0446A0B1002704F12B
:204B00002C002946102214F027FA10B9A38FB34204D02468002CF2D13846F8BD2046FFF7D5
:204B2000D5FF0137F5E70746F6E700BF9C1300202DE9F843054618480E4691461F4609F050
:204B4000A1FB044630B34FF0000801E02468F4B104F12C002946102214F0FEF90028F5D188
:204B6000A38FB342F2D194F83E30BB42EED104F13F0049463A4614F0EFF90028E6D1204621
:204B8000FFF7A4FF246808F10108002CE0D14046BDE8F8838046FAE79C1300202DE9F041AE
:204BA00006461448174609F06DFB044600B34FF00008102204F12C00251D1EB1314614F06C
:204BC000CBF978B9BD4208D0284614F085FB39460246284614F0C0F920B92046FFF776FF7B
:204BE00008F101082468002CE3D14046BDE8F0818046FAE79C1300202DE9F0410546144847
:204C00000E46174609F03EFB0446F0B14FF0000801E02468B4B104F12C002946102214F0E7
:204C20009BF90028F5D1A38FB342F2D1B4F84830BB42EED12046FFF749FF246808F10108F6
:204C4000002CE8D14046BDE8F0818046FAE700BF9C13002010B5084809F014FB044630B156
:204C60002146064809F0A8FB2468002CF8D10248BDE8104009F002BB9C130020B40A0020C0
:204C80002DE9F0414468DEB0074620460E4614F023FB0546214602A8272214F095FB262DDE
:204CA00007DC36B102AB31465819C5F1270214F08BFB002423460CA8012145228DF82F406E
:204CC000FEF786FE23460122214635A8FEF780FE02A935A8FFF70CFB02A814F0FDFA0546A3
:204CE0002F4809F0CFFA044660B955E0854206DA3B7A6219DB0602D513792F2B08D024680A
:204D0000002C49D0261D304614F0E6FAA842EDD1314602A82A4614F00DFB06460028EED139
:204D2000FEF74EFEA28F04F12C01FFF713FE4023804600F174020028E1D0818835A8A4F8ED
:204D40004810B8F80410D7F810C0ADF8381000960CA9E0479DF93630002B09DBE16C0CA82D
:204D60004B1CE364FFF71AFBE36C23F07F43E36494F83E2004F13F010CA8FFF745FA08F10E
:204D800036010CA8FEF732FEA8F834004046FFF71BFE2468002CB5D15EB0BDE8F08100BF79
:204DA0009C1300200021FFF76BBF00BF0B468979012900D0704792F906100029FADBD97C2C
:204DC0004906F7D5596E69B10129F3D1304A3149127801F108002832895A03F10B029B7A1E
:204DE000FFF7A6BE2DE9F04F1446294A2A481278D3F860B02832175A81B039465A4608300D
:204E0000DE6D03F10B0993F80A80FFF7C7FE234809F0B4FAB246054678B3262EC4BF2726CB
:204E2000B24659463246043014F0C8F84FF0000BAA441B4B8AF804B005F12C060FCB86E827
:204E40000F0042464946AF8785F83E8005F13F0014F0B4F82946A5F848B0124809F014FA71
:204E6000E96C20464B1CEB64FFF798FAEB6C23F07F43EB6401B0BDE8F08F20460A49A3236A
:204E80001022A37101B0BDE8F04FFFF7EDBA00BF0A3A0020F8430020F8430020B40A0020E3
:204EA000004400209C13002030B301002DE9F04F83B0019100921F46DDF8308000F0D2F98A
:204EC00009F0E0F9002800F0BC803B46D8F800B000252C465E4607469A46B44208D35545D8
:204EE00012D24FF03C02009B5A55D8F800600135631CB34208D3554506D24FF02F02009BD5
:204F00005A55D8F800600135D7F804B00234584614F0E2F900EB0409B14553D805D35545BB
:204F200003D2009A3E2353550135FE6809F10104BEB13378ABB1D8F800B05C4508D3554552
:204F400006D2009A3B235355FE68D8F800B00135304614F0C1F909F1020900EB09045C45EB
:204F60000FD8554504D9D8F80030621B9A425AD83F68002F3CD0BCB9D8F80060B442B7D341
:204F8000ADE7009AC9EB0B030AF101015019002BACBFF318331C491B2D4A04F015FC0544A2
:204FA000554540D83F681FB3D8F80060A64207D8554505D2009A2C235355D8F80060013567
:204FC00001348AE7009A331B0AF101015019002BACBF5B440BF10003491B1D4A04F0F4FBFB
:204FE0000544554504D2D8F80030994599D29CE75346BA461F46CDB954B9BAF1000F20D0F1
:20500000D8F800301F44C8F8007003B0BDE8F08F019C82212046FFF7F1F820460D490F22B4
:20502000FFF722FAE9E75346BA461F46019C00992A462046FFF718FA20462821FFF7FCF8E3
:20504000DBE74FF0FF33C8F8003003B0BDE8F08F24980100E8B2010070B502880546C02A1A
:2050600015D0D02A0DD01AB100230380032070BD1F4B8521186808F013FEC0232B8001206B
:2050800070BD88291BD0D0232B80012070BD852901D0012070BD174809F0F4F8044618B92F
:2050A000F1E72468002CEED0E369002BF9D0A1680029F6D004F10C0008F0ACFBF1E70D489D
:2050C00009F0E0F8044618B9DDE72468002CDAD0A368002BF9D004F10C06304608F0B8FB97
:2050E0000028F2D0E3699847304608F09DFBECE7F0240020A01300202DE9F04F87B006AD7C
:205100000024384E45F8044D0291F4682946924699468046A0470546334809F0B3F80446E1
:20512000002834D0DDF814B009E006DD217ACB0603D51BF800102F2908D024683CB36768FD
:20514000384614F0C9F885420246EED13846594614F0F0F80028F0D10390326940469047C1
:2051600010F0010F039B1CD1850728D5656935B3109B5246009340464B460299A847237A41
:205180005B0612D40123184607B0BDE8F08F73690298D6F8881098470023184607B0BDE8D3
:2051A000F08F2569002DE3D1DEE7336E20464146029A98470123184607B0BDE8F08F41078E
:2051C00002D5A569002DD3D1020702D5E569002DCED102987269D6F88C1003939047039B35
:2051E000DBE700BFB8B10100A413002038B50A4B1C7804B138BD094D012209481A7009F020
:205200003DF8AB68074898476B6898472146BDE83840054808F07CBDE7390020B8B10100BA
:20522000A4130020F9500000E40A002010B504460A486160214609F027F894F90830002BAF
:2052400000DB10BD216ACB69002BFAD08B68002BF7D0BDE81040024809F016B8A413002030
:20526000A013002000487047A41300202DE9F041A2B0074608F0F0F93E4D0DF1440801AE3A
:205280000024204608F0C4F955F8043F0134C31A102C48F8040F46F8043F2860F1D101F0E2
:2052A00059FF354E354934684D780B780246009501943946324804F061FA12AC17AD54F829
:2052C000041B304804F05AFAAC42F8D102AC07AD54F8041B2B4804F051FAAC42F8D12A4890
:2052E00002F010F9294804F049FA294D002455F824102848013404F041FA202CF7D122489E
:2053000002F000F9244804F039FA002404F1200355F8231001341F4804F030FA202CF5D187
:20532000194802F0EFF81D4804F028FA1C4D002455F824101748013404F020FA202CF7D1F4
:20534000114802F0DFF8174804F018FA002404F1200355F8231001340E4804F00FFA202C36
:20536000F5D1094802F0CEF833680133336022B0BDE8F081A4130020E81300203C4800207E
:2053800058B301006CB3010060BD010074B30100344100207CB3010084B301008CB301005E
:2053A0003440002094B3010010B50388044653B1782B04D10F4808F04BFA50B910BD00236E
:2053C0000380032010BD92B111680A4808F022FA05E0084808F028FA0748FFF747FF7823C3
:2053E0002380044808F034FA0028E7D0F1E70280022010BDEC13002060BD010000B583B04B
:2054000002A941F8040D034808F082FC03B05DF804FB00BFF40A0020F0B5002706463C4658
:205420003D4683B0304600F0DFFA0195019B9C4206DD00BF019B01330193019B9C42F8DC13
:20544000304600F0D9FA0195019BC4F5C874A34206DA00BF019B01330193019BA342F8DBB0
:205460000137B7F5487F06D0B7F5C87FCCBFC7F548743C46D6E703B0F0BD00BF78B110B569
:205480000446094821460EF04DFB08B1002010BD064821460EF046FB18B1FF2010BD002055
:2054A0007047E07910BD00BF4CB9010044B90100FF2830B402460AD0074C084923462546A7
:2054C0000868496803C32846E27130BC7047044D284630BC704700BFFC1300203C4800208D
:2054E00044B901002DE9F041814C84B02368814801215B689847236801210A461B687D4809
:2055000098477D4C0DF08CFE02F0CAFF02F03CFF02A8082102F026F802AB03CB20606160D5
:205520002046FFF7ABFF754E80B2308020B9A279E37903EB0223338000F0C2FE01F038FBD6
:2055400002F05EFF00F046FA6D496E4A01256E4B0D60284615601B68FFF75EFF0DF064FEFA
:2055600001F086FE01F0AAFD08F0FEFB01F08EFF08F022FB41F2342003F09AFF02F0DAFDBE
:2055800008F0D8FC614801F0BDFF4BF2016200215F4804F0F3F85F4801F0B4FF0DF0B0FEAC
:2055A00000FA05F15C4804F0E9F85C4B5C48196804F0E4F85B4B5C48196804F0DFF85B48AD
:2055C000002108F0A5FB08F0C5F908F01BFC08F007F8574B1B682BB901F048FE554A564BD6
:2055E00010601D700220FFF717FF544804F0C6F8534B544D186801F085FF534804F0BEF8B9
:20560000524B186801F07EFF514804F0B7F82968504804F0B3F8ED69A84720B1A8470146AF
:205620004D4804F0ABF80A2001F064FF002302A808214A4D019301F095FF9DF80F30484AB4
:205640009DF80E80EF6A43EA0828517C0220B84741460320B84719210120B84708226B6B80
:2056600002A90B209847AB6A01A90120984701993C4804F083F83C4804F080F83B4DEF1DA5
:2056800015F8011F3A4804F079F8BD42F8D1E179384804F073F83188374804F06FF80EF064
:2056A0001FFA364B626821685A6019600DF034FE0021334808F02CFB0220FFF7ADFE0021FC
:2056C000304808F025FB304807F07EFF01F0ECFE0120FFF7A1FE01F099FA08F08BFA044672
:2056E00001F0FAFE14F0FF0FF7D102F039FEF4E7D8010010004003403C480020C2390020B8
:205700000C400940080009402C200940B4B30100D8B30100F0B3010000B401001021084048
:2057200018B401000400094030B40100340C0020E0220020344200202440002048B40100D1
:205740002CC0010034C1010050B40100CCBF010058B401002498010060B4010024B701001A
:2057600088FF010084B4010098B401003B480020ACB40100B4B40100BCB40100F0430020EA
:20578000B00C0020040B0020A89501002DE9F04104880646772C30D07E2C27D024B1002365
:2057A00003800320BDE8F08108F0FEF92F4F304B304D3A6818702C60002A45D02346A04684
:2057C0002D4C04F8038093688020002198472B68013357F823202B60002AF2D1DBB2274A67
:2057E0001370772333800120BDE8F081204B1B788B4219D00120BDE8F081DFF880801D4D76
:2058000098F800201E4F002393423B602B6007DA194CE156002919DB013393422B60F7DB4D
:205820003B68002BEFD1DCE7124D134CDFF84C80134F2B683A68E05C511C00F07F0098F877
:205840000020E0543960E7E71346C8E70849074A097852F82320002008F022FA0028E8D1C0
:205860007E2333800120BDE8F08100BF140B00206C48002004140020343A0020E8390020C4
:205880000814002010B40F4B1C7864B10E4A1368984214D0002303E052F8041F88420CD05B
:2058A0000133A342F8D1094A0948135D63F07F0313555DF8044B08F04BBA1C46F3E70024B4
:2058C000F1E700BFE8390020140B0020343A0020040B0020F8B53A4D2C7828704440A10758
:2058E00014D500F0020000F0FF07002835D0354B1A68002A5CD01B68002B50D0E2072B78F8
:2059000007D41846BDE8F84000F09AB80346E207F7D513F001060CD02A4A1268002AF0D172
:2059200001F0A4FC284C294A01212B78A0639173E7E7264CA27B002AE3D001F097FC2449F8
:20594000214B8A6B9F6B2B78D21B10448863A6731846BDE8F84000F073B81C4E337B7BB952
:20596000737B1A4E002BC9D001F080FC184A1649536B4F6B0021DB1B184450637173BDE7B9
:2059800001F074FC124A1049136B096B37735B1A184410632B789B07E2D50A4BABE701F03D
:2059A00065FC0A4B084901225A7348632B78AEE701F05CFC054E044A012310633373E9E716
:2059C000E9390020E02200203442002024400020E03F002008B500F017F8024B00221A7055
:2059E00008BD00BFE9390020024B1B781843FFF771BF00BFE9390020024B1B7823EA000092
:205A0000FFF768BFE93900200A4B1A6802B1704710B50122084C1A6023680420DB6B98475C
:205A200023680720DB6B9847044A136823F09003136010BD0C140020B401001080200240F9
:205A4000084B094A1870136823F090031360C20702D5064B01221A70830702D5044B012213
:205A60001A707047EA390020802002400420024007200240813801289ABF024B18680020C9
:205A8000704700BF5014002038B50B4CA37953B101F0ECFB094A0A4993698D6900215B1BA1
:205AA00018449061A171074B03221A600648BDE83840FFF7E7BE00BF24400020E03F00200E
:205AC0003442002050140020DCB4010030B5044683B07721002000F085FF6CB1154B1B688D
:205AE0008BB125238DF807300DF107010122F4200FF016F903B030BD0F4DAB795BB90023C4
:205B00008DF80730F0E701F0B1FB0C490A4B012288619A71E5E701F0A9FB094A0749936994
:205B20008969AC715B1A1844002390618DF80730DAE700BFE02200202440002034420020F9
:205B4000E03F002030B5802885B016D0812810D11D4C206878B151B30120FFF7B7FF1B4886
:205B600003211B4A002307F02FFF0220206005B030BD154B186805B030BD134C01250020E9
:205B80007721256000F02EFF1249182288200FF0B9F804A9B62301F8013D2A46E0200FF0B2
:205BA000BFF80020FFF792FF206805B030BD0748019107F04DFF01990846FFF787FF0123B1
:205BC0001846236005B030BD5014002030140020895A000018140020F8B5534B1B68032B2F
:205BE00040F09A80431E012B00F296804F4C00237721054623601846A38000F0F3FE2146D9
:205C0000F72006220FF07EF800287ED0E178484A23796079090341EA0311168841EA1013C3
:205C2000C6EB131101FB01F1B2F9047076000913B2F90200C6EBD30307FB01F100FB03F0DA
:205C4000891301EBE0204710A7F57A4E4FEAAE0606FB06F6B2F90810B2F90A70731301FBAD
:205C60000EF103FB07F3B2F90E70491007FB0EF701EBE303B2F806C09B14B2F910E003F520
:205C80000043F61279000CFB03F30EFB061726786178B2F90CE094F802C036034FEA0E44FD
:205CA00046EA0111DB13906104EBA70741EA1C1127D040F635444942A1EB273104FB01F1C8
:205CC00001F1434101F5A0010029B3BFB1FBF3F34900B1FBF3F35B00D90801FB01F1B2F9DA
:205CE0001440B2F916609F08490B04FB07F401FB06F1B2F91260621302EB2131314403EB13
:205D00002113012D0BD01846F8BD204606210FF023F84FF00040F8BD4FF00040F8BD00EB39
:205D2000800080300012F8BD501400201014002018140020014B1868704700BF741400206E
:205D4000F0B506461E4C83B000204521256800F049FE86B11B4B1B68C3B141F2C2020123BC
:205D6000ADF8062023600DF10601022201200EF0D7FF03B0F0BD144FFB797BB905F0020550
:205D80004FF486532560ADF80630ECE701F06EFA0E490D4B0122C861DA71DEE701F066FAFF
:205DA0000B4A0A49D369C96905F002055B1A18444FF48653FE71D0612560ADF80630D2E72B
:205DC00074140020E02200202440002034420020E03F002030B5002083B0452100F002FE12
:205DE00001200DF1060102220EF08CFFBDF90630002B07DB0E4810210E4A002307F0E4FDFD
:205E000003B030BD0C4CE37953B101F02FFA0B4A0B49D369CD6900215B1B1844D061E1717F
:205E20000848FFF72FFD084B02221A6003B030BD54140020D55D000024400020E03F0020E2
:205E400034420020F4B4010074140020802810B50DD0812809D10C4671B90D4807F0F8FDD1
:205E60002046FFF76DFF204610BD002010BD0020FFF766FF002010BD0120FFF761FF04480F
:205E80001021044A002307F09FFD012010BD00BF54140020D55D0000813801289ABF024BDE
:205EA00018680020704700BF9814002038B51A4C637953B101F0DAF9184A194953694D69D3
:205EC00000215B1B184450616171164C164A237803211160B3B1154D0020432100F082FDA1
:205EE0002846042100F0EEFB20700020014600F079FD29886A880E480E4D49BA52BA2378DB
:205F0000298002800C4901220B7022700B48BDE83840FFF7B7BC00BF24400020E03F002076
:205F200034420020EC390020981400209C140020C6390020C4390020EB39002004B50100B0
:205F400070B5802884B016D0812810D1314C206878B100292DD1304D6B79002B44D12F4863
:205F600007F076FD01231846236004B070BD294B186804B070BD2A4B00242A4A2A4D204612
:205F80001C60432114802C8000F02CFD04A91023022021F8023D02460EF0C2FE234B214693
:205FA0001870204600F01EFD1A4B0120186004B070BD1E4D2B7873B11D4B1B680BB34321CA
:205FC000002000F00FFD002000F03CFB28700020014600F007FD11480321164A002307F074
:205FE000F3FC02202060C4E7019101F03FF9124E124A7669536901999B1B1844697150611C
:20600000ADE701F033F90C49034B012248615A71D5E700BF9814002024400020781400201E
:206020009C140020C6390020C4390020EC390020E0220020AD5E000034420020E03F00200D
:206040008138012801D90020704708B5034B17201B685B689847C0F3804008BDB401001049
:2060600028B1012806BF054BD86800207047044B1868C0F3C05080F001007047A014002064
:20608000C0200240802810B509D0812805D1D1B9174B17201B685B6B9847012010BD144B81
:2060A000144A1B684FF4000111601B6817200021114A9847114B00221A601720104902F0BB
:2060C00089F9012010BD0A4C0A4A23684FF4000111601B6817200021074A9847074A23687F
:2060E000002111601B6B17209847012010BD00BFB4010010E0200240004007205C1A44425B
:2061000005610000172800D0704738B50E4C204607F06AFE00B938BD2046042107F050FEC9
:206120000A4B1D68C5F3C0554DB101F013F8A368C31AE3600648BDE83840FFF7A3BB01F0E3
:2061400009F8E560A06038BDA0140020C020024024B501008138012801D90020704708B5E4
:20616000034B18201B685B689847C0F3804008BDB4010010802810B509D0812805D1D1B928
:20618000174B18201B685B6B9847012010BD144B144A1B684FF0807111601B681820002192
:2061A000114A9847114B00221A601820104902F011F9012010BD0A4C0A4A23684FF08071CD
:2061C00011601B6818200021074A9847074A2368002111601B6B18209847012010BD00BF8A
:2061E000B4010010E020024000600620601A44422562000068B1012809D110B5074B1C68D4
:2062000000F0A8FF8034201AC043C00F10BD00207047034B1868C0F300607047B014002007
:20622000C0200240182800D0704708B500F092FF084B1860084807F0D7FD00B908BD064885
:206240004FF4007107F0BCFDBDE808400348FFF719BB00BFB0140020B414002038B501005F
:2062600010B5064C042023685B699847236804205B6B98470128F9D110BD00BFB801001019
:20628000FFF7EEBF032801D000F0F2B808B5094B00219B6881209847074B00219B688120F9
:2062A0009847064B81209B6800219847BDE8084000F0DEB8DCB40100F4B4010004B50100A3
:2062C000F8B50CF0ADFF2F4B2F4C1B88064613F1FF3318BF01232370FFF7C2FF2B4B4FF451
:2062E000A0601B68DB699847294B0121294A196013689B07FCD500F08DF82378002B3DD040
:20630000254802F035F8247814B1002E32D0F8BD224D14202B680127DB6B9847204A2B682B
:206320001470DB6B132098471E4A2B681470DB6B122098471C4A2B681470DB6B0E209847DB
:206340001A4A2B681770DB6B0D209847184A2B681470DB6B0F209847164A2B6814703846AB
:20636000DB6B9847144A2B6814709B6B18209847002ECCD1BDE8F8400CF056BF0EF0CCFFE4
:20638000BEE700BFC23900206D480020B80100102820086028200840340B0020B40100107C
:2063A0001420024013200240122002400E2002400D2002400F2002400120024010B5094BB2
:2063C00009481B685B68984710F00C0F044605D0064B04221A6002200CF02AFFB4FA84F0B3
:2063E000400910BDAC010010002000400428004008B5064B02201B685B6B9847012803BFBB
:20640000034B186800F00100002008BDB80100106020084070B5104D02202B685B6998476D
:206420002B6802205B6B9847012804460A4BF7D11B684FF44070DB699847084B084A1C60B8
:2064400013689B07FCD5074B07481B6807491B680122BDE870401847B80100102820086007
:2064600028200840AC01001000200040006CDC02174B10B5FF221A70FFF7BAFF20B1154975
:20648000154A00230B601360144B4FF440701B681B6A9847124B0121124A196013689B07F2
:2064A000FCD5114C052023689B6B984723684FF4804105209B699847236806209B6B9847EC
:2064C000236806209B694FF48041BDE8104018478E0D00200428004010040542B801001064
:2064E0002820086028200840B40100102DE9F04706464F4B4F481B784F4A5B000360337838
:206500000F46136000F0B2FE4C4B1A6854060ED51C464B4D2D1A00F0A9FEC54202D40020E8
:20652000BDE8F08700F0D8FF23685906F3D4434C0323236002200CF07BFE00F097FE2368E8
:20654000DB070AD53E4D2D1A00F090FEC542E6D500F0C2FF2368DA07F6D4FFF72FFF012F2D
:20656000034635D90028DAD0334DDFF8D0900136022407F1FF3816F8012B631E43452A60E2
:2065800003D3A74226D90134F5E70123C9F8003002200CF04DFE00F069FED9F80030DB0774
:2065A0000ED5DFF89CA0C0EB0A0A00F05FFE1AEB000FB4D500F090FFD9F80030D807F4D415
:2065C000FFF7FCFEA742034602D90028DBD1A6E7002BA4D0194C0523236002200CF028FE6A
:2065E00000F044FE00F5CC5519352368D90707D500F03CFE401B002891DA00F06DFFF4E76F
:20660000FFF7DCFE044600F031FE0C4E00F5CC55193533685A0602D42046BDE8F08700F040
:2066200025FE401B0028BFF67AAF00F055FFF0E7ED39002000280040082800400428004031
:2066400067E6FFFF38B51A4B1A4A1B781A495B000B60106000F00AFE184B1A6854060DD5F4
:206660001C46174D2D1A00F001FEC54201D4002038BD00F031FF23685906F4D40F4C0723D6
:20668000236002200CF0D4FD00F0F0FD2368DB070AD50B4D2D1A00F0E9FDC542E7D500F037
:2066A0001BFF2368DA07F6D4BDE83840FFF786BEED390020082800400028004004280040A9
:2066C00067E6FFFF2DE9F047444B454A1B7806465B0043F0010313600F4600F0C7FD414B8B
:2066E0001A6852060ED51C463F4D2D1A00F0BEFDC54202D40020BDE8F08700F0EDFE23687E
:206700005B06F3D4374B0B221A6002201C460CF08FFDDFF8D8A007F1FF3901254FF0000830
:20672000C14524DD002DE5D000F0A0FD2368DD070AD52D4D2D1A00F099FDC542DAD500F0A8
:20674000CBFE2368D807F6D4FFF738FE05460028E6D0DAF80020092306F8082002202360FE
:2067600008F101080CF064FD5FFA88F8D8E7002DC0D000F07BFD1B4B1A68D1070BD51C46FB
:20678000194D2D1A00F072FDC542B3D500F0A4FE2368DA07F6D4FFF711FE0028AAD0134B91
:2067A000104C1A683E44052306F8012C022023600CF03EFD00F05AFD00F5CC551935236814
:2067C0005B0602D40120BDE8F08700F04FFD401B00288FDA00F080FEF1E700BFED390020D2
:2067E000002800400428004067E6FFFF082800402DE9F04F8146764D764E2878764C4000C5
:20680000306099F8000083B02060174698460E4600F02CFD714B1A68540612D51C46DFF844
:20682000C0A1C0EB0A0A00F021FD1AEB000F03D4002003B0BDE8F08F00F04EFE2368580623
:20684000F1D4664C0323236002200CF0F1FC00F00DFD2368DB070DD5DFF884A1C0EB0A0A09
:2068600000F004FD1AEB000FE2D500F035FE2368D907F5D4FFF7A2FD012E034638D90028BF
:20688000D6D0DFF854B109F1010406F1FF3A4FF0020914F8012B09F1FF339A45CBF80020D7
:2068A00004D8B14526D209F10109F2E74B4A0123136002200CF0BCFC00F0D8FC474B1B6856
:2068C000DA070DD5464B1B1A019300F0CFFC019BC342ADD500F000FE404B1B68DB07F4D417
:2068E000FFF76CFDB145034602D20028DBD19FE7002B9DD02B7837495B00384C43F00103FB
:206900000B220B60022022600CF092FCDFF8C8900125002608F1FF3A564521D2002D87D0F2
